{"contracts/LaunchCampaign.sol":{"LaunchCampaign":{"abi":[{"inputs":[{"components":[{"internalType":"string","name":"name","type":"string"},{"internalType":"string","name":"symbol","type":"string"},{"internalType":"string","name":"logoURI","type":"string"},{"internalType":"string","name":"xAccount","type":"string"},{"internalType":"string","name":"website","type":"string"},{"internalType":"string","name":"extraLink","type":"string"},{"internalType":"uint256","name":"totalSupply","type":"uint256"},{"internalType":"uint256","name":"curveBps","type":"uint256"},{"internalType":"uint256","name":"liquidityTokenBps","type":"uint256"},{"internalType":"uint256","name":"basePrice","type":"uint256"},{"internalType":"uint256","name":"priceSlope","type":"uint256"},{"internalType":"uint256","name":"graduationTarget","type":"uint256"},{"internalType":"uint256","name":"liquidityBps","type":"uint256"},{"internalType":"uint256","name":"protocolFeeBps","type":"uint256"},{"internalType":"address","name":"router","type":"address"},{"internalType":"address","name":"lpReceiver","type":"address"},{"internalType":"address","name":"feeRecipient","type":"address"},{"internalType":"address","name":"creator","type":"address"},{"internalType":"address","name":"factory","type":"address"}],"internalType":"struct LaunchCampaign.InitParams","name":"params","type":"tuple"}],"stateMutability":"nonpayable","type":"constructor"},{"inputs":[{"internalType":"address","name":"owner","type":"address"}],"name":"OwnableInvalidOwner","type":"error"},{"inputs":[{"internalType":"address","name":"account","type":"address"}],"name":"OwnableUnauthorizedAccount","type":"error"},{"inputs":[],"name":"ReentrancyGuardReentrantCall","type":"error"},{"inputs":[{"internalType":"address","name":"token","type":"address"}],"name":"SafeERC20FailedOperation","type":"error"},{"anonymous":false,"inputs":[{"indexed":true,"internalType":"address","name":"caller","type":"address"},{"indexed":false,"internalType":"uint256","name":"liquidityTokens","type":"uint256"},{"indexed":false,"internalType":"uint256","name":"liquidityBnb","type":"uint256"},{"indexed":false,"internalType":"uint256","name":"protocolFee","type":"uint256"},{"indexed":false,"internalType":"uint256","name":"creatorPayout","type":"uint256"}],"name":"CampaignFinalized","type":"event"},{"anonymous":false,"inputs":[{"indexed":true,"internalType":"address","name":"previousOwner","type":"address"},{"indexed":true,"internalType":"address","name":"newOwner","type":"address"}],"name":"OwnershipTransferred","type":"event"},{"anonymous":false,"inputs":[{"indexed":true,"internalType":"address","name":"buyer","type":"address"},{"indexed":false,"internalType":"uint256","name":"amountOut","type":"uint256"},{"indexed":false,"internalType":"uint256","name":"cost","type":"uint256"}],"name":"TokensPurchased","type":"event"},{"anonymous":false,"inputs":[{"indexed":true,"internalType":"address","name":"seller","type":"address"},{"indexed":false,"internalType":"uint256","name":"amountIn","type":"uint256"},{"indexed":false,"internalType":"uint256","name":"payout","type":"uint256"}],"name":"TokensSold","type":"event"},{"inputs":[],"name":"basePrice","outputs":[{"internalType":"uint256","name":"","type":"uint256"}],"stateMutability":"view","type":"function"},{"inputs":[{"internalType":"uint256","name":"amountOut","type":"uint256"},{"internalType":"uint256","name":"maxCost","type":"uint256"}],"name":"buyExactTokens","outputs":[{"internalType":"uint256","name":"cost","type":"uint256"}],"stateMutability":"payable","type":"function"},{"inputs":[],"name":"creatorReserve","outputs":[{"internalType":"uint256","name":"","type":"uint256"}],"stateMutability":"view","type":"function"},{"inputs":[],"name":"currentPrice","outputs":[{"internalType":"uint256","name":"","type":"uint256"}],"stateMutability":"view","type":"function"},{"inputs":[],"name":"curveSupply","outputs":[{"internalType":"uint256","name":"","type":"uint256"}],"stateMutability":"view","type":"function"},{"inputs":[],"name":"extraLink","outputs":[{"internalType":"string","name":"","type":"string"}],"stateMutability":"view","type":"function"},{"inputs":[],"name":"factory","outputs":[{"internalType":"address","name":"","type":"address"}],"stateMutability":"view","type":"function"},{"inputs":[],"name":"feeRecipient","outputs":[{"internalType":"address","name":"","type":"address"}],"stateMutability":"view","type":"function"},{"inputs":[{"internalType":"uint256","name":"minTokens","type":"uint256"},{"internalType":"uint256","name":"minBnb","type":"uint256"}],"name":"finalize","outputs":[{"internalType":"uint256","name":"usedTokens","type":"uint256"},{"internalType":"uint256","name":"usedBnb","type":"uint256"}],"stateMutability":"nonpayable","type":"function"},{"inputs":[],"name":"finalizedAt","outputs":[{"internalType":"uint256","name":"","type":"uint256"}],"stateMutability":"view","type":"function"},{"inputs":[],"name":"graduationTarget","outputs":[{"internalType":"uint256","name":"","type":"uint256"}],"stateMutability":"view","type":"function"},{"inputs":[],"name":"launched","outputs":[{"internalType":"bool","name":"","type":"bool"}],"stateMutability":"view","type":"function"},{"inputs":[],"name":"liquidityBps","outputs":[{"internalType":"uint256","name":"","type":"uint256"}],"stateMutability":"view","type":"function"},{"inputs":[],"name":"liquiditySupply","outputs":[{"internalType":"uint256","name":"","type":"uint256"}],"stateMutability":"view","type":"function"},{"inputs":[],"name":"logoURI","outputs":[{"internalType":"string","name":"","type":"string"}],"stateMutability":"view","type":"function"},{"inputs":[],"name":"lpReceiver","outputs":[{"internalType":"address","name":"","type":"address"}],"stateMutability":"view","type":"function"},{"inputs":[],"name":"owner","outputs":[{"internalType":"address","name":"","type":"address"}],"stateMutability":"view","type":"function"},{"inputs":[],"name":"priceSlope","outputs":[{"internalType":"uint256","name":"","type":"uint256"}],"stateMutability":"view","type":"function"},{"inputs":[],"name":"protocolFeeBps","outputs":[{"internalType":"uint256","name":"","type":"uint256"}],"stateMutability":"view","type":"function"},{"inputs":[{"internalType":"uint256","name":"amountOut","type":"uint256"}],"name":"quoteBuyExactTokens","outputs":[{"internalType":"uint256","name":"","type":"uint256"}],"stateMutability":"view","type":"function"},{"inputs":[{"internalType":"uint256","name":"amountIn","type":"uint256"}],"name":"quoteSellExactTokens","outputs":[{"internalType":"uint256","name":"","type":"uint256"}],"stateMutability":"view","type":"function"},{"inputs":[],"name":"renounceOwnership","outputs":[],"stateMutability":"nonpayable","type":"function"},{"inputs":[],"name":"router","outputs":[{"internalType":"contract IPancakeRouter02","name":"","type":"address"}],"stateMutability":"view","type":"function"},{"inputs":[{"internalType":"uint256","name":"amountIn","type":"uint256"},{"internalType":"uint256","name":"minPayout","type":"uint256"}],"name":"sellExactTokens","outputs":[{"internalType":"uint256","name":"payout","type":"uint256"}],"stateMutability":"nonpayable","type":"function"},{"inputs":[],"name":"sold","outputs":[{"internalType":"uint256","name":"","type":"uint256"}],"stateMutability":"view","type":"function"},{"inputs":[],"name":"token","outputs":[{"internalType":"contract LaunchToken","name":"","type":"address"}],"stateMutability":"view","type":"function"},{"inputs":[],"name":"totalSupply","outputs":[{"internalType":"uint256","name":"","type":"uint256"}],"stateMutability":"view","type":"function"},{"inputs":[{"internalType":"address","name":"newOwner","type":"address"}],"name":"transferOwnership","outputs":[],"stateMutability":"nonpayable","type":"function"},{"inputs":[],"name":"website","outputs":[{"internalType":"string","name":"","type":"string"}],"stateMutability":"view","type":"function"},{"inputs":[],"name":"xAccount","outputs":[{"internalType":"string","name":"","type":"string"}],"stateMutability":"view","type":"function"},{"stateMutability":"payable","type":"receive"}],"evm":{"bytecode":{"linkReferences":{},"object":"6102606040523480156200001257600080fd5b50604051620035613803806200356183398101604081905262000035916200073b565b61022081015160016000556001600160a01b0381166200007057604051631e4fbdf760e01b8152600060048201526024015b60405180910390fd5b6200007b81620005c5565b5060008160c0015111620000c35760405162461bcd60e51b815260206004820152600e60248201526d696e76616c696420737570706c7960901b604482015260640162000067565b60008160e00151118015620000dd57506127108160e00151105b620001175760405162461bcd60e51b815260206004820152600960248201526863757276652062707360b81b604482015260640162000067565b6127108161010001518260e001516200013191906200094f565b1115620001745760405162461bcd60e51b815260206004820152601060248201526f706f7274696f6e206f766572666c6f7760801b604482015260640162000067565b600081610120015111620001b85760405162461bcd60e51b815260206004820152600a6024820152697072696365207a65726f60b01b604482015260640162000067565b600081610140015111620001fc5760405162461bcd60e51b815260206004820152600a602482015269736c6f7065207a65726f60b01b604482015260640162000067565b6101c08101516001600160a01b0316620002475760405162461bcd60e51b815260206004820152600b60248201526a726f75746572207a65726f60a81b604482015260640162000067565b6102208101516001600160a01b0316620002935760405162461bcd60e51b815260206004820152600c60248201526b63726561746f72207a65726f60a01b604482015260640162000067565b6127108161018001511115620002dc5760405162461bcd60e51b815260206004820152600d60248201526c6c69717569646974792062707360981b604482015260640162000067565b612710816101a001511115620003245760405162461bcd60e51b815260206004820152600c60248201526b70726f746f636f6c2062707360a01b604482015260640162000067565b600081604001515111620003665760405162461bcd60e51b81526020600482015260086024820152676c6f676f2075726960c01b604482015260640162000067565b60408101516002906200037a9082620009fc565b5060608101516003906200038f9082620009fc565b506080810151600490620003a49082620009fc565b5060a0810151600590620003b99082620009fc565b506101208101516101409081528101516101609081528101516101809081528101516101a09081528101516101c0526102408101516001600160a01b0390811660e0526102008201518116610100526101e082015116156200042157806101e0015162000428565b8061022001515b6001600160a01b03908116610120526101c08201511660c0908152810180516101e05260e0820151905161271091620004619162000ac8565b6200046d919062000ae2565b6102005261010081015160c0820151612710916200048b9162000ac8565b62000497919062000ae2565b6102208190526102005160c0830151620004b2919062000b05565b620004be919062000b05565b6102405261022051620005055760405162461bcd60e51b815260206004820152600e60248201526d6c6971756964697479207a65726f60901b604482015260640162000067565b8051602082015160c08301516040513090620005219062000617565b62000530949392919062000b49565b604051809103906000f0801580156200054d573d6000803e3d6000fd5b506001600160a01b0316608081905260a081905260c08201516040516340c10f1960e01b815230600482015260248101919091526340c10f1990604401600060405180830381600087803b158015620005a557600080fd5b505af1158015620005ba573d6000803e3d6000fd5b505050505062000b94565b600180546001600160a01b038381166001600160a01b0319831681179093556040519116919082907f8be0079c531659141344cd1fd0a4f28419497f9722a3daafe3b4186f6b6457e090600090a35050565b610f38806200262983390190565b634e487b7160e01b600052604160045260246000fd5b60405161026081016001600160401b038111828210171562000661576200066162000625565b60405290565b60005b83811015620006845781810151838201526020016200066a565b50506000910152565b600082601f8301126200069f57600080fd5b81516001600160401b0380821115620006bc57620006bc62000625565b604051601f8301601f19908116603f01168101908282118183101715620006e757620006e762000625565b816040528381528660208588010111156200070157600080fd5b6200071484602083016020890162000667565b9695505050505050565b80516001600160a01b03811681146200073657600080fd5b919050565b6000602082840312156200074e57600080fd5b81516001600160401b03808211156200076657600080fd5b9083019061026082860312156200077c57600080fd5b620007866200063b565b8251828111156200079657600080fd5b620007a4878286016200068d565b825250602083015182811115620007ba57600080fd5b620007c8878286016200068d565b602083015250604083015182811115620007e157600080fd5b620007ef878286016200068d565b6040830152506060830151828111156200080857600080fd5b62000816878286016200068d565b6060830152506080830151828111156200082f57600080fd5b6200083d878286016200068d565b60808301525060a0830151828111156200085657600080fd5b62000864878286016200068d565b60a08301525060c0838101519082015260e08084015190820152610100808401519082015261012080840151908201526101408084015190820152610160808401519082015261018080840151908201526101a080840151908201526101c09150620008d28284016200071e565b828201526101e09150620008e88284016200071e565b828201526102009150620008fe8284016200071e565b828201526102209150620009148284016200071e565b8282015261024091506200092a8284016200071e565b91810191909152949350505050565b634e487b7160e01b600052601160045260246000fd5b8082018082111562000965576200096562000939565b92915050565b600181811c908216806200098057607f821691505b602082108103620009a157634e487b7160e01b600052602260045260246000fd5b50919050565b601f821115620009f7576000816000526020600020601f850160051c81016020861015620009d25750805b601f850160051c820191505b81811015620009f357828155600101620009de565b5050505b505050565b81516001600160401b0381111562000a185762000a1862000625565b62000a308162000a2984546200096b565b84620009a7565b602080601f83116001811462000a68576000841562000a4f5750858301515b600019600386901b1c1916600185901b178555620009f3565b600085815260208120601f198616915b8281101562000a995788860151825594840194600190910190840162000a78565b508582101562000ab85787850151600019600388901b60f8161c191681555b5050505050600190811b01905550565b808202811582820484141762000965576200096562000939565b60008262000b0057634e487b7160e01b600052601260045260246000fd5b500490565b8181038181111562000965576200096562000939565b6000815180845262000b3581602086016020860162000667565b601f01601f19169290920160200192915050565b60808152600062000b5e608083018762000b1b565b828103602084015262000b72818762000b1b565b604084019590955250506001600160a01b039190911660609091015292915050565b60805160a05160c05160e05161010051610120516101405161016051610180516101a0516101c0516101e05161020051610220516102405161192562000d04600039600081816103be01528181611009015261106f0152600081816103560152610d0101526000818161029801528181610b5701528181610c2d0152610f55015260006102180152600081816102cc015261109e0152600081816105d50152610cce0152600081816104cf0152610c580152600081816103f201528181610ab701526112de0152600081816105a101528181610aed01526112a501526000818161024c0152610dde01526000818161038a015281816110dc01526111110152600061056d01526000818161065301528181610d6301528181610d920152610ed001526000818161081b0152818161099401528181610d4101528181610eae01528181610f27015261104c01526000818161068701528181610dba01528181610fa2015261116601526119256000f3fe6080604052600436106101d15760003560e01c80638091f3bf116100f7578063c45a015511610095578063f20f3d9011610064578063f20f3d901461060c578063f2fde38b14610621578063f887ea4014610641578063fc0c546a1461067557600080fd5b8063c45a01551461055b578063c7876ea41461058f578063c9f62af2146105c3578063dd1a2a39146105f757600080fd5b8063a4b20f13116100d1578063a4b20f13146104bd578063af769545146104f1578063b6013cef14610511578063beb0a4161461054657600080fd5b80638091f3bf146104605780638da5cb5b1461048a5780639d1b464a146104a857600080fd5b80633794f6be1161016f57806354e42f7e1161013e57806354e42f7e146103e057806365161831146104145780636bb38b2814610427578063715018a61461044957600080fd5b80633794f6be14610324578063381562c214610344578063469048401461037857806354354629146103ac57600080fd5b80632138a4c0116101ab5780632138a4c01461028657806335659fb8146102ba578063365d57a4146102ee578063366ad2501461030457600080fd5b806302c7e7af146101dd57806318160ddd146102065780631f0c57fc1461023a57600080fd5b366101d857005b600080fd5b3480156101e957600080fd5b506101f360065481565b6040519081526020015b60405180910390f35b34801561021257600080fd5b506101f37f000000000000000000000000000000000000000000000000000000000000000081565b34801561024657600080fd5b5061026e7f000000000000000000000000000000000000000000000000000000000000000081565b6040516001600160a01b0390911681526020016101fd565b34801561029257600080fd5b506101f37f000000000000000000000000000000000000000000000000000000000000000081565b3480156102c657600080fd5b506101f37f000000000000000000000000000000000000000000000000000000000000000081565b3480156102fa57600080fd5b506101f360085481565b34801561031057600080fd5b506101f361031f366004611749565b6106a9565b34801561033057600080fd5b506101f361033f366004611762565b61075f565b34801561035057600080fd5b506101f37f000000000000000000000000000000000000000000000000000000000000000081565b34801561038457600080fd5b5061026e7f000000000000000000000000000000000000000000000000000000000000000081565b3480156103b857600080fd5b506101f37f000000000000000000000000000000000000000000000000000000000000000081565b3480156103ec57600080fd5b506101f37f000000000000000000000000000000000000000000000000000000000000000081565b6101f3610422366004611762565b610893565b34801561043357600080fd5b5061043c610a0e565b6040516101fd9190611784565b34801561045557600080fd5b5061045e610a9c565b005b34801561046c57600080fd5b5060075461047a9060ff1681565b60405190151581526020016101fd565b34801561049657600080fd5b506001546001600160a01b031661026e565b3480156104b457600080fd5b506101f3610ab0565b3480156104c957600080fd5b506101f37f000000000000000000000000000000000000000000000000000000000000000081565b3480156104fd57600080fd5b506101f361050c366004611749565b610b16565b34801561051d57600080fd5b5061053161052c366004611762565b610bd9565b604080519283526020830191909152016101fd565b34801561055257600080fd5b5061043c611237565b34801561056757600080fd5b5061026e7f000000000000000000000000000000000000000000000000000000000000000081565b34801561059b57600080fd5b506101f37f000000000000000000000000000000000000000000000000000000000000000081565b3480156105cf57600080fd5b506101f37f000000000000000000000000000000000000000000000000000000000000000081565b34801561060357600080fd5b5061043c611244565b34801561061857600080fd5b5061043c611251565b34801561062d57600080fd5b5061045e61063c3660046117d3565b61125e565b34801561064d57600080fd5b5061026e7f000000000000000000000000000000000000000000000000000000000000000081565b34801561068157600080fd5b5061026e7f000000000000000000000000000000000000000000000000000000000000000081565b60008082116106ed5760405162461bcd60e51b815260206004820152600b60248201526a1e995c9bc8185b5bdd5b9d60aa1b60448201526064015b60405180910390fd5b60065482111561072e5760405162461bcd60e51b815260206004820152600c60248201526b195e18d959591cc81cdbdb1960a21b60448201526064016106e4565b6107448260065461073f9190611812565b61129c565b61074f60065461129c565b6107599190611812565b92915050565b6000610769611336565b60075460ff16156107b05760405162461bcd60e51b815260206004820152601160248201527018d85b5c185a59db881b185d5b98da1959607a1b60448201526064016106e4565b6107b9836106a9565b9050818110156107f65760405162461bcd60e51b8152602060048201526008602482015267736c69707061676560c01b60448201526064016106e4565b82600660008282546108089190611812565b9091555061084390506001600160a01b037f000000000000000000000000000000000000000000000000000000000000000016333086611360565b61084d33826113cd565b604080518481526020810183905233917f2dcf9433d75db0d8b1c172641f85e319ffe4ad22e108a95d1847ceb906e5195d91015b60405180910390a26107596001600055565b600061089d611336565b60075460ff16156108e45760405162461bcd60e51b815260206004820152601160248201527018d85b5c185a59db881b185d5b98da1959607a1b60448201526064016106e4565b6108ed83610b16565b90508181111561092a5760405162461bcd60e51b8152602060048201526008602482015267736c69707061676560c01b60448201526064016106e4565b8034101561096f5760405162461bcd60e51b8152602060048201526012602482015271696e73756666696369656e742076616c756560701b60448201526064016106e4565b82600660008282546109819190611825565b909155506109bb90506001600160a01b037f0000000000000000000000000000000000000000000000000000000000000000163385611467565b803411156109d6576109d6336109d18334611812565b6113cd565b604080518481526020810183905233917f8fafebcaf9d154343dad25669bfa277f4fbacd7ac6b0c4fed522580e040a0f339101610881565b60028054610a1b90611838565b80601f0160208091040260200160405190810160405280929190818152602001828054610a4790611838565b8015610a945780601f10610a6957610100808354040283529160200191610a94565b820191906000526020600020905b815481529060010190602001808311610a7757829003601f168201915b505050505081565b610aa4611498565b610aae60006114c5565b565b6000610ae77f0000000000000000000000000000000000000000000000000000000000000000600654670de0b6b3a7640000611517565b610b11907f0000000000000000000000000000000000000000000000000000000000000000611825565b905090565b6000808211610b555760405162461bcd60e51b815260206004820152600b60248201526a1e995c9bc8185b5bdd5b9d60aa1b60448201526064016106e4565b7f000000000000000000000000000000000000000000000000000000000000000082600654610b849190611825565b1115610bbd5760405162461bcd60e51b81526020600482015260086024820152671cdbdb19081bdd5d60c21b60448201526064016106e4565b610bc860065461129c565b61074f8360065461073f9190611825565b600080610be4611498565b610bec611336565b60075460ff1615610c2b5760405162461bcd60e51b8152602060048201526009602482015268199a5b985b1a5e995960ba1b60448201526064016106e4565b7f00000000000000000000000000000000000000000000000000000000000000006006541480610c7b57507f00000000000000000000000000000000000000000000000000000000000000004710155b610cb35760405162461bcd60e51b81526020600482015260096024820152681d1a1c995cda1bdb1960ba1b60448201526064016106e4565b6007805460ff19166001179055426008556000612710610cf37f000000000000000000000000000000000000000000000000000000000000000047611872565b610cfd919061189f565b90507f00000000000000000000000000000000000000000000000000000000000000008015801590610d2f5750600082115b15610f4e57610d886001600160a01b037f0000000000000000000000000000000000000000000000000000000000000000167f0000000000000000000000000000000000000000000000000000000000000000836115cd565b6001600160a01b037f00000000000000000000000000000000000000000000000000000000000000001663f305d719837f0000000000000000000000000000000000000000000000000000000000000000848a8a7f0000000000000000000000000000000000000000000000000000000000000000610e0942610708611825565b60405160e089901b6001600160e01b03191681526001600160a01b039687166004820152602481019590955260448501939093526064840191909152909216608482015260a481019190915260c40160606040518083038185885af1158015610e76573d6000803e3d6000fd5b50505050506040513d601f19601f82011682018060405250810190610e9b91906118c1565b509094509250610ef66001600160a01b037f0000000000000000000000000000000000000000000000000000000000000000167f000000000000000000000000000000000000000000000000000000000000000060006115cd565b83811115610f4e57610f4e610f136001546001600160a01b031690565b610f1d8684611812565b6001600160a01b037f0000000000000000000000000000000000000000000000000000000000000000169190611467565b60006006547f0000000000000000000000000000000000000000000000000000000000000000610f7e9190611812565b9050801561100757604051632770a7eb60e21b8152306004820152602481018290527f00000000000000000000000000000000000000000000000000000000000000006001600160a01b031690639dc29fac90604401600060405180830381600087803b158015610fee57600080fd5b505af1158015611002573d6000803e3d6000fd5b505050505b7f000000000000000000000000000000000000000000000000000000000000000015611093576110936110426001546001600160a01b031690565b6001600160a01b037f000000000000000000000000000000000000000000000000000000000000000016907f0000000000000000000000000000000000000000000000000000000000000000611467565b4760006127106110c37f000000000000000000000000000000000000000000000000000000000000000084611872565b6110cd919061189f565b905060008111801561110757507f00000000000000000000000000000000000000000000000000000000000000006001600160a01b031615155b15611143576111367f0000000000000000000000000000000000000000000000000000000000000000826113cd565b6111408183611812565b91505b81156111645761116461115e6001546001600160a01b031690565b836113cd565b7f00000000000000000000000000000000000000000000000000000000000000006001600160a01b0316638a8c523c6040518163ffffffff1660e01b8152600401600060405180830381600087803b1580156111bf57600080fd5b505af11580156111d3573d6000803e3d6000fd5b5050604080518a8152602081018a9052908101849052606081018590523392507fd286a958d004cd376acc3762fff407f0dd9bf991995fc81a26ff88081f2b7d1b915060800160405180910390a250505050506112306001600055565b9250929050565b60048054610a1b90611838565b60058054610a1b90611838565b60038054610a1b90611838565b611266611498565b6001600160a01b03811661129057604051631e4fbdf760e01b8152600060048201526024016106e4565b611299816114c5565b50565b6000806112d2837f0000000000000000000000000000000000000000000000000000000000000000670de0b6b3a7640000611517565b905082800260006113217f000000000000000000000000000000000000000000000000000000000000000083670de0b6b3a7640000611312816002611872565b61131c9190611872565b611517565b905061132d8184611825565b95945050505050565b60026000540361135957604051633ee5aeb560e01b815260040160405180910390fd5b6002600055565b6040516001600160a01b0384811660248301528381166044830152606482018390526113c79186918216906323b872dd906084015b604051602081830303815290604052915060e01b6020820180516001600160e01b038381831617835250505050611659565b50505050565b6000826001600160a01b03168260405160006040518083038185875af1925050503d806000811461141a576040519150601f19603f3d011682016040523d82523d6000602084013e61141f565b606091505b50509050806114625760405162461bcd60e51b815260206004820152600f60248201526e1d1c985b9cd9995c8819985a5b1959608a1b60448201526064016106e4565b505050565b6040516001600160a01b0383811660248301526044820183905261146291859182169063a9059cbb90606401611395565b6001546001600160a01b03163314610aae5760405163118cdaa760e01b81523360048201526024016106e4565b600180546001600160a01b038381166001600160a01b0319831681179093556040519116919082907f8be0079c531659141344cd1fd0a4f28419497f9722a3daafe3b4186f6b6457e090600090a35050565b600080600061152686866116ca565b915091508160000361154b5783818161154157611541611889565b04925050506115c6565b8184116115625761156260038515026011186116e8565b6000848688096000868103871696879004966002600389028118808a02820302808a02820302808a02820302808a02820302808a02820302808a02909103029181900381900460010185841190960395909502919093039390930492909217029150505b9392505050565b604080516001600160a01b038416602482015260448082018490528251808303909101815260649091019091526020810180516001600160e01b031663095ea7b360e01b17905261161e84826116fa565b6113c7576040516001600160a01b0384811660248301526000604483015261165391869182169063095ea7b390606401611395565b6113c784825b600080602060008451602086016000885af18061167c576040513d6000823e3d81fd5b50506000513d915081156116945780600114156116a1565b6001600160a01b0384163b155b156113c757604051635274afe760e01b81526001600160a01b03851660048201526024016106e4565b60008060001983850993909202808410938190039390930393915050565b634e487b71600052806020526024601cfd5b6000806000806020600086516020880160008a5af192503d9150600051905082801561173f57508115611730578060011461173f565b6000866001600160a01b03163b115b9695505050505050565b60006020828403121561175b57600080fd5b5035919050565b6000806040838503121561177557600080fd5b50508035926020909101359150565b60006020808352835180602085015260005b818110156117b257858101830151858201604001528201611796565b506000604082860101526040601f19601f8301168501019250505092915050565b6000602082840312156117e557600080fd5b81356001600160a01b03811681146115c657600080fd5b634e487b7160e01b600052601160045260246000fd5b81810381811115610759576107596117fc565b80820180821115610759576107596117fc565b600181811c9082168061184c57607f821691505b60208210810361186c57634e487b7160e01b600052602260045260246000fd5b50919050565b8082028115828204841417610759576107596117fc565b634e487b7160e01b600052601260045260246000fd5b6000826118bc57634e487b7160e01b600052601260045260246000fd5b500490565b6000806000606084860312156118d657600080fd5b835192506020840151915060408401519050925092509256fea264697066735822122025a3a5045c876f8890acdfecb45072402fdb42b66197d834c3e56f270613161064736f6c6343000818003360a06040523480156200001157600080fd5b5060405162000f3838038062000f38833981016040819052620000349162000242565b808484600362000045838262000368565b50600462000054828262000368565b5050506001600160a01b0381166200008757604051631e4fbdf760e01b8152600060048201526024015b60405180910390fd5b620000928162000128565b5060008211620000d35760405162461bcd60e51b815260206004820152600b60248201526a636170206973207a65726f60a81b60448201526064016200007e565b6001600160a01b0381166200011b5760405162461bcd60e51b815260206004820152600d60248201526c6f776e6572206973207a65726f60981b60448201526064016200007e565b5060805250620004349050565b600580546001600160a01b038381166001600160a01b0319831681179093556040519116919082907f8be0079c531659141344cd1fd0a4f28419497f9722a3daafe3b4186f6b6457e090600090a35050565b634e487b7160e01b600052604160045260246000fd5b600082601f830112620001a257600080fd5b81516001600160401b0380821115620001bf57620001bf6200017a565b604051601f8301601f19908116603f01168101908282118183101715620001ea57620001ea6200017a565b81604052838152602092508660208588010111156200020857600080fd5b600091505b838210156200022c57858201830151818301840152908201906200020d565b6000602085830101528094505050505092915050565b600080600080608085870312156200025957600080fd5b84516001600160401b03808211156200027157600080fd5b6200027f8883890162000190565b955060208701519150808211156200029657600080fd5b50620002a58782880162000190565b60408701516060880151919550935090506001600160a01b0381168114620002cc57600080fd5b939692955090935050565b600181811c90821680620002ec57607f821691505b6020821081036200030d57634e487b7160e01b600052602260045260246000fd5b50919050565b601f82111562000363576000816000526020600020601f850160051c810160208610156200033e5750805b601f850160051c820191505b818110156200035f578281556001016200034a565b5050505b505050565b81516001600160401b038111156200038457620003846200017a565b6200039c81620003958454620002d7565b8462000313565b602080601f831160018114620003d45760008415620003bb5750858301515b600019600386901b1c1916600185901b1785556200035f565b600085815260208120601f198616915b828110156200040557888601518255948401946001909101908401620003e4565b5085821015620004245787850151600019600388901b60f8161c191681555b5050505050600190811b01905550565b608051610ae1620004576000396000818161018a01526103c20152610ae16000f3fe608060405234801561001057600080fd5b506004361061010b5760003560e01c806370a08231116100a257806395d89b411161007157806395d89b41146102295780639dc29fac14610231578063a9059cbb14610244578063dd62ed3e14610257578063f2fde38b1461029057600080fd5b806370a08231146101d5578063715018a6146101fe5780638a8c523c146102065780638da5cb5b1461020e57600080fd5b8063313ce567116100de578063313ce56714610176578063355274ea1461018557806340c10f19146101ac5780634ada218b146101c157600080fd5b806306fdde0314610110578063095ea7b31461012e57806318160ddd1461015157806323b872dd14610163575b600080fd5b6101186102a3565b604051610125919061092a565b60405180910390f35b61014161013c366004610995565b610335565b6040519015158152602001610125565b6002545b604051908152602001610125565b6101416101713660046109bf565b61034f565b60405160128152602001610125565b6101557f000000000000000000000000000000000000000000000000000000000000000081565b6101bf6101ba366004610995565b610373565b005b60055461014190600160a01b900460ff1681565b6101556101e33660046109fb565b6001600160a01b031660009081526020819052604090205490565b6101bf610440565b6101bf610454565b6005546040516001600160a01b039091168152602001610125565b610118610471565b6101bf61023f366004610995565b610480565b610141610252366004610995565b610492565b610155610265366004610a1d565b6001600160a01b03918216600090815260016020908152604080832093909416825291909152205490565b6101bf61029e3660046109fb565b6104a0565b6060600380546102b290610a50565b80601f01602080910402602001604051908101604052809291908181526020018280546102de90610a50565b801561032b5780601f106103005761010080835404028352916020019161032b565b820191906000526020600020905b81548152906001019060200180831161030e57829003601f168201915b5050505050905090565b6000336103438185856104de565b60019150505b92915050565b60003361035d8582856104f0565b61036885858561056f565b506001949350505050565b61037b6105ce565b6001600160a01b0382166103c05760405162461bcd60e51b8152602060048201526007602482015266746f207a65726f60c81b60448201526064015b60405180910390fd5b7f0000000000000000000000000000000000000000000000000000000000000000816103eb60025490565b6103f59190610a8a565b11156104325760405162461bcd60e51b815260206004820152600c60248201526b18d85c08195e18d95959195960a21b60448201526064016103b7565b61043c82826105fb565b5050565b6104486105ce565b6104526000610631565b565b61045c6105ce565b6005805460ff60a01b1916600160a01b179055565b6060600480546102b290610a50565b6104886105ce565b61043c8282610683565b60003361034381858561056f565b6104a86105ce565b6001600160a01b0381166104d257604051631e4fbdf760e01b8152600060048201526024016103b7565b6104db81610631565b50565b6104eb83838360016106b9565b505050565b6001600160a01b03838116600090815260016020908152604080832093861683529290522054600019811015610569578181101561055a57604051637dc7a0d960e11b81526001600160a01b038416600482015260248101829052604481018390526064016103b7565b610569848484840360006106b9565b50505050565b6001600160a01b03831661059957604051634b637e8f60e11b8152600060048201526024016103b7565b6001600160a01b0382166105c35760405163ec442f0560e01b8152600060048201526024016103b7565b6104eb83838361078e565b6005546001600160a01b031633146104525760405163118cdaa760e01b81523360048201526024016103b7565b6001600160a01b0382166106255760405163ec442f0560e01b8152600060048201526024016103b7565b61043c6000838361078e565b600580546001600160a01b038381166001600160a01b0319831681179093556040519116919082907f8be0079c531659141344cd1fd0a4f28419497f9722a3daafe3b4186f6b6457e090600090a35050565b6001600160a01b0382166106ad57604051634b637e8f60e11b8152600060048201526024016103b7565b61043c8260008361078e565b6001600160a01b0384166106e35760405163e602df0560e01b8152600060048201526024016103b7565b6001600160a01b03831661070d57604051634a1406b160e11b8152600060048201526024016103b7565b6001600160a01b038085166000908152600160209081526040808320938716835292905220829055801561056957826001600160a01b0316846001600160a01b03167f8c5be1e5ebec7d5bd14f71427d1e84f3dd0314c0f7b2291e5b200ac8c7c3b9258460405161078091815260200190565b60405180910390a350505050565b600554600160a01b900460ff166107fa576001600160a01b038316158015906107c557506005546001600160a01b03848116911614155b80156107dc57506005546001600160a01b03163314155b156107fa576040516312f1f92360e01b815260040160405180910390fd5b6104eb8383836001600160a01b03831661082b5780600260008282546108209190610a8a565b9091555061089d9050565b6001600160a01b0383166000908152602081905260409020548181101561087e5760405163391434e360e21b81526001600160a01b038516600482015260248101829052604481018390526064016103b7565b6001600160a01b03841660009081526020819052604090209082900390555b6001600160a01b0382166108b9576002805482900390556108d8565b6001600160a01b03821660009081526020819052604090208054820190555b816001600160a01b0316836001600160a01b03167fddf252ad1be2c89b69c2b068fc378daa952ba7f163c4a11628f55a4df523b3ef8360405161091d91815260200190565b60405180910390a3505050565b60006020808352835180602085015260005b818110156109585785810183015185820160400152820161093c565b506000604082860101526040601f19601f8301168501019250505092915050565b80356001600160a01b038116811461099057600080fd5b919050565b600080604083850312156109a857600080fd5b6109b183610979565b946020939093013593505050565b6000806000606084860312156109d457600080fd5b6109dd84610979565b92506109eb60208501610979565b9150604084013590509250925092565b600060208284031215610a0d57600080fd5b610a1682610979565b9392505050565b60008060408385031215610a3057600080fd5b610a3983610979565b9150610a4760208401610979565b90509250929050565b600181811c90821680610a6457607f821691505b602082108103610a8457634e487b7160e01b600052602260045260246000fd5b50919050565b8082018082111561034957634e487b7160e01b600052601160045260246000fdfea26469706673582212208a4b2e93276993cbf55ba336b5a273bb7c128caf9e8895dbaac7c023f463a97364736f6c63430008180033","opcodes":"PUSH2 0x260 PUSH1 0x40 MSTORE CALLVALUE DUP1 ISZERO PUSH3 0x12 JUMPI PUSH1 0x0 DUP1 REVERT JUMPDEST POP PUSH1 0x40 MLOAD PUSH3 0x3561 CODESIZE SUB DUP1 PUSH3 0x3561 DUP4 CODECOPY DUP2 ADD PUSH1 0x40 DUP2 SWAP1 MSTORE PUSH3 0x35 SWAP2 PUSH3 0x73B JUMP JUMPDEST PUSH2 0x220 DUP2 ADD MLOAD PUSH1 0x1 PUSH1 0x0 SSTORE PUSH1 0x1 PUSH1 0x1 PUSH1 0xA0 SHL SUB DUP2 AND PUSH3 0x70 JUMPI PUSH1 0x40 MLOAD PUSH4 0x1E4FBDF7 PUSH1 0xE0 SHL DUP2 MSTORE PUSH1 0x0 PUSH1 0x4 DUP3 ADD MSTORE PUSH1 0x24 ADD JUMPDEST PUSH1 0x40 MLOAD DUP1 SWAP2 SUB SWAP1 REVERT JUMPDEST PUSH3 0x7B DUP2 PUSH3 0x5C5 JUMP JUMPDEST POP PUSH1 0x0 DUP2 PUSH1 0xC0 ADD MLOAD GT PUSH3 0xC3 JUMPI PUSH1 0x40 MLOAD PUSH3 0x461BCD PUSH1 0xE5 SHL DUP2 MSTORE PUSH1 0x20 PUSH1 0x4 DUP3 ADD MSTORE PUSH1 0xE PUSH1 0x24 DUP3 ADD MSTORE PUSH14 0x696E76616C696420737570706C79 PUSH1 0x90 SHL PUSH1 0x44 DUP3 ADD MSTORE PUSH1 0x64 ADD PUSH3 0x67 JUMP JUMPDEST PUSH1 0x0 DUP2 PUSH1 0xE0 ADD MLOAD GT DUP1 ISZERO PUSH3 0xDD JUMPI POP PUSH2 0x2710 DUP2 PUSH1 0xE0 ADD MLOAD LT JUMPDEST PUSH3 0x117 JUMPI PUSH1 0x40 MLOAD PUSH3 0x461BCD PUSH1 0xE5 SHL DUP2 MSTORE PUSH1 0x20 PUSH1 0x4 DUP3 ADD MSTORE PUSH1 0x9 PUSH1 0x24 DUP3 ADD MSTORE PUSH9 0x637572766520627073 PUSH1 0xB8 SHL PUSH1 0x44 DUP3 ADD MSTORE PUSH1 0x64 ADD PUSH3 0x67 JUMP JUMPDEST PUSH2 0x2710 DUP2 PUSH2 0x100 ADD MLOAD DUP3 PUSH1 0xE0 ADD MLOAD PUSH3 0x131 SWAP2 SWAP1 PUSH3 0x94F JUMP JUMPDEST GT ISZERO PUSH3 0x174 JUMPI PUSH1 0x40 MLOAD PUSH3 0x461BCD PUSH1 0xE5 SHL DUP2 MSTORE PUSH1 0x20 PUSH1 0x4 DUP3 ADD MSTORE PUSH1 0x10 PUSH1 0x24 DUP3 ADD MSTORE PUSH16 0x706F7274696F6E206F766572666C6F77 PUSH1 0x80 SHL PUSH1 0x44 DUP3 ADD MSTORE PUSH1 0x64 ADD PUSH3 0x67 JUMP JUMPDEST PUSH1 0x0 DUP2 PUSH2 0x120 ADD MLOAD GT PUSH3 0x1B8 JUMPI PUSH1 0x40 MLOAD PUSH3 0x461BCD PUSH1 0xE5 SHL DUP2 MSTORE PUSH1 0x20 PUSH1 0x4 DUP3 ADD MSTORE PUSH1 0xA PUSH1 0x24 DUP3 ADD MSTORE PUSH10 0x7072696365207A65726F PUSH1 0xB0 SHL PUSH1 0x44 DUP3 ADD MSTORE PUSH1 0x64 ADD PUSH3 0x67 JUMP JUMPDEST PUSH1 0x0 DUP2 PUSH2 0x140 ADD MLOAD GT PUSH3 0x1FC JUMPI PUSH1 0x40 MLOAD PUSH3 0x461BCD PUSH1 0xE5 SHL DUP2 MSTORE PUSH1 0x20 PUSH1 0x4 DUP3 ADD MSTORE PUSH1 0xA PUSH1 0x24 DUP3 ADD MSTORE PUSH10 0x736C6F7065207A65726F PUSH1 0xB0 SHL PUSH1 0x44 DUP3 ADD MSTORE PUSH1 0x64 ADD PUSH3 0x67 JUMP JUMPDEST PUSH2 0x1C0 DUP2 ADD MLOAD PUSH1 0x1 PUSH1 0x1 PUSH1 0xA0 SHL SUB AND PUSH3 0x247 JUMPI PUSH1 0x40 MLOAD PUSH3 0x461BCD PUSH1 0xE5 SHL DUP2 MSTORE PUSH1 0x20 PUSH1 0x4 DUP3 ADD MSTORE PUSH1 0xB PUSH1 0x24 DUP3 ADD MSTORE PUSH11 0x726F75746572207A65726F PUSH1 0xA8 SHL PUSH1 0x44 DUP3 ADD MSTORE PUSH1 0x64 ADD PUSH3 0x67 JUMP JUMPDEST PUSH2 0x220 DUP2 ADD MLOAD PUSH1 0x1 PUSH1 0x1 PUSH1 0xA0 SHL SUB AND PUSH3 0x293 JUMPI PUSH1 0x40 MLOAD PUSH3 0x461BCD PUSH1 0xE5 SHL DUP2 MSTORE PUSH1 0x20 PUSH1 0x4 DUP3 ADD MSTORE PUSH1 0xC PUSH1 0x24 DUP3 ADD MSTORE PUSH12 0x63726561746F72207A65726F PUSH1 0xA0 SHL PUSH1 0x44 DUP3 ADD MSTORE PUSH1 0x64 ADD PUSH3 0x67 JUMP JUMPDEST PUSH2 0x2710 DUP2 PUSH2 0x180 ADD MLOAD GT ISZERO PUSH3 0x2DC JUMPI PUSH1 0x40 MLOAD PUSH3 0x461BCD PUSH1 0xE5 SHL DUP2 MSTORE PUSH1 0x20 PUSH1 0x4 DUP3 ADD MSTORE PUSH1 0xD PUSH1 0x24 DUP3 ADD MSTORE PUSH13 0x6C697175696469747920627073 PUSH1 0x98 SHL PUSH1 0x44 DUP3 ADD MSTORE PUSH1 0x64 ADD PUSH3 0x67 JUMP JUMPDEST PUSH2 0x2710 DUP2 PUSH2 0x1A0 ADD MLOAD GT ISZERO PUSH3 0x324 JUMPI PUSH1 0x40 MLOAD PUSH3 0x461BCD PUSH1 0xE5 SHL DUP2 MSTORE PUSH1 0x20 PUSH1 0x4 DUP3 ADD MSTORE PUSH1 0xC PUSH1 0x24 DUP3 ADD MSTORE PUSH12 0x70726F746F636F6C20627073 PUSH1 0xA0 SHL PUSH1 0x44 DUP3 ADD MSTORE PUSH1 0x64 ADD PUSH3 0x67 JUMP JUMPDEST PUSH1 0x0 DUP2 PUSH1 0x40 ADD MLOAD MLOAD GT PUSH3 0x366 JUMPI PUSH1 0x40 MLOAD PUSH3 0x461BCD PUSH1 0xE5 SHL DUP2 MSTORE PUSH1 0x20 PUSH1 0x4 DUP3 ADD MSTORE PUSH1 0x8 PUSH1 0x24 DUP3 ADD MSTORE PUSH8 0x6C6F676F20757269 PUSH1 0xC0 SHL PUSH1 0x44 DUP3 ADD MSTORE PUSH1 0x64 ADD PUSH3 0x67 JUMP JUMPDEST PUSH1 0x40 DUP2 ADD MLOAD PUSH1 0x2 SWAP1 PUSH3 0x37A SWAP1 DUP3 PUSH3 0x9FC JUMP JUMPDEST POP PUSH1 0x60 DUP2 ADD MLOAD PUSH1 0x3 SWAP1 PUSH3 0x38F SWAP1 DUP3 PUSH3 0x9FC JUMP JUMPDEST POP PUSH1 0x80 DUP2 ADD MLOAD PUSH1 0x4 SWAP1 PUSH3 0x3A4 SWAP1 DUP3 PUSH3 0x9FC JUMP JUMPDEST POP PUSH1 0xA0 DUP2 ADD MLOAD PUSH1 0x5 SWAP1 PUSH3 0x3B9 SWAP1 DUP3 PUSH3 0x9FC JUMP JUMPDEST POP PUSH2 0x120 DUP2 ADD MLOAD PUSH2 0x140 SWAP1 DUP2 MSTORE DUP2 ADD MLOAD PUSH2 0x160 SWAP1 DUP2 MSTORE DUP2 ADD MLOAD PUSH2 0x180 SWAP1 DUP2 MSTORE DUP2 ADD MLOAD PUSH2 0x1A0 SWAP1 DUP2 MSTORE DUP2 ADD MLOAD PUSH2 0x1C0 MSTORE PUSH2 0x240 DUP2 ADD MLOAD PUSH1 0x1 PUSH1 0x1 PUSH1 0xA0 SHL SUB SWAP1 DUP2 AND PUSH1 0xE0 MSTORE PUSH2 0x200 DUP3 ADD MLOAD DUP2 AND PUSH2 0x100 MSTORE PUSH2 0x1E0 DUP3 ADD MLOAD AND ISZERO PUSH3 0x421 JUMPI DUP1 PUSH2 0x1E0 ADD MLOAD PUSH3 0x428 JUMP JUMPDEST DUP1 PUSH2 0x220 ADD MLOAD JUMPDEST PUSH1 0x1 PUSH1 0x1 PUSH1 0xA0 SHL SUB SWAP1 DUP2 AND PUSH2 0x120 MSTORE PUSH2 0x1C0 DUP3 ADD MLOAD AND PUSH1 0xC0 SWAP1 DUP2 MSTORE DUP2 ADD DUP1 MLOAD PUSH2 0x1E0 MSTORE PUSH1 0xE0 DUP3 ADD MLOAD SWAP1 MLOAD PUSH2 0x2710 SWAP2 PUSH3 0x461 SWAP2 PUSH3 0xAC8 JUMP JUMPDEST PUSH3 0x46D SWAP2 SWAP1 PUSH3 0xAE2 JUMP JUMPDEST PUSH2 0x200 MSTORE PUSH2 0x100 DUP2 ADD MLOAD PUSH1 0xC0 DUP3 ADD MLOAD PUSH2 0x2710 SWAP2 PUSH3 0x48B SWAP2 PUSH3 0xAC8 JUMP JUMPDEST PUSH3 0x497 SWAP2 SWAP1 PUSH3 0xAE2 JUMP JUMPDEST PUSH2 0x220 DUP2 SWAP1 MSTORE PUSH2 0x200 MLOAD PUSH1 0xC0 DUP4 ADD MLOAD PUSH3 0x4B2 SWAP2 SWAP1 PUSH3 0xB05 JUMP JUMPDEST PUSH3 0x4BE SWAP2 SWAP1 PUSH3 0xB05 JUMP JUMPDEST PUSH2 0x240 MSTORE PUSH2 0x220 MLOAD PUSH3 0x505 JUMPI PUSH1 0x40 MLOAD PUSH3 0x461BCD PUSH1 0xE5 SHL DUP2 MSTORE PUSH1 0x20 PUSH1 0x4 DUP3 ADD MSTORE PUSH1 0xE PUSH1 0x24 DUP3 ADD MSTORE PUSH14 0x6C6971756964697479207A65726F PUSH1 0x90 SHL PUSH1 0x44 DUP3 ADD MSTORE PUSH1 0x64 ADD PUSH3 0x67 JUMP JUMPDEST DUP1 MLOAD PUSH1 0x20 DUP3 ADD MLOAD PUSH1 0xC0 DUP4 ADD MLOAD PUSH1 0x40 MLOAD ADDRESS SWAP1 PUSH3 0x521 SWAP1 PUSH3 0x617 JUMP JUMPDEST PUSH3 0x530 SWAP5 SWAP4 SWAP3 SWAP2 SWAP1 PUSH3 0xB49 JUMP JUMPDEST PUSH1 0x40 MLOAD DUP1 SWAP2 SUB SWAP1 PUSH1 0x0 CREATE DUP1 ISZERO DUP1 ISZERO PUSH3 0x54D JUMPI RETURNDATASIZE PUSH1 0x0 DUP1 RETURNDATACOPY RETURNDATASIZE PUSH1 0x0 REVERT JUMPDEST POP PUSH1 0x1 PUSH1 0x1 PUSH1 0xA0 SHL SUB AND PUSH1 0x80 DUP2 SWAP1 MSTORE PUSH1 0xA0 DUP2 SWAP1 MSTORE PUSH1 0xC0 DUP3 ADD MLOAD PUSH1 0x40 MLOAD PUSH4 0x40C10F19 PUSH1 0xE0 SHL DUP2 MSTORE ADDRESS PUSH1 0x4 DUP3 ADD MSTORE PUSH1 0x24 DUP2 ADD SWAP2 SWAP1 SWAP2 MSTORE PUSH4 0x40C10F19 SWAP1 PUSH1 0x44 ADD PUSH1 0x0 PUSH1 0x40 MLOAD DUP1 DUP4 SUB DUP2 PUSH1 0x0 DUP8 DUP1 EXTCODESIZE ISZERO DUP1 ISZERO PUSH3 0x5A5 JUMPI PUSH1 0x0 DUP1 REVERT JUMPDEST POP GAS CALL ISZERO DUP1 ISZERO PUSH3 0x5BA JUMPI RETURNDATASIZE PUSH1 0x0 DUP1 RETURNDATACOPY RETURNDATASIZE PUSH1 0x0 REVERT JUMPDEST POP POP POP POP POP PUSH3 0xB94 JUMP JUMPDEST PUSH1 0x1 DUP1 SLOAD PUSH1 0x1 PUSH1 0x1 PUSH1 0xA0 SHL SUB DUP4 DUP2 AND PUSH1 0x1 PUSH1 0x1 PUSH1 0xA0 SHL SUB NOT DUP4 AND DUP2 OR SWAP1 SWAP4 SSTORE PUSH1 0x40 MLOAD SWAP2 AND SWAP2 SWAP1 DUP3 SWAP1 PUSH32 0x8BE0079C531659141344CD1FD0A4F28419497F9722A3DAAFE3B4186F6B6457E0 SWAP1 PUSH1 0x0 SWAP1 LOG3 POP POP JUMP JUMPDEST PUSH2 0xF38 DUP1 PUSH3 0x2629 DUP4 CODECOPY ADD SWAP1 JUMP JUMPDEST PUSH4 0x4E487B71 PUSH1 0xE0 SHL PUSH1 0x0 MSTORE PUSH1 0x41 PUSH1 0x4 MSTORE PUSH1 0x24 PUSH1 0x0 REVERT JUMPDEST PUSH1 0x40 MLOAD PUSH2 0x260 DUP2 ADD PUSH1 0x1 PUSH1 0x1 PUSH1 0x40 SHL SUB DUP2 GT DUP3 DUP3 LT OR ISZERO PUSH3 0x661 JUMPI PUSH3 0x661 PUSH3 0x625 JUMP JUMPDEST PUSH1 0x40 MSTORE SWAP1 JUMP JUMPDEST PUSH1 0x0 JUMPDEST DUP4 DUP2 LT ISZERO PUSH3 0x684 JUMPI DUP2 DUP2 ADD MLOAD DUP4 DUP3 ADD MSTORE PUSH1 0x20 ADD PUSH3 0x66A JUMP JUMPDEST POP POP PUSH1 0x0 SWAP2 ADD MSTORE JUMP JUMPDEST PUSH1 0x0 DUP3 PUSH1 0x1F DUP4 ADD SLT PUSH3 0x69F JUMPI PUSH1 0x0 DUP1 REVERT JUMPDEST DUP2 MLOAD PUSH1 0x1 PUSH1 0x1 PUSH1 0x40 SHL SUB DUP1 DUP3 GT ISZERO PUSH3 0x6BC JUMPI PUSH3 0x6BC PUSH3 0x625 JUMP JUMPDEST PUSH1 0x40 MLOAD PUSH1 0x1F DUP4 ADD PUSH1 0x1F NOT SWAP1 DUP2 AND PUSH1 0x3F ADD AND DUP2 ADD SWAP1 DUP3 DUP3 GT DUP2 DUP4 LT OR ISZERO PUSH3 0x6E7 JUMPI PUSH3 0x6E7 PUSH3 0x625 JUMP JUMPDEST DUP2 PUSH1 0x40 MSTORE DUP4 DUP2 MSTORE DUP7 PUSH1 0x20 DUP6 DUP9 ADD ADD GT ISZERO PUSH3 0x701 JUMPI PUSH1 0x0 DUP1 REVERT JUMPDEST PUSH3 0x714 DUP5 PUSH1 0x20 DUP4 ADD PUSH1 0x20 DUP10 ADD PUSH3 0x667 JUMP JUMPDEST SWAP7 SWAP6 POP POP POP POP POP POP JUMP JUMPDEST DUP1 MLOAD PUSH1 0x1 PUSH1 0x1 PUSH1 0xA0 SHL SUB DUP2 AND DUP2 EQ PUSH3 0x736 JUMPI PUSH1 0x0 DUP1 REVERT JUMPDEST SWAP2 SWAP1 POP JUMP JUMPDEST PUSH1 0x0 PUSH1 0x20 DUP3 DUP5 SUB SLT ISZERO PUSH3 0x74E JUMPI PUSH1 0x0 DUP1 REVERT JUMPDEST DUP2 MLOAD PUSH1 0x1 PUSH1 0x1 PUSH1 0x40 SHL SUB DUP1 DUP3 GT ISZERO PUSH3 0x766 JUMPI PUSH1 0x0 DUP1 REVERT JUMPDEST SWAP1 DUP4 ADD SWAP1 PUSH2 0x260 DUP3 DUP7 SUB SLT ISZERO PUSH3 0x77C JUMPI PUSH1 0x0 DUP1 REVERT JUMPDEST PUSH3 0x786 PUSH3 0x63B JUMP JUMPDEST DUP3 MLOAD DUP3 DUP2 GT ISZERO PUSH3 0x796 JUMPI PUSH1 0x0 DUP1 REVERT JUMPDEST PUSH3 0x7A4 DUP8 DUP3 DUP7 ADD PUSH3 0x68D JUMP JUMPDEST DUP3 MSTORE POP PUSH1 0x20 DUP4 ADD MLOAD DUP3 DUP2 GT ISZERO PUSH3 0x7BA JUMPI PUSH1 0x0 DUP1 REVERT JUMPDEST PUSH3 0x7C8 DUP8 DUP3 DUP7 ADD PUSH3 0x68D JUMP JUMPDEST PUSH1 0x20 DUP4 ADD MSTORE POP PUSH1 0x40 DUP4 ADD MLOAD DUP3 DUP2 GT ISZERO PUSH3 0x7E1 JUMPI PUSH1 0x0 DUP1 REVERT JUMPDEST PUSH3 0x7EF DUP8 DUP3 DUP7 ADD PUSH3 0x68D JUMP JUMPDEST PUSH1 0x40 DUP4 ADD MSTORE POP PUSH1 0x60 DUP4 ADD MLOAD DUP3 DUP2 GT ISZERO PUSH3 0x808 JUMPI PUSH1 0x0 DUP1 REVERT JUMPDEST PUSH3 0x816 DUP8 DUP3 DUP7 ADD PUSH3 0x68D JUMP JUMPDEST PUSH1 0x60 DUP4 ADD MSTORE POP PUSH1 0x80 DUP4 ADD MLOAD DUP3 DUP2 GT ISZERO PUSH3 0x82F JUMPI PUSH1 0x0 DUP1 REVERT JUMPDEST PUSH3 0x83D DUP8 DUP3 DUP7 ADD PUSH3 0x68D JUMP JUMPDEST PUSH1 0x80 DUP4 ADD MSTORE POP PUSH1 0xA0 DUP4 ADD MLOAD DUP3 DUP2 GT ISZERO PUSH3 0x856 JUMPI PUSH1 0x0 DUP1 REVERT JUMPDEST PUSH3 0x864 DUP8 DUP3 DUP7 ADD PUSH3 0x68D JUMP JUMPDEST PUSH1 0xA0 DUP4 ADD MSTORE POP PUSH1 0xC0 DUP4 DUP2 ADD MLOAD SWAP1 DUP3 ADD MSTORE PUSH1 0xE0 DUP1 DUP5 ADD MLOAD SWAP1 DUP3 ADD MSTORE PUSH2 0x100 DUP1 DUP5 ADD MLOAD SWAP1 DUP3 ADD MSTORE PUSH2 0x120 DUP1 DUP5 ADD MLOAD SWAP1 DUP3 ADD MSTORE PUSH2 0x140 DUP1 DUP5 ADD MLOAD SWAP1 DUP3 ADD MSTORE PUSH2 0x160 DUP1 DUP5 ADD MLOAD SWAP1 DUP3 ADD MSTORE PUSH2 0x180 DUP1 DUP5 ADD MLOAD SWAP1 DUP3 ADD MSTORE PUSH2 0x1A0 DUP1 DUP5 ADD MLOAD SWAP1 DUP3 ADD MSTORE PUSH2 0x1C0 SWAP2 POP PUSH3 0x8D2 DUP3 DUP5 ADD PUSH3 0x71E JUMP JUMPDEST DUP3 DUP3 ADD MSTORE PUSH2 0x1E0 SWAP2 POP PUSH3 0x8E8 DUP3 DUP5 ADD PUSH3 0x71E JUMP JUMPDEST DUP3 DUP3 ADD MSTORE PUSH2 0x200 SWAP2 POP PUSH3 0x8FE DUP3 DUP5 ADD PUSH3 0x71E JUMP JUMPDEST DUP3 DUP3 ADD MSTORE PUSH2 0x220 SWAP2 POP PUSH3 0x914 DUP3 DUP5 ADD PUSH3 0x71E JUMP JUMPDEST DUP3 DUP3 ADD MSTORE PUSH2 0x240 SWAP2 POP PUSH3 0x92A DUP3 DUP5 ADD PUSH3 0x71E JUMP JUMPDEST SWAP2 DUP2 ADD SWAP2 SWAP1 SWAP2 MSTORE SWAP5 SWAP4 POP POP POP POP JUMP JUMPDEST PUSH4 0x4E487B71 PUSH1 0xE0 SHL PUSH1 0x0 MSTORE PUSH1 0x11 PUSH1 0x4 MSTORE PUSH1 0x24 PUSH1 0x0 REVERT JUMPDEST DUP1 DUP3 ADD DUP1 DUP3 GT ISZERO PUSH3 0x965 JUMPI PUSH3 0x965 PUSH3 0x939 JUMP JUMPDEST SWAP3 SWAP2 POP POP JUMP JUMPDEST PUSH1 0x1 DUP2 DUP2 SHR SWAP1 DUP3 AND DUP1 PUSH3 0x980 JUMPI PUSH1 0x7F DUP3 AND SWAP2 POP JUMPDEST PUSH1 0x20 DUP3 LT DUP2 SUB PUSH3 0x9A1 JUMPI PUSH4 0x4E487B71 PUSH1 0xE0 SHL PUSH1 0x0 MSTORE PUSH1 0x22 PUSH1 0x4 MSTORE PUSH1 0x24 PUSH1 0x0 REVERT JUMPDEST POP SWAP2 SWAP1 POP JUMP JUMPDEST PUSH1 0x1F DUP3 GT ISZERO PUSH3 0x9F7 JUMPI PUSH1 0x0 DUP2 PUSH1 0x0 MSTORE PUSH1 0x20 PUSH1 0x0 KECCAK256 PUSH1 0x1F DUP6 ADD PUSH1 0x5 SHR DUP2 ADD PUSH1 0x20 DUP7 LT ISZERO PUSH3 0x9D2 JUMPI POP DUP1 JUMPDEST PUSH1 0x1F DUP6 ADD PUSH1 0x5 SHR DUP3 ADD SWAP2 POP JUMPDEST DUP2 DUP2 LT ISZERO PUSH3 0x9F3 JUMPI DUP3 DUP2 SSTORE PUSH1 0x1 ADD PUSH3 0x9DE JUMP JUMPDEST POP POP POP JUMPDEST POP POP POP JUMP JUMPDEST DUP2 MLOAD PUSH1 0x1 PUSH1 0x1 PUSH1 0x40 SHL SUB DUP2 GT ISZERO PUSH3 0xA18 JUMPI PUSH3 0xA18 PUSH3 0x625 JUMP JUMPDEST PUSH3 0xA30 DUP2 PUSH3 0xA29 DUP5 SLOAD PUSH3 0x96B JUMP JUMPDEST DUP5 PUSH3 0x9A7 JUMP JUMPDEST PUSH1 0x20 DUP1 PUSH1 0x1F DUP4 GT PUSH1 0x1 DUP2 EQ PUSH3 0xA68 JUMPI PUSH1 0x0 DUP5 ISZERO PUSH3 0xA4F JUMPI POP DUP6 DUP4 ADD MLOAD JUMPDEST PUSH1 0x0 NOT PUSH1 0x3 DUP7 SWAP1 SHL SHR NOT AND PUSH1 0x1 DUP6 SWAP1 SHL OR DUP6 SSTORE PUSH3 0x9F3 JUMP JUMPDEST PUSH1 0x0 DUP6 DUP2 MSTORE PUSH1 0x20 DUP2 KECCAK256 PUSH1 0x1F NOT DUP7 AND SWAP2 JUMPDEST DUP3 DUP2 LT ISZERO PUSH3 0xA99 JUMPI DUP9 DUP7 ADD MLOAD DUP3 SSTORE SWAP5 DUP5 ADD SWAP5 PUSH1 0x1 SWAP1 SWAP2 ADD SWAP1 DUP5 ADD PUSH3 0xA78 JUMP JUMPDEST POP DUP6 DUP3 LT ISZERO PUSH3 0xAB8 JUMPI DUP8 DUP6 ADD MLOAD PUSH1 0x0 NOT PUSH1 0x3 DUP9 SWAP1 SHL PUSH1 0xF8 AND SHR NOT AND DUP2 SSTORE JUMPDEST POP POP POP POP POP PUSH1 0x1 SWAP1 DUP2 SHL ADD SWAP1 SSTORE POP JUMP JUMPDEST DUP1 DUP3 MUL DUP2 ISZERO DUP3 DUP3 DIV DUP5 EQ OR PUSH3 0x965 JUMPI PUSH3 0x965 PUSH3 0x939 JUMP JUMPDEST PUSH1 0x0 DUP3 PUSH3 0xB00 JUMPI PUSH4 0x4E487B71 PUSH1 0xE0 SHL PUSH1 0x0 MSTORE PUSH1 0x12 PUSH1 0x4 MSTORE PUSH1 0x24 PUSH1 0x0 REVERT JUMPDEST POP DIV SWAP1 JUMP JUMPDEST DUP2 DUP2 SUB DUP2 DUP2 GT ISZERO PUSH3 0x965 JUMPI PUSH3 0x965 PUSH3 0x939 JUMP JUMPDEST PUSH1 0x0 DUP2 MLOAD DUP1 DUP5 MSTORE PUSH3 0xB35 DUP2 PUSH1 0x20 DUP7 ADD PUSH1 0x20 DUP7 ADD PUSH3 0x667 JUMP JUMPDEST PUSH1 0x1F ADD PUSH1 0x1F NOT AND SWAP3 SWAP1 SWAP3 ADD PUSH1 0x20 ADD SWAP3 SWAP2 POP POP JUMP JUMPDEST PUSH1 0x80 DUP2 MSTORE PUSH1 0x0 PUSH3 0xB5E PUSH1 0x80 DUP4 ADD DUP8 PUSH3 0xB1B JUMP JUMPDEST DUP3 DUP2 SUB PUSH1 0x20 DUP5 ADD MSTORE PUSH3 0xB72 DUP2 DUP8 PUSH3 0xB1B JUMP JUMPDEST PUSH1 0x40 DUP5 ADD SWAP6 SWAP1 SWAP6 MSTORE POP POP PUSH1 0x1 PUSH1 0x1 PUSH1 0xA0 SHL SUB SWAP2 SWAP1 SWAP2 AND PUSH1 0x60 SWAP1 SWAP2 ADD MSTORE SWAP3 SWAP2 POP POP JUMP JUMPDEST PUSH1 0x80 MLOAD PUSH1 0xA0 MLOAD PUSH1 0xC0 MLOAD PUSH1 0xE0 MLOAD PUSH2 0x100 MLOAD PUSH2 0x120 MLOAD PUSH2 0x140 MLOAD PUSH2 0x160 MLOAD PUSH2 0x180 MLOAD PUSH2 0x1A0 MLOAD PUSH2 0x1C0 MLOAD PUSH2 0x1E0 MLOAD PUSH2 0x200 MLOAD PUSH2 0x220 MLOAD PUSH2 0x240 MLOAD PUSH2 0x1925 PUSH3 0xD04 PUSH1 0x0 CODECOPY PUSH1 0x0 DUP2 DUP2 PUSH2 0x3BE ADD MSTORE DUP2 DUP2 PUSH2 0x1009 ADD MSTORE PUSH2 0x106F ADD MSTORE PUSH1 0x0 DUP2 DUP2 PUSH2 0x356 ADD MSTORE PUSH2 0xD01 ADD MSTORE PUSH1 0x0 DUP2 DUP2 PUSH2 0x298 ADD MSTORE DUP2 DUP2 PUSH2 0xB57 ADD MSTORE DUP2 DUP2 PUSH2 0xC2D ADD MSTORE PUSH2 0xF55 ADD MSTORE PUSH1 0x0 PUSH2 0x218 ADD MSTORE PUSH1 0x0 DUP2 DUP2 PUSH2 0x2CC ADD MSTORE PUSH2 0x109E ADD MSTORE PUSH1 0x0 DUP2 DUP2 PUSH2 0x5D5 ADD MSTORE PUSH2 0xCCE ADD MSTORE PUSH1 0x0 DUP2 DUP2 PUSH2 0x4CF ADD MSTORE PUSH2 0xC58 ADD MSTORE PUSH1 0x0 DUP2 DUP2 PUSH2 0x3F2 ADD MSTORE DUP2 DUP2 PUSH2 0xAB7 ADD MSTORE PUSH2 0x12DE ADD MSTORE PUSH1 0x0 DUP2 DUP2 PUSH2 0x5A1 ADD MSTORE DUP2 DUP2 PUSH2 0xAED ADD MSTORE PUSH2 0x12A5 ADD MSTORE PUSH1 0x0 DUP2 DUP2 PUSH2 0x24C ADD MSTORE PUSH2 0xDDE ADD MSTORE PUSH1 0x0 DUP2 DUP2 PUSH2 0x38A ADD MSTORE DUP2 DUP2 PUSH2 0x10DC ADD MSTORE PUSH2 0x1111 ADD MSTORE PUSH1 0x0 PUSH2 0x56D ADD MSTORE PUSH1 0x0 DUP2 DUP2 PUSH2 0x653 ADD MSTORE DUP2 DUP2 PUSH2 0xD63 ADD MSTORE DUP2 DUP2 PUSH2 0xD92 ADD MSTORE PUSH2 0xED0 ADD MSTORE PUSH1 0x0 DUP2 DUP2 PUSH2 0x81B ADD MSTORE DUP2 DUP2 PUSH2 0x994 ADD MSTORE DUP2 DUP2 PUSH2 0xD41 ADD MSTORE DUP2 DUP2 PUSH2 0xEAE ADD MSTORE DUP2 DUP2 PUSH2 0xF27 ADD MSTORE PUSH2 0x104C ADD MSTORE PUSH1 0x0 DUP2 DUP2 PUSH2 0x687 ADD MSTORE DUP2 DUP2 PUSH2 0xDBA ADD MSTORE DUP2 DUP2 PUSH2 0xFA2 ADD MSTORE PUSH2 0x1166 ADD MSTORE PUSH2 0x1925 PUSH1 0x0 RETURN INVALID PUSH1 0x80 PUSH1 0x40 MSTORE PUSH1 0x4 CALLDATASIZE LT PUSH2 0x1D1 JUMPI PUSH1 0x0 CALLDATALOAD PUSH1 0xE0 SHR DUP1 PUSH4 0x8091F3BF GT PUSH2 0xF7 JUMPI DUP1 PUSH4 0xC45A0155 GT PUSH2 0x95 JUMPI DUP1 PUSH4 0xF20F3D90 GT PUSH2 0x64 JUMPI DUP1 PUSH4 0xF20F3D90 EQ PUSH2 0x60C JUMPI DUP1 PUSH4 0xF2FDE38B EQ PUSH2 0x621 JUMPI DUP1 PUSH4 0xF887EA40 EQ PUSH2 0x641 JUMPI DUP1 PUSH4 0xFC0C546A EQ PUSH2 0x675 JUMPI PUSH1 0x0 DUP1 REVERT JUMPDEST DUP1 PUSH4 0xC45A0155 EQ PUSH2 0x55B JUMPI DUP1 PUSH4 0xC7876EA4 EQ PUSH2 0x58F JUMPI DUP1 PUSH4 0xC9F62AF2 EQ PUSH2 0x5C3 JUMPI DUP1 PUSH4 0xDD1A2A39 EQ PUSH2 0x5F7 JUMPI PUSH1 0x0 DUP1 REVERT JUMPDEST DUP1 PUSH4 0xA4B20F13 GT PUSH2 0xD1 JUMPI DUP1 PUSH4 0xA4B20F13 EQ PUSH2 0x4BD JUMPI DUP1 PUSH4 0xAF769545 EQ PUSH2 0x4F1 JUMPI DUP1 PUSH4 0xB6013CEF EQ PUSH2 0x511 JUMPI DUP1 PUSH4 0xBEB0A416 EQ PUSH2 0x546 JUMPI PUSH1 0x0 DUP1 REVERT JUMPDEST DUP1 PUSH4 0x8091F3BF EQ PUSH2 0x460 JUMPI DUP1 PUSH4 0x8DA5CB5B EQ PUSH2 0x48A JUMPI DUP1 PUSH4 0x9D1B464A EQ PUSH2 0x4A8 JUMPI PUSH1 0x0 DUP1 REVERT JUMPDEST DUP1 PUSH4 0x3794F6BE GT PUSH2 0x16F JUMPI DUP1 PUSH4 0x54E42F7E GT PUSH2 0x13E JUMPI DUP1 PUSH4 0x54E42F7E EQ PUSH2 0x3E0 JUMPI DUP1 PUSH4 0x65161831 EQ PUSH2 0x414 JUMPI DUP1 PUSH4 0x6BB38B28 EQ PUSH2 0x427 JUMPI DUP1 PUSH4 0x715018A6 EQ PUSH2 0x449 JUMPI PUSH1 0x0 DUP1 REVERT JUMPDEST DUP1 PUSH4 0x3794F6BE EQ PUSH2 0x324 JUMPI DUP1 PUSH4 0x381562C2 EQ PUSH2 0x344 JUMPI DUP1 PUSH4 0x46904840 EQ PUSH2 0x378 JUMPI DUP1 PUSH4 0x54354629 EQ PUSH2 0x3AC JUMPI PUSH1 0x0 DUP1 REVERT JUMPDEST DUP1 PUSH4 0x2138A4C0 GT PUSH2 0x1AB JUMPI DUP1 PUSH4 0x2138A4C0 EQ PUSH2 0x286 JUMPI DUP1 PUSH4 0x35659FB8 EQ PUSH2 0x2BA JUMPI DUP1 PUSH4 0x365D57A4 EQ PUSH2 0x2EE JUMPI DUP1 PUSH4 0x366AD250 EQ PUSH2 0x304 JUMPI PUSH1 0x0 DUP1 REVERT JUMPDEST DUP1 PUSH4 0x2C7E7AF EQ PUSH2 0x1DD JUMPI DUP1 PUSH4 0x18160DDD EQ PUSH2 0x206 JUMPI DUP1 PUSH4 0x1F0C57FC EQ PUSH2 0x23A JUMPI PUSH1 0x0 DUP1 REVERT JUMPDEST CALLDATASIZE PUSH2 0x1D8 JUMPI STOP JUMPDEST PUSH1 0x0 DUP1 REVERT JUMPDEST CALLVALUE DUP1 ISZERO PUSH2 0x1E9 JUMPI PUSH1 0x0 DUP1 REVERT JUMPDEST POP PUSH2 0x1F3 PUSH1 0x6 SLOAD DUP2 JUMP JUMPDEST PUSH1 0x40 MLOAD SWAP1 DUP2 MSTORE PUSH1 0x20 ADD JUMPDEST PUSH1 0x40 MLOAD DUP1 SWAP2 SUB SWAP1 RETURN JUMPDEST CALLVALUE DUP1 ISZERO PUSH2 0x212 JUMPI PUSH1 0x0 DUP1 REVERT JUMPDEST POP PUSH2 0x1F3 PUSH32 0x0 DUP2 JUMP JUMPDEST CALLVALUE DUP1 ISZERO PUSH2 0x246 JUMPI PUSH1 0x0 DUP1 REVERT JUMPDEST POP PUSH2 0x26E PUSH32 0x0 DUP2 JUMP JUMPDEST PUSH1 0x40 MLOAD PUSH1 0x1 PUSH1 0x1 PUSH1 0xA0 SHL SUB SWAP1 SWAP2 AND DUP2 MSTORE PUSH1 0x20 ADD PUSH2 0x1FD JUMP JUMPDEST CALLVALUE DUP1 ISZERO PUSH2 0x292 JUMPI PUSH1 0x0 DUP1 REVERT JUMPDEST POP PUSH2 0x1F3 PUSH32 0x0 DUP2 JUMP JUMPDEST CALLVALUE DUP1 ISZERO PUSH2 0x2C6 JUMPI PUSH1 0x0 DUP1 REVERT JUMPDEST POP PUSH2 0x1F3 PUSH32 0x0 DUP2 JUMP JUMPDEST CALLVALUE DUP1 ISZERO PUSH2 0x2FA JUMPI PUSH1 0x0 DUP1 REVERT JUMPDEST POP PUSH2 0x1F3 PUSH1 0x8 SLOAD DUP2 JUMP JUMPDEST CALLVALUE DUP1 ISZERO PUSH2 0x310 JUMPI PUSH1 0x0 DUP1 REVERT JUMPDEST POP PUSH2 0x1F3 PUSH2 0x31F CALLDATASIZE PUSH1 0x4 PUSH2 0x1749 JUMP JUMPDEST PUSH2 0x6A9 JUMP JUMPDEST CALLVALUE DUP1 ISZERO PUSH2 0x330 JUMPI PUSH1 0x0 DUP1 REVERT JUMPDEST POP PUSH2 0x1F3 PUSH2 0x33F CALLDATASIZE PUSH1 0x4 PUSH2 0x1762 JUMP JUMPDEST PUSH2 0x75F JUMP JUMPDEST CALLVALUE DUP1 ISZERO PUSH2 0x350 JUMPI PUSH1 0x0 DUP1 REVERT JUMPDEST POP PUSH2 0x1F3 PUSH32 0x0 DUP2 JUMP JUMPDEST CALLVALUE DUP1 ISZERO PUSH2 0x384 JUMPI PUSH1 0x0 DUP1 REVERT JUMPDEST POP PUSH2 0x26E PUSH32 0x0 DUP2 JUMP JUMPDEST CALLVALUE DUP1 ISZERO PUSH2 0x3B8 JUMPI PUSH1 0x0 DUP1 REVERT JUMPDEST POP PUSH2 0x1F3 PUSH32 0x0 DUP2 JUMP JUMPDEST CALLVALUE DUP1 ISZERO PUSH2 0x3EC JUMPI PUSH1 0x0 DUP1 REVERT JUMPDEST POP PUSH2 0x1F3 PUSH32 0x0 DUP2 JUMP JUMPDEST PUSH2 0x1F3 PUSH2 0x422 CALLDATASIZE PUSH1 0x4 PUSH2 0x1762 JUMP JUMPDEST PUSH2 0x893 JUMP JUMPDEST CALLVALUE DUP1 ISZERO PUSH2 0x433 JUMPI PUSH1 0x0 DUP1 REVERT JUMPDEST POP PUSH2 0x43C PUSH2 0xA0E JUMP JUMPDEST PUSH1 0x40 MLOAD PUSH2 0x1FD SWAP2 SWAP1 PUSH2 0x1784 JUMP JUMPDEST CALLVALUE DUP1 ISZERO PUSH2 0x455 JUMPI PUSH1 0x0 DUP1 REVERT JUMPDEST POP PUSH2 0x45E PUSH2 0xA9C JUMP JUMPDEST STOP JUMPDEST CALLVALUE DUP1 ISZERO PUSH2 0x46C JUMPI PUSH1 0x0 DUP1 REVERT JUMPDEST POP PUSH1 0x7 SLOAD PUSH2 0x47A SWAP1 PUSH1 0xFF AND DUP2 JUMP JUMPDEST PUSH1 0x40 MLOAD SWAP1 ISZERO ISZERO DUP2 MSTORE PUSH1 0x20 ADD PUSH2 0x1FD JUMP JUMPDEST CALLVALUE DUP1 ISZERO PUSH2 0x496 JUMPI PUSH1 0x0 DUP1 REVERT JUMPDEST POP PUSH1 0x1 SLOAD PUSH1 0x1 PUSH1 0x1 PUSH1 0xA0 SHL SUB AND PUSH2 0x26E JUMP JUMPDEST CALLVALUE DUP1 ISZERO PUSH2 0x4B4 JUMPI PUSH1 0x0 DUP1 REVERT JUMPDEST POP PUSH2 0x1F3 PUSH2 0xAB0 JUMP JUMPDEST CALLVALUE DUP1 ISZERO PUSH2 0x4C9 JUMPI PUSH1 0x0 DUP1 REVERT JUMPDEST POP PUSH2 0x1F3 PUSH32 0x0 DUP2 JUMP JUMPDEST CALLVALUE DUP1 ISZERO PUSH2 0x4FD JUMPI PUSH1 0x0 DUP1 REVERT JUMPDEST POP PUSH2 0x1F3 PUSH2 0x50C CALLDATASIZE PUSH1 0x4 PUSH2 0x1749 JUMP JUMPDEST PUSH2 0xB16 JUMP JUMPDEST CALLVALUE DUP1 ISZERO PUSH2 0x51D JUMPI PUSH1 0x0 DUP1 REVERT JUMPDEST POP PUSH2 0x531 PUSH2 0x52C CALLDATASIZE PUSH1 0x4 PUSH2 0x1762 JUMP JUMPDEST PUSH2 0xBD9 JUMP JUMPDEST PUSH1 0x40 DUP1 MLOAD SWAP3 DUP4 MSTORE PUSH1 0x20 DUP4 ADD SWAP2 SWAP1 SWAP2 MSTORE ADD PUSH2 0x1FD JUMP JUMPDEST CALLVALUE DUP1 ISZERO PUSH2 0x552 JUMPI PUSH1 0x0 DUP1 REVERT JUMPDEST POP PUSH2 0x43C PUSH2 0x1237 JUMP JUMPDEST CALLVALUE DUP1 ISZERO PUSH2 0x567 JUMPI PUSH1 0x0 DUP1 REVERT JUMPDEST POP PUSH2 0x26E PUSH32 0x0 DUP2 JUMP JUMPDEST CALLVALUE DUP1 ISZERO PUSH2 0x59B JUMPI PUSH1 0x0 DUP1 REVERT JUMPDEST POP PUSH2 0x1F3 PUSH32 0x0 DUP2 JUMP JUMPDEST CALLVALUE DUP1 ISZERO PUSH2 0x5CF JUMPI PUSH1 0x0 DUP1 REVERT JUMPDEST POP PUSH2 0x1F3 PUSH32 0x0 DUP2 JUMP JUMPDEST CALLVALUE DUP1 ISZERO PUSH2 0x603 JUMPI PUSH1 0x0 DUP1 REVERT JUMPDEST POP PUSH2 0x43C PUSH2 0x1244 JUMP JUMPDEST CALLVALUE DUP1 ISZERO PUSH2 0x618 JUMPI PUSH1 0x0 DUP1 REVERT JUMPDEST POP PUSH2 0x43C PUSH2 0x1251 JUMP JUMPDEST CALLVALUE DUP1 ISZERO PUSH2 0x62D JUMPI PUSH1 0x0 DUP1 REVERT JUMPDEST POP PUSH2 0x45E PUSH2 0x63C CALLDATASIZE PUSH1 0x4 PUSH2 0x17D3 JUMP JUMPDEST PUSH2 0x125E JUMP JUMPDEST CALLVALUE DUP1 ISZERO PUSH2 0x64D JUMPI PUSH1 0x0 DUP1 REVERT JUMPDEST POP PUSH2 0x26E PUSH32 0x0 DUP2 JUMP JUMPDEST CALLVALUE DUP1 ISZERO PUSH2 0x681 JUMPI PUSH1 0x0 DUP1 REVERT JUMPDEST POP PUSH2 0x26E PUSH32 0x0 DUP2 JUMP JUMPDEST PUSH1 0x0 DUP1 DUP3 GT PUSH2 0x6ED JUMPI PUSH1 0x40 MLOAD PUSH3 0x461BCD PUSH1 0xE5 SHL DUP2 MSTORE PUSH1 0x20 PUSH1 0x4 DUP3 ADD MSTORE PUSH1 0xB PUSH1 0x24 DUP3 ADD MSTORE PUSH11 0x1E995C9BC8185B5BDD5B9D PUSH1 0xAA SHL PUSH1 0x44 DUP3 ADD MSTORE PUSH1 0x64 ADD JUMPDEST PUSH1 0x40 MLOAD DUP1 SWAP2 SUB SWAP1 REVERT JUMPDEST PUSH1 0x6 SLOAD DUP3 GT ISZERO PUSH2 0x72E JUMPI PUSH1 0x40 MLOAD PUSH3 0x461BCD PUSH1 0xE5 SHL DUP2 MSTORE PUSH1 0x20 PUSH1 0x4 DUP3 ADD MSTORE PUSH1 0xC PUSH1 0x24 DUP3 ADD MSTORE PUSH12 0x195E18D959591CC81CDBDB19 PUSH1 0xA2 SHL PUSH1 0x44 DUP3 ADD MSTORE PUSH1 0x64 ADD PUSH2 0x6E4 JUMP JUMPDEST PUSH2 0x744 DUP3 PUSH1 0x6 SLOAD PUSH2 0x73F SWAP2 SWAP1 PUSH2 0x1812 JUMP JUMPDEST PUSH2 0x129C JUMP JUMPDEST PUSH2 0x74F PUSH1 0x6 SLOAD PUSH2 0x129C JUMP JUMPDEST PUSH2 0x759 SWAP2 SWAP1 PUSH2 0x1812 JUMP JUMPDEST SWAP3 SWAP2 POP POP JUMP JUMPDEST PUSH1 0x0 PUSH2 0x769 PUSH2 0x1336 JUMP JUMPDEST PUSH1 0x7 SLOAD PUSH1 0xFF AND ISZERO PUSH2 0x7B0 JUMPI PUSH1 0x40 MLOAD PUSH3 0x461BCD PUSH1 0xE5 SHL DUP2 MSTORE PUSH1 0x20 PUSH1 0x4 DUP3 ADD MSTORE PUSH1 0x11 PUSH1 0x24 DUP3 ADD MSTORE PUSH17 0x18D85B5C185A59DB881B185D5B98DA1959 PUSH1 0x7A SHL PUSH1 0x44 DUP3 ADD MSTORE PUSH1 0x64 ADD PUSH2 0x6E4 JUMP JUMPDEST PUSH2 0x7B9 DUP4 PUSH2 0x6A9 JUMP JUMPDEST SWAP1 POP DUP2 DUP2 LT ISZERO PUSH2 0x7F6 JUMPI PUSH1 0x40 MLOAD PUSH3 0x461BCD PUSH1 0xE5 SHL DUP2 MSTORE PUSH1 0x20 PUSH1 0x4 DUP3 ADD MSTORE PUSH1 0x8 PUSH1 0x24 DUP3 ADD MSTORE PUSH8 0x736C697070616765 PUSH1 0xC0 SHL PUSH1 0x44 DUP3 ADD MSTORE PUSH1 0x64 ADD PUSH2 0x6E4 JUMP JUMPDEST DUP3 PUSH1 0x6 PUSH1 0x0 DUP3 DUP3 SLOAD PUSH2 0x808 SWAP2 SWAP1 PUSH2 0x1812 JUMP JUMPDEST SWAP1 SWAP2 SSTORE POP PUSH2 0x843 SWAP1 POP PUSH1 0x1 PUSH1 0x1 PUSH1 0xA0 SHL SUB PUSH32 0x0 AND CALLER ADDRESS DUP7 PUSH2 0x1360 JUMP JUMPDEST PUSH2 0x84D CALLER DUP3 PUSH2 0x13CD JUMP JUMPDEST PUSH1 0x40 DUP1 MLOAD DUP5 DUP2 MSTORE PUSH1 0x20 DUP2 ADD DUP4 SWAP1 MSTORE CALLER SWAP2 PUSH32 0x2DCF9433D75DB0D8B1C172641F85E319FFE4AD22E108A95D1847CEB906E5195D SWAP2 ADD JUMPDEST PUSH1 0x40 MLOAD DUP1 SWAP2 SUB SWAP1 LOG2 PUSH2 0x759 PUSH1 0x1 PUSH1 0x0 SSTORE JUMP JUMPDEST PUSH1 0x0 PUSH2 0x89D PUSH2 0x1336 JUMP JUMPDEST PUSH1 0x7 SLOAD PUSH1 0xFF AND ISZERO PUSH2 0x8E4 JUMPI PUSH1 0x40 MLOAD PUSH3 0x461BCD PUSH1 0xE5 SHL DUP2 MSTORE PUSH1 0x20 PUSH1 0x4 DUP3 ADD MSTORE PUSH1 0x11 PUSH1 0x24 DUP3 ADD MSTORE PUSH17 0x18D85B5C185A59DB881B185D5B98DA1959 PUSH1 0x7A SHL PUSH1 0x44 DUP3 ADD MSTORE PUSH1 0x64 ADD PUSH2 0x6E4 JUMP JUMPDEST PUSH2 0x8ED DUP4 PUSH2 0xB16 JUMP JUMPDEST SWAP1 POP DUP2 DUP2 GT ISZERO PUSH2 0x92A JUMPI PUSH1 0x40 MLOAD PUSH3 0x461BCD PUSH1 0xE5 SHL DUP2 MSTORE PUSH1 0x20 PUSH1 0x4 DUP3 ADD MSTORE PUSH1 0x8 PUSH1 0x24 DUP3 ADD MSTORE PUSH8 0x736C697070616765 PUSH1 0xC0 SHL PUSH1 0x44 DUP3 ADD MSTORE PUSH1 0x64 ADD PUSH2 0x6E4 JUMP JUMPDEST DUP1 CALLVALUE LT ISZERO PUSH2 0x96F JUMPI PUSH1 0x40 MLOAD PUSH3 0x461BCD PUSH1 0xE5 SHL DUP2 MSTORE PUSH1 0x20 PUSH1 0x4 DUP3 ADD MSTORE PUSH1 0x12 PUSH1 0x24 DUP3 ADD MSTORE PUSH18 0x696E73756666696369656E742076616C7565 PUSH1 0x70 SHL PUSH1 0x44 DUP3 ADD MSTORE PUSH1 0x64 ADD PUSH2 0x6E4 JUMP JUMPDEST DUP3 PUSH1 0x6 PUSH1 0x0 DUP3 DUP3 SLOAD PUSH2 0x981 SWAP2 SWAP1 PUSH2 0x1825 JUMP JUMPDEST SWAP1 SWAP2 SSTORE POP PUSH2 0x9BB SWAP1 POP PUSH1 0x1 PUSH1 0x1 PUSH1 0xA0 SHL SUB PUSH32 0x0 AND CALLER DUP6 PUSH2 0x1467 JUMP JUMPDEST DUP1 CALLVALUE GT ISZERO PUSH2 0x9D6 JUMPI PUSH2 0x9D6 CALLER PUSH2 0x9D1 DUP4 CALLVALUE PUSH2 0x1812 JUMP JUMPDEST PUSH2 0x13CD JUMP JUMPDEST PUSH1 0x40 DUP1 MLOAD DUP5 DUP2 MSTORE PUSH1 0x20 DUP2 ADD DUP4 SWAP1 MSTORE CALLER SWAP2 PUSH32 0x8FAFEBCAF9D154343DAD25669BFA277F4FBACD7AC6B0C4FED522580E040A0F33 SWAP2 ADD PUSH2 0x881 JUMP JUMPDEST PUSH1 0x2 DUP1 SLOAD PUSH2 0xA1B SWAP1 PUSH2 0x1838 JUMP JUMPDEST DUP1 PUSH1 0x1F ADD PUSH1 0x20 DUP1 SWAP2 DIV MUL PUSH1 0x20 ADD PUSH1 0x40 MLOAD SWAP1 DUP2 ADD PUSH1 0x40 MSTORE DUP1 SWAP3 SWAP2 SWAP1 DUP2 DUP2 MSTORE PUSH1 0x20 ADD DUP3 DUP1 SLOAD PUSH2 0xA47 SWAP1 PUSH2 0x1838 JUMP JUMPDEST DUP1 ISZERO PUSH2 0xA94 JUMPI DUP1 PUSH1 0x1F LT PUSH2 0xA69 JUMPI PUSH2 0x100 DUP1 DUP4 SLOAD DIV MUL DUP4 MSTORE SWAP2 PUSH1 0x20 ADD SWAP2 PUSH2 0xA94 JUMP JUMPDEST DUP3 ADD SWAP2 SWAP1 PUSH1 0x0 MSTORE PUSH1 0x20 PUSH1 0x0 KECCAK256 SWAP1 JUMPDEST DUP2 SLOAD DUP2 MSTORE SWAP1 PUSH1 0x1 ADD SWAP1 PUSH1 0x20 ADD DUP1 DUP4 GT PUSH2 0xA77 JUMPI DUP3 SWAP1 SUB PUSH1 0x1F AND DUP3 ADD SWAP2 JUMPDEST POP POP POP POP POP DUP2 JUMP JUMPDEST PUSH2 0xAA4 PUSH2 0x1498 JUMP JUMPDEST PUSH2 0xAAE PUSH1 0x0 PUSH2 0x14C5 JUMP JUMPDEST JUMP JUMPDEST PUSH1 0x0 PUSH2 0xAE7 PUSH32 0x0 PUSH1 0x6 SLOAD PUSH8 0xDE0B6B3A7640000 PUSH2 0x1517 JUMP JUMPDEST PUSH2 0xB11 SWAP1 PUSH32 0x0 PUSH2 0x1825 JUMP JUMPDEST SWAP1 POP SWAP1 JUMP JUMPDEST PUSH1 0x0 DUP1 DUP3 GT PUSH2 0xB55 JUMPI PUSH1 0x40 MLOAD PUSH3 0x461BCD PUSH1 0xE5 SHL DUP2 MSTORE PUSH1 0x20 PUSH1 0x4 DUP3 ADD MSTORE PUSH1 0xB PUSH1 0x24 DUP3 ADD MSTORE PUSH11 0x1E995C9BC8185B5BDD5B9D PUSH1 0xAA SHL PUSH1 0x44 DUP3 ADD MSTORE PUSH1 0x64 ADD PUSH2 0x6E4 JUMP JUMPDEST PUSH32 0x0 DUP3 PUSH1 0x6 SLOAD PUSH2 0xB84 SWAP2 SWAP1 PUSH2 0x1825 JUMP JUMPDEST GT ISZERO PUSH2 0xBBD JUMPI PUSH1 0x40 MLOAD PUSH3 0x461BCD PUSH1 0xE5 SHL DUP2 MSTORE PUSH1 0x20 PUSH1 0x4 DUP3 ADD MSTORE PUSH1 0x8 PUSH1 0x24 DUP3 ADD MSTORE PUSH8 0x1CDBDB19081BDD5D PUSH1 0xC2 SHL PUSH1 0x44 DUP3 ADD MSTORE PUSH1 0x64 ADD PUSH2 0x6E4 JUMP JUMPDEST PUSH2 0xBC8 PUSH1 0x6 SLOAD PUSH2 0x129C JUMP JUMPDEST PUSH2 0x74F DUP4 PUSH1 0x6 SLOAD PUSH2 0x73F SWAP2 SWAP1 PUSH2 0x1825 JUMP JUMPDEST PUSH1 0x0 DUP1 PUSH2 0xBE4 PUSH2 0x1498 JUMP JUMPDEST PUSH2 0xBEC PUSH2 0x1336 JUMP JUMPDEST PUSH1 0x7 SLOAD PUSH1 0xFF AND ISZERO PUSH2 0xC2B JUMPI PUSH1 0x40 MLOAD PUSH3 0x461BCD PUSH1 0xE5 SHL DUP2 MSTORE PUSH1 0x20 PUSH1 0x4 DUP3 ADD MSTORE PUSH1 0x9 PUSH1 0x24 DUP3 ADD MSTORE PUSH9 0x199A5B985B1A5E9959 PUSH1 0xBA SHL PUSH1 0x44 DUP3 ADD MSTORE PUSH1 0x64 ADD PUSH2 0x6E4 JUMP JUMPDEST PUSH32 0x0 PUSH1 0x6 SLOAD EQ DUP1 PUSH2 0xC7B JUMPI POP PUSH32 0x0 SELFBALANCE LT ISZERO JUMPDEST PUSH2 0xCB3 JUMPI PUSH1 0x40 MLOAD PUSH3 0x461BCD PUSH1 0xE5 SHL DUP2 MSTORE PUSH1 0x20 PUSH1 0x4 DUP3 ADD MSTORE PUSH1 0x9 PUSH1 0x24 DUP3 ADD MSTORE PUSH9 0x1D1A1C995CDA1BDB19 PUSH1 0xBA SHL PUSH1 0x44 DUP3 ADD MSTORE PUSH1 0x64 ADD PUSH2 0x6E4 JUMP JUMPDEST PUSH1 0x7 DUP1 SLOAD PUSH1 0xFF NOT AND PUSH1 0x1 OR SWAP1 SSTORE TIMESTAMP PUSH1 0x8 SSTORE PUSH1 0x0 PUSH2 0x2710 PUSH2 0xCF3 PUSH32 0x0 SELFBALANCE PUSH2 0x1872 JUMP JUMPDEST PUSH2 0xCFD SWAP2 SWAP1 PUSH2 0x189F JUMP JUMPDEST SWAP1 POP PUSH32 0x0 DUP1 ISZERO DUP1 ISZERO SWAP1 PUSH2 0xD2F JUMPI POP PUSH1 0x0 DUP3 GT JUMPDEST ISZERO PUSH2 0xF4E JUMPI PUSH2 0xD88 PUSH1 0x1 PUSH1 0x1 PUSH1 0xA0 SHL SUB PUSH32 0x0 AND PUSH32 0x0 DUP4 PUSH2 0x15CD JUMP JUMPDEST PUSH1 0x1 PUSH1 0x1 PUSH1 0xA0 SHL SUB PUSH32 0x0 AND PUSH4 0xF305D719 DUP4 PUSH32 0x0 DUP5 DUP11 DUP11 PUSH32 0x0 PUSH2 0xE09 TIMESTAMP PUSH2 0x708 PUSH2 0x1825 JUMP JUMPDEST PUSH1 0x40 MLOAD PUSH1 0xE0 DUP10 SWAP1 SHL PUSH1 0x1 PUSH1 0x1 PUSH1 0xE0 SHL SUB NOT AND DUP2 MSTORE PUSH1 0x1 PUSH1 0x1 PUSH1 0xA0 SHL SUB SWAP7 DUP8 AND PUSH1 0x4 DUP3 ADD MSTORE PUSH1 0x24 DUP2 ADD SWAP6 SWAP1 SWAP6 MSTORE PUSH1 0x44 DUP6 ADD SWAP4 SWAP1 SWAP4 MSTORE PUSH1 0x64 DUP5 ADD SWAP2 SWAP1 SWAP2 MSTORE SWAP1 SWAP3 AND PUSH1 0x84 DUP3 ADD MSTORE PUSH1 0xA4 DUP2 ADD SWAP2 SWAP1 SWAP2 MSTORE PUSH1 0xC4 ADD PUSH1 0x60 PUSH1 0x40 MLOAD DUP1 DUP4 SUB DUP2 DUP6 DUP9 GAS CALL ISZERO DUP1 ISZERO PUSH2 0xE76 JUMPI RETURNDATASIZE PUSH1 0x0 DUP1 RETURNDATACOPY RETURNDATASIZE PUSH1 0x0 REVERT JUMPDEST POP POP POP POP POP PUSH1 0x40 MLOAD RETURNDATASIZE PUSH1 0x1F NOT PUSH1 0x1F DUP3 ADD AND DUP3 ADD DUP1 PUSH1 0x40 MSTORE POP DUP2 ADD SWAP1 PUSH2 0xE9B SWAP2 SWAP1 PUSH2 0x18C1 JUMP JUMPDEST POP SWAP1 SWAP5 POP SWAP3 POP PUSH2 0xEF6 PUSH1 0x1 PUSH1 0x1 PUSH1 0xA0 SHL SUB PUSH32 0x0 AND PUSH32 0x0 PUSH1 0x0 PUSH2 0x15CD JUMP JUMPDEST DUP4 DUP2 GT ISZERO PUSH2 0xF4E JUMPI PUSH2 0xF4E PUSH2 0xF13 PUSH1 0x1 SLOAD PUSH1 0x1 PUSH1 0x1 PUSH1 0xA0 SHL SUB AND SWAP1 JUMP JUMPDEST PUSH2 0xF1D DUP7 DUP5 PUSH2 0x1812 JUMP JUMPDEST PUSH1 0x1 PUSH1 0x1 PUSH1 0xA0 SHL SUB PUSH32 0x0 AND SWAP2 SWAP1 PUSH2 0x1467 JUMP JUMPDEST PUSH1 0x0 PUSH1 0x6 SLOAD PUSH32 0x0 PUSH2 0xF7E SWAP2 SWAP1 PUSH2 0x1812 JUMP JUMPDEST SWAP1 POP DUP1 ISZERO PUSH2 0x1007 JUMPI PUSH1 0x40 MLOAD PUSH4 0x2770A7EB PUSH1 0xE2 SHL DUP2 MSTORE ADDRESS PUSH1 0x4 DUP3 ADD MSTORE PUSH1 0x24 DUP2 ADD DUP3 SWAP1 MSTORE PUSH32 0x0 PUSH1 0x1 PUSH1 0x1 PUSH1 0xA0 SHL SUB AND SWAP1 PUSH4 0x9DC29FAC SWAP1 PUSH1 0x44 ADD PUSH1 0x0 PUSH1 0x40 MLOAD DUP1 DUP4 SUB DUP2 PUSH1 0x0 DUP8 DUP1 EXTCODESIZE ISZERO DUP1 ISZERO PUSH2 0xFEE JUMPI PUSH1 0x0 DUP1 REVERT JUMPDEST POP GAS CALL ISZERO DUP1 ISZERO PUSH2 0x1002 JUMPI RETURNDATASIZE PUSH1 0x0 DUP1 RETURNDATACOPY RETURNDATASIZE PUSH1 0x0 REVERT JUMPDEST POP POP POP POP JUMPDEST PUSH32 0x0 ISZERO PUSH2 0x1093 JUMPI PUSH2 0x1093 PUSH2 0x1042 PUSH1 0x1 SLOAD PUSH1 0x1 PUSH1 0x1 PUSH1 0xA0 SHL SUB AND SWAP1 JUMP JUMPDEST PUSH1 0x1 PUSH1 0x1 PUSH1 0xA0 SHL SUB PUSH32 0x0 AND SWAP1 PUSH32 0x0 PUSH2 0x1467 JUMP JUMPDEST SELFBALANCE PUSH1 0x0 PUSH2 0x2710 PUSH2 0x10C3 PUSH32 0x0 DUP5 PUSH2 0x1872 JUMP JUMPDEST PUSH2 0x10CD SWAP2 SWAP1 PUSH2 0x189F JUMP JUMPDEST SWAP1 POP PUSH1 0x0 DUP2 GT DUP1 ISZERO PUSH2 0x1107 JUMPI POP PUSH32 0x0 PUSH1 0x1 PUSH1 0x1 PUSH1 0xA0 SHL SUB AND ISZERO ISZERO JUMPDEST ISZERO PUSH2 0x1143 JUMPI PUSH2 0x1136 PUSH32 0x0 DUP3 PUSH2 0x13CD JUMP JUMPDEST PUSH2 0x1140 DUP2 DUP4 PUSH2 0x1812 JUMP JUMPDEST SWAP2 POP JUMPDEST DUP2 ISZERO PUSH2 0x1164 JUMPI PUSH2 0x1164 PUSH2 0x115E PUSH1 0x1 SLOAD PUSH1 0x1 PUSH1 0x1 PUSH1 0xA0 SHL SUB AND SWAP1 JUMP JUMPDEST DUP4 PUSH2 0x13CD JUMP JUMPDEST PUSH32 0x0 PUSH1 0x1 PUSH1 0x1 PUSH1 0xA0 SHL SUB AND PUSH4 0x8A8C523C PUSH1 0x40 MLOAD DUP2 PUSH4 0xFFFFFFFF AND PUSH1 0xE0 SHL DUP2 MSTORE PUSH1 0x4 ADD PUSH1 0x0 PUSH1 0x40 MLOAD DUP1 DUP4 SUB DUP2 PUSH1 0x0 DUP8 DUP1 EXTCODESIZE ISZERO DUP1 ISZERO PUSH2 0x11BF JUMPI PUSH1 0x0 DUP1 REVERT JUMPDEST POP GAS CALL ISZERO DUP1 ISZERO PUSH2 0x11D3 JUMPI RETURNDATASIZE PUSH1 0x0 DUP1 RETURNDATACOPY RETURNDATASIZE PUSH1 0x0 REVERT JUMPDEST POP POP PUSH1 0x40 DUP1 MLOAD DUP11 DUP2 MSTORE PUSH1 0x20 DUP2 ADD DUP11 SWAP1 MSTORE SWAP1 DUP2 ADD DUP5 SWAP1 MSTORE PUSH1 0x60 DUP2 ADD DUP6 SWAP1 MSTORE CALLER SWAP3 POP PUSH32 0xD286A958D004CD376ACC3762FFF407F0DD9BF991995FC81A26FF88081F2B7D1B SWAP2 POP PUSH1 0x80 ADD PUSH1 0x40 MLOAD DUP1 SWAP2 SUB SWAP1 LOG2 POP POP POP POP POP PUSH2 0x1230 PUSH1 0x1 PUSH1 0x0 SSTORE JUMP JUMPDEST SWAP3 POP SWAP3 SWAP1 POP JUMP JUMPDEST PUSH1 0x4 DUP1 SLOAD PUSH2 0xA1B SWAP1 PUSH2 0x1838 JUMP JUMPDEST PUSH1 0x5 DUP1 SLOAD PUSH2 0xA1B SWAP1 PUSH2 0x1838 JUMP JUMPDEST PUSH1 0x3 DUP1 SLOAD PUSH2 0xA1B SWAP1 PUSH2 0x1838 JUMP JUMPDEST PUSH2 0x1266 PUSH2 0x1498 JUMP JUMPDEST PUSH1 0x1 PUSH1 0x1 PUSH1 0xA0 SHL SUB DUP2 AND PUSH2 0x1290 JUMPI PUSH1 0x40 MLOAD PUSH4 0x1E4FBDF7 PUSH1 0xE0 SHL DUP2 MSTORE PUSH1 0x0 PUSH1 0x4 DUP3 ADD MSTORE PUSH1 0x24 ADD PUSH2 0x6E4 JUMP JUMPDEST PUSH2 0x1299 DUP2 PUSH2 0x14C5 JUMP JUMPDEST POP JUMP JUMPDEST PUSH1 0x0 DUP1 PUSH2 0x12D2 DUP4 PUSH32 0x0 PUSH8 0xDE0B6B3A7640000 PUSH2 0x1517 JUMP JUMPDEST SWAP1 POP DUP3 DUP1 MUL PUSH1 0x0 PUSH2 0x1321 PUSH32 0x0 DUP4 PUSH8 0xDE0B6B3A7640000 PUSH2 0x1312 DUP2 PUSH1 0x2 PUSH2 0x1872 JUMP JUMPDEST PUSH2 0x131C SWAP2 SWAP1 PUSH2 0x1872 JUMP JUMPDEST PUSH2 0x1517 JUMP JUMPDEST SWAP1 POP PUSH2 0x132D DUP2 DUP5 PUSH2 0x1825 JUMP JUMPDEST SWAP6 SWAP5 POP POP POP POP POP JUMP JUMPDEST PUSH1 0x2 PUSH1 0x0 SLOAD SUB PUSH2 0x1359 JUMPI PUSH1 0x40 MLOAD PUSH4 0x3EE5AEB5 PUSH1 0xE0 SHL DUP2 MSTORE PUSH1 0x4 ADD PUSH1 0x40 MLOAD DUP1 SWAP2 SUB SWAP1 REVERT JUMPDEST PUSH1 0x2 PUSH1 0x0 SSTORE JUMP JUMPDEST PUSH1 0x40 MLOAD PUSH1 0x1 PUSH1 0x1 PUSH1 0xA0 SHL SUB DUP5 DUP2 AND PUSH1 0x24 DUP4 ADD MSTORE DUP4 DUP2 AND PUSH1 0x44 DUP4 ADD MSTORE PUSH1 0x64 DUP3 ADD DUP4 SWAP1 MSTORE PUSH2 0x13C7 SWAP2 DUP7 SWAP2 DUP3 AND SWAP1 PUSH4 0x23B872DD SWAP1 PUSH1 0x84 ADD JUMPDEST PUSH1 0x40 MLOAD PUSH1 0x20 DUP2 DUP4 SUB SUB DUP2 MSTORE SWAP1 PUSH1 0x40 MSTORE SWAP2 POP PUSH1 0xE0 SHL PUSH1 0x20 DUP3 ADD DUP1 MLOAD PUSH1 0x1 PUSH1 0x1 PUSH1 0xE0 SHL SUB DUP4 DUP2 DUP4 AND OR DUP4 MSTORE POP POP POP POP PUSH2 0x1659 JUMP JUMPDEST POP POP POP POP JUMP JUMPDEST PUSH1 0x0 DUP3 PUSH1 0x1 PUSH1 0x1 PUSH1 0xA0 SHL SUB AND DUP3 PUSH1 0x40 MLOAD PUSH1 0x0 PUSH1 0x40 MLOAD DUP1 DUP4 SUB DUP2 DUP6 DUP8 GAS CALL SWAP3 POP POP POP RETURNDATASIZE DUP1 PUSH1 0x0 DUP2 EQ PUSH2 0x141A JUMPI PUSH1 0x40 MLOAD SWAP2 POP PUSH1 0x1F NOT PUSH1 0x3F RETURNDATASIZE ADD AND DUP3 ADD PUSH1 0x40 MSTORE RETURNDATASIZE DUP3 MSTORE RETURNDATASIZE PUSH1 0x0 PUSH1 0x20 DUP5 ADD RETURNDATACOPY PUSH2 0x141F JUMP JUMPDEST PUSH1 0x60 SWAP2 POP JUMPDEST POP POP SWAP1 POP DUP1 PUSH2 0x1462 JUMPI PUSH1 0x40 MLOAD PUSH3 0x461BCD PUSH1 0xE5 SHL DUP2 MSTORE PUSH1 0x20 PUSH1 0x4 DUP3 ADD MSTORE PUSH1 0xF PUSH1 0x24 DUP3 ADD MSTORE PUSH15 0x1D1C985B9CD9995C8819985A5B1959 PUSH1 0x8A SHL PUSH1 0x44 DUP3 ADD MSTORE PUSH1 0x64 ADD PUSH2 0x6E4 JUMP JUMPDEST POP POP POP JUMP JUMPDEST PUSH1 0x40 MLOAD PUSH1 0x1 PUSH1 0x1 PUSH1 0xA0 SHL SUB DUP4 DUP2 AND PUSH1 0x24 DUP4 ADD MSTORE PUSH1 0x44 DUP3 ADD DUP4 SWAP1 MSTORE PUSH2 0x1462 SWAP2 DUP6 SWAP2 DUP3 AND SWAP1 PUSH4 0xA9059CBB SWAP1 PUSH1 0x64 ADD PUSH2 0x1395 JUMP JUMPDEST PUSH1 0x1 SLOAD PUSH1 0x1 PUSH1 0x1 PUSH1 0xA0 SHL SUB AND CALLER EQ PUSH2 0xAAE JUMPI PUSH1 0x40 MLOAD PUSH4 0x118CDAA7 PUSH1 0xE0 SHL DUP2 MSTORE CALLER PUSH1 0x4 DUP3 ADD MSTORE PUSH1 0x24 ADD PUSH2 0x6E4 JUMP JUMPDEST PUSH1 0x1 DUP1 SLOAD PUSH1 0x1 PUSH1 0x1 PUSH1 0xA0 SHL SUB DUP4 DUP2 AND PUSH1 0x1 PUSH1 0x1 PUSH1 0xA0 SHL SUB NOT DUP4 AND DUP2 OR SWAP1 SWAP4 SSTORE PUSH1 0x40 MLOAD SWAP2 AND SWAP2 SWAP1 DUP3 SWAP1 PUSH32 0x8BE0079C531659141344CD1FD0A4F28419497F9722A3DAAFE3B4186F6B6457E0 SWAP1 PUSH1 0x0 SWAP1 LOG3 POP POP JUMP JUMPDEST PUSH1 0x0 DUP1 PUSH1 0x0 PUSH2 0x1526 DUP7 DUP7 PUSH2 0x16CA JUMP JUMPDEST SWAP2 POP SWAP2 POP DUP2 PUSH1 0x0 SUB PUSH2 0x154B JUMPI DUP4 DUP2 DUP2 PUSH2 0x1541 JUMPI PUSH2 0x1541 PUSH2 0x1889 JUMP JUMPDEST DIV SWAP3 POP POP POP PUSH2 0x15C6 JUMP JUMPDEST DUP2 DUP5 GT PUSH2 0x1562 JUMPI PUSH2 0x1562 PUSH1 0x3 DUP6 ISZERO MUL PUSH1 0x11 XOR PUSH2 0x16E8 JUMP JUMPDEST PUSH1 0x0 DUP5 DUP7 DUP9 MULMOD PUSH1 0x0 DUP7 DUP2 SUB DUP8 AND SWAP7 DUP8 SWAP1 DIV SWAP7 PUSH1 0x2 PUSH1 0x3 DUP10 MUL DUP2 XOR DUP1 DUP11 MUL DUP3 SUB MUL DUP1 DUP11 MUL DUP3 SUB MUL DUP1 DUP11 MUL DUP3 SUB MUL DUP1 DUP11 MUL DUP3 SUB MUL DUP1 DUP11 MUL DUP3 SUB MUL DUP1 DUP11 MUL SWAP1 SWAP2 SUB MUL SWAP2 DUP2 SWAP1 SUB DUP2 SWAP1 DIV PUSH1 0x1 ADD DUP6 DUP5 GT SWAP1 SWAP7 SUB SWAP6 SWAP1 SWAP6 MUL SWAP2 SWAP1 SWAP4 SUB SWAP4 SWAP1 SWAP4 DIV SWAP3 SWAP1 SWAP3 OR MUL SWAP2 POP POP JUMPDEST SWAP4 SWAP3 POP POP POP JUMP JUMPDEST PUSH1 0x40 DUP1 MLOAD PUSH1 0x1 PUSH1 0x1 PUSH1 0xA0 SHL SUB DUP5 AND PUSH1 0x24 DUP3 ADD MSTORE PUSH1 0x44 DUP1 DUP3 ADD DUP5 SWAP1 MSTORE DUP3 MLOAD DUP1 DUP4 SUB SWAP1 SWAP2 ADD DUP2 MSTORE PUSH1 0x64 SWAP1 SWAP2 ADD SWAP1 SWAP2 MSTORE PUSH1 0x20 DUP2 ADD DUP1 MLOAD PUSH1 0x1 PUSH1 0x1 PUSH1 0xE0 SHL SUB AND PUSH4 0x95EA7B3 PUSH1 0xE0 SHL OR SWAP1 MSTORE PUSH2 0x161E DUP5 DUP3 PUSH2 0x16FA JUMP JUMPDEST PUSH2 0x13C7 JUMPI PUSH1 0x40 MLOAD PUSH1 0x1 PUSH1 0x1 PUSH1 0xA0 SHL SUB DUP5 DUP2 AND PUSH1 0x24 DUP4 ADD MSTORE PUSH1 0x0 PUSH1 0x44 DUP4 ADD MSTORE PUSH2 0x1653 SWAP2 DUP7 SWAP2 DUP3 AND SWAP1 PUSH4 0x95EA7B3 SWAP1 PUSH1 0x64 ADD PUSH2 0x1395 JUMP JUMPDEST PUSH2 0x13C7 DUP5 DUP3 JUMPDEST PUSH1 0x0 DUP1 PUSH1 0x20 PUSH1 0x0 DUP5 MLOAD PUSH1 0x20 DUP7 ADD PUSH1 0x0 DUP9 GAS CALL DUP1 PUSH2 0x167C JUMPI PUSH1 0x40 MLOAD RETURNDATASIZE PUSH1 0x0 DUP3 RETURNDATACOPY RETURNDATASIZE DUP2 REVERT JUMPDEST POP POP PUSH1 0x0 MLOAD RETURNDATASIZE SWAP2 POP DUP2 ISZERO PUSH2 0x1694 JUMPI DUP1 PUSH1 0x1 EQ ISZERO PUSH2 0x16A1 JUMP JUMPDEST PUSH1 0x1 PUSH1 0x1 PUSH1 0xA0 SHL SUB DUP5 AND EXTCODESIZE ISZERO JUMPDEST ISZERO PUSH2 0x13C7 JUMPI PUSH1 0x40 MLOAD PUSH4 0x5274AFE7 PUSH1 0xE0 SHL DUP2 MSTORE PUSH1 0x1 PUSH1 0x1 PUSH1 0xA0 SHL SUB DUP6 AND PUSH1 0x4 DUP3 ADD MSTORE PUSH1 0x24 ADD PUSH2 0x6E4 JUMP JUMPDEST PUSH1 0x0 DUP1 PUSH1 0x0 NOT DUP4 DUP6 MULMOD SWAP4 SWAP1 SWAP3 MUL DUP1 DUP5 LT SWAP4 DUP2 SWAP1 SUB SWAP4 SWAP1 SWAP4 SUB SWAP4 SWAP2 POP POP JUMP JUMPDEST PUSH4 0x4E487B71 PUSH1 0x0 MSTORE DUP1 PUSH1 0x20 MSTORE PUSH1 0x24 PUSH1 0x1C REVERT JUMPDEST PUSH1 0x0 DUP1 PUSH1 0x0 DUP1 PUSH1 0x20 PUSH1 0x0 DUP7 MLOAD PUSH1 0x20 DUP9 ADD PUSH1 0x0 DUP11 GAS CALL SWAP3 POP RETURNDATASIZE SWAP2 POP PUSH1 0x0 MLOAD SWAP1 POP DUP3 DUP1 ISZERO PUSH2 0x173F JUMPI POP DUP2 ISZERO PUSH2 0x1730 JUMPI DUP1 PUSH1 0x1 EQ PUSH2 0x173F JUMP JUMPDEST PUSH1 0x0 DUP7 PUSH1 0x1 PUSH1 0x1 PUSH1 0xA0 SHL SUB AND EXTCODESIZE GT JUMPDEST SWAP7 SWAP6 POP POP POP POP POP POP JUMP JUMPDEST PUSH1 0x0 PUSH1 0x20 DUP3 DUP5 SUB SLT ISZERO PUSH2 0x175B JUMPI PUSH1 0x0 DUP1 REVERT JUMPDEST POP CALLDATALOAD SWAP2 SWAP1 POP JUMP JUMPDEST PUSH1 0x0 DUP1 PUSH1 0x40 DUP4 DUP6 SUB SLT ISZERO PUSH2 0x1775 JUMPI PUSH1 0x0 DUP1 REVERT JUMPDEST POP POP DUP1 CALLDATALOAD SWAP3 PUSH1 0x20 SWAP1 SWAP2 ADD CALLDATALOAD SWAP2 POP JUMP JUMPDEST PUSH1 0x0 PUSH1 0x20 DUP1 DUP4 MSTORE DUP4 MLOAD DUP1 PUSH1 0x20 DUP6 ADD MSTORE PUSH1 0x0 JUMPDEST DUP2 DUP2 LT ISZERO PUSH2 0x17B2 JUMPI DUP6 DUP2 ADD DUP4 ADD MLOAD DUP6 DUP3 ADD PUSH1 0x40 ADD MSTORE DUP3 ADD PUSH2 0x1796 JUMP JUMPDEST POP PUSH1 0x0 PUSH1 0x40 DUP3 DUP7 ADD ADD MSTORE PUSH1 0x40 PUSH1 0x1F NOT PUSH1 0x1F DUP4 ADD AND DUP6 ADD ADD SWAP3 POP POP POP SWAP3 SWAP2 POP POP JUMP JUMPDEST PUSH1 0x0 PUSH1 0x20 DUP3 DUP5 SUB SLT ISZERO PUSH2 0x17E5 JUMPI PUSH1 0x0 DUP1 REVERT JUMPDEST DUP2 CALLDATALOAD PUSH1 0x1 PUSH1 0x1 PUSH1 0xA0 SHL SUB DUP2 AND DUP2 EQ PUSH2 0x15C6 JUMPI PUSH1 0x0 DUP1 REVERT JUMPDEST PUSH4 0x4E487B71 PUSH1 0xE0 SHL PUSH1 0x0 MSTORE PUSH1 0x11 PUSH1 0x4 MSTORE PUSH1 0x24 PUSH1 0x0 REVERT JUMPDEST DUP2 DUP2 SUB DUP2 DUP2 GT ISZERO PUSH2 0x759 JUMPI PUSH2 0x759 PUSH2 0x17FC JUMP JUMPDEST DUP1 DUP3 ADD DUP1 DUP3 GT ISZERO PUSH2 0x759 JUMPI PUSH2 0x759 PUSH2 0x17FC JUMP JUMPDEST PUSH1 0x1 DUP2 DUP2 SHR SWAP1 DUP3 AND DUP1 PUSH2 0x184C JUMPI PUSH1 0x7F DUP3 AND SWAP2 POP JUMPDEST PUSH1 0x20 DUP3 LT DUP2 SUB PUSH2 0x186C JUMPI PUSH4 0x4E487B71 PUSH1 0xE0 SHL PUSH1 0x0 MSTORE PUSH1 0x22 PUSH1 0x4 MSTORE PUSH1 0x24 PUSH1 0x0 REVERT JUMPDEST POP SWAP2 SWAP1 POP JUMP JUMPDEST DUP1 DUP3 MUL DUP2 ISZERO DUP3 DUP3 DIV DUP5 EQ OR PUSH2 0x759 JUMPI PUSH2 0x759 PUSH2 0x17FC JUMP JUMPDEST PUSH4 0x4E487B71 PUSH1 0xE0 SHL PUSH1 0x0 MSTORE PUSH1 0x12 PUSH1 0x4 MSTORE PUSH1 0x24 PUSH1 0x0 REVERT JUMPDEST PUSH1 0x0 DUP3 PUSH2 0x18BC JUMPI PUSH4 0x4E487B71 PUSH1 0xE0 SHL PUSH1 0x0 MSTORE PUSH1 0x12 PUSH1 0x4 MSTORE PUSH1 0x24 PUSH1 0x0 REVERT JUMPDEST POP DIV SWAP1 JUMP JUMPDEST PUSH1 0x0 DUP1 PUSH1 0x0 PUSH1 0x60 DUP5 DUP7 SUB SLT ISZERO PUSH2 0x18D6 JUMPI PUSH1 0x0 DUP1 REVERT JUMPDEST DUP4 MLOAD SWAP3 POP PUSH1 0x20 DUP5 ADD MLOAD SWAP2 POP PUSH1 0x40 DUP5 ADD MLOAD SWAP1 POP SWAP3 POP SWAP3 POP SWAP3 JUMP INVALID LOG2 PUSH5 0x6970667358 0x22 SLT KECCAK256 0x25 LOG3 0xA5 DIV TLOAD DUP8 PUSH16 0x8890ACDFECB45072402FDB42B66197D8 CALLVALUE 0xC3 0xE5 PUSH16 0x270613161064736F6C63430008180033 PUSH1 0xA0 PUSH1 0x40 MSTORE CALLVALUE DUP1 ISZERO PUSH3 0x11 JUMPI PUSH1 0x0 DUP1 REVERT JUMPDEST POP PUSH1 0x40 MLOAD PUSH3 0xF38 CODESIZE SUB DUP1 PUSH3 0xF38 DUP4 CODECOPY DUP2 ADD PUSH1 0x40 DUP2 SWAP1 MSTORE PUSH3 0x34 SWAP2 PUSH3 0x242 JUMP JUMPDEST DUP1 DUP5 DUP5 PUSH1 0x3 PUSH3 0x45 DUP4 DUP3 PUSH3 0x368 JUMP JUMPDEST POP PUSH1 0x4 PUSH3 0x54 DUP3 DUP3 PUSH3 0x368 JUMP JUMPDEST POP POP POP PUSH1 0x1 PUSH1 0x1 PUSH1 0xA0 SHL SUB DUP2 AND PUSH3 0x87 JUMPI PUSH1 0x40 MLOAD PUSH4 0x1E4FBDF7 PUSH1 0xE0 SHL DUP2 MSTORE PUSH1 0x0 PUSH1 0x4 DUP3 ADD MSTORE PUSH1 0x24 ADD JUMPDEST PUSH1 0x40 MLOAD DUP1 SWAP2 SUB SWAP1 REVERT JUMPDEST PUSH3 0x92 DUP2 PUSH3 0x128 JUMP JUMPDEST POP PUSH1 0x0 DUP3 GT PUSH3 0xD3 JUMPI PUSH1 0x40 MLOAD PUSH3 0x461BCD PUSH1 0xE5 SHL DUP2 MSTORE PUSH1 0x20 PUSH1 0x4 DUP3 ADD MSTORE PUSH1 0xB PUSH1 0x24 DUP3 ADD MSTORE PUSH11 0x636170206973207A65726F PUSH1 0xA8 SHL PUSH1 0x44 DUP3 ADD MSTORE PUSH1 0x64 ADD PUSH3 0x7E JUMP JUMPDEST PUSH1 0x1 PUSH1 0x1 PUSH1 0xA0 SHL SUB DUP2 AND PUSH3 0x11B JUMPI PUSH1 0x40 MLOAD PUSH3 0x461BCD PUSH1 0xE5 SHL DUP2 MSTORE PUSH1 0x20 PUSH1 0x4 DUP3 ADD MSTORE PUSH1 0xD PUSH1 0x24 DUP3 ADD MSTORE PUSH13 0x6F776E6572206973207A65726F PUSH1 0x98 SHL PUSH1 0x44 DUP3 ADD MSTORE PUSH1 0x64 ADD PUSH3 0x7E JUMP JUMPDEST POP PUSH1 0x80 MSTORE POP PUSH3 0x434 SWAP1 POP JUMP JUMPDEST PUSH1 0x5 DUP1 SLOAD PUSH1 0x1 PUSH1 0x1 PUSH1 0xA0 SHL SUB DUP4 DUP2 AND PUSH1 0x1 PUSH1 0x1 PUSH1 0xA0 SHL SUB NOT DUP4 AND DUP2 OR SWAP1 SWAP4 SSTORE PUSH1 0x40 MLOAD SWAP2 AND SWAP2 SWAP1 DUP3 SWAP1 PUSH32 0x8BE0079C531659141344CD1FD0A4F28419497F9722A3DAAFE3B4186F6B6457E0 SWAP1 PUSH1 0x0 SWAP1 LOG3 POP POP JUMP JUMPDEST PUSH4 0x4E487B71 PUSH1 0xE0 SHL PUSH1 0x0 MSTORE PUSH1 0x41 PUSH1 0x4 MSTORE PUSH1 0x24 PUSH1 0x0 REVERT JUMPDEST PUSH1 0x0 DUP3 PUSH1 0x1F DUP4 ADD SLT PUSH3 0x1A2 JUMPI PUSH1 0x0 DUP1 REVERT JUMPDEST DUP2 MLOAD PUSH1 0x1 PUSH1 0x1 PUSH1 0x40 SHL SUB DUP1 DUP3 GT ISZERO PUSH3 0x1BF JUMPI PUSH3 0x1BF PUSH3 0x17A JUMP JUMPDEST PUSH1 0x40 MLOAD PUSH1 0x1F DUP4 ADD PUSH1 0x1F NOT SWAP1 DUP2 AND PUSH1 0x3F ADD AND DUP2 ADD SWAP1 DUP3 DUP3 GT DUP2 DUP4 LT OR ISZERO PUSH3 0x1EA JUMPI PUSH3 0x1EA PUSH3 0x17A JUMP JUMPDEST DUP2 PUSH1 0x40 MSTORE DUP4 DUP2 MSTORE PUSH1 0x20 SWAP3 POP DUP7 PUSH1 0x20 DUP6 DUP9 ADD ADD GT ISZERO PUSH3 0x208 JUMPI PUSH1 0x0 DUP1 REVERT JUMPDEST PUSH1 0x0 SWAP2 POP JUMPDEST DUP4 DUP3 LT ISZERO PUSH3 0x22C JUMPI DUP6 DUP3 ADD DUP4 ADD MLOAD DUP2 DUP4 ADD DUP5 ADD MSTORE SWAP1 DUP3 ADD SWAP1 PUSH3 0x20D JUMP JUMPDEST PUSH1 0x0 PUSH1 0x20 DUP6 DUP4 ADD ADD MSTORE DUP1 SWAP5 POP POP POP POP POP SWAP3 SWAP2 POP POP JUMP JUMPDEST PUSH1 0x0 DUP1 PUSH1 0x0 DUP1 PUSH1 0x80 DUP6 DUP8 SUB SLT ISZERO PUSH3 0x259 JUMPI PUSH1 0x0 DUP1 REVERT JUMPDEST DUP5 MLOAD PUSH1 0x1 PUSH1 0x1 PUSH1 0x40 SHL SUB DUP1 DUP3 GT ISZERO PUSH3 0x271 JUMPI PUSH1 0x0 DUP1 REVERT JUMPDEST PUSH3 0x27F DUP9 DUP4 DUP10 ADD PUSH3 0x190 JUMP JUMPDEST SWAP6 POP PUSH1 0x20 DUP8 ADD MLOAD SWAP2 POP DUP1 DUP3 GT ISZERO PUSH3 0x296 JUMPI PUSH1 0x0 DUP1 REVERT JUMPDEST POP PUSH3 0x2A5 DUP8 DUP3 DUP9 ADD PUSH3 0x190 JUMP JUMPDEST PUSH1 0x40 DUP8 ADD MLOAD PUSH1 0x60 DUP9 ADD MLOAD SWAP2 SWAP6 POP SWAP4 POP SWAP1 POP PUSH1 0x1 PUSH1 0x1 PUSH1 0xA0 SHL SUB DUP2 AND DUP2 EQ PUSH3 0x2CC JUMPI PUSH1 0x0 DUP1 REVERT JUMPDEST SWAP4 SWAP7 SWAP3 SWAP6 POP SWAP1 SWAP4 POP POP JUMP JUMPDEST PUSH1 0x1 DUP2 DUP2 SHR SWAP1 DUP3 AND DUP1 PUSH3 0x2EC JUMPI PUSH1 0x7F DUP3 AND SWAP2 POP JUMPDEST PUSH1 0x20 DUP3 LT DUP2 SUB PUSH3 0x30D JUMPI PUSH4 0x4E487B71 PUSH1 0xE0 SHL PUSH1 0x0 MSTORE PUSH1 0x22 PUSH1 0x4 MSTORE PUSH1 0x24 PUSH1 0x0 REVERT JUMPDEST POP SWAP2 SWAP1 POP JUMP JUMPDEST PUSH1 0x1F DUP3 GT ISZERO PUSH3 0x363 JUMPI PUSH1 0x0 DUP2 PUSH1 0x0 MSTORE PUSH1 0x20 PUSH1 0x0 KECCAK256 PUSH1 0x1F DUP6 ADD PUSH1 0x5 SHR DUP2 ADD PUSH1 0x20 DUP7 LT ISZERO PUSH3 0x33E JUMPI POP DUP1 JUMPDEST PUSH1 0x1F DUP6 ADD PUSH1 0x5 SHR DUP3 ADD SWAP2 POP JUMPDEST DUP2 DUP2 LT ISZERO PUSH3 0x35F JUMPI DUP3 DUP2 SSTORE PUSH1 0x1 ADD PUSH3 0x34A JUMP JUMPDEST POP POP POP JUMPDEST POP POP POP JUMP JUMPDEST DUP2 MLOAD PUSH1 0x1 PUSH1 0x1 PUSH1 0x40 SHL SUB DUP2 GT ISZERO PUSH3 0x384 JUMPI PUSH3 0x384 PUSH3 0x17A JUMP JUMPDEST PUSH3 0x39C DUP2 PUSH3 0x395 DUP5 SLOAD PUSH3 0x2D7 JUMP JUMPDEST DUP5 PUSH3 0x313 JUMP JUMPDEST PUSH1 0x20 DUP1 PUSH1 0x1F DUP4 GT PUSH1 0x1 DUP2 EQ PUSH3 0x3D4 JUMPI PUSH1 0x0 DUP5 ISZERO PUSH3 0x3BB JUMPI POP DUP6 DUP4 ADD MLOAD JUMPDEST PUSH1 0x0 NOT PUSH1 0x3 DUP7 SWAP1 SHL SHR NOT AND PUSH1 0x1 DUP6 SWAP1 SHL OR DUP6 SSTORE PUSH3 0x35F JUMP JUMPDEST PUSH1 0x0 DUP6 DUP2 MSTORE PUSH1 0x20 DUP2 KECCAK256 PUSH1 0x1F NOT DUP7 AND SWAP2 JUMPDEST DUP3 DUP2 LT ISZERO PUSH3 0x405 JUMPI DUP9 DUP7 ADD MLOAD DUP3 SSTORE SWAP5 DUP5 ADD SWAP5 PUSH1 0x1 SWAP1 SWAP2 ADD SWAP1 DUP5 ADD PUSH3 0x3E4 JUMP JUMPDEST POP DUP6 DUP3 LT ISZERO PUSH3 0x424 JUMPI DUP8 DUP6 ADD MLOAD PUSH1 0x0 NOT PUSH1 0x3 DUP9 SWAP1 SHL PUSH1 0xF8 AND SHR NOT AND DUP2 SSTORE JUMPDEST POP POP POP POP POP PUSH1 0x1 SWAP1 DUP2 SHL ADD SWAP1 SSTORE POP JUMP JUMPDEST PUSH1 0x80 MLOAD PUSH2 0xAE1 PUSH3 0x457 PUSH1 0x0 CODECOPY PUSH1 0x0 DUP2 DUP2 PUSH2 0x18A ADD MSTORE PUSH2 0x3C2 ADD MSTORE PUSH2 0xAE1 PUSH1 0x0 RETURN INVALID PUSH1 0x80 PUSH1 0x40 MSTORE CALLVALUE DUP1 ISZERO PUSH2 0x10 JUMPI PUSH1 0x0 DUP1 REVERT JUMPDEST POP PUSH1 0x4 CALLDATASIZE LT PUSH2 0x10B JUMPI PUSH1 0x0 CALLDATALOAD PUSH1 0xE0 SHR DUP1 PUSH4 0x70A08231 GT PUSH2 0xA2 JUMPI DUP1 PUSH4 0x95D89B41 GT PUSH2 0x71 JUMPI DUP1 PUSH4 0x95D89B41 EQ PUSH2 0x229 JUMPI DUP1 PUSH4 0x9DC29FAC EQ PUSH2 0x231 JUMPI DUP1 PUSH4 0xA9059CBB EQ PUSH2 0x244 JUMPI DUP1 PUSH4 0xDD62ED3E EQ PUSH2 0x257 JUMPI DUP1 PUSH4 0xF2FDE38B EQ PUSH2 0x290 JUMPI PUSH1 0x0 DUP1 REVERT JUMPDEST DUP1 PUSH4 0x70A08231 EQ PUSH2 0x1D5 JUMPI DUP1 PUSH4 0x715018A6 EQ PUSH2 0x1FE JUMPI DUP1 PUSH4 0x8A8C523C EQ PUSH2 0x206 JUMPI DUP1 PUSH4 0x8DA5CB5B EQ PUSH2 0x20E JUMPI PUSH1 0x0 DUP1 REVERT JUMPDEST DUP1 PUSH4 0x313CE567 GT PUSH2 0xDE JUMPI DUP1 PUSH4 0x313CE567 EQ PUSH2 0x176 JUMPI DUP1 PUSH4 0x355274EA EQ PUSH2 0x185 JUMPI DUP1 PUSH4 0x40C10F19 EQ PUSH2 0x1AC JUMPI DUP1 PUSH4 0x4ADA218B EQ PUSH2 0x1C1 JUMPI PUSH1 0x0 DUP1 REVERT JUMPDEST DUP1 PUSH4 0x6FDDE03 EQ PUSH2 0x110 JUMPI DUP1 PUSH4 0x95EA7B3 EQ PUSH2 0x12E JUMPI DUP1 PUSH4 0x18160DDD EQ PUSH2 0x151 JUMPI DUP1 PUSH4 0x23B872DD EQ PUSH2 0x163 JUMPI JUMPDEST PUSH1 0x0 DUP1 REVERT JUMPDEST PUSH2 0x118 PUSH2 0x2A3 JUMP JUMPDEST PUSH1 0x40 MLOAD PUSH2 0x125 SWAP2 SWAP1 PUSH2 0x92A JUMP JUMPDEST PUSH1 0x40 MLOAD DUP1 SWAP2 SUB SWAP1 RETURN JUMPDEST PUSH2 0x141 PUSH2 0x13C CALLDATASIZE PUSH1 0x4 PUSH2 0x995 JUMP JUMPDEST PUSH2 0x335 JUMP JUMPDEST PUSH1 0x40 MLOAD SWAP1 ISZERO ISZERO DUP2 MSTORE PUSH1 0x20 ADD PUSH2 0x125 JUMP JUMPDEST PUSH1 0x2 SLOAD JUMPDEST PUSH1 0x40 MLOAD SWAP1 DUP2 MSTORE PUSH1 0x20 ADD PUSH2 0x125 JUMP JUMPDEST PUSH2 0x141 PUSH2 0x171 CALLDATASIZE PUSH1 0x4 PUSH2 0x9BF JUMP JUMPDEST PUSH2 0x34F JUMP JUMPDEST PUSH1 0x40 MLOAD PUSH1 0x12 DUP2 MSTORE PUSH1 0x20 ADD PUSH2 0x125 JUMP JUMPDEST PUSH2 0x155 PUSH32 0x0 DUP2 JUMP JUMPDEST PUSH2 0x1BF PUSH2 0x1BA CALLDATASIZE PUSH1 0x4 PUSH2 0x995 JUMP JUMPDEST PUSH2 0x373 JUMP JUMPDEST STOP JUMPDEST PUSH1 0x5 SLOAD PUSH2 0x141 SWAP1 PUSH1 0x1 PUSH1 0xA0 SHL SWAP1 DIV PUSH1 0xFF AND DUP2 JUMP JUMPDEST PUSH2 0x155 PUSH2 0x1E3 CALLDATASIZE PUSH1 0x4 PUSH2 0x9FB JUMP JUMPDEST PUSH1 0x1 PUSH1 0x1 PUSH1 0xA0 SHL SUB AND PUSH1 0x0 SWAP1 DUP2 MSTORE PUSH1 0x20 DUP2 SWAP1 MSTORE PUSH1 0x40 SWAP1 KECCAK256 SLOAD SWAP1 JUMP JUMPDEST PUSH2 0x1BF PUSH2 0x440 JUMP JUMPDEST PUSH2 0x1BF PUSH2 0x454 JUMP JUMPDEST PUSH1 0x5 SLOAD PUSH1 0x40 MLOAD PUSH1 0x1 PUSH1 0x1 PUSH1 0xA0 SHL SUB SWAP1 SWAP2 AND DUP2 MSTORE PUSH1 0x20 ADD PUSH2 0x125 JUMP JUMPDEST PUSH2 0x118 PUSH2 0x471 JUMP JUMPDEST PUSH2 0x1BF PUSH2 0x23F CALLDATASIZE PUSH1 0x4 PUSH2 0x995 JUMP JUMPDEST PUSH2 0x480 JUMP JUMPDEST PUSH2 0x141 PUSH2 0x252 CALLDATASIZE PUSH1 0x4 PUSH2 0x995 JUMP JUMPDEST PUSH2 0x492 JUMP JUMPDEST PUSH2 0x155 PUSH2 0x265 CALLDATASIZE PUSH1 0x4 PUSH2 0xA1D JUMP JUMPDEST PUSH1 0x1 PUSH1 0x1 PUSH1 0xA0 SHL SUB SWAP2 DUP3 AND PUSH1 0x0 SWAP1 DUP2 MSTORE PUSH1 0x1 PUSH1 0x20 SWAP1 DUP2 MSTORE PUSH1 0x40 DUP1 DUP4 KECCAK256 SWAP4 SWAP1 SWAP5 AND DUP3 MSTORE SWAP2 SWAP1 SWAP2 MSTORE KECCAK256 SLOAD SWAP1 JUMP JUMPDEST PUSH2 0x1BF PUSH2 0x29E CALLDATASIZE PUSH1 0x4 PUSH2 0x9FB JUMP JUMPDEST PUSH2 0x4A0 JUMP JUMPDEST PUSH1 0x60 PUSH1 0x3 DUP1 SLOAD PUSH2 0x2B2 SWAP1 PUSH2 0xA50 JUMP JUMPDEST DUP1 PUSH1 0x1F ADD PUSH1 0x20 DUP1 SWAP2 DIV MUL PUSH1 0x20 ADD PUSH1 0x40 MLOAD SWAP1 DUP2 ADD PUSH1 0x40 MSTORE DUP1 SWAP3 SWAP2 SWAP1 DUP2 DUP2 MSTORE PUSH1 0x20 ADD DUP3 DUP1 SLOAD PUSH2 0x2DE SWAP1 PUSH2 0xA50 JUMP JUMPDEST DUP1 ISZERO PUSH2 0x32B JUMPI DUP1 PUSH1 0x1F LT PUSH2 0x300 JUMPI PUSH2 0x100 DUP1 DUP4 SLOAD DIV MUL DUP4 MSTORE SWAP2 PUSH1 0x20 ADD SWAP2 PUSH2 0x32B JUMP JUMPDEST DUP3 ADD SWAP2 SWAP1 PUSH1 0x0 MSTORE PUSH1 0x20 PUSH1 0x0 KECCAK256 SWAP1 JUMPDEST DUP2 SLOAD DUP2 MSTORE SWAP1 PUSH1 0x1 ADD SWAP1 PUSH1 0x20 ADD DUP1 DUP4 GT PUSH2 0x30E JUMPI DUP3 SWAP1 SUB PUSH1 0x1F AND DUP3 ADD SWAP2 JUMPDEST POP POP POP POP POP SWAP1 POP SWAP1 JUMP JUMPDEST PUSH1 0x0 CALLER PUSH2 0x343 DUP2 DUP6 DUP6 PUSH2 0x4DE JUMP JUMPDEST PUSH1 0x1 SWAP2 POP POP JUMPDEST SWAP3 SWAP2 POP POP JUMP JUMPDEST PUSH1 0x0 CALLER PUSH2 0x35D DUP6 DUP3 DUP6 PUSH2 0x4F0 JUMP JUMPDEST PUSH2 0x368 DUP6 DUP6 DUP6 PUSH2 0x56F JUMP JUMPDEST POP PUSH1 0x1 SWAP5 SWAP4 POP POP POP POP JUMP JUMPDEST PUSH2 0x37B PUSH2 0x5CE JUMP JUMPDEST PUSH1 0x1 PUSH1 0x1 PUSH1 0xA0 SHL SUB DUP3 AND PUSH2 0x3C0 JUMPI PUSH1 0x40 MLOAD PUSH3 0x461BCD PUSH1 0xE5 SHL DUP2 MSTORE PUSH1 0x20 PUSH1 0x4 DUP3 ADD MSTORE PUSH1 0x7 PUSH1 0x24 DUP3 ADD MSTORE PUSH7 0x746F207A65726F PUSH1 0xC8 SHL PUSH1 0x44 DUP3 ADD MSTORE PUSH1 0x64 ADD JUMPDEST PUSH1 0x40 MLOAD DUP1 SWAP2 SUB SWAP1 REVERT JUMPDEST PUSH32 0x0 DUP2 PUSH2 0x3EB PUSH1 0x2 SLOAD SWAP1 JUMP JUMPDEST PUSH2 0x3F5 SWAP2 SWAP1 PUSH2 0xA8A JUMP JUMPDEST GT ISZERO PUSH2 0x432 JUMPI PUSH1 0x40 MLOAD PUSH3 0x461BCD PUSH1 0xE5 SHL DUP2 MSTORE PUSH1 0x20 PUSH1 0x4 DUP3 ADD MSTORE PUSH1 0xC PUSH1 0x24 DUP3 ADD MSTORE PUSH12 0x18D85C08195E18D959591959 PUSH1 0xA2 SHL PUSH1 0x44 DUP3 ADD MSTORE PUSH1 0x64 ADD PUSH2 0x3B7 JUMP JUMPDEST PUSH2 0x43C DUP3 DUP3 PUSH2 0x5FB JUMP JUMPDEST POP POP JUMP JUMPDEST PUSH2 0x448 PUSH2 0x5CE JUMP JUMPDEST PUSH2 0x452 PUSH1 0x0 PUSH2 0x631 JUMP JUMPDEST JUMP JUMPDEST PUSH2 0x45C PUSH2 0x5CE JUMP JUMPDEST PUSH1 0x5 DUP1 SLOAD PUSH1 0xFF PUSH1 0xA0 SHL NOT AND PUSH1 0x1 PUSH1 0xA0 SHL OR SWAP1 SSTORE JUMP JUMPDEST PUSH1 0x60 PUSH1 0x4 DUP1 SLOAD PUSH2 0x2B2 SWAP1 PUSH2 0xA50 JUMP JUMPDEST PUSH2 0x488 PUSH2 0x5CE JUMP JUMPDEST PUSH2 0x43C DUP3 DUP3 PUSH2 0x683 JUMP JUMPDEST PUSH1 0x0 CALLER PUSH2 0x343 DUP2 DUP6 DUP6 PUSH2 0x56F JUMP JUMPDEST PUSH2 0x4A8 PUSH2 0x5CE JUMP JUMPDEST PUSH1 0x1 PUSH1 0x1 PUSH1 0xA0 SHL SUB DUP2 AND PUSH2 0x4D2 JUMPI PUSH1 0x40 MLOAD PUSH4 0x1E4FBDF7 PUSH1 0xE0 SHL DUP2 MSTORE PUSH1 0x0 PUSH1 0x4 DUP3 ADD MSTORE PUSH1 0x24 ADD PUSH2 0x3B7 JUMP JUMPDEST PUSH2 0x4DB DUP2 PUSH2 0x631 JUMP JUMPDEST POP JUMP JUMPDEST PUSH2 0x4EB DUP4 DUP4 DUP4 PUSH1 0x1 PUSH2 0x6B9 JUMP JUMPDEST POP POP POP JUMP JUMPDEST PUSH1 0x1 PUSH1 0x1 PUSH1 0xA0 SHL SUB DUP4 DUP2 AND PUSH1 0x0 SWAP1 DUP2 MSTORE PUSH1 0x1 PUSH1 0x20 SWAP1 DUP2 MSTORE PUSH1 0x40 DUP1 DUP4 KECCAK256 SWAP4 DUP7 AND DUP4 MSTORE SWAP3 SWAP1 MSTORE KECCAK256 SLOAD PUSH1 0x0 NOT DUP2 LT ISZERO PUSH2 0x569 JUMPI DUP2 DUP2 LT ISZERO PUSH2 0x55A JUMPI PUSH1 0x40 MLOAD PUSH4 0x7DC7A0D9 PUSH1 0xE1 SHL DUP2 MSTORE PUSH1 0x1 PUSH1 0x1 PUSH1 0xA0 SHL SUB DUP5 AND PUSH1 0x4 DUP3 ADD MSTORE PUSH1 0x24 DUP2 ADD DUP3 SWAP1 MSTORE PUSH1 0x44 DUP2 ADD DUP4 SWAP1 MSTORE PUSH1 0x64 ADD PUSH2 0x3B7 JUMP JUMPDEST PUSH2 0x569 DUP5 DUP5 DUP5 DUP5 SUB PUSH1 0x0 PUSH2 0x6B9 JUMP JUMPDEST POP POP POP POP JUMP JUMPDEST PUSH1 0x1 PUSH1 0x1 PUSH1 0xA0 SHL SUB DUP4 AND PUSH2 0x599 JUMPI PUSH1 0x40 MLOAD PUSH4 0x4B637E8F PUSH1 0xE1 SHL DUP2 MSTORE PUSH1 0x0 PUSH1 0x4 DUP3 ADD MSTORE PUSH1 0x24 ADD PUSH2 0x3B7 JUMP JUMPDEST PUSH1 0x1 PUSH1 0x1 PUSH1 0xA0 SHL SUB DUP3 AND PUSH2 0x5C3 JUMPI PUSH1 0x40 MLOAD PUSH4 0xEC442F05 PUSH1 0xE0 SHL DUP2 MSTORE PUSH1 0x0 PUSH1 0x4 DUP3 ADD MSTORE PUSH1 0x24 ADD PUSH2 0x3B7 JUMP JUMPDEST PUSH2 0x4EB DUP4 DUP4 DUP4 PUSH2 0x78E JUMP JUMPDEST PUSH1 0x5 SLOAD PUSH1 0x1 PUSH1 0x1 PUSH1 0xA0 SHL SUB AND CALLER EQ PUSH2 0x452 JUMPI PUSH1 0x40 MLOAD PUSH4 0x118CDAA7 PUSH1 0xE0 SHL DUP2 MSTORE CALLER PUSH1 0x4 DUP3 ADD MSTORE PUSH1 0x24 ADD PUSH2 0x3B7 JUMP JUMPDEST PUSH1 0x1 PUSH1 0x1 PUSH1 0xA0 SHL SUB DUP3 AND PUSH2 0x625 JUMPI PUSH1 0x40 MLOAD PUSH4 0xEC442F05 PUSH1 0xE0 SHL DUP2 MSTORE PUSH1 0x0 PUSH1 0x4 DUP3 ADD MSTORE PUSH1 0x24 ADD PUSH2 0x3B7 JUMP JUMPDEST PUSH2 0x43C PUSH1 0x0 DUP4 DUP4 PUSH2 0x78E JUMP JUMPDEST PUSH1 0x5 DUP1 SLOAD PUSH1 0x1 PUSH1 0x1 PUSH1 0xA0 SHL SUB DUP4 DUP2 AND PUSH1 0x1 PUSH1 0x1 PUSH1 0xA0 SHL SUB NOT DUP4 AND DUP2 OR SWAP1 SWAP4 SSTORE PUSH1 0x40 MLOAD SWAP2 AND SWAP2 SWAP1 DUP3 SWAP1 PUSH32 0x8BE0079C531659141344CD1FD0A4F28419497F9722A3DAAFE3B4186F6B6457E0 SWAP1 PUSH1 0x0 SWAP1 LOG3 POP POP JUMP JUMPDEST PUSH1 0x1 PUSH1 0x1 PUSH1 0xA0 SHL SUB DUP3 AND PUSH2 0x6AD JUMPI PUSH1 0x40 MLOAD PUSH4 0x4B637E8F PUSH1 0xE1 SHL DUP2 MSTORE PUSH1 0x0 PUSH1 0x4 DUP3 ADD MSTORE PUSH1 0x24 ADD PUSH2 0x3B7 JUMP JUMPDEST PUSH2 0x43C DUP3 PUSH1 0x0 DUP4 PUSH2 0x78E JUMP JUMPDEST PUSH1 0x1 PUSH1 0x1 PUSH1 0xA0 SHL SUB DUP5 AND PUSH2 0x6E3 JUMPI PUSH1 0x40 MLOAD PUSH4 0xE602DF05 PUSH1 0xE0 SHL DUP2 MSTORE PUSH1 0x0 PUSH1 0x4 DUP3 ADD MSTORE PUSH1 0x24 ADD PUSH2 0x3B7 JUMP JUMPDEST PUSH1 0x1 PUSH1 0x1 PUSH1 0xA0 SHL SUB DUP4 AND PUSH2 0x70D JUMPI PUSH1 0x40 MLOAD PUSH4 0x4A1406B1 PUSH1 0xE1 SHL DUP2 MSTORE PUSH1 0x0 PUSH1 0x4 DUP3 ADD MSTORE PUSH1 0x24 ADD PUSH2 0x3B7 JUMP JUMPDEST PUSH1 0x1 PUSH1 0x1 PUSH1 0xA0 SHL SUB DUP1 DUP6 AND PUSH1 0x0 SWAP1 DUP2 MSTORE PUSH1 0x1 PUSH1 0x20 SWAP1 DUP2 MSTORE PUSH1 0x40 DUP1 DUP4 KECCAK256 SWAP4 DUP8 AND DUP4 MSTORE SWAP3 SWAP1 MSTORE KECCAK256 DUP3 SWAP1 SSTORE DUP1 ISZERO PUSH2 0x569 JUMPI DUP3 PUSH1 0x1 PUSH1 0x1 PUSH1 0xA0 SHL SUB AND DUP5 PUSH1 0x1 PUSH1 0x1 PUSH1 0xA0 SHL SUB AND PUSH32 0x8C5BE1E5EBEC7D5BD14F71427D1E84F3DD0314C0F7B2291E5B200AC8C7C3B925 DUP5 PUSH1 0x40 MLOAD PUSH2 0x780 SWAP2 DUP2 MSTORE PUSH1 0x20 ADD SWAP1 JUMP JUMPDEST PUSH1 0x40 MLOAD DUP1 SWAP2 SUB SWAP1 LOG3 POP POP POP POP JUMP JUMPDEST PUSH1 0x5 SLOAD PUSH1 0x1 PUSH1 0xA0 SHL SWAP1 DIV PUSH1 0xFF AND PUSH2 0x7FA JUMPI PUSH1 0x1 PUSH1 0x1 PUSH1 0xA0 SHL SUB DUP4 AND ISZERO DUP1 ISZERO SWAP1 PUSH2 0x7C5 JUMPI POP PUSH1 0x5 SLOAD PUSH1 0x1 PUSH1 0x1 PUSH1 0xA0 SHL SUB DUP5 DUP2 AND SWAP2 AND EQ ISZERO JUMPDEST DUP1 ISZERO PUSH2 0x7DC JUMPI POP PUSH1 0x5 SLOAD PUSH1 0x1 PUSH1 0x1 PUSH1 0xA0 SHL SUB AND CALLER EQ ISZERO JUMPDEST ISZERO PUSH2 0x7FA JUMPI PUSH1 0x40 MLOAD PUSH4 0x12F1F923 PUSH1 0xE0 SHL DUP2 MSTORE PUSH1 0x4 ADD PUSH1 0x40 MLOAD DUP1 SWAP2 SUB SWAP1 REVERT JUMPDEST PUSH2 0x4EB DUP4 DUP4 DUP4 PUSH1 0x1 PUSH1 0x1 PUSH1 0xA0 SHL SUB DUP4 AND PUSH2 0x82B JUMPI DUP1 PUSH1 0x2 PUSH1 0x0 DUP3 DUP3 SLOAD PUSH2 0x820 SWAP2 SWAP1 PUSH2 0xA8A JUMP JUMPDEST SWAP1 SWAP2 SSTORE POP PUSH2 0x89D SWAP1 POP JUMP JUMPDEST PUSH1 0x1 PUSH1 0x1 PUSH1 0xA0 SHL SUB DUP4 AND PUSH1 0x0 SWAP1 DUP2 MSTORE PUSH1 0x20 DUP2 SWAP1 MSTORE PUSH1 0x40 SWAP1 KECCAK256 SLOAD DUP2 DUP2 LT ISZERO PUSH2 0x87E JUMPI PUSH1 0x40 MLOAD PUSH4 0x391434E3 PUSH1 0xE2 SHL DUP2 MSTORE PUSH1 0x1 PUSH1 0x1 PUSH1 0xA0 SHL SUB DUP6 AND PUSH1 0x4 DUP3 ADD MSTORE PUSH1 0x24 DUP2 ADD DUP3 SWAP1 MSTORE PUSH1 0x44 DUP2 ADD DUP4 SWAP1 MSTORE PUSH1 0x64 ADD PUSH2 0x3B7 JUMP JUMPDEST PUSH1 0x1 PUSH1 0x1 PUSH1 0xA0 SHL SUB DUP5 AND PUSH1 0x0 SWAP1 DUP2 MSTORE PUSH1 0x20 DUP2 SWAP1 MSTORE PUSH1 0x40 SWAP1 KECCAK256 SWAP1 DUP3 SWAP1 SUB SWAP1 SSTORE JUMPDEST PUSH1 0x1 PUSH1 0x1 PUSH1 0xA0 SHL SUB DUP3 AND PUSH2 0x8B9 JUMPI PUSH1 0x2 DUP1 SLOAD DUP3 SWAP1 SUB SWAP1 SSTORE PUSH2 0x8D8 JUMP JUMPDEST PUSH1 0x1 PUSH1 0x1 PUSH1 0xA0 SHL SUB DUP3 AND PUSH1 0x0 SWAP1 DUP2 MSTORE PUSH1 0x20 DUP2 SWAP1 MSTORE PUSH1 0x40 SWAP1 KECCAK256 DUP1 SLOAD DUP3 ADD SWAP1 SSTORE JUMPDEST DUP2 PUSH1 0x1 PUSH1 0x1 PUSH1 0xA0 SHL SUB AND DUP4 PUSH1 0x1 PUSH1 0x1 PUSH1 0xA0 SHL SUB AND PUSH32 0xDDF252AD1BE2C89B69C2B068FC378DAA952BA7F163C4A11628F55A4DF523B3EF DUP4 PUSH1 0x40 MLOAD PUSH2 0x91D SWAP2 DUP2 MSTORE PUSH1 0x20 ADD SWAP1 JUMP JUMPDEST PUSH1 0x40 MLOAD DUP1 SWAP2 SUB SWAP1 LOG3 POP POP POP JUMP JUMPDEST PUSH1 0x0 PUSH1 0x20 DUP1 DUP4 MSTORE DUP4 MLOAD DUP1 PUSH1 0x20 DUP6 ADD MSTORE PUSH1 0x0 JUMPDEST DUP2 DUP2 LT ISZERO PUSH2 0x958 JUMPI DUP6 DUP2 ADD DUP4 ADD MLOAD DUP6 DUP3 ADD PUSH1 0x40 ADD MSTORE DUP3 ADD PUSH2 0x93C JUMP JUMPDEST POP PUSH1 0x0 PUSH1 0x40 DUP3 DUP7 ADD ADD MSTORE PUSH1 0x40 PUSH1 0x1F NOT PUSH1 0x1F DUP4 ADD AND DUP6 ADD ADD SWAP3 POP POP POP SWAP3 SWAP2 POP POP JUMP JUMPDEST DUP1 CALLDATALOAD PUSH1 0x1 PUSH1 0x1 PUSH1 0xA0 SHL SUB DUP2 AND DUP2 EQ PUSH2 0x990 JUMPI PUSH1 0x0 DUP1 REVERT JUMPDEST SWAP2 SWAP1 POP JUMP JUMPDEST PUSH1 0x0 DUP1 PUSH1 0x40 DUP4 DUP6 SUB SLT ISZERO PUSH2 0x9A8 JUMPI PUSH1 0x0 DUP1 REVERT JUMPDEST PUSH2 0x9B1 DUP4 PUSH2 0x979 JUMP JUMPDEST SWAP5 PUSH1 0x20 SWAP4 SWAP1 SWAP4 ADD CALLDATALOAD SWAP4 POP POP POP JUMP JUMPDEST PUSH1 0x0 DUP1 PUSH1 0x0 PUSH1 0x60 DUP5 DUP7 SUB SLT ISZERO PUSH2 0x9D4 JUMPI PUSH1 0x0 DUP1 REVERT JUMPDEST PUSH2 0x9DD DUP5 PUSH2 0x979 JUMP JUMPDEST SWAP3 POP PUSH2 0x9EB PUSH1 0x20 DUP6 ADD PUSH2 0x979 JUMP JUMPDEST SWAP2 POP PUSH1 0x40 DUP5 ADD CALLDATALOAD SWAP1 POP SWAP3 POP SWAP3 POP SWAP3 JUMP JUMPDEST PUSH1 0x0 PUSH1 0x20 DUP3 DUP5 SUB SLT ISZERO PUSH2 0xA0D JUMPI PUSH1 0x0 DUP1 REVERT JUMPDEST PUSH2 0xA16 DUP3 PUSH2 0x979 JUMP JUMPDEST SWAP4 SWAP3 POP POP POP JUMP JUMPDEST PUSH1 0x0 DUP1 PUSH1 0x40 DUP4 DUP6 SUB SLT ISZERO PUSH2 0xA30 JUMPI PUSH1 0x0 DUP1 REVERT JUMPDEST PUSH2 0xA39 DUP4 PUSH2 0x979 JUMP JUMPDEST SWAP2 POP PUSH2 0xA47 PUSH1 0x20 DUP5 ADD PUSH2 0x979 JUMP JUMPDEST SWAP1 POP SWAP3 POP SWAP3 SWAP1 POP JUMP JUMPDEST PUSH1 0x1 DUP2 DUP2 SHR SWAP1 DUP3 AND DUP1 PUSH2 0xA64 JUMPI PUSH1 0x7F DUP3 AND SWAP2 POP JUMPDEST PUSH1 0x20 DUP3 LT DUP2 SUB PUSH2 0xA84 JUMPI PUSH4 0x4E487B71 PUSH1 0xE0 SHL PUSH1 0x0 MSTORE PUSH1 0x22 PUSH1 0x4 MSTORE PUSH1 0x24 PUSH1 0x0 REVERT JUMPDEST POP SWAP2 SWAP1 POP JUMP JUMPDEST DUP1 DUP3 ADD DUP1 DUP3 GT ISZERO PUSH2 0x349 JUMPI PUSH4 0x4E487B71 PUSH1 0xE0 SHL PUSH1 0x0 MSTORE PUSH1 0x11 PUSH1 0x4 MSTORE PUSH1 0x24 PUSH1 0x0 REVERT INVALID LOG2 PUSH5 0x6970667358 0x22 SLT KECCAK256 DUP11 0x4B 0x2E SWAP4 0x27 PUSH10 0x93CBF55BA336B5A273BB PUSH29 0x128CAF9E8895DBAAC7C023F463A97364736F6C63430008180033000000 "},"methodIdentifiers":{"basePrice()":"c7876ea4","buyExactTokens(uint256,uint256)":"65161831","creatorReserve()":"54354629","currentPrice()":"9d1b464a","curveSupply()":"2138a4c0","extraLink()":"dd1a2a39","factory()":"c45a0155","feeRecipient()":"46904840","finalize(uint256,uint256)":"b6013cef","finalizedAt()":"365d57a4","graduationTarget()":"a4b20f13","launched()":"8091f3bf","liquidityBps()":"c9f62af2","liquiditySupply()":"381562c2","logoURI()":"6bb38b28","lpReceiver()":"1f0c57fc","owner()":"8da5cb5b","priceSlope()":"54e42f7e","protocolFeeBps()":"35659fb8","quoteBuyExactTokens(uint256)":"af769545","quoteSellExactTokens(uint256)":"366ad250","renounceOwnership()":"715018a6","router()":"f887ea40","sellExactTokens(uint256,uint256)":"3794f6be","sold()":"02c7e7af","token()":"fc0c546a","totalSupply()":"18160ddd","transferOwnership(address)":"f2fde38b","website()":"beb0a416","xAccount()":"f20f3d90"}}}}}