{"contracts/LaunchFactory.sol":{"LaunchFactory":{"abi":[{"inputs":[{"internalType":"address","name":"router_","type":"address"}],"stateMutability":"nonpayable","type":"constructor"},{"inputs":[{"internalType":"address","name":"owner","type":"address"}],"name":"OwnableInvalidOwner","type":"error"},{"inputs":[{"internalType":"address","name":"account","type":"address"}],"name":"OwnableUnauthorizedAccount","type":"error"},{"anonymous":false,"inputs":[{"indexed":true,"internalType":"uint256","name":"id","type":"uint256"},{"indexed":true,"internalType":"address","name":"campaign","type":"address"},{"indexed":true,"internalType":"address","name":"token","type":"address"},{"indexed":false,"internalType":"address","name":"creator","type":"address"},{"indexed":false,"internalType":"string","name":"name","type":"string"},{"indexed":false,"internalType":"string","name":"symbol","type":"string"}],"name":"CampaignCreated","type":"event"},{"anonymous":false,"inputs":[{"components":[{"internalType":"uint256","name":"totalSupply","type":"uint256"},{"internalType":"uint256","name":"curveBps","type":"uint256"},{"internalType":"uint256","name":"liquidityTokenBps","type":"uint256"},{"internalType":"uint256","name":"basePrice","type":"uint256"},{"internalType":"uint256","name":"priceSlope","type":"uint256"},{"internalType":"uint256","name":"graduationTarget","type":"uint256"},{"internalType":"uint256","name":"liquidityBps","type":"uint256"}],"indexed":false,"internalType":"struct LaunchFactory.LaunchConfig","name":"newConfig","type":"tuple"}],"name":"ConfigUpdated","type":"event"},{"anonymous":false,"inputs":[{"indexed":true,"internalType":"address","name":"newRecipient","type":"address"}],"name":"FeeRecipientUpdated","type":"event"},{"anonymous":false,"inputs":[{"indexed":true,"internalType":"address","name":"previousOwner","type":"address"},{"indexed":true,"internalType":"address","name":"newOwner","type":"address"}],"name":"OwnershipTransferred","type":"event"},{"anonymous":false,"inputs":[{"indexed":false,"internalType":"uint256","name":"newFeeBps","type":"uint256"}],"name":"ProtocolFeeUpdated","type":"event"},{"anonymous":false,"inputs":[{"indexed":true,"internalType":"address","name":"newRouter","type":"address"}],"name":"RouterUpdated","type":"event"},{"inputs":[],"name":"campaignsCount","outputs":[{"internalType":"uint256","name":"","type":"uint256"}],"stateMutability":"view","type":"function"},{"inputs":[],"name":"config","outputs":[{"internalType":"uint256","name":"totalSupply","type":"uint256"},{"internalType":"uint256","name":"curveBps","type":"uint256"},{"internalType":"uint256","name":"liquidityTokenBps","type":"uint256"},{"internalType":"uint256","name":"basePrice","type":"uint256"},{"internalType":"uint256","name":"priceSlope","type":"uint256"},{"internalType":"uint256","name":"graduationTarget","type":"uint256"},{"internalType":"uint256","name":"liquidityBps","type":"uint256"}],"stateMutability":"view","type":"function"},{"inputs":[{"components":[{"internalType":"string","name":"name","type":"string"},{"internalType":"string","name":"symbol","type":"string"},{"internalType":"string","name":"metadataURI","type":"string"},{"internalType":"uint256","name":"basePrice","type":"uint256"},{"internalType":"uint256","name":"priceSlope","type":"uint256"},{"internalType":"uint256","name":"graduationTarget","type":"uint256"},{"internalType":"address","name":"lpReceiver","type":"address"}],"internalType":"struct LaunchFactory.CampaignRequest","name":"req","type":"tuple"}],"name":"createCampaign","outputs":[{"internalType":"address","name":"campaignAddr","type":"address"},{"internalType":"address","name":"tokenAddr","type":"address"}],"stateMutability":"nonpayable","type":"function"},{"inputs":[],"name":"feeRecipient","outputs":[{"internalType":"address","name":"","type":"address"}],"stateMutability":"view","type":"function"},{"inputs":[{"internalType":"uint256","name":"id","type":"uint256"}],"name":"getCampaign","outputs":[{"components":[{"internalType":"address","name":"campaign","type":"address"},{"internalType":"address","name":"token","type":"address"},{"internalType":"address","name":"creator","type":"address"},{"internalType":"string","name":"name","type":"string"},{"internalType":"string","name":"symbol","type":"string"},{"internalType":"string","name":"metadataURI","type":"string"},{"internalType":"uint64","name":"createdAt","type":"uint64"}],"internalType":"struct LaunchFactory.CampaignInfo","name":"","type":"tuple"}],"stateMutability":"view","type":"function"},{"inputs":[{"internalType":"uint256","name":"offset","type":"uint256"},{"internalType":"uint256","name":"limit","type":"uint256"}],"name":"getCampaignPage","outputs":[{"components":[{"internalType":"address","name":"campaign","type":"address"},{"internalType":"address","name":"token","type":"address"},{"internalType":"address","name":"creator","type":"address"},{"internalType":"string","name":"name","type":"string"},{"internalType":"string","name":"symbol","type":"string"},{"internalType":"string","name":"metadataURI","type":"string"},{"internalType":"uint64","name":"createdAt","type":"uint64"}],"internalType":"struct LaunchFactory.CampaignInfo[]","name":"page","type":"tuple[]"}],"stateMutability":"view","type":"function"},{"inputs":[],"name":"owner","outputs":[{"internalType":"address","name":"","type":"address"}],"stateMutability":"view","type":"function"},{"inputs":[],"name":"protocolFeeBps","outputs":[{"internalType":"uint256","name":"","type":"uint256"}],"stateMutability":"view","type":"function"},{"inputs":[],"name":"renounceOwnership","outputs":[],"stateMutability":"nonpayable","type":"function"},{"inputs":[],"name":"router","outputs":[{"internalType":"address","name":"","type":"address"}],"stateMutability":"view","type":"function"},{"inputs":[{"components":[{"internalType":"uint256","name":"totalSupply","type":"uint256"},{"internalType":"uint256","name":"curveBps","type":"uint256"},{"internalType":"uint256","name":"liquidityTokenBps","type":"uint256"},{"internalType":"uint256","name":"basePrice","type":"uint256"},{"internalType":"uint256","name":"priceSlope","type":"uint256"},{"internalType":"uint256","name":"graduationTarget","type":"uint256"},{"internalType":"uint256","name":"liquidityBps","type":"uint256"}],"internalType":"struct LaunchFactory.LaunchConfig","name":"newConfig","type":"tuple"}],"name":"setConfig","outputs":[],"stateMutability":"nonpayable","type":"function"},{"inputs":[{"internalType":"address","name":"newRecipient","type":"address"}],"name":"setFeeRecipient","outputs":[],"stateMutability":"nonpayable","type":"function"},{"inputs":[{"internalType":"uint256","name":"newProtocolFeeBps","type":"uint256"}],"name":"setProtocolFee","outputs":[],"stateMutability":"nonpayable","type":"function"},{"inputs":[{"internalType":"address","name":"newRouter","type":"address"}],"name":"setRouter","outputs":[],"stateMutability":"nonpayable","type":"function"},{"inputs":[{"internalType":"address","name":"newOwner","type":"address"}],"name":"transferOwnership","outputs":[],"stateMutability":"nonpayable","type":"function"}],"evm":{"bytecode":{"linkReferences":{},"object":"60806040523480156200001157600080fd5b5060405162004fda38038062004fda8339810160408190526200003491620001bc565b33806200005c57604051631e4fbdf760e01b8152600060048201526024015b60405180910390fd5b62000067816200016c565b506001600160a01b038116620000ae5760405162461bcd60e51b815260206004820152600b60248201526a726f75746572207a65726f60a81b604482015260640162000053565b600a80546001600160a01b039092166001600160a01b03199283161790556040805160e0810182526b033b2e3c9fd0803ce8000000808252612260602083018190526103e8938301849052652d79883d200060608401819052633b9aca00608085018190526802b5e3af16b188000060a08601819052611b5860c0909601869052600194909455600292909255600394909455600493909355600592909255600691909155600755600880549091163317905560fa600955620001ee565b600080546001600160a01b038381166001600160a01b0319831681178455604051919092169283917f8be0079c531659141344cd1fd0a4f28419497f9722a3daafe3b4186f6b6457e09190a35050565b600060208284031215620001cf57600080fd5b81516001600160a01b0381168114620001e757600080fd5b9392505050565b614ddc80620001fe6000396000f3fe60806040523480156200001157600080fd5b5060043610620001095760003560e01c8063787dce3d11620000a3578063c0d78655116200006e578063c0d78655146200028f578063e74b981b14620002a6578063f2fde38b14620002bd578063f887ea4014620002d457600080fd5b8063787dce3d14620001d557806379502c5514620001ec5780638da5cb5b1462000245578063b059a17f146200025757600080fd5b80634690484011620000e457806346904840146200015f5780635598f8cc146200018c5780636caffb8114620001b2578063715018a614620001cb57600080fd5b80632b6c075b146200010e57806335659fb8146200013d57806344c89b651462000156575b600080fd5b620001256200011f36600462001442565b620002e8565b60405162000134919062001548565b60405180910390f35b6200014760095481565b60405190815260200162000134565b600b5462000147565b60085462000173906001600160a01b031681565b6040516001600160a01b03909116815260200162000134565b620001a36200019d366004620015b0565b620006ba565b604051620001349190620015ca565b620001c9620001c3366004620015ff565b62000955565b005b620001c962000a17565b620001c9620001e6366004620015b0565b62000a2f565b6001546002546003546004546005546006546007546200020f9695949392919087565b604080519788526020880196909652948601939093526060850191909152608084015260a083015260c082015260e00162000134565b6000546001600160a01b031662000173565b6200026e620002683660046200161e565b62000ab2565b604080516001600160a01b0393841681529290911660208301520162000134565b620001c9620002a036600462001675565b62001041565b620001c9620002b736600462001675565b620010db565b620001c9620002ce36600462001675565b62001178565b600a5462000173906001600160a01b031681565b600b54606090831080620002fc5750600b54155b620003375760405162461bcd60e51b81526020600482015260066024820152651bd9999cd95d60d21b60448201526064015b60405180910390fd5b600b54158062000345575081155b156200038957604080516000808252602082019092529062000380565b6200036c620013f9565b815260200190600190039081620003625790505b509050620006b4565b6000620003978385620016c1565b600b54909150811115620003aa5750600b545b6000848211620003bc576000620003c8565b620003c88583620016d7565b90508067ffffffffffffffff811115620003e657620003e662001695565b6040519080825280602002602001820160405280156200042357816020015b6200040f620013f9565b815260200190600190039081620004055790505b50925060005b81811015620006b057600b620004408288620016c1565b81548110620004535762000453620016ed565b60009182526020918290206040805160e081018252600790930290910180546001600160a01b0390811684526001820154811694840194909452600281015490931690820152600382018054919291606084019190620004b39062001703565b80601f0160208091040260200160405190810160405280929190818152602001828054620004e19062001703565b8015620005325780601f10620005065761010080835404028352916020019162000532565b820191906000526020600020905b8154815290600101906020018083116200051457829003601f168201915b505050505081526020016004820180546200054d9062001703565b80601f01602080910402602001604051908101604052809291908181526020018280546200057b9062001703565b8015620005cc5780601f10620005a057610100808354040283529160200191620005cc565b820191906000526020600020905b815481529060010190602001808311620005ae57829003601f168201915b50505050508152602001600582018054620005e79062001703565b80601f0160208091040260200160405190810160405280929190818152602001828054620006159062001703565b8015620006665780601f106200063a5761010080835404028352916020019162000666565b820191906000526020600020905b8154815290600101906020018083116200064857829003601f168201915b50505091835250506006919091015467ffffffffffffffff1660209091015284518590839081106200069c576200069c620016ed565b602090810291909101015260010162000429565b5050505b92915050565b620006c4620013f9565b600b548210620007075760405162461bcd60e51b815260206004820152600d60248201526c6f7574206f6620626f756e647360981b60448201526064016200032e565b600b82815481106200071d576200071d620016ed565b60009182526020918290206040805160e081018252600790930290910180546001600160a01b03908116845260018201548116948401949094526002810154909316908201526003820180549192916060840191906200077d9062001703565b80601f0160208091040260200160405190810160405280929190818152602001828054620007ab9062001703565b8015620007fc5780601f10620007d057610100808354040283529160200191620007fc565b820191906000526020600020905b815481529060010190602001808311620007de57829003601f168201915b50505050508152602001600482018054620008179062001703565b80601f0160208091040260200160405190810160405280929190818152602001828054620008459062001703565b8015620008965780601f106200086a5761010080835404028352916020019162000896565b820191906000526020600020905b8154815290600101906020018083116200087857829003601f168201915b50505050508152602001600582018054620008b19062001703565b80601f0160208091040260200160405190810160405280929190818152602001828054620008df9062001703565b8015620009305780601f10620009045761010080835404028352916020019162000930565b820191906000526020600020905b8154815290600101906020018083116200091257829003601f168201915b50505091835250506006919091015467ffffffffffffffff1660209091015292915050565b6200095f620011bc565b6200097a620009743683900383018362001739565b620011eb565b80356001819055602080830135600281905560408085013560038190556060808701356004819055608080890135600581905560a0808b0135600681905560c0808d0135600781905589519c8d529a8c0199909952968a0195909552928801919091528601528401528201527f7c4abc5e661f62070299968a3a9a482d60903a066b120d28cc5512eec5ee38f29060e0015b60405180910390a150565b62000a21620011bc565b62000a2d6000620013a9565b565b62000a39620011bc565b6103e881111562000a7c5760405162461bcd60e51b815260206004820152600c60248201526b0cccaca40e8dede40d0d2ced60a31b60448201526064016200032e565b60098190556040518181527fd10d75876659a287a59a6ccfa2e3fff42f84d94b542837acd30bc184d562de409060200162000a0c565b6000808062000ac28480620017c1565b90501162000afc5760405162461bcd60e51b81526004016200032e906020808252600490820152636e616d6560e01b604082015260600190565b600062000b0d6020850185620017c1565b90501162000b475760405162461bcd60e51b81526020600482015260066024820152651cde5b589bdb60d21b60448201526064016200032e565b6040805161020081019091526000908062000b638680620017c1565b8080601f01602080910402602001604051908101604052809392919081815260200183838082843760009201919091525050509082525060209081019062000bae90870187620017c1565b8080601f01602080910402602001604051908101604052809392919081815260200183838082843760009201919091525050509082525060200162000bf76040870187620017c1565b8080601f016020809104026020016040519081016040528093929190818152602001838380828437600092019190915250505090825250600154602082015260025460408201526003546060808301919091526080909101908601351562000c6457856060013562000c68565b6004545b815260200160808601351562000c8357856080013562000c87565b6005545b815260200160a08601351562000ca2578560a0013562000ca6565b6006545b815260075460208201526009546040820152600a546001600160a01b03166060820152608001600062000ce060e0880160c0890162001675565b6001600160a01b03161462000d075762000d0160e0870160c0880162001675565b62000d09565b335b6001600160a01b039081168252600854166020820152336040808301919091523060609092019190915251909150600090829062000d479062001434565b62000d53919062001812565b604051809103906000f08015801562000d70573d6000803e3d6000fd5b509050809350806001600160a01b031663fc0c546a6040518163ffffffff1660e01b8152600401602060405180830381865afa15801562000db5573d6000803e3d6000fd5b505050506040513d601f19601f8201168201806040525081019062000ddb919062001967565b6040805160e0810182526001600160a01b038088168252831660208201523391810191909152909350600b906060810162000e178880620017c1565b8080601f01602080910402602001604051908101604052809392919081815260200183838082843760009201919091525050509082525060209081019062000e6290890189620017c1565b8080601f01602080910402602001604051908101604052809392919081815260200183838082843760009201919091525050509082525060200162000eab6040890189620017c1565b8080601f01602080910402602001604051908101604052809392919081815260200183838082843760009201829052509385525050504267ffffffffffffffff1660209283015283546001808201865594825290829020835160079092020180546001600160a01b03199081166001600160a01b03938416178255928401519481018054841695831695909517909455604083015160028501805490931691161790556060810151909190600382019062000f679082620019dc565b506080820151600482019062000f7e9082620019dc565b5060a0820151600582019062000f959082620019dc565b5060c091909101516006909101805467ffffffffffffffff191667ffffffffffffffff909216919091179055600b546001600160a01b03848116919086169062000fe290600190620016d7565b7ffdb1476ee472ae4c88dd3d31e0289bf3aede684aae57fae4d32c92e7585911ef33620010108a80620017c1565b6200101f60208d018d620017c1565b6040516200103295949392919062001ad2565b60405180910390a45050915091565b6200104b620011bc565b6001600160a01b038116620010915760405162461bcd60e51b815260206004820152600b60248201526a726f75746572207a65726f60a81b60448201526064016200032e565b600a80546001600160a01b0319166001600160a01b0383169081179091556040517f7aed1d3e8155a07ccf395e44ea3109a0e2d6c9b29bbbe9f142d9790596f4dc8090600090a250565b620010e5620011bc565b6001600160a01b0381166200112e5760405162461bcd60e51b815260206004820152600e60248201526d726563697069656e74207a65726f60901b60448201526064016200032e565b600880546001600160a01b0319166001600160a01b0383169081179091556040517f7a7b5a0a132f9e0581eb8527f66eae9ee89c2a3e79d4ac7e41a1f1f4d48a7fc290600090a250565b62001182620011bc565b6001600160a01b038116620011ae57604051631e4fbdf760e01b8152600060048201526024016200032e565b620011b981620013a9565b50565b6000546001600160a01b0316331462000a2d5760405163118cdaa760e01b81523360048201526024016200032e565b8051620012295760405162461bcd60e51b815260206004820152600b60248201526a737570706c79207a65726f60a81b60448201526064016200032e565b6000816020015111801562001255575061271081604001518260200151620012529190620016c1565b11155b620012975760405162461bcd60e51b8152602060048201526011602482015270696e76616c69642063757276652062707360781b60448201526064016200032e565b6000816060015111620012da5760405162461bcd60e51b815260206004820152600a6024820152697072696365207a65726f60b01b60448201526064016200032e565b60008160800151116200131d5760405162461bcd60e51b815260206004820152600a602482015269736c6f7065207a65726f60b01b60448201526064016200032e565b60008160a0015111620013615760405162461bcd60e51b815260206004820152600b60248201526a746172676574207a65726f60a81b60448201526064016200032e565b6127108160c001511115620011b95760405162461bcd60e51b815260206004820152600d60248201526c6c69717569646974792062707360981b60448201526064016200032e565b600080546001600160a01b038381166001600160a01b0319831681178455604051919092169283917f8be0079c531659141344cd1fd0a4f28419497f9722a3daafe3b4186f6b6457e09190a35050565b6040805160e08101825260008082526020820181905291810182905260608082018190526080820181905260a082015260c081019190915290565b61328c8062001b1b83390190565b600080604083850312156200145657600080fd5b50508035926020909101359150565b6000815180845260005b818110156200148d576020818501810151868301820152016200146f565b506000602082860101526020601f19601f83011685010191505092915050565b600060018060a01b0380835116845280602084015116602085015280604084015116604085015250606082015160e06060850152620014f060e085018262001465565b9050608083015184820360808601526200150b828262001465565b91505060a083015184820360a086015262001527828262001465565b91505067ffffffffffffffff60c08401511660c08501528091505092915050565b600060208083016020845280855180835260408601915060408160051b87010192506020870160005b82811015620015a357603f1988860301845262001590858351620014ad565b9450928501929085019060010162001571565b5092979650505050505050565b600060208284031215620015c357600080fd5b5035919050565b602081526000620015df6020830184620014ad565b9392505050565b600060e08284031215620015f957600080fd5b50919050565b600060e082840312156200161257600080fd5b620015df8383620015e6565b6000602082840312156200163157600080fd5b813567ffffffffffffffff8111156200164957600080fd5b6200165784828501620015e6565b949350505050565b6001600160a01b0381168114620011b957600080fd5b6000602082840312156200168857600080fd5b8135620015df816200165f565b634e487b7160e01b600052604160045260246000fd5b634e487b7160e01b600052601160045260246000fd5b80820180821115620006b457620006b4620016ab565b81810381811115620006b457620006b4620016ab565b634e487b7160e01b600052603260045260246000fd5b600181811c908216806200171857607f821691505b602082108103620015f957634e487b7160e01b600052602260045260246000fd5b600060e082840312156200174c57600080fd5b60405160e0810181811067ffffffffffffffff8211171562001772576200177262001695565b8060405250823581526020830135602082015260408301356040820152606083013560608201526080830135608082015260a083013560a082015260c083013560c08201528091505092915050565b6000808335601e19843603018112620017d957600080fd5b83018035915067ffffffffffffffff821115620017f557600080fd5b6020019150368190038213156200180b57600080fd5b9250929050565b60208152600082516102008060208501526200183361022085018362001465565b91506020850151601f198086850301604087015262001853848362001465565b935060408701519150808685030160608701525062001873838262001465565b92505060608501516080850152608085015160a085015260a085015160c085015260c085015160e085015260e0850151610100818187015280870151915050610120818187015280870151915050610140818187015280870151915050610160818187015280870151915050610180620018f7818701836001600160a01b03169052565b86015190506101a062001914868201836001600160a01b03169052565b86015190506101c062001931868201836001600160a01b03169052565b86015190506101e06200194e868201836001600160a01b03169052565b909501516001600160a01b031693019290925250919050565b6000602082840312156200197a57600080fd5b8151620015df816200165f565b601f821115620019d7576000816000526020600020601f850160051c81016020861015620019b25750805b601f850160051c820191505b81811015620019d357828155600101620019be565b5050505b505050565b815167ffffffffffffffff811115620019f957620019f962001695565b62001a118162001a0a845462001703565b8462001987565b602080601f83116001811462001a49576000841562001a305750858301515b600019600386901b1c1916600185901b178555620019d3565b600085815260208120601f198616915b8281101562001a7a5788860151825594840194600190910190840162001a59565b508582101562001a995787850151600019600388901b60f8161c191681555b5050505050600190811b01905550565b81835281816020850137506000828201602090810191909152601f909101601f19169091010190565b6001600160a01b038616815260606020820181905260009062001af9908301868862001aa9565b828103604084015262001b0e81858762001aa9565b9897505050505050505056fe6102606040523480156200001257600080fd5b506040516200328c3803806200328c8339810160408190526200003591620006b8565b6101c081015160016000556001600160a01b0381166200007057604051631e4fbdf760e01b8152600060048201526024015b60405180910390fd5b6200007b8162000542565b506000816060015111620000c35760405162461bcd60e51b815260206004820152600e60248201526d696e76616c696420737570706c7960901b604482015260640162000067565b60008160800151118015620000dd57506127108160800151105b620001175760405162461bcd60e51b815260206004820152600960248201526863757276652062707360b81b604482015260640162000067565b6127108160a00151826080015162000130919062000854565b1115620001735760405162461bcd60e51b815260206004820152601060248201526f706f7274696f6e206f766572666c6f7760801b604482015260640162000067565b60008160c0015111620001b65760405162461bcd60e51b815260206004820152600a6024820152697072696365207a65726f60b01b604482015260640162000067565b60008160e0015111620001f95760405162461bcd60e51b815260206004820152600a602482015269736c6f7065207a65726f60b01b604482015260640162000067565b6101608101516001600160a01b0316620002445760405162461bcd60e51b815260206004820152600b60248201526a726f75746572207a65726f60a81b604482015260640162000067565b6101c08101516001600160a01b0316620002905760405162461bcd60e51b815260206004820152600c60248201526b63726561746f72207a65726f60a01b604482015260640162000067565b6127108161012001511115620002d95760405162461bcd60e51b815260206004820152600d60248201526c6c69717569646974792062707360981b604482015260640162000067565b6127108161014001511115620003215760405162461bcd60e51b815260206004820152600c60248201526b70726f746f636f6c2062707360a01b604482015260640162000067565b604081015160029062000335908262000901565b5060c081015161014090815260e08083015161016052610100808401516101809081526101208501516101a0908152938501516101c0526101e08501516001600160a01b0390811690935292840151821690529082015116156200039f57806101800151620003a6565b806101c001515b6001600160a01b03908116610120526101608201511660c0526060810180516101e0526080820151905161271091620003df91620009cd565b620003eb9190620009e7565b6102005260a08101516060820151612710916200040891620009cd565b620004149190620009e7565b6102208190526102005160608301516200042f919062000a0a565b6200043b919062000a0a565b6102405261022051620004825760405162461bcd60e51b815260206004820152600e60248201526d6c6971756964697479207a65726f60901b604482015260640162000067565b80516020820151606083015160405130906200049e9062000594565b620004ad949392919062000a4e565b604051809103906000f080158015620004ca573d6000803e3d6000fd5b506001600160a01b0316608081905260a081905260608201516040516340c10f1960e01b815230600482015260248101919091526340c10f1990604401600060405180830381600087803b1580156200052257600080fd5b505af115801562000537573d6000803e3d6000fd5b505050505062000a99565b600180546001600160a01b038381166001600160a01b0319831681179093556040519116919082907f8be0079c531659141344cd1fd0a4f28419497f9722a3daafe3b4186f6b6457e090600090a35050565b610e77806200241583390190565b634e487b7160e01b600052604160045260246000fd5b60405161020081016001600160401b0381118282101715620005de57620005de620005a2565b60405290565b60005b8381101562000601578181015183820152602001620005e7565b50506000910152565b600082601f8301126200061c57600080fd5b81516001600160401b0380821115620006395762000639620005a2565b604051601f8301601f19908116603f01168101908282118183101715620006645762000664620005a2565b816040528381528660208588010111156200067e57600080fd5b62000691846020830160208901620005e4565b9695505050505050565b80516001600160a01b0381168114620006b357600080fd5b919050565b600060208284031215620006cb57600080fd5b81516001600160401b0380821115620006e357600080fd5b908301906102008286031215620006f957600080fd5b62000703620005b8565b8251828111156200071357600080fd5b62000721878286016200060a565b8252506020830151828111156200073757600080fd5b62000745878286016200060a565b6020830152506040830151828111156200075e57600080fd5b6200076c878286016200060a565b604083015250606083810151908201526080808401519082015260a0808401519082015260c0808401519082015260e080840151908201526101008084015190820152610120808401519082015261014080840151908201526101609150620007d78284016200069b565b828201526101809150620007ed8284016200069b565b828201526101a09150620008038284016200069b565b828201526101c09150620008198284016200069b565b828201526101e091506200082f8284016200069b565b91810191909152949350505050565b634e487b7160e01b600052601160045260246000fd5b808201808211156200086a576200086a6200083e565b92915050565b600181811c908216806200088557607f821691505b602082108103620008a657634e487b7160e01b600052602260045260246000fd5b50919050565b601f821115620008fc576000816000526020600020601f850160051c81016020861015620008d75750805b601f850160051c820191505b81811015620008f857828155600101620008e3565b5050505b505050565b81516001600160401b038111156200091d576200091d620005a2565b62000935816200092e845462000870565b84620008ac565b602080601f8311600181146200096d5760008415620009545750858301515b600019600386901b1c1916600185901b178555620008f8565b600085815260208120601f198616915b828110156200099e578886015182559484019460019091019084016200097d565b5085821015620009bd5787850151600019600388901b60f8161c191681555b5050505050600190811b01905550565b80820281158282048414176200086a576200086a6200083e565b60008262000a0557634e487b7160e01b600052601260045260246000fd5b500490565b818103818111156200086a576200086a6200083e565b6000815180845262000a3a816020860160208601620005e4565b601f01601f19169290920160200192915050565b60808152600062000a63608083018762000a20565b828103602084015262000a77818762000a20565b604084019590955250506001600160a01b039190911660609091015292915050565b60805160a05160c05160e05161010051610120516101405161016051610180516101a0516101c0516101e05161020051610220516102405161181362000c02600039600081816103af01528181610f910152610ff70152600081816103470152610c8901526000818161028901528181610ae701528181610bb50152610edd015260006102090152600081816102bd015261102601526000818161058f0152610c5601526000818161049e0152610be00152600081816103e301528181610a4701526111cc01526000818161055b01528181610a7d015261119301526000818161023d0152610d6601526000818161037b015281816110640152611099015260006105270152600081816105e301528181610ceb01528181610d1a0152610e58015260008181610839015281816109b201528181610cc901528181610e3601528181610eaf0152610fd401526000818161061701528181610d420152610f2a01526118136000f3fe6080604052600436106101a05760003560e01c806365161831116100ec578063b6013cef1161008a578063c9f62af211610064578063c9f62af21461057d578063f2fde38b146105b1578063f887ea40146105d1578063fc0c546a1461060557600080fd5b8063b6013cef146104e0578063c45a015514610515578063c7876ea41461054957600080fd5b80638da5cb5b116100c65780638da5cb5b146104595780639d1b464a14610477578063a4b20f131461048c578063af769545146104c057600080fd5b80636516183114610405578063715018a6146104185780638091f3bf1461042f57600080fd5b8063365d57a411610159578063381562c211610133578063381562c2146103355780634690484014610369578063543546291461039d57806354e42f7e146103d157600080fd5b8063365d57a4146102df578063366ad250146102f55780633794f6be1461031557600080fd5b806302c7e7af146101ac57806303ee438c146101d557806318160ddd146101f75780631f0c57fc1461022b5780632138a4c01461027757806335659fb8146102ab57600080fd5b366101a757005b600080fd5b3480156101b857600080fd5b506101c260035481565b6040519081526020015b60405180910390f35b3480156101e157600080fd5b506101ea610639565b6040516101cc9190611637565b34801561020357600080fd5b506101c27f000000000000000000000000000000000000000000000000000000000000000081565b34801561023757600080fd5b5061025f7f000000000000000000000000000000000000000000000000000000000000000081565b6040516001600160a01b0390911681526020016101cc565b34801561028357600080fd5b506101c27f000000000000000000000000000000000000000000000000000000000000000081565b3480156102b757600080fd5b506101c27f000000000000000000000000000000000000000000000000000000000000000081565b3480156102eb57600080fd5b506101c260055481565b34801561030157600080fd5b506101c2610310366004611686565b6106c7565b34801561032157600080fd5b506101c261033036600461169f565b61077d565b34801561034157600080fd5b506101c27f000000000000000000000000000000000000000000000000000000000000000081565b34801561037557600080fd5b5061025f7f000000000000000000000000000000000000000000000000000000000000000081565b3480156103a957600080fd5b506101c27f000000000000000000000000000000000000000000000000000000000000000081565b3480156103dd57600080fd5b506101c27f000000000000000000000000000000000000000000000000000000000000000081565b6101c261041336600461169f565b6108b1565b34801561042457600080fd5b5061042d610a2c565b005b34801561043b57600080fd5b506004546104499060ff1681565b60405190151581526020016101cc565b34801561046557600080fd5b506001546001600160a01b031661025f565b34801561048357600080fd5b506101c2610a40565b34801561049857600080fd5b506101c27f000000000000000000000000000000000000000000000000000000000000000081565b3480156104cc57600080fd5b506101c26104db366004611686565b610aa6565b3480156104ec57600080fd5b506105006104fb36600461169f565b610b69565b604080519283526020830191909152016101cc565b34801561052157600080fd5b5061025f7f000000000000000000000000000000000000000000000000000000000000000081565b34801561055557600080fd5b506101c27f000000000000000000000000000000000000000000000000000000000000000081565b34801561058957600080fd5b506101c27f000000000000000000000000000000000000000000000000000000000000000081565b3480156105bd57600080fd5b5061042d6105cc3660046116c1565b61114c565b3480156105dd57600080fd5b5061025f7f000000000000000000000000000000000000000000000000000000000000000081565b34801561061157600080fd5b5061025f7f000000000000000000000000000000000000000000000000000000000000000081565b60028054610646906116ea565b80601f0160208091040260200160405190810160405280929190818152602001828054610672906116ea565b80156106bf5780601f10610694576101008083540402835291602001916106bf565b820191906000526020600020905b8154815290600101906020018083116106a257829003601f168201915b505050505081565b600080821161070b5760405162461bcd60e51b815260206004820152600b60248201526a1e995c9bc8185b5bdd5b9d60aa1b60448201526064015b60405180910390fd5b60035482111561074c5760405162461bcd60e51b815260206004820152600c60248201526b195e18d959591cc81cdbdb1960a21b6044820152606401610702565b6107628260035461075d919061173a565b61118a565b61076d60035461118a565b610777919061173a565b92915050565b6000610787611224565b60045460ff16156107ce5760405162461bcd60e51b815260206004820152601160248201527018d85b5c185a59db881b185d5b98da1959607a1b6044820152606401610702565b6107d7836106c7565b9050818110156108145760405162461bcd60e51b8152602060048201526008602482015267736c69707061676560c01b6044820152606401610702565b8260036000828254610826919061173a565b9091555061086190506001600160a01b037f00000000000000000000000000000000000000000000000000000000000000001633308661124e565b61086b33826112bb565b604080518481526020810183905233917f2dcf9433d75db0d8b1c172641f85e319ffe4ad22e108a95d1847ceb906e5195d91015b60405180910390a26107776001600055565b60006108bb611224565b60045460ff16156109025760405162461bcd60e51b815260206004820152601160248201527018d85b5c185a59db881b185d5b98da1959607a1b6044820152606401610702565b61090b83610aa6565b9050818111156109485760405162461bcd60e51b8152602060048201526008602482015267736c69707061676560c01b6044820152606401610702565b8034101561098d5760405162461bcd60e51b8152602060048201526012602482015271696e73756666696369656e742076616c756560701b6044820152606401610702565b826003600082825461099f919061174d565b909155506109d990506001600160a01b037f0000000000000000000000000000000000000000000000000000000000000000163385611355565b803411156109f4576109f4336109ef833461173a565b6112bb565b604080518481526020810183905233917f8fafebcaf9d154343dad25669bfa277f4fbacd7ac6b0c4fed522580e040a0f33910161089f565b610a34611386565b610a3e60006113b3565b565b6000610a777f0000000000000000000000000000000000000000000000000000000000000000600354670de0b6b3a7640000611405565b610aa1907f000000000000000000000000000000000000000000000000000000000000000061174d565b905090565b6000808211610ae55760405162461bcd60e51b815260206004820152600b60248201526a1e995c9bc8185b5bdd5b9d60aa1b6044820152606401610702565b7f000000000000000000000000000000000000000000000000000000000000000082600354610b14919061174d565b1115610b4d5760405162461bcd60e51b81526020600482015260086024820152671cdbdb19081bdd5d60c21b6044820152606401610702565b610b5860035461118a565b61076d8360035461075d919061174d565b600080610b74611224565b60045460ff1615610bb35760405162461bcd60e51b8152602060048201526009602482015268199a5b985b1a5e995960ba1b6044820152606401610702565b7f00000000000000000000000000000000000000000000000000000000000000006003541480610c0357507f00000000000000000000000000000000000000000000000000000000000000004710155b610c3b5760405162461bcd60e51b81526020600482015260096024820152681d1a1c995cda1bdb1960ba1b6044820152606401610702565b6004805460ff19166001179055426005556000612710610c7b7f000000000000000000000000000000000000000000000000000000000000000047611760565b610c85919061178d565b90507f00000000000000000000000000000000000000000000000000000000000000008015801590610cb75750600082115b15610ed657610d106001600160a01b037f0000000000000000000000000000000000000000000000000000000000000000167f0000000000000000000000000000000000000000000000000000000000000000836114bb565b6001600160a01b037f00000000000000000000000000000000000000000000000000000000000000001663f305d719837f0000000000000000000000000000000000000000000000000000000000000000848a8a7f0000000000000000000000000000000000000000000000000000000000000000610d914261070861174d565b60405160e089901b6001600160e01b03191681526001600160a01b039687166004820152602481019590955260448501939093526064840191909152909216608482015260a481019190915260c40160606040518083038185885af1158015610dfe573d6000803e3d6000fd5b50505050506040513d601f19601f82011682018060405250810190610e2391906117af565b509094509250610e7e6001600160a01b037f0000000000000000000000000000000000000000000000000000000000000000167f000000000000000000000000000000000000000000000000000000000000000060006114bb565b83811115610ed657610ed6610e9b6001546001600160a01b031690565b610ea5868461173a565b6001600160a01b037f0000000000000000000000000000000000000000000000000000000000000000169190611355565b60006003547f0000000000000000000000000000000000000000000000000000000000000000610f06919061173a565b90508015610f8f57604051632770a7eb60e21b8152306004820152602481018290527f00000000000000000000000000000000000000000000000000000000000000006001600160a01b031690639dc29fac90604401600060405180830381600087803b158015610f7657600080fd5b505af1158015610f8a573d6000803e3d6000fd5b505050505b7f00000000000000000000000000000000000000000000000000000000000000001561101b5761101b610fca6001546001600160a01b031690565b6001600160a01b037f000000000000000000000000000000000000000000000000000000000000000016907f0000000000000000000000000000000000000000000000000000000000000000611355565b47600061271061104b7f000000000000000000000000000000000000000000000000000000000000000084611760565b611055919061178d565b905060008111801561108f57507f00000000000000000000000000000000000000000000000000000000000000006001600160a01b031615155b156110cb576110be7f0000000000000000000000000000000000000000000000000000000000000000826112bb565b6110c8818361173a565b91505b81156110ec576110ec6110e66001546001600160a01b031690565b836112bb565b60408051888152602081018890529081018290526060810183905233907fd286a958d004cd376acc3762fff407f0dd9bf991995fc81a26ff88081f2b7d1b9060800160405180910390a250505050506111456001600055565b9250929050565b611154611386565b6001600160a01b03811661117e57604051631e4fbdf760e01b815260006004820152602401610702565b611187816113b3565b50565b6000806111c0837f0000000000000000000000000000000000000000000000000000000000000000670de0b6b3a7640000611405565b9050828002600061120f7f000000000000000000000000000000000000000000000000000000000000000083670de0b6b3a7640000611200816002611760565b61120a9190611760565b611405565b905061121b818461174d565b95945050505050565b60026000540361124757604051633ee5aeb560e01b815260040160405180910390fd5b6002600055565b6040516001600160a01b0384811660248301528381166044830152606482018390526112b59186918216906323b872dd906084015b604051602081830303815290604052915060e01b6020820180516001600160e01b038381831617835250505050611547565b50505050565b6000826001600160a01b03168260405160006040518083038185875af1925050503d8060008114611308576040519150601f19603f3d011682016040523d82523d6000602084013e61130d565b606091505b50509050806113505760405162461bcd60e51b815260206004820152600f60248201526e1d1c985b9cd9995c8819985a5b1959608a1b6044820152606401610702565b505050565b6040516001600160a01b0383811660248301526044820183905261135091859182169063a9059cbb90606401611283565b6001546001600160a01b03163314610a3e5760405163118cdaa760e01b8152336004820152602401610702565b600180546001600160a01b038381166001600160a01b0319831681179093556040519116919082907f8be0079c531659141344cd1fd0a4f28419497f9722a3daafe3b4186f6b6457e090600090a35050565b600080600061141486866115b8565b91509150816000036114395783818161142f5761142f611777565b04925050506114b4565b8184116114505761145060038515026011186115d6565b6000848688096000868103871696879004966002600389028118808a02820302808a02820302808a02820302808a02820302808a02820302808a02909103029181900381900460010185841190960395909502919093039390930492909217029150505b9392505050565b604080516001600160a01b038416602482015260448082018490528251808303909101815260649091019091526020810180516001600160e01b031663095ea7b360e01b17905261150c84826115e8565b6112b5576040516001600160a01b0384811660248301526000604483015261154191869182169063095ea7b390606401611283565b6112b584825b600080602060008451602086016000885af18061156a576040513d6000823e3d81fd5b50506000513d9150811561158257806001141561158f565b6001600160a01b0384163b155b156112b557604051635274afe760e01b81526001600160a01b0385166004820152602401610702565b60008060001983850993909202808410938190039390930393915050565b634e487b71600052806020526024601cfd5b6000806000806020600086516020880160008a5af192503d9150600051905082801561162d5750811561161e578060011461162d565b6000866001600160a01b03163b115b9695505050505050565b60006020808352835180602085015260005b8181101561166557858101830151858201604001528201611649565b506000604082860101526040601f19601f8301168501019250505092915050565b60006020828403121561169857600080fd5b5035919050565b600080604083850312156116b257600080fd5b50508035926020909101359150565b6000602082840312156116d357600080fd5b81356001600160a01b03811681146114b457600080fd5b600181811c908216806116fe57607f821691505b60208210810361171e57634e487b7160e01b600052602260045260246000fd5b50919050565b634e487b7160e01b600052601160045260246000fd5b8181038181111561077757610777611724565b8082018082111561077757610777611724565b808202811582820484141761077757610777611724565b634e487b7160e01b600052601260045260246000fd5b6000826117aa57634e487b7160e01b600052601260045260246000fd5b500490565b6000806000606084860312156117c457600080fd5b835192506020840151915060408401519050925092509256fea2646970667358221220f924e046631b1770fe0db773f35de73a3e3c3bdf2d1f4dda326da262f19fb3e764736f6c6343000818003360a06040523480156200001157600080fd5b5060405162000e7738038062000e77833981016040819052620000349162000242565b808484600362000045838262000368565b50600462000054828262000368565b5050506001600160a01b0381166200008757604051631e4fbdf760e01b8152600060048201526024015b60405180910390fd5b620000928162000128565b5060008211620000d35760405162461bcd60e51b815260206004820152600b60248201526a636170206973207a65726f60a81b60448201526064016200007e565b6001600160a01b0381166200011b5760405162461bcd60e51b815260206004820152600d60248201526c6f776e6572206973207a65726f60981b60448201526064016200007e565b5060805250620004349050565b600580546001600160a01b038381166001600160a01b0319831681179093556040519116919082907f8be0079c531659141344cd1fd0a4f28419497f9722a3daafe3b4186f6b6457e090600090a35050565b634e487b7160e01b600052604160045260246000fd5b600082601f830112620001a257600080fd5b81516001600160401b0380821115620001bf57620001bf6200017a565b604051601f8301601f19908116603f01168101908282118183101715620001ea57620001ea6200017a565b81604052838152602092508660208588010111156200020857600080fd5b600091505b838210156200022c57858201830151818301840152908201906200020d565b6000602085830101528094505050505092915050565b600080600080608085870312156200025957600080fd5b84516001600160401b03808211156200027157600080fd5b6200027f8883890162000190565b955060208701519150808211156200029657600080fd5b50620002a58782880162000190565b60408701516060880151919550935090506001600160a01b0381168114620002cc57600080fd5b939692955090935050565b600181811c90821680620002ec57607f821691505b6020821081036200030d57634e487b7160e01b600052602260045260246000fd5b50919050565b601f82111562000363576000816000526020600020601f850160051c810160208610156200033e5750805b601f850160051c820191505b818110156200035f578281556001016200034a565b5050505b505050565b81516001600160401b038111156200038457620003846200017a565b6200039c81620003958454620002d7565b8462000313565b602080601f831160018114620003d45760008415620003bb5750858301515b600019600386901b1c1916600185901b1785556200035f565b600085815260208120601f198616915b828110156200040557888601518255948401946001909101908401620003e4565b5085821015620004245787850151600019600388901b60f8161c191681555b5050505050600190811b01905550565b608051610a20620004576000396000818161017401526103900152610a206000f3fe608060405234801561001057600080fd5b50600436106100f55760003560e01c806370a08231116100975780639dc29fac116100665780639dc29fac146101ff578063a9059cbb14610212578063dd62ed3e14610225578063f2fde38b1461025e57600080fd5b806370a08231146101ab578063715018a6146101d45780638da5cb5b146101dc57806395d89b41146101f757600080fd5b806323b872dd116100d357806323b872dd1461014d578063313ce56714610160578063355274ea1461016f57806340c10f191461019657600080fd5b806306fdde03146100fa578063095ea7b31461011857806318160ddd1461013b575b600080fd5b610102610271565b60405161010f9190610869565b60405180910390f35b61012b6101263660046108d4565b610303565b604051901515815260200161010f565b6002545b60405190815260200161010f565b61012b61015b3660046108fe565b61031d565b6040516012815260200161010f565b61013f7f000000000000000000000000000000000000000000000000000000000000000081565b6101a96101a43660046108d4565b610341565b005b61013f6101b936600461093a565b6001600160a01b031660009081526020819052604090205490565b6101a961040e565b6005546040516001600160a01b03909116815260200161010f565b610102610422565b6101a961020d3660046108d4565b610431565b61012b6102203660046108d4565b610443565b61013f61023336600461095c565b6001600160a01b03918216600090815260016020908152604080832093909416825291909152205490565b6101a961026c36600461093a565b610451565b6060600380546102809061098f565b80601f01602080910402602001604051908101604052809291908181526020018280546102ac9061098f565b80156102f95780601f106102ce576101008083540402835291602001916102f9565b820191906000526020600020905b8154815290600101906020018083116102dc57829003601f168201915b5050505050905090565b60003361031181858561048f565b60019150505b92915050565b60003361032b8582856104a1565b610336858585610520565b506001949350505050565b61034961057f565b6001600160a01b03821661038e5760405162461bcd60e51b8152602060048201526007602482015266746f207a65726f60c81b60448201526064015b60405180910390fd5b7f0000000000000000000000000000000000000000000000000000000000000000816103b960025490565b6103c391906109c9565b11156104005760405162461bcd60e51b815260206004820152600c60248201526b18d85c08195e18d95959195960a21b6044820152606401610385565b61040a82826105ac565b5050565b61041661057f565b61042060006105e2565b565b6060600480546102809061098f565b61043961057f565b61040a8282610634565b600033610311818585610520565b61045961057f565b6001600160a01b03811661048357604051631e4fbdf760e01b815260006004820152602401610385565b61048c816105e2565b50565b61049c838383600161066a565b505050565b6001600160a01b0383811660009081526001602090815260408083209386168352929052205460001981101561051a578181101561050b57604051637dc7a0d960e11b81526001600160a01b03841660048201526024810182905260448101839052606401610385565b61051a8484848403600061066a565b50505050565b6001600160a01b03831661054a57604051634b637e8f60e11b815260006004820152602401610385565b6001600160a01b0382166105745760405163ec442f0560e01b815260006004820152602401610385565b61049c83838361073f565b6005546001600160a01b031633146104205760405163118cdaa760e01b8152336004820152602401610385565b6001600160a01b0382166105d65760405163ec442f0560e01b815260006004820152602401610385565b61040a6000838361073f565b600580546001600160a01b038381166001600160a01b0319831681179093556040519116919082907f8be0079c531659141344cd1fd0a4f28419497f9722a3daafe3b4186f6b6457e090600090a35050565b6001600160a01b03821661065e57604051634b637e8f60e11b815260006004820152602401610385565b61040a8260008361073f565b6001600160a01b0384166106945760405163e602df0560e01b815260006004820152602401610385565b6001600160a01b0383166106be57604051634a1406b160e11b815260006004820152602401610385565b6001600160a01b038085166000908152600160209081526040808320938716835292905220829055801561051a57826001600160a01b0316846001600160a01b03167f8c5be1e5ebec7d5bd14f71427d1e84f3dd0314c0f7b2291e5b200ac8c7c3b9258460405161073191815260200190565b60405180910390a350505050565b6001600160a01b03831661076a57806002600082825461075f91906109c9565b909155506107dc9050565b6001600160a01b038316600090815260208190526040902054818110156107bd5760405163391434e360e21b81526001600160a01b03851660048201526024810182905260448101839052606401610385565b6001600160a01b03841660009081526020819052604090209082900390555b6001600160a01b0382166107f857600280548290039055610817565b6001600160a01b03821660009081526020819052604090208054820190555b816001600160a01b0316836001600160a01b03167fddf252ad1be2c89b69c2b068fc378daa952ba7f163c4a11628f55a4df523b3ef8360405161085c91815260200190565b60405180910390a3505050565b60006020808352835180602085015260005b818110156108975785810183015185820160400152820161087b565b506000604082860101526040601f19601f8301168501019250505092915050565b80356001600160a01b03811681146108cf57600080fd5b919050565b600080604083850312156108e757600080fd5b6108f0836108b8565b946020939093013593505050565b60008060006060848603121561091357600080fd5b61091c846108b8565b925061092a602085016108b8565b9150604084013590509250925092565b60006020828403121561094c57600080fd5b610955826108b8565b9392505050565b6000806040838503121561096f57600080fd5b610978836108b8565b9150610986602084016108b8565b90509250929050565b600181811c908216806109a357607f821691505b6020821081036109c357634e487b7160e01b600052602260045260246000fd5b50919050565b8082018082111561031757634e487b7160e01b600052601160045260246000fdfea26469706673582212205a82e6b6af7454e016e80cce03bf337e4928af6238b14be6e485ac65466a6d2564736f6c63430008180033a2646970667358221220e8130cd8a339c304e30966938091f1e014421812663af37bdc0a2086f0855c3a64736f6c63430008180033","opcodes":"PUSH1 0x80 PUSH1 0x40 MSTORE CALLVALUE DUP1 ISZERO PUSH3 0x11 JUMPI PUSH1 0x0 DUP1 REVERT JUMPDEST POP PUSH1 0x40 MLOAD PUSH3 0x4FDA CODESIZE SUB DUP1 PUSH3 0x4FDA DUP4 CODECOPY DUP2 ADD PUSH1 0x40 DUP2 SWAP1 MSTORE PUSH3 0x34 SWAP2 PUSH3 0x1BC JUMP JUMPDEST CALLER DUP1 PUSH3 0x5C JUMPI PUSH1 0x40 MLOAD PUSH4 0x1E4FBDF7 PUSH1 0xE0 SHL DUP2 MSTORE PUSH1 0x0 PUSH1 0x4 DUP3 ADD MSTORE PUSH1 0x24 ADD JUMPDEST PUSH1 0x40 MLOAD DUP1 SWAP2 SUB SWAP1 REVERT JUMPDEST PUSH3 0x67 DUP2 PUSH3 0x16C JUMP JUMPDEST POP PUSH1 0x1 PUSH1 0x1 PUSH1 0xA0 SHL SUB DUP2 AND PUSH3 0xAE JUMPI PUSH1 0x40 MLOAD PUSH3 0x461BCD PUSH1 0xE5 SHL DUP2 MSTORE PUSH1 0x20 PUSH1 0x4 DUP3 ADD MSTORE PUSH1 0xB PUSH1 0x24 DUP3 ADD MSTORE PUSH11 0x726F75746572207A65726F PUSH1 0xA8 SHL PUSH1 0x44 DUP3 ADD MSTORE PUSH1 0x64 ADD PUSH3 0x53 JUMP JUMPDEST PUSH1 0xA DUP1 SLOAD PUSH1 0x1 PUSH1 0x1 PUSH1 0xA0 SHL SUB SWAP1 SWAP3 AND PUSH1 0x1 PUSH1 0x1 PUSH1 0xA0 SHL SUB NOT SWAP3 DUP4 AND OR SWAP1 SSTORE PUSH1 0x40 DUP1 MLOAD PUSH1 0xE0 DUP2 ADD DUP3 MSTORE PUSH12 0x33B2E3C9FD0803CE8000000 DUP1 DUP3 MSTORE PUSH2 0x2260 PUSH1 0x20 DUP4 ADD DUP2 SWAP1 MSTORE PUSH2 0x3E8 SWAP4 DUP4 ADD DUP5 SWAP1 MSTORE PUSH6 0x2D79883D2000 PUSH1 0x60 DUP5 ADD DUP2 SWAP1 MSTORE PUSH4 0x3B9ACA00 PUSH1 0x80 DUP6 ADD DUP2 SWAP1 MSTORE PUSH9 0x2B5E3AF16B1880000 PUSH1 0xA0 DUP7 ADD DUP2 SWAP1 MSTORE PUSH2 0x1B58 PUSH1 0xC0 SWAP1 SWAP7 ADD DUP7 SWAP1 MSTORE PUSH1 0x1 SWAP5 SWAP1 SWAP5 SSTORE PUSH1 0x2 SWAP3 SWAP1 SWAP3 SSTORE PUSH1 0x3 SWAP5 SWAP1 SWAP5 SSTORE PUSH1 0x4 SWAP4 SWAP1 SWAP4 SSTORE PUSH1 0x5 SWAP3 SWAP1 SWAP3 SSTORE PUSH1 0x6 SWAP2 SWAP1 SWAP2 SSTORE PUSH1 0x7 SSTORE PUSH1 0x8 DUP1 SLOAD SWAP1 SWAP2 AND CALLER OR SWAP1 SSTORE PUSH1 0xFA PUSH1 0x9 SSTORE PUSH3 0x1EE JUMP JUMPDEST PUSH1 0x0 DUP1 SLOAD PUSH1 0x1 PUSH1 0x1 PUSH1 0xA0 SHL SUB DUP4 DUP2 AND PUSH1 0x1 PUSH1 0x1 PUSH1 0xA0 SHL SUB NOT DUP4 AND DUP2 OR DUP5 SSTORE PUSH1 0x40 MLOAD SWAP2 SWAP1 SWAP3 AND SWAP3 DUP4 SWAP2 PUSH32 0x8BE0079C531659141344CD1FD0A4F28419497F9722A3DAAFE3B4186F6B6457E0 SWAP2 SWAP1 LOG3 POP POP JUMP JUMPDEST PUSH1 0x0 PUSH1 0x20 DUP3 DUP5 SUB SLT ISZERO PUSH3 0x1CF JUMPI PUSH1 0x0 DUP1 REVERT JUMPDEST DUP2 MLOAD PUSH1 0x1 PUSH1 0x1 PUSH1 0xA0 SHL SUB DUP2 AND DUP2 EQ PUSH3 0x1E7 JUMPI PUSH1 0x0 DUP1 REVERT JUMPDEST SWAP4 SWAP3 POP POP POP JUMP JUMPDEST PUSH2 0x4DDC DUP1 PUSH3 0x1FE PUSH1 0x0 CODECOPY PUSH1 0x0 RETURN INVALID PUSH1 0x80 PUSH1 0x40 MSTORE CALLVALUE DUP1 ISZERO PUSH3 0x11 JUMPI PUSH1 0x0 DUP1 REVERT JUMPDEST POP PUSH1 0x4 CALLDATASIZE LT PUSH3 0x109 JUMPI PUSH1 0x0 CALLDATALOAD PUSH1 0xE0 SHR DUP1 PUSH4 0x787DCE3D GT PUSH3 0xA3 JUMPI DUP1 PUSH4 0xC0D78655 GT PUSH3 0x6E JUMPI DUP1 PUSH4 0xC0D78655 EQ PUSH3 0x28F JUMPI DUP1 PUSH4 0xE74B981B EQ PUSH3 0x2A6 JUMPI DUP1 PUSH4 0xF2FDE38B EQ PUSH3 0x2BD JUMPI DUP1 PUSH4 0xF887EA40 EQ PUSH3 0x2D4 JUMPI PUSH1 0x0 DUP1 REVERT JUMPDEST DUP1 PUSH4 0x787DCE3D EQ PUSH3 0x1D5 JUMPI DUP1 PUSH4 0x79502C55 EQ PUSH3 0x1EC JUMPI DUP1 PUSH4 0x8DA5CB5B EQ PUSH3 0x245 JUMPI DUP1 PUSH4 0xB059A17F EQ PUSH3 0x257 JUMPI PUSH1 0x0 DUP1 REVERT JUMPDEST DUP1 PUSH4 0x46904840 GT PUSH3 0xE4 JUMPI DUP1 PUSH4 0x46904840 EQ PUSH3 0x15F JUMPI DUP1 PUSH4 0x5598F8CC EQ PUSH3 0x18C JUMPI DUP1 PUSH4 0x6CAFFB81 EQ PUSH3 0x1B2 JUMPI DUP1 PUSH4 0x715018A6 EQ PUSH3 0x1CB JUMPI PUSH1 0x0 DUP1 REVERT JUMPDEST DUP1 PUSH4 0x2B6C075B EQ PUSH3 0x10E JUMPI DUP1 PUSH4 0x35659FB8 EQ PUSH3 0x13D JUMPI DUP1 PUSH4 0x44C89B65 EQ PUSH3 0x156 JUMPI JUMPDEST PUSH1 0x0 DUP1 REVERT JUMPDEST PUSH3 0x125 PUSH3 0x11F CALLDATASIZE PUSH1 0x4 PUSH3 0x1442 JUMP JUMPDEST PUSH3 0x2E8 JUMP JUMPDEST PUSH1 0x40 MLOAD PUSH3 0x134 SWAP2 SWAP1 PUSH3 0x1548 JUMP JUMPDEST PUSH1 0x40 MLOAD DUP1 SWAP2 SUB SWAP1 RETURN JUMPDEST PUSH3 0x147 PUSH1 0x9 SLOAD DUP2 JUMP JUMPDEST PUSH1 0x40 MLOAD SWAP1 DUP2 MSTORE PUSH1 0x20 ADD PUSH3 0x134 JUMP JUMPDEST PUSH1 0xB SLOAD PUSH3 0x147 JUMP JUMPDEST PUSH1 0x8 SLOAD PUSH3 0x173 SWAP1 PUSH1 0x1 PUSH1 0x1 PUSH1 0xA0 SHL SUB AND DUP2 JUMP JUMPDEST PUSH1 0x40 MLOAD PUSH1 0x1 PUSH1 0x1 PUSH1 0xA0 SHL SUB SWAP1 SWAP2 AND DUP2 MSTORE PUSH1 0x20 ADD PUSH3 0x134 JUMP JUMPDEST PUSH3 0x1A3 PUSH3 0x19D CALLDATASIZE PUSH1 0x4 PUSH3 0x15B0 JUMP JUMPDEST PUSH3 0x6BA JUMP JUMPDEST PUSH1 0x40 MLOAD PUSH3 0x134 SWAP2 SWAP1 PUSH3 0x15CA JUMP JUMPDEST PUSH3 0x1C9 PUSH3 0x1C3 CALLDATASIZE PUSH1 0x4 PUSH3 0x15FF JUMP JUMPDEST PUSH3 0x955 JUMP JUMPDEST STOP JUMPDEST PUSH3 0x1C9 PUSH3 0xA17 JUMP JUMPDEST PUSH3 0x1C9 PUSH3 0x1E6 CALLDATASIZE PUSH1 0x4 PUSH3 0x15B0 JUMP JUMPDEST PUSH3 0xA2F JUMP JUMPDEST PUSH1 0x1 SLOAD PUSH1 0x2 SLOAD PUSH1 0x3 SLOAD PUSH1 0x4 SLOAD PUSH1 0x5 SLOAD PUSH1 0x6 SLOAD PUSH1 0x7 SLOAD PUSH3 0x20F SWAP7 SWAP6 SWAP5 SWAP4 SWAP3 SWAP2 SWAP1 DUP8 JUMP JUMPDEST PUSH1 0x40 DUP1 MLOAD SWAP8 DUP9 MSTORE PUSH1 0x20 DUP9 ADD SWAP7 SWAP1 SWAP7 MSTORE SWAP5 DUP7 ADD SWAP4 SWAP1 SWAP4 MSTORE PUSH1 0x60 DUP6 ADD SWAP2 SWAP1 SWAP2 MSTORE PUSH1 0x80 DUP5 ADD MSTORE PUSH1 0xA0 DUP4 ADD MSTORE PUSH1 0xC0 DUP3 ADD MSTORE PUSH1 0xE0 ADD PUSH3 0x134 JUMP JUMPDEST PUSH1 0x0 SLOAD PUSH1 0x1 PUSH1 0x1 PUSH1 0xA0 SHL SUB AND PUSH3 0x173 JUMP JUMPDEST PUSH3 0x26E PUSH3 0x268 CALLDATASIZE PUSH1 0x4 PUSH3 0x161E JUMP JUMPDEST PUSH3 0xAB2 JUMP JUMPDEST PUSH1 0x40 DUP1 MLOAD PUSH1 0x1 PUSH1 0x1 PUSH1 0xA0 SHL SUB SWAP4 DUP5 AND DUP2 MSTORE SWAP3 SWAP1 SWAP2 AND PUSH1 0x20 DUP4 ADD MSTORE ADD PUSH3 0x134 JUMP JUMPDEST PUSH3 0x1C9 PUSH3 0x2A0 CALLDATASIZE PUSH1 0x4 PUSH3 0x1675 JUMP JUMPDEST PUSH3 0x1041 JUMP JUMPDEST PUSH3 0x1C9 PUSH3 0x2B7 CALLDATASIZE PUSH1 0x4 PUSH3 0x1675 JUMP JUMPDEST PUSH3 0x10DB JUMP JUMPDEST PUSH3 0x1C9 PUSH3 0x2CE CALLDATASIZE PUSH1 0x4 PUSH3 0x1675 JUMP JUMPDEST PUSH3 0x1178 JUMP JUMPDEST PUSH1 0xA SLOAD PUSH3 0x173 SWAP1 PUSH1 0x1 PUSH1 0x1 PUSH1 0xA0 SHL SUB AND DUP2 JUMP JUMPDEST PUSH1 0xB SLOAD PUSH1 0x60 SWAP1 DUP4 LT DUP1 PUSH3 0x2FC JUMPI POP PUSH1 0xB SLOAD ISZERO JUMPDEST PUSH3 0x337 JUMPI PUSH1 0x40 MLOAD PUSH3 0x461BCD PUSH1 0xE5 SHL DUP2 MSTORE PUSH1 0x20 PUSH1 0x4 DUP3 ADD MSTORE PUSH1 0x6 PUSH1 0x24 DUP3 ADD MSTORE PUSH6 0x1BD9999CD95D PUSH1 0xD2 SHL PUSH1 0x44 DUP3 ADD MSTORE PUSH1 0x64 ADD JUMPDEST PUSH1 0x40 MLOAD DUP1 SWAP2 SUB SWAP1 REVERT JUMPDEST PUSH1 0xB SLOAD ISZERO DUP1 PUSH3 0x345 JUMPI POP DUP2 ISZERO JUMPDEST ISZERO PUSH3 0x389 JUMPI PUSH1 0x40 DUP1 MLOAD PUSH1 0x0 DUP1 DUP3 MSTORE PUSH1 0x20 DUP3 ADD SWAP1 SWAP3 MSTORE SWAP1 PUSH3 0x380 JUMP JUMPDEST PUSH3 0x36C PUSH3 0x13F9 JUMP JUMPDEST DUP2 MSTORE PUSH1 0x20 ADD SWAP1 PUSH1 0x1 SWAP1 SUB SWAP1 DUP2 PUSH3 0x362 JUMPI SWAP1 POP JUMPDEST POP SWAP1 POP PUSH3 0x6B4 JUMP JUMPDEST PUSH1 0x0 PUSH3 0x397 DUP4 DUP6 PUSH3 0x16C1 JUMP JUMPDEST PUSH1 0xB SLOAD SWAP1 SWAP2 POP DUP2 GT ISZERO PUSH3 0x3AA JUMPI POP PUSH1 0xB SLOAD JUMPDEST PUSH1 0x0 DUP5 DUP3 GT PUSH3 0x3BC JUMPI PUSH1 0x0 PUSH3 0x3C8 JUMP JUMPDEST PUSH3 0x3C8 DUP6 DUP4 PUSH3 0x16D7 JUMP JUMPDEST SWAP1 POP DUP1 PUSH8 0xFFFFFFFFFFFFFFFF DUP2 GT ISZERO PUSH3 0x3E6 JUMPI PUSH3 0x3E6 PUSH3 0x1695 JUMP JUMPDEST PUSH1 0x40 MLOAD SWAP1 DUP1 DUP3 MSTORE DUP1 PUSH1 0x20 MUL PUSH1 0x20 ADD DUP3 ADD PUSH1 0x40 MSTORE DUP1 ISZERO PUSH3 0x423 JUMPI DUP2 PUSH1 0x20 ADD JUMPDEST PUSH3 0x40F PUSH3 0x13F9 JUMP JUMPDEST DUP2 MSTORE PUSH1 0x20 ADD SWAP1 PUSH1 0x1 SWAP1 SUB SWAP1 DUP2 PUSH3 0x405 JUMPI SWAP1 POP JUMPDEST POP SWAP3 POP PUSH1 0x0 JUMPDEST DUP2 DUP2 LT ISZERO PUSH3 0x6B0 JUMPI PUSH1 0xB PUSH3 0x440 DUP3 DUP9 PUSH3 0x16C1 JUMP JUMPDEST DUP2 SLOAD DUP2 LT PUSH3 0x453 JUMPI PUSH3 0x453 PUSH3 0x16ED JUMP JUMPDEST PUSH1 0x0 SWAP2 DUP3 MSTORE PUSH1 0x20 SWAP2 DUP3 SWAP1 KECCAK256 PUSH1 0x40 DUP1 MLOAD PUSH1 0xE0 DUP2 ADD DUP3 MSTORE PUSH1 0x7 SWAP1 SWAP4 MUL SWAP1 SWAP2 ADD DUP1 SLOAD PUSH1 0x1 PUSH1 0x1 PUSH1 0xA0 SHL SUB SWAP1 DUP2 AND DUP5 MSTORE PUSH1 0x1 DUP3 ADD SLOAD DUP2 AND SWAP5 DUP5 ADD SWAP5 SWAP1 SWAP5 MSTORE PUSH1 0x2 DUP2 ADD SLOAD SWAP1 SWAP4 AND SWAP1 DUP3 ADD MSTORE PUSH1 0x3 DUP3 ADD DUP1 SLOAD SWAP2 SWAP3 SWAP2 PUSH1 0x60 DUP5 ADD SWAP2 SWAP1 PUSH3 0x4B3 SWAP1 PUSH3 0x1703 JUMP JUMPDEST DUP1 PUSH1 0x1F ADD PUSH1 0x20 DUP1 SWAP2 DIV MUL PUSH1 0x20 ADD PUSH1 0x40 MLOAD SWAP1 DUP2 ADD PUSH1 0x40 MSTORE DUP1 SWAP3 SWAP2 SWAP1 DUP2 DUP2 MSTORE PUSH1 0x20 ADD DUP3 DUP1 SLOAD PUSH3 0x4E1 SWAP1 PUSH3 0x1703 JUMP JUMPDEST DUP1 ISZERO PUSH3 0x532 JUMPI DUP1 PUSH1 0x1F LT PUSH3 0x506 JUMPI PUSH2 0x100 DUP1 DUP4 SLOAD DIV MUL DUP4 MSTORE SWAP2 PUSH1 0x20 ADD SWAP2 PUSH3 0x532 JUMP JUMPDEST DUP3 ADD SWAP2 SWAP1 PUSH1 0x0 MSTORE PUSH1 0x20 PUSH1 0x0 KECCAK256 SWAP1 JUMPDEST DUP2 SLOAD DUP2 MSTORE SWAP1 PUSH1 0x1 ADD SWAP1 PUSH1 0x20 ADD DUP1 DUP4 GT PUSH3 0x514 JUMPI DUP3 SWAP1 SUB PUSH1 0x1F AND DUP3 ADD SWAP2 JUMPDEST POP POP POP POP POP DUP2 MSTORE PUSH1 0x20 ADD PUSH1 0x4 DUP3 ADD DUP1 SLOAD PUSH3 0x54D SWAP1 PUSH3 0x1703 JUMP JUMPDEST DUP1 PUSH1 0x1F ADD PUSH1 0x20 DUP1 SWAP2 DIV MUL PUSH1 0x20 ADD PUSH1 0x40 MLOAD SWAP1 DUP2 ADD PUSH1 0x40 MSTORE DUP1 SWAP3 SWAP2 SWAP1 DUP2 DUP2 MSTORE PUSH1 0x20 ADD DUP3 DUP1 SLOAD PUSH3 0x57B SWAP1 PUSH3 0x1703 JUMP JUMPDEST DUP1 ISZERO PUSH3 0x5CC JUMPI DUP1 PUSH1 0x1F LT PUSH3 0x5A0 JUMPI PUSH2 0x100 DUP1 DUP4 SLOAD DIV MUL DUP4 MSTORE SWAP2 PUSH1 0x20 ADD SWAP2 PUSH3 0x5CC JUMP JUMPDEST DUP3 ADD SWAP2 SWAP1 PUSH1 0x0 MSTORE PUSH1 0x20 PUSH1 0x0 KECCAK256 SWAP1 JUMPDEST DUP2 SLOAD DUP2 MSTORE SWAP1 PUSH1 0x1 ADD SWAP1 PUSH1 0x20 ADD DUP1 DUP4 GT PUSH3 0x5AE JUMPI DUP3 SWAP1 SUB PUSH1 0x1F AND DUP3 ADD SWAP2 JUMPDEST POP POP POP POP POP DUP2 MSTORE PUSH1 0x20 ADD PUSH1 0x5 DUP3 ADD DUP1 SLOAD PUSH3 0x5E7 SWAP1 PUSH3 0x1703 JUMP JUMPDEST DUP1 PUSH1 0x1F ADD PUSH1 0x20 DUP1 SWAP2 DIV MUL PUSH1 0x20 ADD PUSH1 0x40 MLOAD SWAP1 DUP2 ADD PUSH1 0x40 MSTORE DUP1 SWAP3 SWAP2 SWAP1 DUP2 DUP2 MSTORE PUSH1 0x20 ADD DUP3 DUP1 SLOAD PUSH3 0x615 SWAP1 PUSH3 0x1703 JUMP JUMPDEST DUP1 ISZERO PUSH3 0x666 JUMPI DUP1 PUSH1 0x1F LT PUSH3 0x63A JUMPI PUSH2 0x100 DUP1 DUP4 SLOAD DIV MUL DUP4 MSTORE SWAP2 PUSH1 0x20 ADD SWAP2 PUSH3 0x666 JUMP JUMPDEST DUP3 ADD SWAP2 SWAP1 PUSH1 0x0 MSTORE PUSH1 0x20 PUSH1 0x0 KECCAK256 SWAP1 JUMPDEST DUP2 SLOAD DUP2 MSTORE SWAP1 PUSH1 0x1 ADD SWAP1 PUSH1 0x20 ADD DUP1 DUP4 GT PUSH3 0x648 JUMPI DUP3 SWAP1 SUB PUSH1 0x1F AND DUP3 ADD SWAP2 JUMPDEST POP POP POP SWAP2 DUP4 MSTORE POP POP PUSH1 0x6 SWAP2 SWAP1 SWAP2 ADD SLOAD PUSH8 0xFFFFFFFFFFFFFFFF AND PUSH1 0x20 SWAP1 SWAP2 ADD MSTORE DUP5 MLOAD DUP6 SWAP1 DUP4 SWAP1 DUP2 LT PUSH3 0x69C JUMPI PUSH3 0x69C PUSH3 0x16ED JUMP JUMPDEST PUSH1 0x20 SWAP1 DUP2 MUL SWAP2 SWAP1 SWAP2 ADD ADD MSTORE PUSH1 0x1 ADD PUSH3 0x429 JUMP JUMPDEST POP POP POP JUMPDEST SWAP3 SWAP2 POP POP JUMP JUMPDEST PUSH3 0x6C4 PUSH3 0x13F9 JUMP JUMPDEST PUSH1 0xB SLOAD DUP3 LT PUSH3 0x707 JUMPI PUSH1 0x40 MLOAD PUSH3 0x461BCD PUSH1 0xE5 SHL DUP2 MSTORE PUSH1 0x20 PUSH1 0x4 DUP3 ADD MSTORE PUSH1 0xD PUSH1 0x24 DUP3 ADD MSTORE PUSH13 0x6F7574206F6620626F756E6473 PUSH1 0x98 SHL PUSH1 0x44 DUP3 ADD MSTORE PUSH1 0x64 ADD PUSH3 0x32E JUMP JUMPDEST PUSH1 0xB DUP3 DUP2 SLOAD DUP2 LT PUSH3 0x71D JUMPI PUSH3 0x71D PUSH3 0x16ED JUMP JUMPDEST PUSH1 0x0 SWAP2 DUP3 MSTORE PUSH1 0x20 SWAP2 DUP3 SWAP1 KECCAK256 PUSH1 0x40 DUP1 MLOAD PUSH1 0xE0 DUP2 ADD DUP3 MSTORE PUSH1 0x7 SWAP1 SWAP4 MUL SWAP1 SWAP2 ADD DUP1 SLOAD PUSH1 0x1 PUSH1 0x1 PUSH1 0xA0 SHL SUB SWAP1 DUP2 AND DUP5 MSTORE PUSH1 0x1 DUP3 ADD SLOAD DUP2 AND SWAP5 DUP5 ADD SWAP5 SWAP1 SWAP5 MSTORE PUSH1 0x2 DUP2 ADD SLOAD SWAP1 SWAP4 AND SWAP1 DUP3 ADD MSTORE PUSH1 0x3 DUP3 ADD DUP1 SLOAD SWAP2 SWAP3 SWAP2 PUSH1 0x60 DUP5 ADD SWAP2 SWAP1 PUSH3 0x77D SWAP1 PUSH3 0x1703 JUMP JUMPDEST DUP1 PUSH1 0x1F ADD PUSH1 0x20 DUP1 SWAP2 DIV MUL PUSH1 0x20 ADD PUSH1 0x40 MLOAD SWAP1 DUP2 ADD PUSH1 0x40 MSTORE DUP1 SWAP3 SWAP2 SWAP1 DUP2 DUP2 MSTORE PUSH1 0x20 ADD DUP3 DUP1 SLOAD PUSH3 0x7AB SWAP1 PUSH3 0x1703 JUMP JUMPDEST DUP1 ISZERO PUSH3 0x7FC JUMPI DUP1 PUSH1 0x1F LT PUSH3 0x7D0 JUMPI PUSH2 0x100 DUP1 DUP4 SLOAD DIV MUL DUP4 MSTORE SWAP2 PUSH1 0x20 ADD SWAP2 PUSH3 0x7FC JUMP JUMPDEST DUP3 ADD SWAP2 SWAP1 PUSH1 0x0 MSTORE PUSH1 0x20 PUSH1 0x0 KECCAK256 SWAP1 JUMPDEST DUP2 SLOAD DUP2 MSTORE SWAP1 PUSH1 0x1 ADD SWAP1 PUSH1 0x20 ADD DUP1 DUP4 GT PUSH3 0x7DE JUMPI DUP3 SWAP1 SUB PUSH1 0x1F AND DUP3 ADD SWAP2 JUMPDEST POP POP POP POP POP DUP2 MSTORE PUSH1 0x20 ADD PUSH1 0x4 DUP3 ADD DUP1 SLOAD PUSH3 0x817 SWAP1 PUSH3 0x1703 JUMP JUMPDEST DUP1 PUSH1 0x1F ADD PUSH1 0x20 DUP1 SWAP2 DIV MUL PUSH1 0x20 ADD PUSH1 0x40 MLOAD SWAP1 DUP2 ADD PUSH1 0x40 MSTORE DUP1 SWAP3 SWAP2 SWAP1 DUP2 DUP2 MSTORE PUSH1 0x20 ADD DUP3 DUP1 SLOAD PUSH3 0x845 SWAP1 PUSH3 0x1703 JUMP JUMPDEST DUP1 ISZERO PUSH3 0x896 JUMPI DUP1 PUSH1 0x1F LT PUSH3 0x86A JUMPI PUSH2 0x100 DUP1 DUP4 SLOAD DIV MUL DUP4 MSTORE SWAP2 PUSH1 0x20 ADD SWAP2 PUSH3 0x896 JUMP JUMPDEST DUP3 ADD SWAP2 SWAP1 PUSH1 0x0 MSTORE PUSH1 0x20 PUSH1 0x0 KECCAK256 SWAP1 JUMPDEST DUP2 SLOAD DUP2 MSTORE SWAP1 PUSH1 0x1 ADD SWAP1 PUSH1 0x20 ADD DUP1 DUP4 GT PUSH3 0x878 JUMPI DUP3 SWAP1 SUB PUSH1 0x1F AND DUP3 ADD SWAP2 JUMPDEST POP POP POP POP POP DUP2 MSTORE PUSH1 0x20 ADD PUSH1 0x5 DUP3 ADD DUP1 SLOAD PUSH3 0x8B1 SWAP1 PUSH3 0x1703 JUMP JUMPDEST DUP1 PUSH1 0x1F ADD PUSH1 0x20 DUP1 SWAP2 DIV MUL PUSH1 0x20 ADD PUSH1 0x40 MLOAD SWAP1 DUP2 ADD PUSH1 0x40 MSTORE DUP1 SWAP3 SWAP2 SWAP1 DUP2 DUP2 MSTORE PUSH1 0x20 ADD DUP3 DUP1 SLOAD PUSH3 0x8DF SWAP1 PUSH3 0x1703 JUMP JUMPDEST DUP1 ISZERO PUSH3 0x930 JUMPI DUP1 PUSH1 0x1F LT PUSH3 0x904 JUMPI PUSH2 0x100 DUP1 DUP4 SLOAD DIV MUL DUP4 MSTORE SWAP2 PUSH1 0x20 ADD SWAP2 PUSH3 0x930 JUMP JUMPDEST DUP3 ADD SWAP2 SWAP1 PUSH1 0x0 MSTORE PUSH1 0x20 PUSH1 0x0 KECCAK256 SWAP1 JUMPDEST DUP2 SLOAD DUP2 MSTORE SWAP1 PUSH1 0x1 ADD SWAP1 PUSH1 0x20 ADD DUP1 DUP4 GT PUSH3 0x912 JUMPI DUP3 SWAP1 SUB PUSH1 0x1F AND DUP3 ADD SWAP2 JUMPDEST POP POP POP SWAP2 DUP4 MSTORE POP POP PUSH1 0x6 SWAP2 SWAP1 SWAP2 ADD SLOAD PUSH8 0xFFFFFFFFFFFFFFFF AND PUSH1 0x20 SWAP1 SWAP2 ADD MSTORE SWAP3 SWAP2 POP POP JUMP JUMPDEST PUSH3 0x95F PUSH3 0x11BC JUMP JUMPDEST PUSH3 0x97A PUSH3 0x974 CALLDATASIZE DUP4 SWAP1 SUB DUP4 ADD DUP4 PUSH3 0x1739 JUMP JUMPDEST PUSH3 0x11EB JUMP JUMPDEST DUP1 CALLDATALOAD PUSH1 0x1 DUP2 SWAP1 SSTORE PUSH1 0x20 DUP1 DUP4 ADD CALLDATALOAD PUSH1 0x2 DUP2 SWAP1 SSTORE PUSH1 0x40 DUP1 DUP6 ADD CALLDATALOAD PUSH1 0x3 DUP2 SWAP1 SSTORE PUSH1 0x60 DUP1 DUP8 ADD CALLDATALOAD PUSH1 0x4 DUP2 SWAP1 SSTORE PUSH1 0x80 DUP1 DUP10 ADD CALLDATALOAD PUSH1 0x5 DUP2 SWAP1 SSTORE PUSH1 0xA0 DUP1 DUP12 ADD CALLDATALOAD PUSH1 0x6 DUP2 SWAP1 SSTORE PUSH1 0xC0 DUP1 DUP14 ADD CALLDATALOAD PUSH1 0x7 DUP2 SWAP1 SSTORE DUP10 MLOAD SWAP13 DUP14 MSTORE SWAP11 DUP13 ADD SWAP10 SWAP1 SWAP10 MSTORE SWAP7 DUP11 ADD SWAP6 SWAP1 SWAP6 MSTORE SWAP3 DUP9 ADD SWAP2 SWAP1 SWAP2 MSTORE DUP7 ADD MSTORE DUP5 ADD MSTORE DUP3 ADD MSTORE PUSH32 0x7C4ABC5E661F62070299968A3A9A482D60903A066B120D28CC5512EEC5EE38F2 SWAP1 PUSH1 0xE0 ADD JUMPDEST PUSH1 0x40 MLOAD DUP1 SWAP2 SUB SWAP1 LOG1 POP JUMP JUMPDEST PUSH3 0xA21 PUSH3 0x11BC JUMP JUMPDEST PUSH3 0xA2D PUSH1 0x0 PUSH3 0x13A9 JUMP JUMPDEST JUMP JUMPDEST PUSH3 0xA39 PUSH3 0x11BC JUMP JUMPDEST PUSH2 0x3E8 DUP2 GT ISZERO PUSH3 0xA7C JUMPI PUSH1 0x40 MLOAD PUSH3 0x461BCD PUSH1 0xE5 SHL DUP2 MSTORE PUSH1 0x20 PUSH1 0x4 DUP3 ADD MSTORE PUSH1 0xC PUSH1 0x24 DUP3 ADD MSTORE PUSH12 0xCCCACA40E8DEDE40D0D2CED PUSH1 0xA3 SHL PUSH1 0x44 DUP3 ADD MSTORE PUSH1 0x64 ADD PUSH3 0x32E JUMP JUMPDEST PUSH1 0x9 DUP2 SWAP1 SSTORE PUSH1 0x40 MLOAD DUP2 DUP2 MSTORE PUSH32 0xD10D75876659A287A59A6CCFA2E3FFF42F84D94B542837ACD30BC184D562DE40 SWAP1 PUSH1 0x20 ADD PUSH3 0xA0C JUMP JUMPDEST PUSH1 0x0 DUP1 DUP1 PUSH3 0xAC2 DUP5 DUP1 PUSH3 0x17C1 JUMP JUMPDEST SWAP1 POP GT PUSH3 0xAFC JUMPI PUSH1 0x40 MLOAD PUSH3 0x461BCD PUSH1 0xE5 SHL DUP2 MSTORE PUSH1 0x4 ADD PUSH3 0x32E SWAP1 PUSH1 0x20 DUP1 DUP3 MSTORE PUSH1 0x4 SWAP1 DUP3 ADD MSTORE PUSH4 0x6E616D65 PUSH1 0xE0 SHL PUSH1 0x40 DUP3 ADD MSTORE PUSH1 0x60 ADD SWAP1 JUMP JUMPDEST PUSH1 0x0 PUSH3 0xB0D PUSH1 0x20 DUP6 ADD DUP6 PUSH3 0x17C1 JUMP JUMPDEST SWAP1 POP GT PUSH3 0xB47 JUMPI PUSH1 0x40 MLOAD PUSH3 0x461BCD PUSH1 0xE5 SHL DUP2 MSTORE PUSH1 0x20 PUSH1 0x4 DUP3 ADD MSTORE PUSH1 0x6 PUSH1 0x24 DUP3 ADD MSTORE PUSH6 0x1CDE5B589BDB PUSH1 0xD2 SHL PUSH1 0x44 DUP3 ADD MSTORE PUSH1 0x64 ADD PUSH3 0x32E JUMP JUMPDEST PUSH1 0x40 DUP1 MLOAD PUSH2 0x200 DUP2 ADD SWAP1 SWAP2 MSTORE PUSH1 0x0 SWAP1 DUP1 PUSH3 0xB63 DUP7 DUP1 PUSH3 0x17C1 JUMP JUMPDEST DUP1 DUP1 PUSH1 0x1F ADD PUSH1 0x20 DUP1 SWAP2 DIV MUL PUSH1 0x20 ADD PUSH1 0x40 MLOAD SWAP1 DUP2 ADD PUSH1 0x40 MSTORE DUP1 SWAP4 SWAP3 SWAP2 SWAP1 DUP2 DUP2 MSTORE PUSH1 0x20 ADD DUP4 DUP4 DUP1 DUP3 DUP5 CALLDATACOPY PUSH1 0x0 SWAP3 ADD SWAP2 SWAP1 SWAP2 MSTORE POP POP POP SWAP1 DUP3 MSTORE POP PUSH1 0x20 SWAP1 DUP2 ADD SWAP1 PUSH3 0xBAE SWAP1 DUP8 ADD DUP8 PUSH3 0x17C1 JUMP JUMPDEST DUP1 DUP1 PUSH1 0x1F ADD PUSH1 0x20 DUP1 SWAP2 DIV MUL PUSH1 0x20 ADD PUSH1 0x40 MLOAD SWAP1 DUP2 ADD PUSH1 0x40 MSTORE DUP1 SWAP4 SWAP3 SWAP2 SWAP1 DUP2 DUP2 MSTORE PUSH1 0x20 ADD DUP4 DUP4 DUP1 DUP3 DUP5 CALLDATACOPY PUSH1 0x0 SWAP3 ADD SWAP2 SWAP1 SWAP2 MSTORE POP POP POP SWAP1 DUP3 MSTORE POP PUSH1 0x20 ADD PUSH3 0xBF7 PUSH1 0x40 DUP8 ADD DUP8 PUSH3 0x17C1 JUMP JUMPDEST DUP1 DUP1 PUSH1 0x1F ADD PUSH1 0x20 DUP1 SWAP2 DIV MUL PUSH1 0x20 ADD PUSH1 0x40 MLOAD SWAP1 DUP2 ADD PUSH1 0x40 MSTORE DUP1 SWAP4 SWAP3 SWAP2 SWAP1 DUP2 DUP2 MSTORE PUSH1 0x20 ADD DUP4 DUP4 DUP1 DUP3 DUP5 CALLDATACOPY PUSH1 0x0 SWAP3 ADD SWAP2 SWAP1 SWAP2 MSTORE POP POP POP SWAP1 DUP3 MSTORE POP PUSH1 0x1 SLOAD PUSH1 0x20 DUP3 ADD MSTORE PUSH1 0x2 SLOAD PUSH1 0x40 DUP3 ADD MSTORE PUSH1 0x3 SLOAD PUSH1 0x60 DUP1 DUP4 ADD SWAP2 SWAP1 SWAP2 MSTORE PUSH1 0x80 SWAP1 SWAP2 ADD SWAP1 DUP7 ADD CALLDATALOAD ISZERO PUSH3 0xC64 JUMPI DUP6 PUSH1 0x60 ADD CALLDATALOAD PUSH3 0xC68 JUMP JUMPDEST PUSH1 0x4 SLOAD JUMPDEST DUP2 MSTORE PUSH1 0x20 ADD PUSH1 0x80 DUP7 ADD CALLDATALOAD ISZERO PUSH3 0xC83 JUMPI DUP6 PUSH1 0x80 ADD CALLDATALOAD PUSH3 0xC87 JUMP JUMPDEST PUSH1 0x5 SLOAD JUMPDEST DUP2 MSTORE PUSH1 0x20 ADD PUSH1 0xA0 DUP7 ADD CALLDATALOAD ISZERO PUSH3 0xCA2 JUMPI DUP6 PUSH1 0xA0 ADD CALLDATALOAD PUSH3 0xCA6 JUMP JUMPDEST PUSH1 0x6 SLOAD JUMPDEST DUP2 MSTORE PUSH1 0x7 SLOAD PUSH1 0x20 DUP3 ADD MSTORE PUSH1 0x9 SLOAD PUSH1 0x40 DUP3 ADD MSTORE PUSH1 0xA SLOAD PUSH1 0x1 PUSH1 0x1 PUSH1 0xA0 SHL SUB AND PUSH1 0x60 DUP3 ADD MSTORE PUSH1 0x80 ADD PUSH1 0x0 PUSH3 0xCE0 PUSH1 0xE0 DUP9 ADD PUSH1 0xC0 DUP10 ADD PUSH3 0x1675 JUMP JUMPDEST PUSH1 0x1 PUSH1 0x1 PUSH1 0xA0 SHL SUB AND EQ PUSH3 0xD07 JUMPI PUSH3 0xD01 PUSH1 0xE0 DUP8 ADD PUSH1 0xC0 DUP9 ADD PUSH3 0x1675 JUMP JUMPDEST PUSH3 0xD09 JUMP JUMPDEST CALLER JUMPDEST PUSH1 0x1 PUSH1 0x1 PUSH1 0xA0 SHL SUB SWAP1 DUP2 AND DUP3 MSTORE PUSH1 0x8 SLOAD AND PUSH1 0x20 DUP3 ADD MSTORE CALLER PUSH1 0x40 DUP1 DUP4 ADD SWAP2 SWAP1 SWAP2 MSTORE ADDRESS PUSH1 0x60 SWAP1 SWAP3 ADD SWAP2 SWAP1 SWAP2 MSTORE MLOAD SWAP1 SWAP2 POP PUSH1 0x0 SWAP1 DUP3 SWAP1 PUSH3 0xD47 SWAP1 PUSH3 0x1434 JUMP JUMPDEST PUSH3 0xD53 SWAP2 SWAP1 PUSH3 0x1812 JUMP JUMPDEST PUSH1 0x40 MLOAD DUP1 SWAP2 SUB SWAP1 PUSH1 0x0 CREATE DUP1 ISZERO DUP1 ISZERO PUSH3 0xD70 JUMPI RETURNDATASIZE PUSH1 0x0 DUP1 RETURNDATACOPY RETURNDATASIZE PUSH1 0x0 REVERT JUMPDEST POP SWAP1 POP DUP1 SWAP4 POP DUP1 PUSH1 0x1 PUSH1 0x1 PUSH1 0xA0 SHL SUB AND PUSH4 0xFC0C546A PUSH1 0x40 MLOAD DUP2 PUSH4 0xFFFFFFFF AND PUSH1 0xE0 SHL DUP2 MSTORE PUSH1 0x4 ADD PUSH1 0x20 PUSH1 0x40 MLOAD DUP1 DUP4 SUB DUP2 DUP7 GAS STATICCALL ISZERO DUP1 ISZERO PUSH3 0xDB5 JUMPI RETURNDATASIZE PUSH1 0x0 DUP1 RETURNDATACOPY RETURNDATASIZE PUSH1 0x0 REVERT JUMPDEST POP POP POP POP PUSH1 0x40 MLOAD RETURNDATASIZE PUSH1 0x1F NOT PUSH1 0x1F DUP3 ADD AND DUP3 ADD DUP1 PUSH1 0x40 MSTORE POP DUP2 ADD SWAP1 PUSH3 0xDDB SWAP2 SWAP1 PUSH3 0x1967 JUMP JUMPDEST PUSH1 0x40 DUP1 MLOAD PUSH1 0xE0 DUP2 ADD DUP3 MSTORE PUSH1 0x1 PUSH1 0x1 PUSH1 0xA0 SHL SUB DUP1 DUP9 AND DUP3 MSTORE DUP4 AND PUSH1 0x20 DUP3 ADD MSTORE CALLER SWAP2 DUP2 ADD SWAP2 SWAP1 SWAP2 MSTORE SWAP1 SWAP4 POP PUSH1 0xB SWAP1 PUSH1 0x60 DUP2 ADD PUSH3 0xE17 DUP9 DUP1 PUSH3 0x17C1 JUMP JUMPDEST DUP1 DUP1 PUSH1 0x1F ADD PUSH1 0x20 DUP1 SWAP2 DIV MUL PUSH1 0x20 ADD PUSH1 0x40 MLOAD SWAP1 DUP2 ADD PUSH1 0x40 MSTORE DUP1 SWAP4 SWAP3 SWAP2 SWAP1 DUP2 DUP2 MSTORE PUSH1 0x20 ADD DUP4 DUP4 DUP1 DUP3 DUP5 CALLDATACOPY PUSH1 0x0 SWAP3 ADD SWAP2 SWAP1 SWAP2 MSTORE POP POP POP SWAP1 DUP3 MSTORE POP PUSH1 0x20 SWAP1 DUP2 ADD SWAP1 PUSH3 0xE62 SWAP1 DUP10 ADD DUP10 PUSH3 0x17C1 JUMP JUMPDEST DUP1 DUP1 PUSH1 0x1F ADD PUSH1 0x20 DUP1 SWAP2 DIV MUL PUSH1 0x20 ADD PUSH1 0x40 MLOAD SWAP1 DUP2 ADD PUSH1 0x40 MSTORE DUP1 SWAP4 SWAP3 SWAP2 SWAP1 DUP2 DUP2 MSTORE PUSH1 0x20 ADD DUP4 DUP4 DUP1 DUP3 DUP5 CALLDATACOPY PUSH1 0x0 SWAP3 ADD SWAP2 SWAP1 SWAP2 MSTORE POP POP POP SWAP1 DUP3 MSTORE POP PUSH1 0x20 ADD PUSH3 0xEAB PUSH1 0x40 DUP10 ADD DUP10 PUSH3 0x17C1 JUMP JUMPDEST DUP1 DUP1 PUSH1 0x1F ADD PUSH1 0x20 DUP1 SWAP2 DIV MUL PUSH1 0x20 ADD PUSH1 0x40 MLOAD SWAP1 DUP2 ADD PUSH1 0x40 MSTORE DUP1 SWAP4 SWAP3 SWAP2 SWAP1 DUP2 DUP2 MSTORE PUSH1 0x20 ADD DUP4 DUP4 DUP1 DUP3 DUP5 CALLDATACOPY PUSH1 0x0 SWAP3 ADD DUP3 SWAP1 MSTORE POP SWAP4 DUP6 MSTORE POP POP POP TIMESTAMP PUSH8 0xFFFFFFFFFFFFFFFF AND PUSH1 0x20 SWAP3 DUP4 ADD MSTORE DUP4 SLOAD PUSH1 0x1 DUP1 DUP3 ADD DUP7 SSTORE SWAP5 DUP3 MSTORE SWAP1 DUP3 SWAP1 KECCAK256 DUP4 MLOAD PUSH1 0x7 SWAP1 SWAP3 MUL ADD DUP1 SLOAD PUSH1 0x1 PUSH1 0x1 PUSH1 0xA0 SHL SUB NOT SWAP1 DUP2 AND PUSH1 0x1 PUSH1 0x1 PUSH1 0xA0 SHL SUB SWAP4 DUP5 AND OR DUP3 SSTORE SWAP3 DUP5 ADD MLOAD SWAP5 DUP2 ADD DUP1 SLOAD DUP5 AND SWAP6 DUP4 AND SWAP6 SWAP1 SWAP6 OR SWAP1 SWAP5 SSTORE PUSH1 0x40 DUP4 ADD MLOAD PUSH1 0x2 DUP6 ADD DUP1 SLOAD SWAP1 SWAP4 AND SWAP2 AND OR SWAP1 SSTORE PUSH1 0x60 DUP2 ADD MLOAD SWAP1 SWAP2 SWAP1 PUSH1 0x3 DUP3 ADD SWAP1 PUSH3 0xF67 SWAP1 DUP3 PUSH3 0x19DC JUMP JUMPDEST POP PUSH1 0x80 DUP3 ADD MLOAD PUSH1 0x4 DUP3 ADD SWAP1 PUSH3 0xF7E SWAP1 DUP3 PUSH3 0x19DC JUMP JUMPDEST POP PUSH1 0xA0 DUP3 ADD MLOAD PUSH1 0x5 DUP3 ADD SWAP1 PUSH3 0xF95 SWAP1 DUP3 PUSH3 0x19DC JUMP JUMPDEST POP PUSH1 0xC0 SWAP2 SWAP1 SWAP2 ADD MLOAD PUSH1 0x6 SWAP1 SWAP2 ADD DUP1 SLOAD PUSH8 0xFFFFFFFFFFFFFFFF NOT AND PUSH8 0xFFFFFFFFFFFFFFFF SWAP1 SWAP3 AND SWAP2 SWAP1 SWAP2 OR SWAP1 SSTORE PUSH1 0xB SLOAD PUSH1 0x1 PUSH1 0x1 PUSH1 0xA0 SHL SUB DUP5 DUP2 AND SWAP2 SWAP1 DUP7 AND SWAP1 PUSH3 0xFE2 SWAP1 PUSH1 0x1 SWAP1 PUSH3 0x16D7 JUMP JUMPDEST PUSH32 0xFDB1476EE472AE4C88DD3D31E0289BF3AEDE684AAE57FAE4D32C92E7585911EF CALLER PUSH3 0x1010 DUP11 DUP1 PUSH3 0x17C1 JUMP JUMPDEST PUSH3 0x101F PUSH1 0x20 DUP14 ADD DUP14 PUSH3 0x17C1 JUMP JUMPDEST PUSH1 0x40 MLOAD PUSH3 0x1032 SWAP6 SWAP5 SWAP4 SWAP3 SWAP2 SWAP1 PUSH3 0x1AD2 JUMP JUMPDEST PUSH1 0x40 MLOAD DUP1 SWAP2 SUB SWAP1 LOG4 POP POP SWAP2 POP SWAP2 JUMP JUMPDEST PUSH3 0x104B PUSH3 0x11BC JUMP JUMPDEST PUSH1 0x1 PUSH1 0x1 PUSH1 0xA0 SHL SUB DUP2 AND PUSH3 0x1091 JUMPI PUSH1 0x40 MLOAD PUSH3 0x461BCD PUSH1 0xE5 SHL DUP2 MSTORE PUSH1 0x20 PUSH1 0x4 DUP3 ADD MSTORE PUSH1 0xB PUSH1 0x24 DUP3 ADD MSTORE PUSH11 0x726F75746572207A65726F PUSH1 0xA8 SHL PUSH1 0x44 DUP3 ADD MSTORE PUSH1 0x64 ADD PUSH3 0x32E JUMP JUMPDEST PUSH1 0xA DUP1 SLOAD PUSH1 0x1 PUSH1 0x1 PUSH1 0xA0 SHL SUB NOT AND PUSH1 0x1 PUSH1 0x1 PUSH1 0xA0 SHL SUB DUP4 AND SWAP1 DUP2 OR SWAP1 SWAP2 SSTORE PUSH1 0x40 MLOAD PUSH32 0x7AED1D3E8155A07CCF395E44EA3109A0E2D6C9B29BBBE9F142D9790596F4DC80 SWAP1 PUSH1 0x0 SWAP1 LOG2 POP JUMP JUMPDEST PUSH3 0x10E5 PUSH3 0x11BC JUMP JUMPDEST PUSH1 0x1 PUSH1 0x1 PUSH1 0xA0 SHL SUB DUP2 AND PUSH3 0x112E JUMPI PUSH1 0x40 MLOAD PUSH3 0x461BCD PUSH1 0xE5 SHL DUP2 MSTORE PUSH1 0x20 PUSH1 0x4 DUP3 ADD MSTORE PUSH1 0xE PUSH1 0x24 DUP3 ADD MSTORE PUSH14 0x726563697069656E74207A65726F PUSH1 0x90 SHL PUSH1 0x44 DUP3 ADD MSTORE PUSH1 0x64 ADD PUSH3 0x32E JUMP JUMPDEST PUSH1 0x8 DUP1 SLOAD PUSH1 0x1 PUSH1 0x1 PUSH1 0xA0 SHL SUB NOT AND PUSH1 0x1 PUSH1 0x1 PUSH1 0xA0 SHL SUB DUP4 AND SWAP1 DUP2 OR SWAP1 SWAP2 SSTORE PUSH1 0x40 MLOAD PUSH32 0x7A7B5A0A132F9E0581EB8527F66EAE9EE89C2A3E79D4AC7E41A1F1F4D48A7FC2 SWAP1 PUSH1 0x0 SWAP1 LOG2 POP JUMP JUMPDEST PUSH3 0x1182 PUSH3 0x11BC JUMP JUMPDEST PUSH1 0x1 PUSH1 0x1 PUSH1 0xA0 SHL SUB DUP2 AND PUSH3 0x11AE JUMPI PUSH1 0x40 MLOAD PUSH4 0x1E4FBDF7 PUSH1 0xE0 SHL DUP2 MSTORE PUSH1 0x0 PUSH1 0x4 DUP3 ADD MSTORE PUSH1 0x24 ADD PUSH3 0x32E JUMP JUMPDEST PUSH3 0x11B9 DUP2 PUSH3 0x13A9 JUMP JUMPDEST POP JUMP JUMPDEST PUSH1 0x0 SLOAD PUSH1 0x1 PUSH1 0x1 PUSH1 0xA0 SHL SUB AND CALLER EQ PUSH3 0xA2D JUMPI PUSH1 0x40 MLOAD PUSH4 0x118CDAA7 PUSH1 0xE0 SHL DUP2 MSTORE CALLER PUSH1 0x4 DUP3 ADD MSTORE PUSH1 0x24 ADD PUSH3 0x32E JUMP JUMPDEST DUP1 MLOAD PUSH3 0x1229 JUMPI PUSH1 0x40 MLOAD PUSH3 0x461BCD PUSH1 0xE5 SHL DUP2 MSTORE PUSH1 0x20 PUSH1 0x4 DUP3 ADD MSTORE PUSH1 0xB PUSH1 0x24 DUP3 ADD MSTORE PUSH11 0x737570706C79207A65726F PUSH1 0xA8 SHL PUSH1 0x44 DUP3 ADD MSTORE PUSH1 0x64 ADD PUSH3 0x32E JUMP JUMPDEST PUSH1 0x0 DUP2 PUSH1 0x20 ADD MLOAD GT DUP1 ISZERO PUSH3 0x1255 JUMPI POP PUSH2 0x2710 DUP2 PUSH1 0x40 ADD MLOAD DUP3 PUSH1 0x20 ADD MLOAD PUSH3 0x1252 SWAP2 SWAP1 PUSH3 0x16C1 JUMP JUMPDEST GT ISZERO JUMPDEST PUSH3 0x1297 JUMPI PUSH1 0x40 MLOAD PUSH3 0x461BCD PUSH1 0xE5 SHL DUP2 MSTORE PUSH1 0x20 PUSH1 0x4 DUP3 ADD MSTORE PUSH1 0x11 PUSH1 0x24 DUP3 ADD MSTORE PUSH17 0x696E76616C696420637572766520627073 PUSH1 0x78 SHL PUSH1 0x44 DUP3 ADD MSTORE PUSH1 0x64 ADD PUSH3 0x32E JUMP JUMPDEST PUSH1 0x0 DUP2 PUSH1 0x60 ADD MLOAD GT PUSH3 0x12DA JUMPI PUSH1 0x40 MLOAD PUSH3 0x461BCD PUSH1 0xE5 SHL DUP2 MSTORE PUSH1 0x20 PUSH1 0x4 DUP3 ADD MSTORE PUSH1 0xA PUSH1 0x24 DUP3 ADD MSTORE PUSH10 0x7072696365207A65726F PUSH1 0xB0 SHL PUSH1 0x44 DUP3 ADD MSTORE PUSH1 0x64 ADD PUSH3 0x32E JUMP JUMPDEST PUSH1 0x0 DUP2 PUSH1 0x80 ADD MLOAD GT PUSH3 0x131D JUMPI PUSH1 0x40 MLOAD PUSH3 0x461BCD PUSH1 0xE5 SHL DUP2 MSTORE PUSH1 0x20 PUSH1 0x4 DUP3 ADD MSTORE PUSH1 0xA PUSH1 0x24 DUP3 ADD MSTORE PUSH10 0x736C6F7065207A65726F PUSH1 0xB0 SHL PUSH1 0x44 DUP3 ADD MSTORE PUSH1 0x64 ADD PUSH3 0x32E JUMP JUMPDEST PUSH1 0x0 DUP2 PUSH1 0xA0 ADD MLOAD GT PUSH3 0x1361 JUMPI PUSH1 0x40 MLOAD PUSH3 0x461BCD PUSH1 0xE5 SHL DUP2 MSTORE PUSH1 0x20 PUSH1 0x4 DUP3 ADD MSTORE PUSH1 0xB PUSH1 0x24 DUP3 ADD MSTORE PUSH11 0x746172676574207A65726F PUSH1 0xA8 SHL PUSH1 0x44 DUP3 ADD MSTORE PUSH1 0x64 ADD PUSH3 0x32E JUMP JUMPDEST PUSH2 0x2710 DUP2 PUSH1 0xC0 ADD MLOAD GT ISZERO PUSH3 0x11B9 JUMPI PUSH1 0x40 MLOAD PUSH3 0x461BCD PUSH1 0xE5 SHL DUP2 MSTORE PUSH1 0x20 PUSH1 0x4 DUP3 ADD MSTORE PUSH1 0xD PUSH1 0x24 DUP3 ADD MSTORE PUSH13 0x6C697175696469747920627073 PUSH1 0x98 SHL PUSH1 0x44 DUP3 ADD MSTORE PUSH1 0x64 ADD PUSH3 0x32E JUMP JUMPDEST PUSH1 0x0 DUP1 SLOAD PUSH1 0x1 PUSH1 0x1 PUSH1 0xA0 SHL SUB DUP4 DUP2 AND PUSH1 0x1 PUSH1 0x1 PUSH1 0xA0 SHL SUB NOT DUP4 AND DUP2 OR DUP5 SSTORE PUSH1 0x40 MLOAD SWAP2 SWAP1 SWAP3 AND SWAP3 DUP4 SWAP2 PUSH32 0x8BE0079C531659141344CD1FD0A4F28419497F9722A3DAAFE3B4186F6B6457E0 SWAP2 SWAP1 LOG3 POP POP JUMP JUMPDEST PUSH1 0x40 DUP1 MLOAD PUSH1 0xE0 DUP2 ADD DUP3 MSTORE PUSH1 0x0 DUP1 DUP3 MSTORE PUSH1 0x20 DUP3 ADD DUP2 SWAP1 MSTORE SWAP2 DUP2 ADD DUP3 SWAP1 MSTORE PUSH1 0x60 DUP1 DUP3 ADD DUP2 SWAP1 MSTORE PUSH1 0x80 DUP3 ADD DUP2 SWAP1 MSTORE PUSH1 0xA0 DUP3 ADD MSTORE PUSH1 0xC0 DUP2 ADD SWAP2 SWAP1 SWAP2 MSTORE SWAP1 JUMP JUMPDEST PUSH2 0x328C DUP1 PUSH3 0x1B1B DUP4 CODECOPY ADD SWAP1 JUMP JUMPDEST PUSH1 0x0 DUP1 PUSH1 0x40 DUP4 DUP6 SUB SLT ISZERO PUSH3 0x1456 JUMPI PUSH1 0x0 DUP1 REVERT JUMPDEST POP POP DUP1 CALLDATALOAD SWAP3 PUSH1 0x20 SWAP1 SWAP2 ADD CALLDATALOAD SWAP2 POP JUMP JUMPDEST PUSH1 0x0 DUP2 MLOAD DUP1 DUP5 MSTORE PUSH1 0x0 JUMPDEST DUP2 DUP2 LT ISZERO PUSH3 0x148D JUMPI PUSH1 0x20 DUP2 DUP6 ADD DUP2 ADD MLOAD DUP7 DUP4 ADD DUP3 ADD MSTORE ADD PUSH3 0x146F JUMP JUMPDEST POP PUSH1 0x0 PUSH1 0x20 DUP3 DUP7 ADD ADD MSTORE PUSH1 0x20 PUSH1 0x1F NOT PUSH1 0x1F DUP4 ADD AND DUP6 ADD ADD SWAP2 POP POP SWAP3 SWAP2 POP POP JUMP JUMPDEST PUSH1 0x0 PUSH1 0x1 DUP1 PUSH1 0xA0 SHL SUB DUP1 DUP4 MLOAD AND DUP5 MSTORE DUP1 PUSH1 0x20 DUP5 ADD MLOAD AND PUSH1 0x20 DUP6 ADD MSTORE DUP1 PUSH1 0x40 DUP5 ADD MLOAD AND PUSH1 0x40 DUP6 ADD MSTORE POP PUSH1 0x60 DUP3 ADD MLOAD PUSH1 0xE0 PUSH1 0x60 DUP6 ADD MSTORE PUSH3 0x14F0 PUSH1 0xE0 DUP6 ADD DUP3 PUSH3 0x1465 JUMP JUMPDEST SWAP1 POP PUSH1 0x80 DUP4 ADD MLOAD DUP5 DUP3 SUB PUSH1 0x80 DUP7 ADD MSTORE PUSH3 0x150B DUP3 DUP3 PUSH3 0x1465 JUMP JUMPDEST SWAP2 POP POP PUSH1 0xA0 DUP4 ADD MLOAD DUP5 DUP3 SUB PUSH1 0xA0 DUP7 ADD MSTORE PUSH3 0x1527 DUP3 DUP3 PUSH3 0x1465 JUMP JUMPDEST SWAP2 POP POP PUSH8 0xFFFFFFFFFFFFFFFF PUSH1 0xC0 DUP5 ADD MLOAD AND PUSH1 0xC0 DUP6 ADD MSTORE DUP1 SWAP2 POP POP SWAP3 SWAP2 POP POP JUMP JUMPDEST PUSH1 0x0 PUSH1 0x20 DUP1 DUP4 ADD PUSH1 0x20 DUP5 MSTORE DUP1 DUP6 MLOAD DUP1 DUP4 MSTORE PUSH1 0x40 DUP7 ADD SWAP2 POP PUSH1 0x40 DUP2 PUSH1 0x5 SHL DUP8 ADD ADD SWAP3 POP PUSH1 0x20 DUP8 ADD PUSH1 0x0 JUMPDEST DUP3 DUP2 LT ISZERO PUSH3 0x15A3 JUMPI PUSH1 0x3F NOT DUP9 DUP7 SUB ADD DUP5 MSTORE PUSH3 0x1590 DUP6 DUP4 MLOAD PUSH3 0x14AD JUMP JUMPDEST SWAP5 POP SWAP3 DUP6 ADD SWAP3 SWAP1 DUP6 ADD SWAP1 PUSH1 0x1 ADD PUSH3 0x1571 JUMP JUMPDEST POP SWAP3 SWAP8 SWAP7 POP POP POP POP POP POP POP JUMP JUMPDEST PUSH1 0x0 PUSH1 0x20 DUP3 DUP5 SUB SLT ISZERO PUSH3 0x15C3 JUMPI PUSH1 0x0 DUP1 REVERT JUMPDEST POP CALLDATALOAD SWAP2 SWAP1 POP JUMP JUMPDEST PUSH1 0x20 DUP2 MSTORE PUSH1 0x0 PUSH3 0x15DF PUSH1 0x20 DUP4 ADD DUP5 PUSH3 0x14AD JUMP JUMPDEST SWAP4 SWAP3 POP POP POP JUMP JUMPDEST PUSH1 0x0 PUSH1 0xE0 DUP3 DUP5 SUB SLT ISZERO PUSH3 0x15F9 JUMPI PUSH1 0x0 DUP1 REVERT JUMPDEST POP SWAP2 SWAP1 POP JUMP JUMPDEST PUSH1 0x0 PUSH1 0xE0 DUP3 DUP5 SUB SLT ISZERO PUSH3 0x1612 JUMPI PUSH1 0x0 DUP1 REVERT JUMPDEST PUSH3 0x15DF DUP4 DUP4 PUSH3 0x15E6 JUMP JUMPDEST PUSH1 0x0 PUSH1 0x20 DUP3 DUP5 SUB SLT ISZERO PUSH3 0x1631 JUMPI PUSH1 0x0 DUP1 REVERT JUMPDEST DUP2 CALLDATALOAD PUSH8 0xFFFFFFFFFFFFFFFF DUP2 GT ISZERO PUSH3 0x1649 JUMPI PUSH1 0x0 DUP1 REVERT JUMPDEST PUSH3 0x1657 DUP5 DUP3 DUP6 ADD PUSH3 0x15E6 JUMP JUMPDEST SWAP5 SWAP4 POP POP POP POP JUMP JUMPDEST PUSH1 0x1 PUSH1 0x1 PUSH1 0xA0 SHL SUB DUP2 AND DUP2 EQ PUSH3 0x11B9 JUMPI PUSH1 0x0 DUP1 REVERT JUMPDEST PUSH1 0x0 PUSH1 0x20 DUP3 DUP5 SUB SLT ISZERO PUSH3 0x1688 JUMPI PUSH1 0x0 DUP1 REVERT JUMPDEST DUP2 CALLDATALOAD PUSH3 0x15DF DUP2 PUSH3 0x165F JUMP JUMPDEST PUSH4 0x4E487B71 PUSH1 0xE0 SHL PUSH1 0x0 MSTORE PUSH1 0x41 PUSH1 0x4 MSTORE PUSH1 0x24 PUSH1 0x0 REVERT JUMPDEST PUSH4 0x4E487B71 PUSH1 0xE0 SHL PUSH1 0x0 MSTORE PUSH1 0x11 PUSH1 0x4 MSTORE PUSH1 0x24 PUSH1 0x0 REVERT JUMPDEST DUP1 DUP3 ADD DUP1 DUP3 GT ISZERO PUSH3 0x6B4 JUMPI PUSH3 0x6B4 PUSH3 0x16AB JUMP JUMPDEST DUP2 DUP2 SUB DUP2 DUP2 GT ISZERO PUSH3 0x6B4 JUMPI PUSH3 0x6B4 PUSH3 0x16AB JUMP JUMPDEST PUSH4 0x4E487B71 PUSH1 0xE0 SHL PUSH1 0x0 MSTORE PUSH1 0x32 PUSH1 0x4 MSTORE PUSH1 0x24 PUSH1 0x0 REVERT JUMPDEST PUSH1 0x1 DUP2 DUP2 SHR SWAP1 DUP3 AND DUP1 PUSH3 0x1718 JUMPI PUSH1 0x7F DUP3 AND SWAP2 POP JUMPDEST PUSH1 0x20 DUP3 LT DUP2 SUB PUSH3 0x15F9 JUMPI PUSH4 0x4E487B71 PUSH1 0xE0 SHL PUSH1 0x0 MSTORE PUSH1 0x22 PUSH1 0x4 MSTORE PUSH1 0x24 PUSH1 0x0 REVERT JUMPDEST PUSH1 0x0 PUSH1 0xE0 DUP3 DUP5 SUB SLT ISZERO PUSH3 0x174C JUMPI PUSH1 0x0 DUP1 REVERT JUMPDEST PUSH1 0x40 MLOAD PUSH1 0xE0 DUP2 ADD DUP2 DUP2 LT PUSH8 0xFFFFFFFFFFFFFFFF DUP3 GT OR ISZERO PUSH3 0x1772 JUMPI PUSH3 0x1772 PUSH3 0x1695 JUMP JUMPDEST DUP1 PUSH1 0x40 MSTORE POP DUP3 CALLDATALOAD DUP2 MSTORE PUSH1 0x20 DUP4 ADD CALLDATALOAD PUSH1 0x20 DUP3 ADD MSTORE PUSH1 0x40 DUP4 ADD CALLDATALOAD PUSH1 0x40 DUP3 ADD MSTORE PUSH1 0x60 DUP4 ADD CALLDATALOAD PUSH1 0x60 DUP3 ADD MSTORE PUSH1 0x80 DUP4 ADD CALLDATALOAD PUSH1 0x80 DUP3 ADD MSTORE PUSH1 0xA0 DUP4 ADD CALLDATALOAD PUSH1 0xA0 DUP3 ADD MSTORE PUSH1 0xC0 DUP4 ADD CALLDATALOAD PUSH1 0xC0 DUP3 ADD MSTORE DUP1 SWAP2 POP POP SWAP3 SWAP2 POP POP JUMP JUMPDEST PUSH1 0x0 DUP1 DUP4 CALLDATALOAD PUSH1 0x1E NOT DUP5 CALLDATASIZE SUB ADD DUP2 SLT PUSH3 0x17D9 JUMPI PUSH1 0x0 DUP1 REVERT JUMPDEST DUP4 ADD DUP1 CALLDATALOAD SWAP2 POP PUSH8 0xFFFFFFFFFFFFFFFF DUP3 GT ISZERO PUSH3 0x17F5 JUMPI PUSH1 0x0 DUP1 REVERT JUMPDEST PUSH1 0x20 ADD SWAP2 POP CALLDATASIZE DUP2 SWAP1 SUB DUP3 SGT ISZERO PUSH3 0x180B JUMPI PUSH1 0x0 DUP1 REVERT JUMPDEST SWAP3 POP SWAP3 SWAP1 POP JUMP JUMPDEST PUSH1 0x20 DUP2 MSTORE PUSH1 0x0 DUP3 MLOAD PUSH2 0x200 DUP1 PUSH1 0x20 DUP6 ADD MSTORE PUSH3 0x1833 PUSH2 0x220 DUP6 ADD DUP4 PUSH3 0x1465 JUMP JUMPDEST SWAP2 POP PUSH1 0x20 DUP6 ADD MLOAD PUSH1 0x1F NOT DUP1 DUP7 DUP6 SUB ADD PUSH1 0x40 DUP8 ADD MSTORE PUSH3 0x1853 DUP5 DUP4 PUSH3 0x1465 JUMP JUMPDEST SWAP4 POP PUSH1 0x40 DUP8 ADD MLOAD SWAP2 POP DUP1 DUP7 DUP6 SUB ADD PUSH1 0x60 DUP8 ADD MSTORE POP PUSH3 0x1873 DUP4 DUP3 PUSH3 0x1465 JUMP JUMPDEST SWAP3 POP POP PUSH1 0x60 DUP6 ADD MLOAD PUSH1 0x80 DUP6 ADD MSTORE PUSH1 0x80 DUP6 ADD MLOAD PUSH1 0xA0 DUP6 ADD MSTORE PUSH1 0xA0 DUP6 ADD MLOAD PUSH1 0xC0 DUP6 ADD MSTORE PUSH1 0xC0 DUP6 ADD MLOAD PUSH1 0xE0 DUP6 ADD MSTORE PUSH1 0xE0 DUP6 ADD MLOAD PUSH2 0x100 DUP2 DUP2 DUP8 ADD MSTORE DUP1 DUP8 ADD MLOAD SWAP2 POP POP PUSH2 0x120 DUP2 DUP2 DUP8 ADD MSTORE DUP1 DUP8 ADD MLOAD SWAP2 POP POP PUSH2 0x140 DUP2 DUP2 DUP8 ADD MSTORE DUP1 DUP8 ADD MLOAD SWAP2 POP POP PUSH2 0x160 DUP2 DUP2 DUP8 ADD MSTORE DUP1 DUP8 ADD MLOAD SWAP2 POP POP PUSH2 0x180 PUSH3 0x18F7 DUP2 DUP8 ADD DUP4 PUSH1 0x1 PUSH1 0x1 PUSH1 0xA0 SHL SUB AND SWAP1 MSTORE JUMP JUMPDEST DUP7 ADD MLOAD SWAP1 POP PUSH2 0x1A0 PUSH3 0x1914 DUP7 DUP3 ADD DUP4 PUSH1 0x1 PUSH1 0x1 PUSH1 0xA0 SHL SUB AND SWAP1 MSTORE JUMP JUMPDEST DUP7 ADD MLOAD SWAP1 POP PUSH2 0x1C0 PUSH3 0x1931 DUP7 DUP3 ADD DUP4 PUSH1 0x1 PUSH1 0x1 PUSH1 0xA0 SHL SUB AND SWAP1 MSTORE JUMP JUMPDEST DUP7 ADD MLOAD SWAP1 POP PUSH2 0x1E0 PUSH3 0x194E DUP7 DUP3 ADD DUP4 PUSH1 0x1 PUSH1 0x1 PUSH1 0xA0 SHL SUB AND SWAP1 MSTORE JUMP JUMPDEST SWAP1 SWAP6 ADD MLOAD PUSH1 0x1 PUSH1 0x1 PUSH1 0xA0 SHL SUB AND SWAP4 ADD SWAP3 SWAP1 SWAP3 MSTORE POP SWAP2 SWAP1 POP JUMP JUMPDEST PUSH1 0x0 PUSH1 0x20 DUP3 DUP5 SUB SLT ISZERO PUSH3 0x197A JUMPI PUSH1 0x0 DUP1 REVERT JUMPDEST DUP2 MLOAD PUSH3 0x15DF DUP2 PUSH3 0x165F JUMP JUMPDEST PUSH1 0x1F DUP3 GT ISZERO PUSH3 0x19D7 JUMPI PUSH1 0x0 DUP2 PUSH1 0x0 MSTORE PUSH1 0x20 PUSH1 0x0 KECCAK256 PUSH1 0x1F DUP6 ADD PUSH1 0x5 SHR DUP2 ADD PUSH1 0x20 DUP7 LT ISZERO PUSH3 0x19B2 JUMPI POP DUP1 JUMPDEST PUSH1 0x1F DUP6 ADD PUSH1 0x5 SHR DUP3 ADD SWAP2 POP JUMPDEST DUP2 DUP2 LT ISZERO PUSH3 0x19D3 JUMPI DUP3 DUP2 SSTORE PUSH1 0x1 ADD PUSH3 0x19BE JUMP JUMPDEST POP POP POP JUMPDEST POP POP POP JUMP JUMPDEST DUP2 MLOAD PUSH8 0xFFFFFFFFFFFFFFFF DUP2 GT ISZERO PUSH3 0x19F9 JUMPI PUSH3 0x19F9 PUSH3 0x1695 JUMP JUMPDEST PUSH3 0x1A11 DUP2 PUSH3 0x1A0A DUP5 SLOAD PUSH3 0x1703 JUMP JUMPDEST DUP5 PUSH3 0x1987 JUMP JUMPDEST PUSH1 0x20 DUP1 PUSH1 0x1F DUP4 GT PUSH1 0x1 DUP2 EQ PUSH3 0x1A49 JUMPI PUSH1 0x0 DUP5 ISZERO PUSH3 0x1A30 JUMPI POP DUP6 DUP4 ADD MLOAD JUMPDEST PUSH1 0x0 NOT PUSH1 0x3 DUP7 SWAP1 SHL SHR NOT AND PUSH1 0x1 DUP6 SWAP1 SHL OR DUP6 SSTORE PUSH3 0x19D3 JUMP JUMPDEST PUSH1 0x0 DUP6 DUP2 MSTORE PUSH1 0x20 DUP2 KECCAK256 PUSH1 0x1F NOT DUP7 AND SWAP2 JUMPDEST DUP3 DUP2 LT ISZERO PUSH3 0x1A7A JUMPI DUP9 DUP7 ADD MLOAD DUP3 SSTORE SWAP5 DUP5 ADD SWAP5 PUSH1 0x1 SWAP1 SWAP2 ADD SWAP1 DUP5 ADD PUSH3 0x1A59 JUMP JUMPDEST POP DUP6 DUP3 LT ISZERO PUSH3 0x1A99 JUMPI DUP8 DUP6 ADD MLOAD PUSH1 0x0 NOT PUSH1 0x3 DUP9 SWAP1 SHL PUSH1 0xF8 AND SHR NOT AND DUP2 SSTORE JUMPDEST POP POP POP POP POP PUSH1 0x1 SWAP1 DUP2 SHL ADD SWAP1 SSTORE POP JUMP JUMPDEST DUP2 DUP4 MSTORE DUP2 DUP2 PUSH1 0x20 DUP6 ADD CALLDATACOPY POP PUSH1 0x0 DUP3 DUP3 ADD PUSH1 0x20 SWAP1 DUP2 ADD SWAP2 SWAP1 SWAP2 MSTORE PUSH1 0x1F SWAP1 SWAP2 ADD PUSH1 0x1F NOT AND SWAP1 SWAP2 ADD ADD SWAP1 JUMP JUMPDEST PUSH1 0x1 PUSH1 0x1 PUSH1 0xA0 SHL SUB DUP7 AND DUP2 MSTORE PUSH1 0x60 PUSH1 0x20 DUP3 ADD DUP2 SWAP1 MSTORE PUSH1 0x0 SWAP1 PUSH3 0x1AF9 SWAP1 DUP4 ADD DUP7 DUP9 PUSH3 0x1AA9 JUMP JUMPDEST DUP3 DUP2 SUB PUSH1 0x40 DUP5 ADD MSTORE PUSH3 0x1B0E DUP2 DUP6 DUP8 PUSH3 0x1AA9 JUMP JUMPDEST SWAP9 SWAP8 POP POP POP POP POP POP POP POP JUMP INVALID PUSH2 0x260 PUSH1 0x40 MSTORE CALLVALUE DUP1 ISZERO PUSH3 0x12 JUMPI PUSH1 0x0 DUP1 REVERT JUMPDEST POP PUSH1 0x40 MLOAD PUSH3 0x328C CODESIZE SUB DUP1 PUSH3 0x328C DUP4 CODECOPY DUP2 ADD PUSH1 0x40 DUP2 SWAP1 MSTORE PUSH3 0x35 SWAP2 PUSH3 0x6B8 JUMP JUMPDEST PUSH2 0x1C0 DUP2 ADD MLOAD PUSH1 0x1 PUSH1 0x0 SSTORE PUSH1 0x1 PUSH1 0x1 PUSH1 0xA0 SHL SUB DUP2 AND PUSH3 0x70 JUMPI PUSH1 0x40 MLOAD PUSH4 0x1E4FBDF7 PUSH1 0xE0 SHL DUP2 MSTORE PUSH1 0x0 PUSH1 0x4 DUP3 ADD MSTORE PUSH1 0x24 ADD JUMPDEST PUSH1 0x40 MLOAD DUP1 SWAP2 SUB SWAP1 REVERT JUMPDEST PUSH3 0x7B DUP2 PUSH3 0x542 JUMP JUMPDEST POP PUSH1 0x0 DUP2 PUSH1 0x60 ADD MLOAD GT PUSH3 0xC3 JUMPI PUSH1 0x40 MLOAD PUSH3 0x461BCD PUSH1 0xE5 SHL DUP2 MSTORE PUSH1 0x20 PUSH1 0x4 DUP3 ADD MSTORE PUSH1 0xE PUSH1 0x24 DUP3 ADD MSTORE PUSH14 0x696E76616C696420737570706C79 PUSH1 0x90 SHL PUSH1 0x44 DUP3 ADD MSTORE PUSH1 0x64 ADD PUSH3 0x67 JUMP JUMPDEST PUSH1 0x0 DUP2 PUSH1 0x80 ADD MLOAD GT DUP1 ISZERO PUSH3 0xDD JUMPI POP PUSH2 0x2710 DUP2 PUSH1 0x80 ADD MLOAD LT JUMPDEST PUSH3 0x117 JUMPI PUSH1 0x40 MLOAD PUSH3 0x461BCD PUSH1 0xE5 SHL DUP2 MSTORE PUSH1 0x20 PUSH1 0x4 DUP3 ADD MSTORE PUSH1 0x9 PUSH1 0x24 DUP3 ADD MSTORE PUSH9 0x637572766520627073 PUSH1 0xB8 SHL PUSH1 0x44 DUP3 ADD MSTORE PUSH1 0x64 ADD PUSH3 0x67 JUMP JUMPDEST PUSH2 0x2710 DUP2 PUSH1 0xA0 ADD MLOAD DUP3 PUSH1 0x80 ADD MLOAD PUSH3 0x130 SWAP2 SWAP1 PUSH3 0x854 JUMP JUMPDEST GT ISZERO PUSH3 0x173 JUMPI PUSH1 0x40 MLOAD PUSH3 0x461BCD PUSH1 0xE5 SHL DUP2 MSTORE PUSH1 0x20 PUSH1 0x4 DUP3 ADD MSTORE PUSH1 0x10 PUSH1 0x24 DUP3 ADD MSTORE PUSH16 0x706F7274696F6E206F766572666C6F77 PUSH1 0x80 SHL PUSH1 0x44 DUP3 ADD MSTORE PUSH1 0x64 ADD PUSH3 0x67 JUMP JUMPDEST PUSH1 0x0 DUP2 PUSH1 0xC0 ADD MLOAD GT PUSH3 0x1B6 JUMPI PUSH1 0x40 MLOAD PUSH3 0x461BCD PUSH1 0xE5 SHL DUP2 MSTORE PUSH1 0x20 PUSH1 0x4 DUP3 ADD MSTORE PUSH1 0xA PUSH1 0x24 DUP3 ADD MSTORE PUSH10 0x7072696365207A65726F PUSH1 0xB0 SHL PUSH1 0x44 DUP3 ADD MSTORE PUSH1 0x64 ADD PUSH3 0x67 JUMP JUMPDEST PUSH1 0x0 DUP2 PUSH1 0xE0 ADD MLOAD GT PUSH3 0x1F9 JUMPI PUSH1 0x40 MLOAD PUSH3 0x461BCD PUSH1 0xE5 SHL DUP2 MSTORE PUSH1 0x20 PUSH1 0x4 DUP3 ADD MSTORE PUSH1 0xA PUSH1 0x24 DUP3 ADD MSTORE PUSH10 0x736C6F7065207A65726F PUSH1 0xB0 SHL PUSH1 0x44 DUP3 ADD MSTORE PUSH1 0x64 ADD PUSH3 0x67 JUMP JUMPDEST PUSH2 0x160 DUP2 ADD MLOAD PUSH1 0x1 PUSH1 0x1 PUSH1 0xA0 SHL SUB AND PUSH3 0x244 JUMPI PUSH1 0x40 MLOAD PUSH3 0x461BCD PUSH1 0xE5 SHL DUP2 MSTORE PUSH1 0x20 PUSH1 0x4 DUP3 ADD MSTORE PUSH1 0xB PUSH1 0x24 DUP3 ADD MSTORE PUSH11 0x726F75746572207A65726F PUSH1 0xA8 SHL PUSH1 0x44 DUP3 ADD MSTORE PUSH1 0x64 ADD PUSH3 0x67 JUMP JUMPDEST PUSH2 0x1C0 DUP2 ADD MLOAD PUSH1 0x1 PUSH1 0x1 PUSH1 0xA0 SHL SUB AND PUSH3 0x290 JUMPI PUSH1 0x40 MLOAD PUSH3 0x461BCD PUSH1 0xE5 SHL DUP2 MSTORE PUSH1 0x20 PUSH1 0x4 DUP3 ADD MSTORE PUSH1 0xC PUSH1 0x24 DUP3 ADD MSTORE PUSH12 0x63726561746F72207A65726F PUSH1 0xA0 SHL PUSH1 0x44 DUP3 ADD MSTORE PUSH1 0x64 ADD PUSH3 0x67 JUMP JUMPDEST PUSH2 0x2710 DUP2 PUSH2 0x120 ADD MLOAD GT ISZERO PUSH3 0x2D9 JUMPI PUSH1 0x40 MLOAD PUSH3 0x461BCD PUSH1 0xE5 SHL DUP2 MSTORE PUSH1 0x20 PUSH1 0x4 DUP3 ADD MSTORE PUSH1 0xD PUSH1 0x24 DUP3 ADD MSTORE PUSH13 0x6C697175696469747920627073 PUSH1 0x98 SHL PUSH1 0x44 DUP3 ADD MSTORE PUSH1 0x64 ADD PUSH3 0x67 JUMP JUMPDEST PUSH2 0x2710 DUP2 PUSH2 0x140 ADD MLOAD GT ISZERO PUSH3 0x321 JUMPI PUSH1 0x40 MLOAD PUSH3 0x461BCD PUSH1 0xE5 SHL DUP2 MSTORE PUSH1 0x20 PUSH1 0x4 DUP3 ADD MSTORE PUSH1 0xC PUSH1 0x24 DUP3 ADD MSTORE PUSH12 0x70726F746F636F6C20627073 PUSH1 0xA0 SHL PUSH1 0x44 DUP3 ADD MSTORE PUSH1 0x64 ADD PUSH3 0x67 JUMP JUMPDEST PUSH1 0x40 DUP2 ADD MLOAD PUSH1 0x2 SWAP1 PUSH3 0x335 SWAP1 DUP3 PUSH3 0x901 JUMP JUMPDEST POP PUSH1 0xC0 DUP2 ADD MLOAD PUSH2 0x140 SWAP1 DUP2 MSTORE PUSH1 0xE0 DUP1 DUP4 ADD MLOAD PUSH2 0x160 MSTORE PUSH2 0x100 DUP1 DUP5 ADD MLOAD PUSH2 0x180 SWAP1 DUP2 MSTORE PUSH2 0x120 DUP6 ADD MLOAD PUSH2 0x1A0 SWAP1 DUP2 MSTORE SWAP4 DUP6 ADD MLOAD PUSH2 0x1C0 MSTORE PUSH2 0x1E0 DUP6 ADD MLOAD PUSH1 0x1 PUSH1 0x1 PUSH1 0xA0 SHL SUB SWAP1 DUP2 AND SWAP1 SWAP4 MSTORE SWAP3 DUP5 ADD MLOAD DUP3 AND SWAP1 MSTORE SWAP1 DUP3 ADD MLOAD AND ISZERO PUSH3 0x39F JUMPI DUP1 PUSH2 0x180 ADD MLOAD PUSH3 0x3A6 JUMP JUMPDEST DUP1 PUSH2 0x1C0 ADD MLOAD JUMPDEST PUSH1 0x1 PUSH1 0x1 PUSH1 0xA0 SHL SUB SWAP1 DUP2 AND PUSH2 0x120 MSTORE PUSH2 0x160 DUP3 ADD MLOAD AND PUSH1 0xC0 MSTORE PUSH1 0x60 DUP2 ADD DUP1 MLOAD PUSH2 0x1E0 MSTORE PUSH1 0x80 DUP3 ADD MLOAD SWAP1 MLOAD PUSH2 0x2710 SWAP2 PUSH3 0x3DF SWAP2 PUSH3 0x9CD JUMP JUMPDEST PUSH3 0x3EB SWAP2 SWAP1 PUSH3 0x9E7 JUMP JUMPDEST PUSH2 0x200 MSTORE PUSH1 0xA0 DUP2 ADD MLOAD PUSH1 0x60 DUP3 ADD MLOAD PUSH2 0x2710 SWAP2 PUSH3 0x408 SWAP2 PUSH3 0x9CD JUMP JUMPDEST PUSH3 0x414 SWAP2 SWAP1 PUSH3 0x9E7 JUMP JUMPDEST PUSH2 0x220 DUP2 SWAP1 MSTORE PUSH2 0x200 MLOAD PUSH1 0x60 DUP4 ADD MLOAD PUSH3 0x42F SWAP2 SWAP1 PUSH3 0xA0A JUMP JUMPDEST PUSH3 0x43B SWAP2 SWAP1 PUSH3 0xA0A JUMP JUMPDEST PUSH2 0x240 MSTORE PUSH2 0x220 MLOAD PUSH3 0x482 JUMPI PUSH1 0x40 MLOAD PUSH3 0x461BCD PUSH1 0xE5 SHL DUP2 MSTORE PUSH1 0x20 PUSH1 0x4 DUP3 ADD MSTORE PUSH1 0xE PUSH1 0x24 DUP3 ADD MSTORE PUSH14 0x6C6971756964697479207A65726F PUSH1 0x90 SHL PUSH1 0x44 DUP3 ADD MSTORE PUSH1 0x64 ADD PUSH3 0x67 JUMP JUMPDEST DUP1 MLOAD PUSH1 0x20 DUP3 ADD MLOAD PUSH1 0x60 DUP4 ADD MLOAD PUSH1 0x40 MLOAD ADDRESS SWAP1 PUSH3 0x49E SWAP1 PUSH3 0x594 JUMP JUMPDEST PUSH3 0x4AD SWAP5 SWAP4 SWAP3 SWAP2 SWAP1 PUSH3 0xA4E JUMP JUMPDEST PUSH1 0x40 MLOAD DUP1 SWAP2 SUB SWAP1 PUSH1 0x0 CREATE DUP1 ISZERO DUP1 ISZERO PUSH3 0x4CA JUMPI RETURNDATASIZE PUSH1 0x0 DUP1 RETURNDATACOPY RETURNDATASIZE PUSH1 0x0 REVERT JUMPDEST POP PUSH1 0x1 PUSH1 0x1 PUSH1 0xA0 SHL SUB AND PUSH1 0x80 DUP2 SWAP1 MSTORE PUSH1 0xA0 DUP2 SWAP1 MSTORE PUSH1 0x60 DUP3 ADD MLOAD PUSH1 0x40 MLOAD PUSH4 0x40C10F19 PUSH1 0xE0 SHL DUP2 MSTORE ADDRESS PUSH1 0x4 DUP3 ADD MSTORE PUSH1 0x24 DUP2 ADD SWAP2 SWAP1 SWAP2 MSTORE PUSH4 0x40C10F19 SWAP1 PUSH1 0x44 ADD PUSH1 0x0 PUSH1 0x40 MLOAD DUP1 DUP4 SUB DUP2 PUSH1 0x0 DUP8 DUP1 EXTCODESIZE ISZERO DUP1 ISZERO PUSH3 0x522 JUMPI PUSH1 0x0 DUP1 REVERT JUMPDEST POP GAS CALL ISZERO DUP1 ISZERO PUSH3 0x537 JUMPI RETURNDATASIZE PUSH1 0x0 DUP1 RETURNDATACOPY RETURNDATASIZE PUSH1 0x0 REVERT JUMPDEST POP POP POP POP POP PUSH3 0xA99 JUMP JUMPDEST PUSH1 0x1 DUP1 SLOAD PUSH1 0x1 PUSH1 0x1 PUSH1 0xA0 SHL SUB DUP4 DUP2 AND PUSH1 0x1 PUSH1 0x1 PUSH1 0xA0 SHL SUB NOT DUP4 AND DUP2 OR SWAP1 SWAP4 SSTORE PUSH1 0x40 MLOAD SWAP2 AND SWAP2 SWAP1 DUP3 SWAP1 PUSH32 0x8BE0079C531659141344CD1FD0A4F28419497F9722A3DAAFE3B4186F6B6457E0 SWAP1 PUSH1 0x0 SWAP1 LOG3 POP POP JUMP JUMPDEST PUSH2 0xE77 DUP1 PUSH3 0x2415 DUP4 CODECOPY ADD SWAP1 JUMP JUMPDEST PUSH4 0x4E487B71 PUSH1 0xE0 SHL PUSH1 0x0 MSTORE PUSH1 0x41 PUSH1 0x4 MSTORE PUSH1 0x24 PUSH1 0x0 REVERT JUMPDEST PUSH1 0x40 MLOAD PUSH2 0x200 DUP2 ADD PUSH1 0x1 PUSH1 0x1 PUSH1 0x40 SHL SUB DUP2 GT DUP3 DUP3 LT OR ISZERO PUSH3 0x5DE JUMPI PUSH3 0x5DE PUSH3 0x5A2 JUMP JUMPDEST PUSH1 0x40 MSTORE SWAP1 JUMP JUMPDEST PUSH1 0x0 JUMPDEST DUP4 DUP2 LT ISZERO PUSH3 0x601 JUMPI DUP2 DUP2 ADD MLOAD DUP4 DUP3 ADD MSTORE PUSH1 0x20 ADD PUSH3 0x5E7 JUMP JUMPDEST POP POP PUSH1 0x0 SWAP2 ADD MSTORE JUMP JUMPDEST PUSH1 0x0 DUP3 PUSH1 0x1F DUP4 ADD SLT PUSH3 0x61C JUMPI PUSH1 0x0 DUP1 REVERT JUMPDEST DUP2 MLOAD PUSH1 0x1 PUSH1 0x1 PUSH1 0x40 SHL SUB DUP1 DUP3 GT ISZERO PUSH3 0x639 JUMPI PUSH3 0x639 PUSH3 0x5A2 JUMP JUMPDEST PUSH1 0x40 MLOAD PUSH1 0x1F DUP4 ADD PUSH1 0x1F NOT SWAP1 DUP2 AND PUSH1 0x3F ADD AND DUP2 ADD SWAP1 DUP3 DUP3 GT DUP2 DUP4 LT OR ISZERO PUSH3 0x664 JUMPI PUSH3 0x664 PUSH3 0x5A2 JUMP JUMPDEST DUP2 PUSH1 0x40 MSTORE DUP4 DUP2 MSTORE DUP7 PUSH1 0x20 DUP6 DUP9 ADD ADD GT ISZERO PUSH3 0x67E JUMPI PUSH1 0x0 DUP1 REVERT JUMPDEST PUSH3 0x691 DUP5 PUSH1 0x20 DUP4 ADD PUSH1 0x20 DUP10 ADD PUSH3 0x5E4 JUMP JUMPDEST SWAP7 SWAP6 POP POP POP POP POP POP JUMP JUMPDEST DUP1 MLOAD PUSH1 0x1 PUSH1 0x1 PUSH1 0xA0 SHL SUB DUP2 AND DUP2 EQ PUSH3 0x6B3 JUMPI PUSH1 0x0 DUP1 REVERT JUMPDEST SWAP2 SWAP1 POP JUMP JUMPDEST PUSH1 0x0 PUSH1 0x20 DUP3 DUP5 SUB SLT ISZERO PUSH3 0x6CB JUMPI PUSH1 0x0 DUP1 REVERT JUMPDEST DUP2 MLOAD PUSH1 0x1 PUSH1 0x1 PUSH1 0x40 SHL SUB DUP1 DUP3 GT ISZERO PUSH3 0x6E3 JUMPI PUSH1 0x0 DUP1 REVERT JUMPDEST SWAP1 DUP4 ADD SWAP1 PUSH2 0x200 DUP3 DUP7 SUB SLT ISZERO PUSH3 0x6F9 JUMPI PUSH1 0x0 DUP1 REVERT JUMPDEST PUSH3 0x703 PUSH3 0x5B8 JUMP JUMPDEST DUP3 MLOAD DUP3 DUP2 GT ISZERO PUSH3 0x713 JUMPI PUSH1 0x0 DUP1 REVERT JUMPDEST PUSH3 0x721 DUP8 DUP3 DUP7 ADD PUSH3 0x60A JUMP JUMPDEST DUP3 MSTORE POP PUSH1 0x20 DUP4 ADD MLOAD DUP3 DUP2 GT ISZERO PUSH3 0x737 JUMPI PUSH1 0x0 DUP1 REVERT JUMPDEST PUSH3 0x745 DUP8 DUP3 DUP7 ADD PUSH3 0x60A JUMP JUMPDEST PUSH1 0x20 DUP4 ADD MSTORE POP PUSH1 0x40 DUP4 ADD MLOAD DUP3 DUP2 GT ISZERO PUSH3 0x75E JUMPI PUSH1 0x0 DUP1 REVERT JUMPDEST PUSH3 0x76C DUP8 DUP3 DUP7 ADD PUSH3 0x60A JUMP JUMPDEST PUSH1 0x40 DUP4 ADD MSTORE POP PUSH1 0x60 DUP4 DUP2 ADD MLOAD SWAP1 DUP3 ADD MSTORE PUSH1 0x80 DUP1 DUP5 ADD MLOAD SWAP1 DUP3 ADD MSTORE PUSH1 0xA0 DUP1 DUP5 ADD MLOAD SWAP1 DUP3 ADD MSTORE PUSH1 0xC0 DUP1 DUP5 ADD MLOAD SWAP1 DUP3 ADD MSTORE PUSH1 0xE0 DUP1 DUP5 ADD MLOAD SWAP1 DUP3 ADD MSTORE PUSH2 0x100 DUP1 DUP5 ADD MLOAD SWAP1 DUP3 ADD MSTORE PUSH2 0x120 DUP1 DUP5 ADD MLOAD SWAP1 DUP3 ADD MSTORE PUSH2 0x140 DUP1 DUP5 ADD MLOAD SWAP1 DUP3 ADD MSTORE PUSH2 0x160 SWAP2 POP PUSH3 0x7D7 DUP3 DUP5 ADD PUSH3 0x69B JUMP JUMPDEST DUP3 DUP3 ADD MSTORE PUSH2 0x180 SWAP2 POP PUSH3 0x7ED DUP3 DUP5 ADD PUSH3 0x69B JUMP JUMPDEST DUP3 DUP3 ADD MSTORE PUSH2 0x1A0 SWAP2 POP PUSH3 0x803 DUP3 DUP5 ADD PUSH3 0x69B JUMP JUMPDEST DUP3 DUP3 ADD MSTORE PUSH2 0x1C0 SWAP2 POP PUSH3 0x819 DUP3 DUP5 ADD PUSH3 0x69B JUMP JUMPDEST DUP3 DUP3 ADD MSTORE PUSH2 0x1E0 SWAP2 POP PUSH3 0x82F DUP3 DUP5 ADD PUSH3 0x69B JUMP JUMPDEST SWAP2 DUP2 ADD SWAP2 SWAP1 SWAP2 MSTORE SWAP5 SWAP4 POP POP POP POP JUMP JUMPDEST PUSH4 0x4E487B71 PUSH1 0xE0 SHL PUSH1 0x0 MSTORE PUSH1 0x11 PUSH1 0x4 MSTORE PUSH1 0x24 PUSH1 0x0 REVERT JUMPDEST DUP1 DUP3 ADD DUP1 DUP3 GT ISZERO PUSH3 0x86A JUMPI PUSH3 0x86A PUSH3 0x83E JUMP JUMPDEST SWAP3 SWAP2 POP POP JUMP JUMPDEST PUSH1 0x1 DUP2 DUP2 SHR SWAP1 DUP3 AND DUP1 PUSH3 0x885 JUMPI PUSH1 0x7F DUP3 AND SWAP2 POP JUMPDEST PUSH1 0x20 DUP3 LT DUP2 SUB PUSH3 0x8A6 JUMPI PUSH4 0x4E487B71 PUSH1 0xE0 SHL PUSH1 0x0 MSTORE PUSH1 0x22 PUSH1 0x4 MSTORE PUSH1 0x24 PUSH1 0x0 REVERT JUMPDEST POP SWAP2 SWAP1 POP JUMP JUMPDEST PUSH1 0x1F DUP3 GT ISZERO PUSH3 0x8FC JUMPI PUSH1 0x0 DUP2 PUSH1 0x0 MSTORE PUSH1 0x20 PUSH1 0x0 KECCAK256 PUSH1 0x1F DUP6 ADD PUSH1 0x5 SHR DUP2 ADD PUSH1 0x20 DUP7 LT ISZERO PUSH3 0x8D7 JUMPI POP DUP1 JUMPDEST PUSH1 0x1F DUP6 ADD PUSH1 0x5 SHR DUP3 ADD SWAP2 POP JUMPDEST DUP2 DUP2 LT ISZERO PUSH3 0x8F8 JUMPI DUP3 DUP2 SSTORE PUSH1 0x1 ADD PUSH3 0x8E3 JUMP JUMPDEST POP POP POP JUMPDEST POP POP POP JUMP JUMPDEST DUP2 MLOAD PUSH1 0x1 PUSH1 0x1 PUSH1 0x40 SHL SUB DUP2 GT ISZERO PUSH3 0x91D JUMPI PUSH3 0x91D PUSH3 0x5A2 JUMP JUMPDEST PUSH3 0x935 DUP2 PUSH3 0x92E DUP5 SLOAD PUSH3 0x870 JUMP JUMPDEST DUP5 PUSH3 0x8AC JUMP JUMPDEST PUSH1 0x20 DUP1 PUSH1 0x1F DUP4 GT PUSH1 0x1 DUP2 EQ PUSH3 0x96D JUMPI PUSH1 0x0 DUP5 ISZERO PUSH3 0x954 JUMPI POP DUP6 DUP4 ADD MLOAD JUMPDEST PUSH1 0x0 NOT PUSH1 0x3 DUP7 SWAP1 SHL SHR NOT AND PUSH1 0x1 DUP6 SWAP1 SHL OR DUP6 SSTORE PUSH3 0x8F8 JUMP JUMPDEST PUSH1 0x0 DUP6 DUP2 MSTORE PUSH1 0x20 DUP2 KECCAK256 PUSH1 0x1F NOT DUP7 AND SWAP2 JUMPDEST DUP3 DUP2 LT ISZERO PUSH3 0x99E JUMPI DUP9 DUP7 ADD MLOAD DUP3 SSTORE SWAP5 DUP5 ADD SWAP5 PUSH1 0x1 SWAP1 SWAP2 ADD SWAP1 DUP5 ADD PUSH3 0x97D JUMP JUMPDEST POP DUP6 DUP3 LT ISZERO PUSH3 0x9BD JUMPI DUP8 DUP6 ADD MLOAD PUSH1 0x0 NOT PUSH1 0x3 DUP9 SWAP1 SHL PUSH1 0xF8 AND SHR NOT AND DUP2 SSTORE JUMPDEST POP POP POP POP POP PUSH1 0x1 SWAP1 DUP2 SHL ADD SWAP1 SSTORE POP JUMP JUMPDEST DUP1 DUP3 MUL DUP2 ISZERO DUP3 DUP3 DIV DUP5 EQ OR PUSH3 0x86A JUMPI PUSH3 0x86A PUSH3 0x83E JUMP JUMPDEST PUSH1 0x0 DUP3 PUSH3 0xA05 JUMPI PUSH4 0x4E487B71 PUSH1 0xE0 SHL PUSH1 0x0 MSTORE PUSH1 0x12 PUSH1 0x4 MSTORE PUSH1 0x24 PUSH1 0x0 REVERT JUMPDEST POP DIV SWAP1 JUMP JUMPDEST DUP2 DUP2 SUB DUP2 DUP2 GT ISZERO PUSH3 0x86A JUMPI PUSH3 0x86A PUSH3 0x83E JUMP JUMPDEST PUSH1 0x0 DUP2 MLOAD DUP1 DUP5 MSTORE PUSH3 0xA3A DUP2 PUSH1 0x20 DUP7 ADD PUSH1 0x20 DUP7 ADD PUSH3 0x5E4 JUMP JUMPDEST PUSH1 0x1F ADD PUSH1 0x1F NOT AND SWAP3 SWAP1 SWAP3 ADD PUSH1 0x20 ADD SWAP3 SWAP2 POP POP JUMP JUMPDEST PUSH1 0x80 DUP2 MSTORE PUSH1 0x0 PUSH3 0xA63 PUSH1 0x80 DUP4 ADD DUP8 PUSH3 0xA20 JUMP JUMPDEST DUP3 DUP2 SUB PUSH1 0x20 DUP5 ADD MSTORE PUSH3 0xA77 DUP2 DUP8 PUSH3 0xA20 JUMP JUMPDEST PUSH1 0x40 DUP5 ADD SWAP6 SWAP1 SWAP6 MSTORE POP POP PUSH1 0x1 PUSH1 0x1 PUSH1 0xA0 SHL SUB SWAP2 SWAP1 SWAP2 AND PUSH1 0x60 SWAP1 SWAP2 ADD MSTORE SWAP3 SWAP2 POP POP JUMP JUMPDEST PUSH1 0x80 MLOAD PUSH1 0xA0 MLOAD PUSH1 0xC0 MLOAD PUSH1 0xE0 MLOAD PUSH2 0x100 MLOAD PUSH2 0x120 MLOAD PUSH2 0x140 MLOAD PUSH2 0x160 MLOAD PUSH2 0x180 MLOAD PUSH2 0x1A0 MLOAD PUSH2 0x1C0 MLOAD PUSH2 0x1E0 MLOAD PUSH2 0x200 MLOAD PUSH2 0x220 MLOAD PUSH2 0x240 MLOAD PUSH2 0x1813 PUSH3 0xC02 PUSH1 0x0 CODECOPY PUSH1 0x0 DUP2 DUP2 PUSH2 0x3AF ADD MSTORE DUP2 DUP2 PUSH2 0xF91 ADD MSTORE PUSH2 0xFF7 ADD MSTORE PUSH1 0x0 DUP2 DUP2 PUSH2 0x347 ADD MSTORE PUSH2 0xC89 ADD MSTORE PUSH1 0x0 DUP2 DUP2 PUSH2 0x289 ADD MSTORE DUP2 DUP2 PUSH2 0xAE7 ADD MSTORE DUP2 DUP2 PUSH2 0xBB5 ADD MSTORE PUSH2 0xEDD ADD MSTORE PUSH1 0x0 PUSH2 0x209 ADD MSTORE PUSH1 0x0 DUP2 DUP2 PUSH2 0x2BD ADD MSTORE PUSH2 0x1026 ADD MSTORE PUSH1 0x0 DUP2 DUP2 PUSH2 0x58F ADD MSTORE PUSH2 0xC56 ADD MSTORE PUSH1 0x0 DUP2 DUP2 PUSH2 0x49E ADD MSTORE PUSH2 0xBE0 ADD MSTORE PUSH1 0x0 DUP2 DUP2 PUSH2 0x3E3 ADD MSTORE DUP2 DUP2 PUSH2 0xA47 ADD MSTORE PUSH2 0x11CC ADD MSTORE PUSH1 0x0 DUP2 DUP2 PUSH2 0x55B ADD MSTORE DUP2 DUP2 PUSH2 0xA7D ADD MSTORE PUSH2 0x1193 ADD MSTORE PUSH1 0x0 DUP2 DUP2 PUSH2 0x23D ADD MSTORE PUSH2 0xD66 ADD MSTORE PUSH1 0x0 DUP2 DUP2 PUSH2 0x37B ADD MSTORE DUP2 DUP2 PUSH2 0x1064 ADD MSTORE PUSH2 0x1099 ADD MSTORE PUSH1 0x0 PUSH2 0x527 ADD MSTORE PUSH1 0x0 DUP2 DUP2 PUSH2 0x5E3 ADD MSTORE DUP2 DUP2 PUSH2 0xCEB ADD MSTORE DUP2 DUP2 PUSH2 0xD1A ADD MSTORE PUSH2 0xE58 ADD MSTORE PUSH1 0x0 DUP2 DUP2 PUSH2 0x839 ADD MSTORE DUP2 DUP2 PUSH2 0x9B2 ADD MSTORE DUP2 DUP2 PUSH2 0xCC9 ADD MSTORE DUP2 DUP2 PUSH2 0xE36 ADD MSTORE DUP2 DUP2 PUSH2 0xEAF ADD MSTORE PUSH2 0xFD4 ADD MSTORE PUSH1 0x0 DUP2 DUP2 PUSH2 0x617 ADD MSTORE DUP2 DUP2 PUSH2 0xD42 ADD MSTORE PUSH2 0xF2A ADD MSTORE PUSH2 0x1813 PUSH1 0x0 RETURN INVALID PUSH1 0x80 PUSH1 0x40 MSTORE PUSH1 0x4 CALLDATASIZE LT PUSH2 0x1A0 JUMPI PUSH1 0x0 CALLDATALOAD PUSH1 0xE0 SHR DUP1 PUSH4 0x65161831 GT PUSH2 0xEC JUMPI DUP1 PUSH4 0xB6013CEF GT PUSH2 0x8A JUMPI DUP1 PUSH4 0xC9F62AF2 GT PUSH2 0x64 JUMPI DUP1 PUSH4 0xC9F62AF2 EQ PUSH2 0x57D JUMPI DUP1 PUSH4 0xF2FDE38B EQ PUSH2 0x5B1 JUMPI DUP1 PUSH4 0xF887EA40 EQ PUSH2 0x5D1 JUMPI DUP1 PUSH4 0xFC0C546A EQ PUSH2 0x605 JUMPI PUSH1 0x0 DUP1 REVERT JUMPDEST DUP1 PUSH4 0xB6013CEF EQ PUSH2 0x4E0 JUMPI DUP1 PUSH4 0xC45A0155 EQ PUSH2 0x515 JUMPI DUP1 PUSH4 0xC7876EA4 EQ PUSH2 0x549 JUMPI PUSH1 0x0 DUP1 REVERT JUMPDEST DUP1 PUSH4 0x8DA5CB5B GT PUSH2 0xC6 JUMPI DUP1 PUSH4 0x8DA5CB5B EQ PUSH2 0x459 JUMPI DUP1 PUSH4 0x9D1B464A EQ PUSH2 0x477 JUMPI DUP1 PUSH4 0xA4B20F13 EQ PUSH2 0x48C JUMPI DUP1 PUSH4 0xAF769545 EQ PUSH2 0x4C0 JUMPI PUSH1 0x0 DUP1 REVERT JUMPDEST DUP1 PUSH4 0x65161831 EQ PUSH2 0x405 JUMPI DUP1 PUSH4 0x715018A6 EQ PUSH2 0x418 JUMPI DUP1 PUSH4 0x8091F3BF EQ PUSH2 0x42F JUMPI PUSH1 0x0 DUP1 REVERT JUMPDEST DUP1 PUSH4 0x365D57A4 GT PUSH2 0x159 JUMPI DUP1 PUSH4 0x381562C2 GT PUSH2 0x133 JUMPI DUP1 PUSH4 0x381562C2 EQ PUSH2 0x335 JUMPI DUP1 PUSH4 0x46904840 EQ PUSH2 0x369 JUMPI DUP1 PUSH4 0x54354629 EQ PUSH2 0x39D JUMPI DUP1 PUSH4 0x54E42F7E EQ PUSH2 0x3D1 JUMPI PUSH1 0x0 DUP1 REVERT JUMPDEST DUP1 PUSH4 0x365D57A4 EQ PUSH2 0x2DF JUMPI DUP1 PUSH4 0x366AD250 EQ PUSH2 0x2F5 JUMPI DUP1 PUSH4 0x3794F6BE EQ PUSH2 0x315 JUMPI PUSH1 0x0 DUP1 REVERT JUMPDEST DUP1 PUSH4 0x2C7E7AF EQ PUSH2 0x1AC JUMPI DUP1 PUSH4 0x3EE438C EQ PUSH2 0x1D5 JUMPI DUP1 PUSH4 0x18160DDD EQ PUSH2 0x1F7 JUMPI DUP1 PUSH4 0x1F0C57FC EQ PUSH2 0x22B JUMPI DUP1 PUSH4 0x2138A4C0 EQ PUSH2 0x277 JUMPI DUP1 PUSH4 0x35659FB8 EQ PUSH2 0x2AB JUMPI PUSH1 0x0 DUP1 REVERT JUMPDEST CALLDATASIZE PUSH2 0x1A7 JUMPI STOP JUMPDEST PUSH1 0x0 DUP1 REVERT JUMPDEST CALLVALUE DUP1 ISZERO PUSH2 0x1B8 JUMPI PUSH1 0x0 DUP1 REVERT JUMPDEST POP PUSH2 0x1C2 PUSH1 0x3 SLOAD DUP2 JUMP JUMPDEST PUSH1 0x40 MLOAD SWAP1 DUP2 MSTORE PUSH1 0x20 ADD JUMPDEST PUSH1 0x40 MLOAD DUP1 SWAP2 SUB SWAP1 RETURN JUMPDEST CALLVALUE DUP1 ISZERO PUSH2 0x1E1 JUMPI PUSH1 0x0 DUP1 REVERT JUMPDEST POP PUSH2 0x1EA PUSH2 0x639 JUMP JUMPDEST PUSH1 0x40 MLOAD PUSH2 0x1CC SWAP2 SWAP1 PUSH2 0x1637 JUMP JUMPDEST CALLVALUE DUP1 ISZERO PUSH2 0x203 JUMPI PUSH1 0x0 DUP1 REVERT JUMPDEST POP PUSH2 0x1C2 PUSH32 0x0 DUP2 JUMP JUMPDEST CALLVALUE DUP1 ISZERO PUSH2 0x237 JUMPI PUSH1 0x0 DUP1 REVERT JUMPDEST POP PUSH2 0x25F PUSH32 0x0 DUP2 JUMP JUMPDEST PUSH1 0x40 MLOAD PUSH1 0x1 PUSH1 0x1 PUSH1 0xA0 SHL SUB SWAP1 SWAP2 AND DUP2 MSTORE PUSH1 0x20 ADD PUSH2 0x1CC JUMP JUMPDEST CALLVALUE DUP1 ISZERO PUSH2 0x283 JUMPI PUSH1 0x0 DUP1 REVERT JUMPDEST POP PUSH2 0x1C2 PUSH32 0x0 DUP2 JUMP JUMPDEST CALLVALUE DUP1 ISZERO PUSH2 0x2B7 JUMPI PUSH1 0x0 DUP1 REVERT JUMPDEST POP PUSH2 0x1C2 PUSH32 0x0 DUP2 JUMP JUMPDEST CALLVALUE DUP1 ISZERO PUSH2 0x2EB JUMPI PUSH1 0x0 DUP1 REVERT JUMPDEST POP PUSH2 0x1C2 PUSH1 0x5 SLOAD DUP2 JUMP JUMPDEST CALLVALUE DUP1 ISZERO PUSH2 0x301 JUMPI PUSH1 0x0 DUP1 REVERT JUMPDEST POP PUSH2 0x1C2 PUSH2 0x310 CALLDATASIZE PUSH1 0x4 PUSH2 0x1686 JUMP JUMPDEST PUSH2 0x6C7 JUMP JUMPDEST CALLVALUE DUP1 ISZERO PUSH2 0x321 JUMPI PUSH1 0x0 DUP1 REVERT JUMPDEST POP PUSH2 0x1C2 PUSH2 0x330 CALLDATASIZE PUSH1 0x4 PUSH2 0x169F JUMP JUMPDEST PUSH2 0x77D JUMP JUMPDEST CALLVALUE DUP1 ISZERO PUSH2 0x341 JUMPI PUSH1 0x0 DUP1 REVERT JUMPDEST POP PUSH2 0x1C2 PUSH32 0x0 DUP2 JUMP JUMPDEST CALLVALUE DUP1 ISZERO PUSH2 0x375 JUMPI PUSH1 0x0 DUP1 REVERT JUMPDEST POP PUSH2 0x25F PUSH32 0x0 DUP2 JUMP JUMPDEST CALLVALUE DUP1 ISZERO PUSH2 0x3A9 JUMPI PUSH1 0x0 DUP1 REVERT JUMPDEST POP PUSH2 0x1C2 PUSH32 0x0 DUP2 JUMP JUMPDEST CALLVALUE DUP1 ISZERO PUSH2 0x3DD JUMPI PUSH1 0x0 DUP1 REVERT JUMPDEST POP PUSH2 0x1C2 PUSH32 0x0 DUP2 JUMP JUMPDEST PUSH2 0x1C2 PUSH2 0x413 CALLDATASIZE PUSH1 0x4 PUSH2 0x169F JUMP JUMPDEST PUSH2 0x8B1 JUMP JUMPDEST CALLVALUE DUP1 ISZERO PUSH2 0x424 JUMPI PUSH1 0x0 DUP1 REVERT JUMPDEST POP PUSH2 0x42D PUSH2 0xA2C JUMP JUMPDEST STOP JUMPDEST CALLVALUE DUP1 ISZERO PUSH2 0x43B JUMPI PUSH1 0x0 DUP1 REVERT JUMPDEST POP PUSH1 0x4 SLOAD PUSH2 0x449 SWAP1 PUSH1 0xFF AND DUP2 JUMP JUMPDEST PUSH1 0x40 MLOAD SWAP1 ISZERO ISZERO DUP2 MSTORE PUSH1 0x20 ADD PUSH2 0x1CC JUMP JUMPDEST CALLVALUE DUP1 ISZERO PUSH2 0x465 JUMPI PUSH1 0x0 DUP1 REVERT JUMPDEST POP PUSH1 0x1 SLOAD PUSH1 0x1 PUSH1 0x1 PUSH1 0xA0 SHL SUB AND PUSH2 0x25F JUMP JUMPDEST CALLVALUE DUP1 ISZERO PUSH2 0x483 JUMPI PUSH1 0x0 DUP1 REVERT JUMPDEST POP PUSH2 0x1C2 PUSH2 0xA40 JUMP JUMPDEST CALLVALUE DUP1 ISZERO PUSH2 0x498 JUMPI PUSH1 0x0 DUP1 REVERT JUMPDEST POP PUSH2 0x1C2 PUSH32 0x0 DUP2 JUMP JUMPDEST CALLVALUE DUP1 ISZERO PUSH2 0x4CC JUMPI PUSH1 0x0 DUP1 REVERT JUMPDEST POP PUSH2 0x1C2 PUSH2 0x4DB CALLDATASIZE PUSH1 0x4 PUSH2 0x1686 JUMP JUMPDEST PUSH2 0xAA6 JUMP JUMPDEST CALLVALUE DUP1 ISZERO PUSH2 0x4EC JUMPI PUSH1 0x0 DUP1 REVERT JUMPDEST POP PUSH2 0x500 PUSH2 0x4FB CALLDATASIZE PUSH1 0x4 PUSH2 0x169F JUMP JUMPDEST PUSH2 0xB69 JUMP JUMPDEST PUSH1 0x40 DUP1 MLOAD SWAP3 DUP4 MSTORE PUSH1 0x20 DUP4 ADD SWAP2 SWAP1 SWAP2 MSTORE ADD PUSH2 0x1CC JUMP JUMPDEST CALLVALUE DUP1 ISZERO PUSH2 0x521 JUMPI PUSH1 0x0 DUP1 REVERT JUMPDEST POP PUSH2 0x25F PUSH32 0x0 DUP2 JUMP JUMPDEST CALLVALUE DUP1 ISZERO PUSH2 0x555 JUMPI PUSH1 0x0 DUP1 REVERT JUMPDEST POP PUSH2 0x1C2 PUSH32 0x0 DUP2 JUMP JUMPDEST CALLVALUE DUP1 ISZERO PUSH2 0x589 JUMPI PUSH1 0x0 DUP1 REVERT JUMPDEST POP PUSH2 0x1C2 PUSH32 0x0 DUP2 JUMP JUMPDEST CALLVALUE DUP1 ISZERO PUSH2 0x5BD JUMPI PUSH1 0x0 DUP1 REVERT JUMPDEST POP PUSH2 0x42D PUSH2 0x5CC CALLDATASIZE PUSH1 0x4 PUSH2 0x16C1 JUMP JUMPDEST PUSH2 0x114C JUMP JUMPDEST CALLVALUE DUP1 ISZERO PUSH2 0x5DD JUMPI PUSH1 0x0 DUP1 REVERT JUMPDEST POP PUSH2 0x25F PUSH32 0x0 DUP2 JUMP JUMPDEST CALLVALUE DUP1 ISZERO PUSH2 0x611 JUMPI PUSH1 0x0 DUP1 REVERT JUMPDEST POP PUSH2 0x25F PUSH32 0x0 DUP2 JUMP JUMPDEST PUSH1 0x2 DUP1 SLOAD PUSH2 0x646 SWAP1 PUSH2 0x16EA JUMP JUMPDEST DUP1 PUSH1 0x1F ADD PUSH1 0x20 DUP1 SWAP2 DIV MUL PUSH1 0x20 ADD PUSH1 0x40 MLOAD SWAP1 DUP2 ADD PUSH1 0x40 MSTORE DUP1 SWAP3 SWAP2 SWAP1 DUP2 DUP2 MSTORE PUSH1 0x20 ADD DUP3 DUP1 SLOAD PUSH2 0x672 SWAP1 PUSH2 0x16EA JUMP JUMPDEST DUP1 ISZERO PUSH2 0x6BF JUMPI DUP1 PUSH1 0x1F LT PUSH2 0x694 JUMPI PUSH2 0x100 DUP1 DUP4 SLOAD DIV MUL DUP4 MSTORE SWAP2 PUSH1 0x20 ADD SWAP2 PUSH2 0x6BF JUMP JUMPDEST DUP3 ADD SWAP2 SWAP1 PUSH1 0x0 MSTORE PUSH1 0x20 PUSH1 0x0 KECCAK256 SWAP1 JUMPDEST DUP2 SLOAD DUP2 MSTORE SWAP1 PUSH1 0x1 ADD SWAP1 PUSH1 0x20 ADD DUP1 DUP4 GT PUSH2 0x6A2 JUMPI DUP3 SWAP1 SUB PUSH1 0x1F AND DUP3 ADD SWAP2 JUMPDEST POP POP POP POP POP DUP2 JUMP JUMPDEST PUSH1 0x0 DUP1 DUP3 GT PUSH2 0x70B JUMPI PUSH1 0x40 MLOAD PUSH3 0x461BCD PUSH1 0xE5 SHL DUP2 MSTORE PUSH1 0x20 PUSH1 0x4 DUP3 ADD MSTORE PUSH1 0xB PUSH1 0x24 DUP3 ADD MSTORE PUSH11 0x1E995C9BC8185B5BDD5B9D PUSH1 0xAA SHL PUSH1 0x44 DUP3 ADD MSTORE PUSH1 0x64 ADD JUMPDEST PUSH1 0x40 MLOAD DUP1 SWAP2 SUB SWAP1 REVERT JUMPDEST PUSH1 0x3 SLOAD DUP3 GT ISZERO PUSH2 0x74C JUMPI PUSH1 0x40 MLOAD PUSH3 0x461BCD PUSH1 0xE5 SHL DUP2 MSTORE PUSH1 0x20 PUSH1 0x4 DUP3 ADD MSTORE PUSH1 0xC PUSH1 0x24 DUP3 ADD MSTORE PUSH12 0x195E18D959591CC81CDBDB19 PUSH1 0xA2 SHL PUSH1 0x44 DUP3 ADD MSTORE PUSH1 0x64 ADD PUSH2 0x702 JUMP JUMPDEST PUSH2 0x762 DUP3 PUSH1 0x3 SLOAD PUSH2 0x75D SWAP2 SWAP1 PUSH2 0x173A JUMP JUMPDEST PUSH2 0x118A JUMP JUMPDEST PUSH2 0x76D PUSH1 0x3 SLOAD PUSH2 0x118A JUMP JUMPDEST PUSH2 0x777 SWAP2 SWAP1 PUSH2 0x173A JUMP JUMPDEST SWAP3 SWAP2 POP POP JUMP JUMPDEST PUSH1 0x0 PUSH2 0x787 PUSH2 0x1224 JUMP JUMPDEST PUSH1 0x4 SLOAD PUSH1 0xFF AND ISZERO PUSH2 0x7CE JUMPI PUSH1 0x40 MLOAD PUSH3 0x461BCD PUSH1 0xE5 SHL DUP2 MSTORE PUSH1 0x20 PUSH1 0x4 DUP3 ADD MSTORE PUSH1 0x11 PUSH1 0x24 DUP3 ADD MSTORE PUSH17 0x18D85B5C185A59DB881B185D5B98DA1959 PUSH1 0x7A SHL PUSH1 0x44 DUP3 ADD MSTORE PUSH1 0x64 ADD PUSH2 0x702 JUMP JUMPDEST PUSH2 0x7D7 DUP4 PUSH2 0x6C7 JUMP JUMPDEST SWAP1 POP DUP2 DUP2 LT ISZERO PUSH2 0x814 JUMPI PUSH1 0x40 MLOAD PUSH3 0x461BCD PUSH1 0xE5 SHL DUP2 MSTORE PUSH1 0x20 PUSH1 0x4 DUP3 ADD MSTORE PUSH1 0x8 PUSH1 0x24 DUP3 ADD MSTORE PUSH8 0x736C697070616765 PUSH1 0xC0 SHL PUSH1 0x44 DUP3 ADD MSTORE PUSH1 0x64 ADD PUSH2 0x702 JUMP JUMPDEST DUP3 PUSH1 0x3 PUSH1 0x0 DUP3 DUP3 SLOAD PUSH2 0x826 SWAP2 SWAP1 PUSH2 0x173A JUMP JUMPDEST SWAP1 SWAP2 SSTORE POP PUSH2 0x861 SWAP1 POP PUSH1 0x1 PUSH1 0x1 PUSH1 0xA0 SHL SUB PUSH32 0x0 AND CALLER ADDRESS DUP7 PUSH2 0x124E JUMP JUMPDEST PUSH2 0x86B CALLER DUP3 PUSH2 0x12BB JUMP JUMPDEST PUSH1 0x40 DUP1 MLOAD DUP5 DUP2 MSTORE PUSH1 0x20 DUP2 ADD DUP4 SWAP1 MSTORE CALLER SWAP2 PUSH32 0x2DCF9433D75DB0D8B1C172641F85E319FFE4AD22E108A95D1847CEB906E5195D SWAP2 ADD JUMPDEST PUSH1 0x40 MLOAD DUP1 SWAP2 SUB SWAP1 LOG2 PUSH2 0x777 PUSH1 0x1 PUSH1 0x0 SSTORE JUMP JUMPDEST PUSH1 0x0 PUSH2 0x8BB PUSH2 0x1224 JUMP JUMPDEST PUSH1 0x4 SLOAD PUSH1 0xFF AND ISZERO PUSH2 0x902 JUMPI PUSH1 0x40 MLOAD PUSH3 0x461BCD PUSH1 0xE5 SHL DUP2 MSTORE PUSH1 0x20 PUSH1 0x4 DUP3 ADD MSTORE PUSH1 0x11 PUSH1 0x24 DUP3 ADD MSTORE PUSH17 0x18D85B5C185A59DB881B185D5B98DA1959 PUSH1 0x7A SHL PUSH1 0x44 DUP3 ADD MSTORE PUSH1 0x64 ADD PUSH2 0x702 JUMP JUMPDEST PUSH2 0x90B DUP4 PUSH2 0xAA6 JUMP JUMPDEST SWAP1 POP DUP2 DUP2 GT ISZERO PUSH2 0x948 JUMPI PUSH1 0x40 MLOAD PUSH3 0x461BCD PUSH1 0xE5 SHL DUP2 MSTORE PUSH1 0x20 PUSH1 0x4 DUP3 ADD MSTORE PUSH1 0x8 PUSH1 0x24 DUP3 ADD MSTORE PUSH8 0x736C697070616765 PUSH1 0xC0 SHL PUSH1 0x44 DUP3 ADD MSTORE PUSH1 0x64 ADD PUSH2 0x702 JUMP JUMPDEST DUP1 CALLVALUE LT ISZERO PUSH2 0x98D JUMPI PUSH1 0x40 MLOAD PUSH3 0x461BCD PUSH1 0xE5 SHL DUP2 MSTORE PUSH1 0x20 PUSH1 0x4 DUP3 ADD MSTORE PUSH1 0x12 PUSH1 0x24 DUP3 ADD MSTORE PUSH18 0x696E73756666696369656E742076616C7565 PUSH1 0x70 SHL PUSH1 0x44 DUP3 ADD MSTORE PUSH1 0x64 ADD PUSH2 0x702 JUMP JUMPDEST DUP3 PUSH1 0x3 PUSH1 0x0 DUP3 DUP3 SLOAD PUSH2 0x99F SWAP2 SWAP1 PUSH2 0x174D JUMP JUMPDEST SWAP1 SWAP2 SSTORE POP PUSH2 0x9D9 SWAP1 POP PUSH1 0x1 PUSH1 0x1 PUSH1 0xA0 SHL SUB PUSH32 0x0 AND CALLER DUP6 PUSH2 0x1355 JUMP JUMPDEST DUP1 CALLVALUE GT ISZERO PUSH2 0x9F4 JUMPI PUSH2 0x9F4 CALLER PUSH2 0x9EF DUP4 CALLVALUE PUSH2 0x173A JUMP JUMPDEST PUSH2 0x12BB JUMP JUMPDEST PUSH1 0x40 DUP1 MLOAD DUP5 DUP2 MSTORE PUSH1 0x20 DUP2 ADD DUP4 SWAP1 MSTORE CALLER SWAP2 PUSH32 0x8FAFEBCAF9D154343DAD25669BFA277F4FBACD7AC6B0C4FED522580E040A0F33 SWAP2 ADD PUSH2 0x89F JUMP JUMPDEST PUSH2 0xA34 PUSH2 0x1386 JUMP JUMPDEST PUSH2 0xA3E PUSH1 0x0 PUSH2 0x13B3 JUMP JUMPDEST JUMP JUMPDEST PUSH1 0x0 PUSH2 0xA77 PUSH32 0x0 PUSH1 0x3 SLOAD PUSH8 0xDE0B6B3A7640000 PUSH2 0x1405 JUMP JUMPDEST PUSH2 0xAA1 SWAP1 PUSH32 0x0 PUSH2 0x174D JUMP JUMPDEST SWAP1 POP SWAP1 JUMP JUMPDEST PUSH1 0x0 DUP1 DUP3 GT PUSH2 0xAE5 JUMPI PUSH1 0x40 MLOAD PUSH3 0x461BCD PUSH1 0xE5 SHL DUP2 MSTORE PUSH1 0x20 PUSH1 0x4 DUP3 ADD MSTORE PUSH1 0xB PUSH1 0x24 DUP3 ADD MSTORE PUSH11 0x1E995C9BC8185B5BDD5B9D PUSH1 0xAA SHL PUSH1 0x44 DUP3 ADD MSTORE PUSH1 0x64 ADD PUSH2 0x702 JUMP JUMPDEST PUSH32 0x0 DUP3 PUSH1 0x3 SLOAD PUSH2 0xB14 SWAP2 SWAP1 PUSH2 0x174D JUMP JUMPDEST GT ISZERO PUSH2 0xB4D JUMPI PUSH1 0x40 MLOAD PUSH3 0x461BCD PUSH1 0xE5 SHL DUP2 MSTORE PUSH1 0x20 PUSH1 0x4 DUP3 ADD MSTORE PUSH1 0x8 PUSH1 0x24 DUP3 ADD MSTORE PUSH8 0x1CDBDB19081BDD5D PUSH1 0xC2 SHL PUSH1 0x44 DUP3 ADD MSTORE PUSH1 0x64 ADD PUSH2 0x702 JUMP JUMPDEST PUSH2 0xB58 PUSH1 0x3 SLOAD PUSH2 0x118A JUMP JUMPDEST PUSH2 0x76D DUP4 PUSH1 0x3 SLOAD PUSH2 0x75D SWAP2 SWAP1 PUSH2 0x174D JUMP JUMPDEST PUSH1 0x0 DUP1 PUSH2 0xB74 PUSH2 0x1224 JUMP JUMPDEST PUSH1 0x4 SLOAD PUSH1 0xFF AND ISZERO PUSH2 0xBB3 JUMPI PUSH1 0x40 MLOAD PUSH3 0x461BCD PUSH1 0xE5 SHL DUP2 MSTORE PUSH1 0x20 PUSH1 0x4 DUP3 ADD MSTORE PUSH1 0x9 PUSH1 0x24 DUP3 ADD MSTORE PUSH9 0x199A5B985B1A5E9959 PUSH1 0xBA SHL PUSH1 0x44 DUP3 ADD MSTORE PUSH1 0x64 ADD PUSH2 0x702 JUMP JUMPDEST PUSH32 0x0 PUSH1 0x3 SLOAD EQ DUP1 PUSH2 0xC03 JUMPI POP PUSH32 0x0 SELFBALANCE LT ISZERO JUMPDEST PUSH2 0xC3B JUMPI PUSH1 0x40 MLOAD PUSH3 0x461BCD PUSH1 0xE5 SHL DUP2 MSTORE PUSH1 0x20 PUSH1 0x4 DUP3 ADD MSTORE PUSH1 0x9 PUSH1 0x24 DUP3 ADD MSTORE PUSH9 0x1D1A1C995CDA1BDB19 PUSH1 0xBA SHL PUSH1 0x44 DUP3 ADD MSTORE PUSH1 0x64 ADD PUSH2 0x702 JUMP JUMPDEST PUSH1 0x4 DUP1 SLOAD PUSH1 0xFF NOT AND PUSH1 0x1 OR SWAP1 SSTORE TIMESTAMP PUSH1 0x5 SSTORE PUSH1 0x0 PUSH2 0x2710 PUSH2 0xC7B PUSH32 0x0 SELFBALANCE PUSH2 0x1760 JUMP JUMPDEST PUSH2 0xC85 SWAP2 SWAP1 PUSH2 0x178D JUMP JUMPDEST SWAP1 POP PUSH32 0x0 DUP1 ISZERO DUP1 ISZERO SWAP1 PUSH2 0xCB7 JUMPI POP PUSH1 0x0 DUP3 GT JUMPDEST ISZERO PUSH2 0xED6 JUMPI PUSH2 0xD10 PUSH1 0x1 PUSH1 0x1 PUSH1 0xA0 SHL SUB PUSH32 0x0 AND PUSH32 0x0 DUP4 PUSH2 0x14BB JUMP JUMPDEST PUSH1 0x1 PUSH1 0x1 PUSH1 0xA0 SHL SUB PUSH32 0x0 AND PUSH4 0xF305D719 DUP4 PUSH32 0x0 DUP5 DUP11 DUP11 PUSH32 0x0 PUSH2 0xD91 TIMESTAMP PUSH2 0x708 PUSH2 0x174D JUMP JUMPDEST PUSH1 0x40 MLOAD PUSH1 0xE0 DUP10 SWAP1 SHL PUSH1 0x1 PUSH1 0x1 PUSH1 0xE0 SHL SUB NOT AND DUP2 MSTORE PUSH1 0x1 PUSH1 0x1 PUSH1 0xA0 SHL SUB SWAP7 DUP8 AND PUSH1 0x4 DUP3 ADD MSTORE PUSH1 0x24 DUP2 ADD SWAP6 SWAP1 SWAP6 MSTORE PUSH1 0x44 DUP6 ADD SWAP4 SWAP1 SWAP4 MSTORE PUSH1 0x64 DUP5 ADD SWAP2 SWAP1 SWAP2 MSTORE SWAP1 SWAP3 AND PUSH1 0x84 DUP3 ADD MSTORE PUSH1 0xA4 DUP2 ADD SWAP2 SWAP1 SWAP2 MSTORE PUSH1 0xC4 ADD PUSH1 0x60 PUSH1 0x40 MLOAD DUP1 DUP4 SUB DUP2 DUP6 DUP9 GAS CALL ISZERO DUP1 ISZERO PUSH2 0xDFE JUMPI RETURNDATASIZE PUSH1 0x0 DUP1 RETURNDATACOPY RETURNDATASIZE PUSH1 0x0 REVERT JUMPDEST POP POP POP POP POP PUSH1 0x40 MLOAD RETURNDATASIZE PUSH1 0x1F NOT PUSH1 0x1F DUP3 ADD AND DUP3 ADD DUP1 PUSH1 0x40 MSTORE POP DUP2 ADD SWAP1 PUSH2 0xE23 SWAP2 SWAP1 PUSH2 0x17AF JUMP JUMPDEST POP SWAP1 SWAP5 POP SWAP3 POP PUSH2 0xE7E PUSH1 0x1 PUSH1 0x1 PUSH1 0xA0 SHL SUB PUSH32 0x0 AND PUSH32 0x0 PUSH1 0x0 PUSH2 0x14BB JUMP JUMPDEST DUP4 DUP2 GT ISZERO PUSH2 0xED6 JUMPI PUSH2 0xED6 PUSH2 0xE9B PUSH1 0x1 SLOAD PUSH1 0x1 PUSH1 0x1 PUSH1 0xA0 SHL SUB AND SWAP1 JUMP JUMPDEST PUSH2 0xEA5 DUP7 DUP5 PUSH2 0x173A JUMP JUMPDEST PUSH1 0x1 PUSH1 0x1 PUSH1 0xA0 SHL SUB PUSH32 0x0 AND SWAP2 SWAP1 PUSH2 0x1355 JUMP JUMPDEST PUSH1 0x0 PUSH1 0x3 SLOAD PUSH32 0x0 PUSH2 0xF06 SWAP2 SWAP1 PUSH2 0x173A JUMP JUMPDEST SWAP1 POP DUP1 ISZERO PUSH2 0xF8F JUMPI PUSH1 0x40 MLOAD PUSH4 0x2770A7EB PUSH1 0xE2 SHL DUP2 MSTORE ADDRESS PUSH1 0x4 DUP3 ADD MSTORE PUSH1 0x24 DUP2 ADD DUP3 SWAP1 MSTORE PUSH32 0x0 PUSH1 0x1 PUSH1 0x1 PUSH1 0xA0 SHL SUB AND SWAP1 PUSH4 0x9DC29FAC SWAP1 PUSH1 0x44 ADD PUSH1 0x0 PUSH1 0x40 MLOAD DUP1 DUP4 SUB DUP2 PUSH1 0x0 DUP8 DUP1 EXTCODESIZE ISZERO DUP1 ISZERO PUSH2 0xF76 JUMPI PUSH1 0x0 DUP1 REVERT JUMPDEST POP GAS CALL ISZERO DUP1 ISZERO PUSH2 0xF8A JUMPI RETURNDATASIZE PUSH1 0x0 DUP1 RETURNDATACOPY RETURNDATASIZE PUSH1 0x0 REVERT JUMPDEST POP POP POP POP JUMPDEST PUSH32 0x0 ISZERO PUSH2 0x101B JUMPI PUSH2 0x101B PUSH2 0xFCA PUSH1 0x1 SLOAD PUSH1 0x1 PUSH1 0x1 PUSH1 0xA0 SHL SUB AND SWAP1 JUMP JUMPDEST PUSH1 0x1 PUSH1 0x1 PUSH1 0xA0 SHL SUB PUSH32 0x0 AND SWAP1 PUSH32 0x0 PUSH2 0x1355 JUMP JUMPDEST SELFBALANCE PUSH1 0x0 PUSH2 0x2710 PUSH2 0x104B PUSH32 0x0 DUP5 PUSH2 0x1760 JUMP JUMPDEST PUSH2 0x1055 SWAP2 SWAP1 PUSH2 0x178D JUMP JUMPDEST SWAP1 POP PUSH1 0x0 DUP2 GT DUP1 ISZERO PUSH2 0x108F JUMPI POP PUSH32 0x0 PUSH1 0x1 PUSH1 0x1 PUSH1 0xA0 SHL SUB AND ISZERO ISZERO JUMPDEST ISZERO PUSH2 0x10CB JUMPI PUSH2 0x10BE PUSH32 0x0 DUP3 PUSH2 0x12BB JUMP JUMPDEST PUSH2 0x10C8 DUP2 DUP4 PUSH2 0x173A JUMP JUMPDEST SWAP2 POP JUMPDEST DUP2 ISZERO PUSH2 0x10EC JUMPI PUSH2 0x10EC PUSH2 0x10E6 PUSH1 0x1 SLOAD PUSH1 0x1 PUSH1 0x1 PUSH1 0xA0 SHL SUB AND SWAP1 JUMP JUMPDEST DUP4 PUSH2 0x12BB JUMP JUMPDEST PUSH1 0x40 DUP1 MLOAD DUP9 DUP2 MSTORE PUSH1 0x20 DUP2 ADD DUP9 SWAP1 MSTORE SWAP1 DUP2 ADD DUP3 SWAP1 MSTORE PUSH1 0x60 DUP2 ADD DUP4 SWAP1 MSTORE CALLER SWAP1 PUSH32 0xD286A958D004CD376ACC3762FFF407F0DD9BF991995FC81A26FF88081F2B7D1B SWAP1 PUSH1 0x80 ADD PUSH1 0x40 MLOAD DUP1 SWAP2 SUB SWAP1 LOG2 POP POP POP POP POP PUSH2 0x1145 PUSH1 0x1 PUSH1 0x0 SSTORE JUMP JUMPDEST SWAP3 POP SWAP3 SWAP1 POP JUMP JUMPDEST PUSH2 0x1154 PUSH2 0x1386 JUMP JUMPDEST PUSH1 0x1 PUSH1 0x1 PUSH1 0xA0 SHL SUB DUP2 AND PUSH2 0x117E JUMPI PUSH1 0x40 MLOAD PUSH4 0x1E4FBDF7 PUSH1 0xE0 SHL DUP2 MSTORE PUSH1 0x0 PUSH1 0x4 DUP3 ADD MSTORE PUSH1 0x24 ADD PUSH2 0x702 JUMP JUMPDEST PUSH2 0x1187 DUP2 PUSH2 0x13B3 JUMP JUMPDEST POP JUMP JUMPDEST PUSH1 0x0 DUP1 PUSH2 0x11C0 DUP4 PUSH32 0x0 PUSH8 0xDE0B6B3A7640000 PUSH2 0x1405 JUMP JUMPDEST SWAP1 POP DUP3 DUP1 MUL PUSH1 0x0 PUSH2 0x120F PUSH32 0x0 DUP4 PUSH8 0xDE0B6B3A7640000 PUSH2 0x1200 DUP2 PUSH1 0x2 PUSH2 0x1760 JUMP JUMPDEST PUSH2 0x120A SWAP2 SWAP1 PUSH2 0x1760 JUMP JUMPDEST PUSH2 0x1405 JUMP JUMPDEST SWAP1 POP PUSH2 0x121B DUP2 DUP5 PUSH2 0x174D JUMP JUMPDEST SWAP6 SWAP5 POP POP POP POP POP JUMP JUMPDEST PUSH1 0x2 PUSH1 0x0 SLOAD SUB PUSH2 0x1247 JUMPI PUSH1 0x40 MLOAD PUSH4 0x3EE5AEB5 PUSH1 0xE0 SHL DUP2 MSTORE PUSH1 0x4 ADD PUSH1 0x40 MLOAD DUP1 SWAP2 SUB SWAP1 REVERT JUMPDEST PUSH1 0x2 PUSH1 0x0 SSTORE JUMP JUMPDEST PUSH1 0x40 MLOAD PUSH1 0x1 PUSH1 0x1 PUSH1 0xA0 SHL SUB DUP5 DUP2 AND PUSH1 0x24 DUP4 ADD MSTORE DUP4 DUP2 AND PUSH1 0x44 DUP4 ADD MSTORE PUSH1 0x64 DUP3 ADD DUP4 SWAP1 MSTORE PUSH2 0x12B5 SWAP2 DUP7 SWAP2 DUP3 AND SWAP1 PUSH4 0x23B872DD SWAP1 PUSH1 0x84 ADD JUMPDEST PUSH1 0x40 MLOAD PUSH1 0x20 DUP2 DUP4 SUB SUB DUP2 MSTORE SWAP1 PUSH1 0x40 MSTORE SWAP2 POP PUSH1 0xE0 SHL PUSH1 0x20 DUP3 ADD DUP1 MLOAD PUSH1 0x1 PUSH1 0x1 PUSH1 0xE0 SHL SUB DUP4 DUP2 DUP4 AND OR DUP4 MSTORE POP POP POP POP PUSH2 0x1547 JUMP JUMPDEST POP POP POP POP JUMP JUMPDEST PUSH1 0x0 DUP3 PUSH1 0x1 PUSH1 0x1 PUSH1 0xA0 SHL SUB AND DUP3 PUSH1 0x40 MLOAD PUSH1 0x0 PUSH1 0x40 MLOAD DUP1 DUP4 SUB DUP2 DUP6 DUP8 GAS CALL SWAP3 POP POP POP RETURNDATASIZE DUP1 PUSH1 0x0 DUP2 EQ PUSH2 0x1308 JUMPI PUSH1 0x40 MLOAD SWAP2 POP PUSH1 0x1F NOT PUSH1 0x3F RETURNDATASIZE ADD AND DUP3 ADD PUSH1 0x40 MSTORE RETURNDATASIZE DUP3 MSTORE RETURNDATASIZE PUSH1 0x0 PUSH1 0x20 DUP5 ADD RETURNDATACOPY PUSH2 0x130D JUMP JUMPDEST PUSH1 0x60 SWAP2 POP JUMPDEST POP POP SWAP1 POP DUP1 PUSH2 0x1350 JUMPI PUSH1 0x40 MLOAD PUSH3 0x461BCD PUSH1 0xE5 SHL DUP2 MSTORE PUSH1 0x20 PUSH1 0x4 DUP3 ADD MSTORE PUSH1 0xF PUSH1 0x24 DUP3 ADD MSTORE PUSH15 0x1D1C985B9CD9995C8819985A5B1959 PUSH1 0x8A SHL PUSH1 0x44 DUP3 ADD MSTORE PUSH1 0x64 ADD PUSH2 0x702 JUMP JUMPDEST POP POP POP JUMP JUMPDEST PUSH1 0x40 MLOAD PUSH1 0x1 PUSH1 0x1 PUSH1 0xA0 SHL SUB DUP4 DUP2 AND PUSH1 0x24 DUP4 ADD MSTORE PUSH1 0x44 DUP3 ADD DUP4 SWAP1 MSTORE PUSH2 0x1350 SWAP2 DUP6 SWAP2 DUP3 AND SWAP1 PUSH4 0xA9059CBB SWAP1 PUSH1 0x64 ADD PUSH2 0x1283 JUMP JUMPDEST PUSH1 0x1 SLOAD PUSH1 0x1 PUSH1 0x1 PUSH1 0xA0 SHL SUB AND CALLER EQ PUSH2 0xA3E JUMPI PUSH1 0x40 MLOAD PUSH4 0x118CDAA7 PUSH1 0xE0 SHL DUP2 MSTORE CALLER PUSH1 0x4 DUP3 ADD MSTORE PUSH1 0x24 ADD PUSH2 0x702 JUMP JUMPDEST PUSH1 0x1 DUP1 SLOAD PUSH1 0x1 PUSH1 0x1 PUSH1 0xA0 SHL SUB DUP4 DUP2 AND PUSH1 0x1 PUSH1 0x1 PUSH1 0xA0 SHL SUB NOT DUP4 AND DUP2 OR SWAP1 SWAP4 SSTORE PUSH1 0x40 MLOAD SWAP2 AND SWAP2 SWAP1 DUP3 SWAP1 PUSH32 0x8BE0079C531659141344CD1FD0A4F28419497F9722A3DAAFE3B4186F6B6457E0 SWAP1 PUSH1 0x0 SWAP1 LOG3 POP POP JUMP JUMPDEST PUSH1 0x0 DUP1 PUSH1 0x0 PUSH2 0x1414 DUP7 DUP7 PUSH2 0x15B8 JUMP JUMPDEST SWAP2 POP SWAP2 POP DUP2 PUSH1 0x0 SUB PUSH2 0x1439 JUMPI DUP4 DUP2 DUP2 PUSH2 0x142F JUMPI PUSH2 0x142F PUSH2 0x1777 JUMP JUMPDEST DIV SWAP3 POP POP POP PUSH2 0x14B4 JUMP JUMPDEST DUP2 DUP5 GT PUSH2 0x1450 JUMPI PUSH2 0x1450 PUSH1 0x3 DUP6 ISZERO MUL PUSH1 0x11 XOR PUSH2 0x15D6 JUMP JUMPDEST PUSH1 0x0 DUP5 DUP7 DUP9 MULMOD PUSH1 0x0 DUP7 DUP2 SUB DUP8 AND SWAP7 DUP8 SWAP1 DIV SWAP7 PUSH1 0x2 PUSH1 0x3 DUP10 MUL DUP2 XOR DUP1 DUP11 MUL DUP3 SUB MUL DUP1 DUP11 MUL DUP3 SUB MUL DUP1 DUP11 MUL DUP3 SUB MUL DUP1 DUP11 MUL DUP3 SUB MUL DUP1 DUP11 MUL DUP3 SUB MUL DUP1 DUP11 MUL SWAP1 SWAP2 SUB MUL SWAP2 DUP2 SWAP1 SUB DUP2 SWAP1 DIV PUSH1 0x1 ADD DUP6 DUP5 GT SWAP1 SWAP7 SUB SWAP6 SWAP1 SWAP6 MUL SWAP2 SWAP1 SWAP4 SUB SWAP4 SWAP1 SWAP4 DIV SWAP3 SWAP1 SWAP3 OR MUL SWAP2 POP POP JUMPDEST SWAP4 SWAP3 POP POP POP JUMP JUMPDEST PUSH1 0x40 DUP1 MLOAD PUSH1 0x1 PUSH1 0x1 PUSH1 0xA0 SHL SUB DUP5 AND PUSH1 0x24 DUP3 ADD MSTORE PUSH1 0x44 DUP1 DUP3 ADD DUP5 SWAP1 MSTORE DUP3 MLOAD DUP1 DUP4 SUB SWAP1 SWAP2 ADD DUP2 MSTORE PUSH1 0x64 SWAP1 SWAP2 ADD SWAP1 SWAP2 MSTORE PUSH1 0x20 DUP2 ADD DUP1 MLOAD PUSH1 0x1 PUSH1 0x1 PUSH1 0xE0 SHL SUB AND PUSH4 0x95EA7B3 PUSH1 0xE0 SHL OR SWAP1 MSTORE PUSH2 0x150C DUP5 DUP3 PUSH2 0x15E8 JUMP JUMPDEST PUSH2 0x12B5 JUMPI PUSH1 0x40 MLOAD PUSH1 0x1 PUSH1 0x1 PUSH1 0xA0 SHL SUB DUP5 DUP2 AND PUSH1 0x24 DUP4 ADD MSTORE PUSH1 0x0 PUSH1 0x44 DUP4 ADD MSTORE PUSH2 0x1541 SWAP2 DUP7 SWAP2 DUP3 AND SWAP1 PUSH4 0x95EA7B3 SWAP1 PUSH1 0x64 ADD PUSH2 0x1283 JUMP JUMPDEST PUSH2 0x12B5 DUP5 DUP3 JUMPDEST PUSH1 0x0 DUP1 PUSH1 0x20 PUSH1 0x0 DUP5 MLOAD PUSH1 0x20 DUP7 ADD PUSH1 0x0 DUP9 GAS CALL DUP1 PUSH2 0x156A JUMPI PUSH1 0x40 MLOAD RETURNDATASIZE PUSH1 0x0 DUP3 RETURNDATACOPY RETURNDATASIZE DUP2 REVERT JUMPDEST POP POP PUSH1 0x0 MLOAD RETURNDATASIZE SWAP2 POP DUP2 ISZERO PUSH2 0x1582 JUMPI DUP1 PUSH1 0x1 EQ ISZERO PUSH2 0x158F JUMP JUMPDEST PUSH1 0x1 PUSH1 0x1 PUSH1 0xA0 SHL SUB DUP5 AND EXTCODESIZE ISZERO JUMPDEST ISZERO PUSH2 0x12B5 JUMPI PUSH1 0x40 MLOAD PUSH4 0x5274AFE7 PUSH1 0xE0 SHL DUP2 MSTORE PUSH1 0x1 PUSH1 0x1 PUSH1 0xA0 SHL SUB DUP6 AND PUSH1 0x4 DUP3 ADD MSTORE PUSH1 0x24 ADD PUSH2 0x702 JUMP JUMPDEST PUSH1 0x0 DUP1 PUSH1 0x0 NOT DUP4 DUP6 MULMOD SWAP4 SWAP1 SWAP3 MUL DUP1 DUP5 LT SWAP4 DUP2 SWAP1 SUB SWAP4 SWAP1 SWAP4 SUB SWAP4 SWAP2 POP POP JUMP JUMPDEST PUSH4 0x4E487B71 PUSH1 0x0 MSTORE DUP1 PUSH1 0x20 MSTORE PUSH1 0x24 PUSH1 0x1C REVERT JUMPDEST PUSH1 0x0 DUP1 PUSH1 0x0 DUP1 PUSH1 0x20 PUSH1 0x0 DUP7 MLOAD PUSH1 0x20 DUP9 ADD PUSH1 0x0 DUP11 GAS CALL SWAP3 POP RETURNDATASIZE SWAP2 POP PUSH1 0x0 MLOAD SWAP1 POP DUP3 DUP1 ISZERO PUSH2 0x162D JUMPI POP DUP2 ISZERO PUSH2 0x161E JUMPI DUP1 PUSH1 0x1 EQ PUSH2 0x162D JUMP JUMPDEST PUSH1 0x0 DUP7 PUSH1 0x1 PUSH1 0x1 PUSH1 0xA0 SHL SUB AND EXTCODESIZE GT JUMPDEST SWAP7 SWAP6 POP POP POP POP POP POP JUMP JUMPDEST PUSH1 0x0 PUSH1 0x20 DUP1 DUP4 MSTORE DUP4 MLOAD DUP1 PUSH1 0x20 DUP6 ADD MSTORE PUSH1 0x0 JUMPDEST DUP2 DUP2 LT ISZERO PUSH2 0x1665 JUMPI DUP6 DUP2 ADD DUP4 ADD MLOAD DUP6 DUP3 ADD PUSH1 0x40 ADD MSTORE DUP3 ADD PUSH2 0x1649 JUMP JUMPDEST POP PUSH1 0x0 PUSH1 0x40 DUP3 DUP7 ADD ADD MSTORE PUSH1 0x40 PUSH1 0x1F NOT PUSH1 0x1F DUP4 ADD AND DUP6 ADD ADD SWAP3 POP POP POP SWAP3 SWAP2 POP POP JUMP JUMPDEST PUSH1 0x0 PUSH1 0x20 DUP3 DUP5 SUB SLT ISZERO PUSH2 0x1698 JUMPI PUSH1 0x0 DUP1 REVERT JUMPDEST POP CALLDATALOAD SWAP2 SWAP1 POP JUMP JUMPDEST PUSH1 0x0 DUP1 PUSH1 0x40 DUP4 DUP6 SUB SLT ISZERO PUSH2 0x16B2 JUMPI PUSH1 0x0 DUP1 REVERT JUMPDEST POP POP DUP1 CALLDATALOAD SWAP3 PUSH1 0x20 SWAP1 SWAP2 ADD CALLDATALOAD SWAP2 POP JUMP JUMPDEST PUSH1 0x0 PUSH1 0x20 DUP3 DUP5 SUB SLT ISZERO PUSH2 0x16D3 JUMPI PUSH1 0x0 DUP1 REVERT JUMPDEST DUP2 CALLDATALOAD PUSH1 0x1 PUSH1 0x1 PUSH1 0xA0 SHL SUB DUP2 AND DUP2 EQ PUSH2 0x14B4 JUMPI PUSH1 0x0 DUP1 REVERT JUMPDEST PUSH1 0x1 DUP2 DUP2 SHR SWAP1 DUP3 AND DUP1 PUSH2 0x16FE JUMPI PUSH1 0x7F DUP3 AND SWAP2 POP JUMPDEST PUSH1 0x20 DUP3 LT DUP2 SUB PUSH2 0x171E JUMPI PUSH4 0x4E487B71 PUSH1 0xE0 SHL PUSH1 0x0 MSTORE PUSH1 0x22 PUSH1 0x4 MSTORE PUSH1 0x24 PUSH1 0x0 REVERT JUMPDEST POP SWAP2 SWAP1 POP JUMP JUMPDEST PUSH4 0x4E487B71 PUSH1 0xE0 SHL PUSH1 0x0 MSTORE PUSH1 0x11 PUSH1 0x4 MSTORE PUSH1 0x24 PUSH1 0x0 REVERT JUMPDEST DUP2 DUP2 SUB DUP2 DUP2 GT ISZERO PUSH2 0x777 JUMPI PUSH2 0x777 PUSH2 0x1724 JUMP JUMPDEST DUP1 DUP3 ADD DUP1 DUP3 GT ISZERO PUSH2 0x777 JUMPI PUSH2 0x777 PUSH2 0x1724 JUMP JUMPDEST DUP1 DUP3 MUL DUP2 ISZERO DUP3 DUP3 DIV DUP5 EQ OR PUSH2 0x777 JUMPI PUSH2 0x777 PUSH2 0x1724 JUMP JUMPDEST PUSH4 0x4E487B71 PUSH1 0xE0 SHL PUSH1 0x0 MSTORE PUSH1 0x12 PUSH1 0x4 MSTORE PUSH1 0x24 PUSH1 0x0 REVERT JUMPDEST PUSH1 0x0 DUP3 PUSH2 0x17AA JUMPI PUSH4 0x4E487B71 PUSH1 0xE0 SHL PUSH1 0x0 MSTORE PUSH1 0x12 PUSH1 0x4 MSTORE PUSH1 0x24 PUSH1 0x0 REVERT JUMPDEST POP DIV SWAP1 JUMP JUMPDEST PUSH1 0x0 DUP1 PUSH1 0x0 PUSH1 0x60 DUP5 DUP7 SUB SLT ISZERO PUSH2 0x17C4 JUMPI PUSH1 0x0 DUP1 REVERT JUMPDEST DUP4 MLOAD SWAP3 POP PUSH1 0x20 DUP5 ADD MLOAD SWAP2 POP PUSH1 0x40 DUP5 ADD MLOAD SWAP1 POP SWAP3 POP SWAP3 POP SWAP3 JUMP INVALID LOG2 PUSH5 0x6970667358 0x22 SLT KECCAK256 0xF9 0x24 0xE0 CHAINID PUSH4 0x1B1770FE 0xD 0xB7 PUSH20 0xF35DE73A3E3C3BDF2D1F4DDA326DA262F19FB3E7 PUSH5 0x736F6C6343 STOP ADDMOD XOR STOP CALLER PUSH1 0xA0 PUSH1 0x40 MSTORE CALLVALUE DUP1 ISZERO PUSH3 0x11 JUMPI PUSH1 0x0 DUP1 REVERT JUMPDEST POP PUSH1 0x40 MLOAD PUSH3 0xE77 CODESIZE SUB DUP1 PUSH3 0xE77 DUP4 CODECOPY DUP2 ADD PUSH1 0x40 DUP2 SWAP1 MSTORE PUSH3 0x34 SWAP2 PUSH3 0x242 JUMP JUMPDEST DUP1 DUP5 DUP5 PUSH1 0x3 PUSH3 0x45 DUP4 DUP3 PUSH3 0x368 JUMP JUMPDEST POP PUSH1 0x4 PUSH3 0x54 DUP3 DUP3 PUSH3 0x368 JUMP JUMPDEST POP POP POP PUSH1 0x1 PUSH1 0x1 PUSH1 0xA0 SHL SUB DUP2 AND PUSH3 0x87 JUMPI PUSH1 0x40 MLOAD PUSH4 0x1E4FBDF7 PUSH1 0xE0 SHL DUP2 MSTORE PUSH1 0x0 PUSH1 0x4 DUP3 ADD MSTORE PUSH1 0x24 ADD JUMPDEST PUSH1 0x40 MLOAD DUP1 SWAP2 SUB SWAP1 REVERT JUMPDEST PUSH3 0x92 DUP2 PUSH3 0x128 JUMP JUMPDEST POP PUSH1 0x0 DUP3 GT PUSH3 0xD3 JUMPI PUSH1 0x40 MLOAD PUSH3 0x461BCD PUSH1 0xE5 SHL DUP2 MSTORE PUSH1 0x20 PUSH1 0x4 DUP3 ADD MSTORE PUSH1 0xB PUSH1 0x24 DUP3 ADD MSTORE PUSH11 0x636170206973207A65726F PUSH1 0xA8 SHL PUSH1 0x44 DUP3 ADD MSTORE PUSH1 0x64 ADD PUSH3 0x7E JUMP JUMPDEST PUSH1 0x1 PUSH1 0x1 PUSH1 0xA0 SHL SUB DUP2 AND PUSH3 0x11B JUMPI PUSH1 0x40 MLOAD PUSH3 0x461BCD PUSH1 0xE5 SHL DUP2 MSTORE PUSH1 0x20 PUSH1 0x4 DUP3 ADD MSTORE PUSH1 0xD PUSH1 0x24 DUP3 ADD MSTORE PUSH13 0x6F776E6572206973207A65726F PUSH1 0x98 SHL PUSH1 0x44 DUP3 ADD MSTORE PUSH1 0x64 ADD PUSH3 0x7E JUMP JUMPDEST POP PUSH1 0x80 MSTORE POP PUSH3 0x434 SWAP1 POP JUMP JUMPDEST PUSH1 0x5 DUP1 SLOAD PUSH1 0x1 PUSH1 0x1 PUSH1 0xA0 SHL SUB DUP4 DUP2 AND PUSH1 0x1 PUSH1 0x1 PUSH1 0xA0 SHL SUB NOT DUP4 AND DUP2 OR SWAP1 SWAP4 SSTORE PUSH1 0x40 MLOAD SWAP2 AND SWAP2 SWAP1 DUP3 SWAP1 PUSH32 0x8BE0079C531659141344CD1FD0A4F28419497F9722A3DAAFE3B4186F6B6457E0 SWAP1 PUSH1 0x0 SWAP1 LOG3 POP POP JUMP JUMPDEST PUSH4 0x4E487B71 PUSH1 0xE0 SHL PUSH1 0x0 MSTORE PUSH1 0x41 PUSH1 0x4 MSTORE PUSH1 0x24 PUSH1 0x0 REVERT JUMPDEST PUSH1 0x0 DUP3 PUSH1 0x1F DUP4 ADD SLT PUSH3 0x1A2 JUMPI PUSH1 0x0 DUP1 REVERT JUMPDEST DUP2 MLOAD PUSH1 0x1 PUSH1 0x1 PUSH1 0x40 SHL SUB DUP1 DUP3 GT ISZERO PUSH3 0x1BF JUMPI PUSH3 0x1BF PUSH3 0x17A JUMP JUMPDEST PUSH1 0x40 MLOAD PUSH1 0x1F DUP4 ADD PUSH1 0x1F NOT SWAP1 DUP2 AND PUSH1 0x3F ADD AND DUP2 ADD SWAP1 DUP3 DUP3 GT DUP2 DUP4 LT OR ISZERO PUSH3 0x1EA JUMPI PUSH3 0x1EA PUSH3 0x17A JUMP JUMPDEST DUP2 PUSH1 0x40 MSTORE DUP4 DUP2 MSTORE PUSH1 0x20 SWAP3 POP DUP7 PUSH1 0x20 DUP6 DUP9 ADD ADD GT ISZERO PUSH3 0x208 JUMPI PUSH1 0x0 DUP1 REVERT JUMPDEST PUSH1 0x0 SWAP2 POP JUMPDEST DUP4 DUP3 LT ISZERO PUSH3 0x22C JUMPI DUP6 DUP3 ADD DUP4 ADD MLOAD DUP2 DUP4 ADD DUP5 ADD MSTORE SWAP1 DUP3 ADD SWAP1 PUSH3 0x20D JUMP JUMPDEST PUSH1 0x0 PUSH1 0x20 DUP6 DUP4 ADD ADD MSTORE DUP1 SWAP5 POP POP POP POP POP SWAP3 SWAP2 POP POP JUMP JUMPDEST PUSH1 0x0 DUP1 PUSH1 0x0 DUP1 PUSH1 0x80 DUP6 DUP8 SUB SLT ISZERO PUSH3 0x259 JUMPI PUSH1 0x0 DUP1 REVERT JUMPDEST DUP5 MLOAD PUSH1 0x1 PUSH1 0x1 PUSH1 0x40 SHL SUB DUP1 DUP3 GT ISZERO PUSH3 0x271 JUMPI PUSH1 0x0 DUP1 REVERT JUMPDEST PUSH3 0x27F DUP9 DUP4 DUP10 ADD PUSH3 0x190 JUMP JUMPDEST SWAP6 POP PUSH1 0x20 DUP8 ADD MLOAD SWAP2 POP DUP1 DUP3 GT ISZERO PUSH3 0x296 JUMPI PUSH1 0x0 DUP1 REVERT JUMPDEST POP PUSH3 0x2A5 DUP8 DUP3 DUP9 ADD PUSH3 0x190 JUMP JUMPDEST PUSH1 0x40 DUP8 ADD MLOAD PUSH1 0x60 DUP9 ADD MLOAD SWAP2 SWAP6 POP SWAP4 POP SWAP1 POP PUSH1 0x1 PUSH1 0x1 PUSH1 0xA0 SHL SUB DUP2 AND DUP2 EQ PUSH3 0x2CC JUMPI PUSH1 0x0 DUP1 REVERT JUMPDEST SWAP4 SWAP7 SWAP3 SWAP6 POP SWAP1 SWAP4 POP POP JUMP JUMPDEST PUSH1 0x1 DUP2 DUP2 SHR SWAP1 DUP3 AND DUP1 PUSH3 0x2EC JUMPI PUSH1 0x7F DUP3 AND SWAP2 POP JUMPDEST PUSH1 0x20 DUP3 LT DUP2 SUB PUSH3 0x30D JUMPI PUSH4 0x4E487B71 PUSH1 0xE0 SHL PUSH1 0x0 MSTORE PUSH1 0x22 PUSH1 0x4 MSTORE PUSH1 0x24 PUSH1 0x0 REVERT JUMPDEST POP SWAP2 SWAP1 POP JUMP JUMPDEST PUSH1 0x1F DUP3 GT ISZERO PUSH3 0x363 JUMPI PUSH1 0x0 DUP2 PUSH1 0x0 MSTORE PUSH1 0x20 PUSH1 0x0 KECCAK256 PUSH1 0x1F DUP6 ADD PUSH1 0x5 SHR DUP2 ADD PUSH1 0x20 DUP7 LT ISZERO PUSH3 0x33E JUMPI POP DUP1 JUMPDEST PUSH1 0x1F DUP6 ADD PUSH1 0x5 SHR DUP3 ADD SWAP2 POP JUMPDEST DUP2 DUP2 LT ISZERO PUSH3 0x35F JUMPI DUP3 DUP2 SSTORE PUSH1 0x1 ADD PUSH3 0x34A JUMP JUMPDEST POP POP POP JUMPDEST POP POP POP JUMP JUMPDEST DUP2 MLOAD PUSH1 0x1 PUSH1 0x1 PUSH1 0x40 SHL SUB DUP2 GT ISZERO PUSH3 0x384 JUMPI PUSH3 0x384 PUSH3 0x17A JUMP JUMPDEST PUSH3 0x39C DUP2 PUSH3 0x395 DUP5 SLOAD PUSH3 0x2D7 JUMP JUMPDEST DUP5 PUSH3 0x313 JUMP JUMPDEST PUSH1 0x20 DUP1 PUSH1 0x1F DUP4 GT PUSH1 0x1 DUP2 EQ PUSH3 0x3D4 JUMPI PUSH1 0x0 DUP5 ISZERO PUSH3 0x3BB JUMPI POP DUP6 DUP4 ADD MLOAD JUMPDEST PUSH1 0x0 NOT PUSH1 0x3 DUP7 SWAP1 SHL SHR NOT AND PUSH1 0x1 DUP6 SWAP1 SHL OR DUP6 SSTORE PUSH3 0x35F JUMP JUMPDEST PUSH1 0x0 DUP6 DUP2 MSTORE PUSH1 0x20 DUP2 KECCAK256 PUSH1 0x1F NOT DUP7 AND SWAP2 JUMPDEST DUP3 DUP2 LT ISZERO PUSH3 0x405 JUMPI DUP9 DUP7 ADD MLOAD DUP3 SSTORE SWAP5 DUP5 ADD SWAP5 PUSH1 0x1 SWAP1 SWAP2 ADD SWAP1 DUP5 ADD PUSH3 0x3E4 JUMP JUMPDEST POP DUP6 DUP3 LT ISZERO PUSH3 0x424 JUMPI DUP8 DUP6 ADD MLOAD PUSH1 0x0 NOT PUSH1 0x3 DUP9 SWAP1 SHL PUSH1 0xF8 AND SHR NOT AND DUP2 SSTORE JUMPDEST POP POP POP POP POP PUSH1 0x1 SWAP1 DUP2 SHL ADD SWAP1 SSTORE POP JUMP JUMPDEST PUSH1 0x80 MLOAD PUSH2 0xA20 PUSH3 0x457 PUSH1 0x0 CODECOPY PUSH1 0x0 DUP2 DUP2 PUSH2 0x174 ADD MSTORE PUSH2 0x390 ADD MSTORE PUSH2 0xA20 PUSH1 0x0 RETURN INVALID PUSH1 0x80 PUSH1 0x40 MSTORE CALLVALUE DUP1 ISZERO PUSH2 0x10 JUMPI PUSH1 0x0 DUP1 REVERT JUMPDEST POP PUSH1 0x4 CALLDATASIZE LT PUSH2 0xF5 JUMPI PUSH1 0x0 CALLDATALOAD PUSH1 0xE0 SHR DUP1 PUSH4 0x70A08231 GT PUSH2 0x97 JUMPI DUP1 PUSH4 0x9DC29FAC GT PUSH2 0x66 JUMPI DUP1 PUSH4 0x9DC29FAC EQ PUSH2 0x1FF JUMPI DUP1 PUSH4 0xA9059CBB EQ PUSH2 0x212 JUMPI DUP1 PUSH4 0xDD62ED3E EQ PUSH2 0x225 JUMPI DUP1 PUSH4 0xF2FDE38B EQ PUSH2 0x25E JUMPI PUSH1 0x0 DUP1 REVERT JUMPDEST DUP1 PUSH4 0x70A08231 EQ PUSH2 0x1AB JUMPI DUP1 PUSH4 0x715018A6 EQ PUSH2 0x1D4 JUMPI DUP1 PUSH4 0x8DA5CB5B EQ PUSH2 0x1DC JUMPI DUP1 PUSH4 0x95D89B41 EQ PUSH2 0x1F7 JUMPI PUSH1 0x0 DUP1 REVERT JUMPDEST DUP1 PUSH4 0x23B872DD GT PUSH2 0xD3 JUMPI DUP1 PUSH4 0x23B872DD EQ PUSH2 0x14D JUMPI DUP1 PUSH4 0x313CE567 EQ PUSH2 0x160 JUMPI DUP1 PUSH4 0x355274EA EQ PUSH2 0x16F JUMPI DUP1 PUSH4 0x40C10F19 EQ PUSH2 0x196 JUMPI PUSH1 0x0 DUP1 REVERT JUMPDEST DUP1 PUSH4 0x6FDDE03 EQ PUSH2 0xFA JUMPI DUP1 PUSH4 0x95EA7B3 EQ PUSH2 0x118 JUMPI DUP1 PUSH4 0x18160DDD EQ PUSH2 0x13B JUMPI JUMPDEST PUSH1 0x0 DUP1 REVERT JUMPDEST PUSH2 0x102 PUSH2 0x271 JUMP JUMPDEST PUSH1 0x40 MLOAD PUSH2 0x10F SWAP2 SWAP1 PUSH2 0x869 JUMP JUMPDEST PUSH1 0x40 MLOAD DUP1 SWAP2 SUB SWAP1 RETURN JUMPDEST PUSH2 0x12B PUSH2 0x126 CALLDATASIZE PUSH1 0x4 PUSH2 0x8D4 JUMP JUMPDEST PUSH2 0x303 JUMP JUMPDEST PUSH1 0x40 MLOAD SWAP1 ISZERO ISZERO DUP2 MSTORE PUSH1 0x20 ADD PUSH2 0x10F JUMP JUMPDEST PUSH1 0x2 SLOAD JUMPDEST PUSH1 0x40 MLOAD SWAP1 DUP2 MSTORE PUSH1 0x20 ADD PUSH2 0x10F JUMP JUMPDEST PUSH2 0x12B PUSH2 0x15B CALLDATASIZE PUSH1 0x4 PUSH2 0x8FE JUMP JUMPDEST PUSH2 0x31D JUMP JUMPDEST PUSH1 0x40 MLOAD PUSH1 0x12 DUP2 MSTORE PUSH1 0x20 ADD PUSH2 0x10F JUMP JUMPDEST PUSH2 0x13F PUSH32 0x0 DUP2 JUMP JUMPDEST PUSH2 0x1A9 PUSH2 0x1A4 CALLDATASIZE PUSH1 0x4 PUSH2 0x8D4 JUMP JUMPDEST PUSH2 0x341 JUMP JUMPDEST STOP JUMPDEST PUSH2 0x13F PUSH2 0x1B9 CALLDATASIZE PUSH1 0x4 PUSH2 0x93A JUMP JUMPDEST PUSH1 0x1 PUSH1 0x1 PUSH1 0xA0 SHL SUB AND PUSH1 0x0 SWAP1 DUP2 MSTORE PUSH1 0x20 DUP2 SWAP1 MSTORE PUSH1 0x40 SWAP1 KECCAK256 SLOAD SWAP1 JUMP JUMPDEST PUSH2 0x1A9 PUSH2 0x40E JUMP JUMPDEST PUSH1 0x5 SLOAD PUSH1 0x40 MLOAD PUSH1 0x1 PUSH1 0x1 PUSH1 0xA0 SHL SUB SWAP1 SWAP2 AND DUP2 MSTORE PUSH1 0x20 ADD PUSH2 0x10F JUMP JUMPDEST PUSH2 0x102 PUSH2 0x422 JUMP JUMPDEST PUSH2 0x1A9 PUSH2 0x20D CALLDATASIZE PUSH1 0x4 PUSH2 0x8D4 JUMP JUMPDEST PUSH2 0x431 JUMP JUMPDEST PUSH2 0x12B PUSH2 0x220 CALLDATASIZE PUSH1 0x4 PUSH2 0x8D4 JUMP JUMPDEST PUSH2 0x443 JUMP JUMPDEST PUSH2 0x13F PUSH2 0x233 CALLDATASIZE PUSH1 0x4 PUSH2 0x95C JUMP JUMPDEST PUSH1 0x1 PUSH1 0x1 PUSH1 0xA0 SHL SUB SWAP2 DUP3 AND PUSH1 0x0 SWAP1 DUP2 MSTORE PUSH1 0x1 PUSH1 0x20 SWAP1 DUP2 MSTORE PUSH1 0x40 DUP1 DUP4 KECCAK256 SWAP4 SWAP1 SWAP5 AND DUP3 MSTORE SWAP2 SWAP1 SWAP2 MSTORE KECCAK256 SLOAD SWAP1 JUMP JUMPDEST PUSH2 0x1A9 PUSH2 0x26C CALLDATASIZE PUSH1 0x4 PUSH2 0x93A JUMP JUMPDEST PUSH2 0x451 JUMP JUMPDEST PUSH1 0x60 PUSH1 0x3 DUP1 SLOAD PUSH2 0x280 SWAP1 PUSH2 0x98F JUMP JUMPDEST DUP1 PUSH1 0x1F ADD PUSH1 0x20 DUP1 SWAP2 DIV MUL PUSH1 0x20 ADD PUSH1 0x40 MLOAD SWAP1 DUP2 ADD PUSH1 0x40 MSTORE DUP1 SWAP3 SWAP2 SWAP1 DUP2 DUP2 MSTORE PUSH1 0x20 ADD DUP3 DUP1 SLOAD PUSH2 0x2AC SWAP1 PUSH2 0x98F JUMP JUMPDEST DUP1 ISZERO PUSH2 0x2F9 JUMPI DUP1 PUSH1 0x1F LT PUSH2 0x2CE JUMPI PUSH2 0x100 DUP1 DUP4 SLOAD DIV MUL DUP4 MSTORE SWAP2 PUSH1 0x20 ADD SWAP2 PUSH2 0x2F9 JUMP JUMPDEST DUP3 ADD SWAP2 SWAP1 PUSH1 0x0 MSTORE PUSH1 0x20 PUSH1 0x0 KECCAK256 SWAP1 JUMPDEST DUP2 SLOAD DUP2 MSTORE SWAP1 PUSH1 0x1 ADD SWAP1 PUSH1 0x20 ADD DUP1 DUP4 GT PUSH2 0x2DC JUMPI DUP3 SWAP1 SUB PUSH1 0x1F AND DUP3 ADD SWAP2 JUMPDEST POP POP POP POP POP SWAP1 POP SWAP1 JUMP JUMPDEST PUSH1 0x0 CALLER PUSH2 0x311 DUP2 DUP6 DUP6 PUSH2 0x48F JUMP JUMPDEST PUSH1 0x1 SWAP2 POP POP JUMPDEST SWAP3 SWAP2 POP POP JUMP JUMPDEST PUSH1 0x0 CALLER PUSH2 0x32B DUP6 DUP3 DUP6 PUSH2 0x4A1 JUMP JUMPDEST PUSH2 0x336 DUP6 DUP6 DUP6 PUSH2 0x520 JUMP JUMPDEST POP PUSH1 0x1 SWAP5 SWAP4 POP POP POP POP JUMP JUMPDEST PUSH2 0x349 PUSH2 0x57F JUMP JUMPDEST PUSH1 0x1 PUSH1 0x1 PUSH1 0xA0 SHL SUB DUP3 AND PUSH2 0x38E JUMPI PUSH1 0x40 MLOAD PUSH3 0x461BCD PUSH1 0xE5 SHL DUP2 MSTORE PUSH1 0x20 PUSH1 0x4 DUP3 ADD MSTORE PUSH1 0x7 PUSH1 0x24 DUP3 ADD MSTORE PUSH7 0x746F207A65726F PUSH1 0xC8 SHL PUSH1 0x44 DUP3 ADD MSTORE PUSH1 0x64 ADD JUMPDEST PUSH1 0x40 MLOAD DUP1 SWAP2 SUB SWAP1 REVERT JUMPDEST PUSH32 0x0 DUP2 PUSH2 0x3B9 PUSH1 0x2 SLOAD SWAP1 JUMP JUMPDEST PUSH2 0x3C3 SWAP2 SWAP1 PUSH2 0x9C9 JUMP JUMPDEST GT ISZERO PUSH2 0x400 JUMPI PUSH1 0x40 MLOAD PUSH3 0x461BCD PUSH1 0xE5 SHL DUP2 MSTORE PUSH1 0x20 PUSH1 0x4 DUP3 ADD MSTORE PUSH1 0xC PUSH1 0x24 DUP3 ADD MSTORE PUSH12 0x18D85C08195E18D959591959 PUSH1 0xA2 SHL PUSH1 0x44 DUP3 ADD MSTORE PUSH1 0x64 ADD PUSH2 0x385 JUMP JUMPDEST PUSH2 0x40A DUP3 DUP3 PUSH2 0x5AC JUMP JUMPDEST POP POP JUMP JUMPDEST PUSH2 0x416 PUSH2 0x57F JUMP JUMPDEST PUSH2 0x420 PUSH1 0x0 PUSH2 0x5E2 JUMP JUMPDEST JUMP JUMPDEST PUSH1 0x60 PUSH1 0x4 DUP1 SLOAD PUSH2 0x280 SWAP1 PUSH2 0x98F JUMP JUMPDEST PUSH2 0x439 PUSH2 0x57F JUMP JUMPDEST PUSH2 0x40A DUP3 DUP3 PUSH2 0x634 JUMP JUMPDEST PUSH1 0x0 CALLER PUSH2 0x311 DUP2 DUP6 DUP6 PUSH2 0x520 JUMP JUMPDEST PUSH2 0x459 PUSH2 0x57F JUMP JUMPDEST PUSH1 0x1 PUSH1 0x1 PUSH1 0xA0 SHL SUB DUP2 AND PUSH2 0x483 JUMPI PUSH1 0x40 MLOAD PUSH4 0x1E4FBDF7 PUSH1 0xE0 SHL DUP2 MSTORE PUSH1 0x0 PUSH1 0x4 DUP3 ADD MSTORE PUSH1 0x24 ADD PUSH2 0x385 JUMP JUMPDEST PUSH2 0x48C DUP2 PUSH2 0x5E2 JUMP JUMPDEST POP JUMP JUMPDEST PUSH2 0x49C DUP4 DUP4 DUP4 PUSH1 0x1 PUSH2 0x66A JUMP JUMPDEST POP POP POP JUMP JUMPDEST PUSH1 0x1 PUSH1 0x1 PUSH1 0xA0 SHL SUB DUP4 DUP2 AND PUSH1 0x0 SWAP1 DUP2 MSTORE PUSH1 0x1 PUSH1 0x20 SWAP1 DUP2 MSTORE PUSH1 0x40 DUP1 DUP4 KECCAK256 SWAP4 DUP7 AND DUP4 MSTORE SWAP3 SWAP1 MSTORE KECCAK256 SLOAD PUSH1 0x0 NOT DUP2 LT ISZERO PUSH2 0x51A JUMPI DUP2 DUP2 LT ISZERO PUSH2 0x50B JUMPI PUSH1 0x40 MLOAD PUSH4 0x7DC7A0D9 PUSH1 0xE1 SHL DUP2 MSTORE PUSH1 0x1 PUSH1 0x1 PUSH1 0xA0 SHL SUB DUP5 AND PUSH1 0x4 DUP3 ADD MSTORE PUSH1 0x24 DUP2 ADD DUP3 SWAP1 MSTORE PUSH1 0x44 DUP2 ADD DUP4 SWAP1 MSTORE PUSH1 0x64 ADD PUSH2 0x385 JUMP JUMPDEST PUSH2 0x51A DUP5 DUP5 DUP5 DUP5 SUB PUSH1 0x0 PUSH2 0x66A JUMP JUMPDEST POP POP POP POP JUMP JUMPDEST PUSH1 0x1 PUSH1 0x1 PUSH1 0xA0 SHL SUB DUP4 AND PUSH2 0x54A JUMPI PUSH1 0x40 MLOAD PUSH4 0x4B637E8F PUSH1 0xE1 SHL DUP2 MSTORE PUSH1 0x0 PUSH1 0x4 DUP3 ADD MSTORE PUSH1 0x24 ADD PUSH2 0x385 JUMP JUMPDEST PUSH1 0x1 PUSH1 0x1 PUSH1 0xA0 SHL SUB DUP3 AND PUSH2 0x574 JUMPI PUSH1 0x40 MLOAD PUSH4 0xEC442F05 PUSH1 0xE0 SHL DUP2 MSTORE PUSH1 0x0 PUSH1 0x4 DUP3 ADD MSTORE PUSH1 0x24 ADD PUSH2 0x385 JUMP JUMPDEST PUSH2 0x49C DUP4 DUP4 DUP4 PUSH2 0x73F JUMP JUMPDEST PUSH1 0x5 SLOAD PUSH1 0x1 PUSH1 0x1 PUSH1 0xA0 SHL SUB AND CALLER EQ PUSH2 0x420 JUMPI PUSH1 0x40 MLOAD PUSH4 0x118CDAA7 PUSH1 0xE0 SHL DUP2 MSTORE CALLER PUSH1 0x4 DUP3 ADD MSTORE PUSH1 0x24 ADD PUSH2 0x385 JUMP JUMPDEST PUSH1 0x1 PUSH1 0x1 PUSH1 0xA0 SHL SUB DUP3 AND PUSH2 0x5D6 JUMPI PUSH1 0x40 MLOAD PUSH4 0xEC442F05 PUSH1 0xE0 SHL DUP2 MSTORE PUSH1 0x0 PUSH1 0x4 DUP3 ADD MSTORE PUSH1 0x24 ADD PUSH2 0x385 JUMP JUMPDEST PUSH2 0x40A PUSH1 0x0 DUP4 DUP4 PUSH2 0x73F JUMP JUMPDEST PUSH1 0x5 DUP1 SLOAD PUSH1 0x1 PUSH1 0x1 PUSH1 0xA0 SHL SUB DUP4 DUP2 AND PUSH1 0x1 PUSH1 0x1 PUSH1 0xA0 SHL SUB NOT DUP4 AND DUP2 OR SWAP1 SWAP4 SSTORE PUSH1 0x40 MLOAD SWAP2 AND SWAP2 SWAP1 DUP3 SWAP1 PUSH32 0x8BE0079C531659141344CD1FD0A4F28419497F9722A3DAAFE3B4186F6B6457E0 SWAP1 PUSH1 0x0 SWAP1 LOG3 POP POP JUMP JUMPDEST PUSH1 0x1 PUSH1 0x1 PUSH1 0xA0 SHL SUB DUP3 AND PUSH2 0x65E JUMPI PUSH1 0x40 MLOAD PUSH4 0x4B637E8F PUSH1 0xE1 SHL DUP2 MSTORE PUSH1 0x0 PUSH1 0x4 DUP3 ADD MSTORE PUSH1 0x24 ADD PUSH2 0x385 JUMP JUMPDEST PUSH2 0x40A DUP3 PUSH1 0x0 DUP4 PUSH2 0x73F JUMP JUMPDEST PUSH1 0x1 PUSH1 0x1 PUSH1 0xA0 SHL SUB DUP5 AND PUSH2 0x694 JUMPI PUSH1 0x40 MLOAD PUSH4 0xE602DF05 PUSH1 0xE0 SHL DUP2 MSTORE PUSH1 0x0 PUSH1 0x4 DUP3 ADD MSTORE PUSH1 0x24 ADD PUSH2 0x385 JUMP JUMPDEST PUSH1 0x1 PUSH1 0x1 PUSH1 0xA0 SHL SUB DUP4 AND PUSH2 0x6BE JUMPI PUSH1 0x40 MLOAD PUSH4 0x4A1406B1 PUSH1 0xE1 SHL DUP2 MSTORE PUSH1 0x0 PUSH1 0x4 DUP3 ADD MSTORE PUSH1 0x24 ADD PUSH2 0x385 JUMP JUMPDEST PUSH1 0x1 PUSH1 0x1 PUSH1 0xA0 SHL SUB DUP1 DUP6 AND PUSH1 0x0 SWAP1 DUP2 MSTORE PUSH1 0x1 PUSH1 0x20 SWAP1 DUP2 MSTORE PUSH1 0x40 DUP1 DUP4 KECCAK256 SWAP4 DUP8 AND DUP4 MSTORE SWAP3 SWAP1 MSTORE KECCAK256 DUP3 SWAP1 SSTORE DUP1 ISZERO PUSH2 0x51A JUMPI DUP3 PUSH1 0x1 PUSH1 0x1 PUSH1 0xA0 SHL SUB AND DUP5 PUSH1 0x1 PUSH1 0x1 PUSH1 0xA0 SHL SUB AND PUSH32 0x8C5BE1E5EBEC7D5BD14F71427D1E84F3DD0314C0F7B2291E5B200AC8C7C3B925 DUP5 PUSH1 0x40 MLOAD PUSH2 0x731 SWAP2 DUP2 MSTORE PUSH1 0x20 ADD SWAP1 JUMP JUMPDEST PUSH1 0x40 MLOAD DUP1 SWAP2 SUB SWAP1 LOG3 POP POP POP POP JUMP JUMPDEST PUSH1 0x1 PUSH1 0x1 PUSH1 0xA0 SHL SUB DUP4 AND PUSH2 0x76A JUMPI DUP1 PUSH1 0x2 PUSH1 0x0 DUP3 DUP3 SLOAD PUSH2 0x75F SWAP2 SWAP1 PUSH2 0x9C9 JUMP JUMPDEST SWAP1 SWAP2 SSTORE POP PUSH2 0x7DC SWAP1 POP JUMP JUMPDEST PUSH1 0x1 PUSH1 0x1 PUSH1 0xA0 SHL SUB DUP4 AND PUSH1 0x0 SWAP1 DUP2 MSTORE PUSH1 0x20 DUP2 SWAP1 MSTORE PUSH1 0x40 SWAP1 KECCAK256 SLOAD DUP2 DUP2 LT ISZERO PUSH2 0x7BD JUMPI PUSH1 0x40 MLOAD PUSH4 0x391434E3 PUSH1 0xE2 SHL DUP2 MSTORE PUSH1 0x1 PUSH1 0x1 PUSH1 0xA0 SHL SUB DUP6 AND PUSH1 0x4 DUP3 ADD MSTORE PUSH1 0x24 DUP2 ADD DUP3 SWAP1 MSTORE PUSH1 0x44 DUP2 ADD DUP4 SWAP1 MSTORE PUSH1 0x64 ADD PUSH2 0x385 JUMP JUMPDEST PUSH1 0x1 PUSH1 0x1 PUSH1 0xA0 SHL SUB DUP5 AND PUSH1 0x0 SWAP1 DUP2 MSTORE PUSH1 0x20 DUP2 SWAP1 MSTORE PUSH1 0x40 SWAP1 KECCAK256 SWAP1 DUP3 SWAP1 SUB SWAP1 SSTORE JUMPDEST PUSH1 0x1 PUSH1 0x1 PUSH1 0xA0 SHL SUB DUP3 AND PUSH2 0x7F8 JUMPI PUSH1 0x2 DUP1 SLOAD DUP3 SWAP1 SUB SWAP1 SSTORE PUSH2 0x817 JUMP JUMPDEST PUSH1 0x1 PUSH1 0x1 PUSH1 0xA0 SHL SUB DUP3 AND PUSH1 0x0 SWAP1 DUP2 MSTORE PUSH1 0x20 DUP2 SWAP1 MSTORE PUSH1 0x40 SWAP1 KECCAK256 DUP1 SLOAD DUP3 ADD SWAP1 SSTORE JUMPDEST DUP2 PUSH1 0x1 PUSH1 0x1 PUSH1 0xA0 SHL SUB AND DUP4 PUSH1 0x1 PUSH1 0x1 PUSH1 0xA0 SHL SUB AND PUSH32 0xDDF252AD1BE2C89B69C2B068FC378DAA952BA7F163C4A11628F55A4DF523B3EF DUP4 PUSH1 0x40 MLOAD PUSH2 0x85C SWAP2 DUP2 MSTORE PUSH1 0x20 ADD SWAP1 JUMP JUMPDEST PUSH1 0x40 MLOAD DUP1 SWAP2 SUB SWAP1 LOG3 POP POP POP JUMP JUMPDEST PUSH1 0x0 PUSH1 0x20 DUP1 DUP4 MSTORE DUP4 MLOAD DUP1 PUSH1 0x20 DUP6 ADD MSTORE PUSH1 0x0 JUMPDEST DUP2 DUP2 LT ISZERO PUSH2 0x897 JUMPI DUP6 DUP2 ADD DUP4 ADD MLOAD DUP6 DUP3 ADD PUSH1 0x40 ADD MSTORE DUP3 ADD PUSH2 0x87B JUMP JUMPDEST POP PUSH1 0x0 PUSH1 0x40 DUP3 DUP7 ADD ADD MSTORE PUSH1 0x40 PUSH1 0x1F NOT PUSH1 0x1F DUP4 ADD AND DUP6 ADD ADD SWAP3 POP POP POP SWAP3 SWAP2 POP POP JUMP JUMPDEST DUP1 CALLDATALOAD PUSH1 0x1 PUSH1 0x1 PUSH1 0xA0 SHL SUB DUP2 AND DUP2 EQ PUSH2 0x8CF JUMPI PUSH1 0x0 DUP1 REVERT JUMPDEST SWAP2 SWAP1 POP JUMP JUMPDEST PUSH1 0x0 DUP1 PUSH1 0x40 DUP4 DUP6 SUB SLT ISZERO PUSH2 0x8E7 JUMPI PUSH1 0x0 DUP1 REVERT JUMPDEST PUSH2 0x8F0 DUP4 PUSH2 0x8B8 JUMP JUMPDEST SWAP5 PUSH1 0x20 SWAP4 SWAP1 SWAP4 ADD CALLDATALOAD SWAP4 POP POP POP JUMP JUMPDEST PUSH1 0x0 DUP1 PUSH1 0x0 PUSH1 0x60 DUP5 DUP7 SUB SLT ISZERO PUSH2 0x913 JUMPI PUSH1 0x0 DUP1 REVERT JUMPDEST PUSH2 0x91C DUP5 PUSH2 0x8B8 JUMP JUMPDEST SWAP3 POP PUSH2 0x92A PUSH1 0x20 DUP6 ADD PUSH2 0x8B8 JUMP JUMPDEST SWAP2 POP PUSH1 0x40 DUP5 ADD CALLDATALOAD SWAP1 POP SWAP3 POP SWAP3 POP SWAP3 JUMP JUMPDEST PUSH1 0x0 PUSH1 0x20 DUP3 DUP5 SUB SLT ISZERO PUSH2 0x94C JUMPI PUSH1 0x0 DUP1 REVERT JUMPDEST PUSH2 0x955 DUP3 PUSH2 0x8B8 JUMP JUMPDEST SWAP4 SWAP3 POP POP POP JUMP JUMPDEST PUSH1 0x0 DUP1 PUSH1 0x40 DUP4 DUP6 SUB SLT ISZERO PUSH2 0x96F JUMPI PUSH1 0x0 DUP1 REVERT JUMPDEST PUSH2 0x978 DUP4 PUSH2 0x8B8 JUMP JUMPDEST SWAP2 POP PUSH2 0x986 PUSH1 0x20 DUP5 ADD PUSH2 0x8B8 JUMP JUMPDEST SWAP1 POP SWAP3 POP SWAP3 SWAP1 POP JUMP JUMPDEST PUSH1 0x1 DUP2 DUP2 SHR SWAP1 DUP3 AND DUP1 PUSH2 0x9A3 JUMPI PUSH1 0x7F DUP3 AND SWAP2 POP JUMPDEST PUSH1 0x20 DUP3 LT DUP2 SUB PUSH2 0x9C3 JUMPI PUSH4 0x4E487B71 PUSH1 0xE0 SHL PUSH1 0x0 MSTORE PUSH1 0x22 PUSH1 0x4 MSTORE PUSH1 0x24 PUSH1 0x0 REVERT JUMPDEST POP SWAP2 SWAP1 POP JUMP JUMPDEST DUP1 DUP3 ADD DUP1 DUP3 GT ISZERO PUSH2 0x317 JUMPI PUSH4 0x4E487B71 PUSH1 0xE0 SHL PUSH1 0x0 MSTORE PUSH1 0x11 PUSH1 0x4 MSTORE PUSH1 0x24 PUSH1 0x0 REVERT INVALID LOG2 PUSH5 0x6970667358 0x22 SLT KECCAK256 GAS DUP3 0xE6 0xB6 0xAF PUSH21 0x54E016E80CCE03BF337E4928AF6238B14BE6E485AC PUSH6 0x466A6D256473 PUSH16 0x6C63430008180033A264697066735822 SLT KECCAK256 0xE8 SGT 0xC 0xD8 LOG3 CODECOPY 0xC3 DIV 0xE3 MULMOD PUSH7 0x938091F1E01442 XOR SLT PUSH7 0x3AF37BDC0A2086 CREATE DUP6 TLOAD GASPRICE PUSH5 0x736F6C6343 STOP ADDMOD XOR STOP CALLER "},"methodIdentifiers":{"campaignsCount()":"44c89b65","config()":"79502c55","createCampaign((string,string,string,uint256,uint256,uint256,address))":"b059a17f","feeRecipient()":"46904840","getCampaign(uint256)":"5598f8cc","getCampaignPage(uint256,uint256)":"2b6c075b","owner()":"8da5cb5b","protocolFeeBps()":"35659fb8","renounceOwnership()":"715018a6","router()":"f887ea40","setConfig((uint256,uint256,uint256,uint256,uint256,uint256,uint256))":"6caffb81","setFeeRecipient(address)":"e74b981b","setProtocolFee(uint256)":"787dce3d","setRouter(address)":"c0d78655","transferOwnership(address)":"f2fde38b"}}}}}