{
  "_format": "hh-sol-artifact-1",
  "contractName": "LaunchCampaign",
  "sourceName": "contracts/LaunchCampaign.sol",
  "abi": [
    {
      "inputs": [
        {
          "components": [
            {
              "internalType": "string",
              "name": "name",
              "type": "string"
            },
            {
              "internalType": "string",
              "name": "symbol",
              "type": "string"
            },
            {
              "internalType": "string",
              "name": "metadataURI",
              "type": "string"
            },
            {
              "internalType": "uint256",
              "name": "totalSupply",
              "type": "uint256"
            },
            {
              "internalType": "uint256",
              "name": "curveBps",
              "type": "uint256"
            },
            {
              "internalType": "uint256",
              "name": "liquidityTokenBps",
              "type": "uint256"
            },
            {
              "internalType": "uint256",
              "name": "basePrice",
              "type": "uint256"
            },
            {
              "internalType": "uint256",
              "name": "priceSlope",
              "type": "uint256"
            },
            {
              "internalType": "uint256",
              "name": "graduationTarget",
              "type": "uint256"
            },
            {
              "internalType": "uint256",
              "name": "liquidityBps",
              "type": "uint256"
            },
            {
              "internalType": "uint256",
              "name": "protocolFeeBps",
              "type": "uint256"
            },
            {
              "internalType": "address",
              "name": "router",
              "type": "address"
            },
            {
              "internalType": "address",
              "name": "lpReceiver",
              "type": "address"
            },
            {
              "internalType": "address",
              "name": "feeRecipient",
              "type": "address"
            },
            {
              "internalType": "address",
              "name": "creator",
              "type": "address"
            },
            {
              "internalType": "address",
              "name": "factory",
              "type": "address"
            }
          ],
          "internalType": "struct LaunchCampaign.InitParams",
          "name": "params",
          "type": "tuple"
        }
      ],
      "stateMutability": "nonpayable",
      "type": "constructor"
    },
    {
      "inputs": [
        {
          "internalType": "address",
          "name": "owner",
          "type": "address"
        }
      ],
      "name": "OwnableInvalidOwner",
      "type": "error"
    },
    {
      "inputs": [
        {
          "internalType": "address",
          "name": "account",
          "type": "address"
        }
      ],
      "name": "OwnableUnauthorizedAccount",
      "type": "error"
    },
    {
      "inputs": [],
      "name": "ReentrancyGuardReentrantCall",
      "type": "error"
    },
    {
      "inputs": [
        {
          "internalType": "address",
          "name": "token",
          "type": "address"
        }
      ],
      "name": "SafeERC20FailedOperation",
      "type": "error"
    },
    {
      "anonymous": false,
      "inputs": [
        {
          "indexed": true,
          "internalType": "address",
          "name": "caller",
          "type": "address"
        },
        {
          "indexed": false,
          "internalType": "uint256",
          "name": "liquidityTokens",
          "type": "uint256"
        },
        {
          "indexed": false,
          "internalType": "uint256",
          "name": "liquidityBnb",
          "type": "uint256"
        },
        {
          "indexed": false,
          "internalType": "uint256",
          "name": "protocolFee",
          "type": "uint256"
        },
        {
          "indexed": false,
          "internalType": "uint256",
          "name": "creatorPayout",
          "type": "uint256"
        }
      ],
      "name": "CampaignFinalized",
      "type": "event"
    },
    {
      "anonymous": false,
      "inputs": [
        {
          "indexed": true,
          "internalType": "address",
          "name": "previousOwner",
          "type": "address"
        },
        {
          "indexed": true,
          "internalType": "address",
          "name": "newOwner",
          "type": "address"
        }
      ],
      "name": "OwnershipTransferred",
      "type": "event"
    },
    {
      "anonymous": false,
      "inputs": [
        {
          "indexed": true,
          "internalType": "address",
          "name": "buyer",
          "type": "address"
        },
        {
          "indexed": false,
          "internalType": "uint256",
          "name": "amountOut",
          "type": "uint256"
        },
        {
          "indexed": false,
          "internalType": "uint256",
          "name": "cost",
          "type": "uint256"
        }
      ],
      "name": "TokensPurchased",
      "type": "event"
    },
    {
      "anonymous": false,
      "inputs": [
        {
          "indexed": true,
          "internalType": "address",
          "name": "seller",
          "type": "address"
        },
        {
          "indexed": false,
          "internalType": "uint256",
          "name": "amountIn",
          "type": "uint256"
        },
        {
          "indexed": false,
          "internalType": "uint256",
          "name": "payout",
          "type": "uint256"
        }
      ],
      "name": "TokensSold",
      "type": "event"
    },
    {
      "inputs": [],
      "name": "basePrice",
      "outputs": [
        {
          "internalType": "uint256",
          "name": "",
          "type": "uint256"
        }
      ],
      "stateMutability": "view",
      "type": "function"
    },
    {
      "inputs": [
        {
          "internalType": "uint256",
          "name": "amountOut",
          "type": "uint256"
        },
        {
          "internalType": "uint256",
          "name": "maxCost",
          "type": "uint256"
        }
      ],
      "name": "buyExactTokens",
      "outputs": [
        {
          "internalType": "uint256",
          "name": "cost",
          "type": "uint256"
        }
      ],
      "stateMutability": "payable",
      "type": "function"
    },
    {
      "inputs": [],
      "name": "creatorReserve",
      "outputs": [
        {
          "internalType": "uint256",
          "name": "",
          "type": "uint256"
        }
      ],
      "stateMutability": "view",
      "type": "function"
    },
    {
      "inputs": [],
      "name": "currentPrice",
      "outputs": [
        {
          "internalType": "uint256",
          "name": "",
          "type": "uint256"
        }
      ],
      "stateMutability": "view",
      "type": "function"
    },
    {
      "inputs": [],
      "name": "curveSupply",
      "outputs": [
        {
          "internalType": "uint256",
          "name": "",
          "type": "uint256"
        }
      ],
      "stateMutability": "view",
      "type": "function"
    },
    {
      "inputs": [],
      "name": "factory",
      "outputs": [
        {
          "internalType": "address",
          "name": "",
          "type": "address"
        }
      ],
      "stateMutability": "view",
      "type": "function"
    },
    {
      "inputs": [],
      "name": "feeRecipient",
      "outputs": [
        {
          "internalType": "address",
          "name": "",
          "type": "address"
        }
      ],
      "stateMutability": "view",
      "type": "function"
    },
    {
      "inputs": [
        {
          "internalType": "uint256",
          "name": "minTokens",
          "type": "uint256"
        },
        {
          "internalType": "uint256",
          "name": "minBnb",
          "type": "uint256"
        }
      ],
      "name": "finalize",
      "outputs": [
        {
          "internalType": "uint256",
          "name": "usedTokens",
          "type": "uint256"
        },
        {
          "internalType": "uint256",
          "name": "usedBnb",
          "type": "uint256"
        }
      ],
      "stateMutability": "nonpayable",
      "type": "function"
    },
    {
      "inputs": [],
      "name": "finalizedAt",
      "outputs": [
        {
          "internalType": "uint256",
          "name": "",
          "type": "uint256"
        }
      ],
      "stateMutability": "view",
      "type": "function"
    },
    {
      "inputs": [],
      "name": "graduationTarget",
      "outputs": [
        {
          "internalType": "uint256",
          "name": "",
          "type": "uint256"
        }
      ],
      "stateMutability": "view",
      "type": "function"
    },
    {
      "inputs": [],
      "name": "launched",
      "outputs": [
        {
          "internalType": "bool",
          "name": "",
          "type": "bool"
        }
      ],
      "stateMutability": "view",
      "type": "function"
    },
    {
      "inputs": [],
      "name": "liquidityBps",
      "outputs": [
        {
          "internalType": "uint256",
          "name": "",
          "type": "uint256"
        }
      ],
      "stateMutability": "view",
      "type": "function"
    },
    {
      "inputs": [],
      "name": "liquiditySupply",
      "outputs": [
        {
          "internalType": "uint256",
          "name": "",
          "type": "uint256"
        }
      ],
      "stateMutability": "view",
      "type": "function"
    },
    {
      "inputs": [],
      "name": "lpReceiver",
      "outputs": [
        {
          "internalType": "address",
          "name": "",
          "type": "address"
        }
      ],
      "stateMutability": "view",
      "type": "function"
    },
    {
      "inputs": [],
      "name": "metadataURI",
      "outputs": [
        {
          "internalType": "string",
          "name": "",
          "type": "string"
        }
      ],
      "stateMutability": "view",
      "type": "function"
    },
    {
      "inputs": [],
      "name": "owner",
      "outputs": [
        {
          "internalType": "address",
          "name": "",
          "type": "address"
        }
      ],
      "stateMutability": "view",
      "type": "function"
    },
    {
      "inputs": [],
      "name": "priceSlope",
      "outputs": [
        {
          "internalType": "uint256",
          "name": "",
          "type": "uint256"
        }
      ],
      "stateMutability": "view",
      "type": "function"
    },
    {
      "inputs": [],
      "name": "protocolFeeBps",
      "outputs": [
        {
          "internalType": "uint256",
          "name": "",
          "type": "uint256"
        }
      ],
      "stateMutability": "view",
      "type": "function"
    },
    {
      "inputs": [
        {
          "internalType": "uint256",
          "name": "amountOut",
          "type": "uint256"
        }
      ],
      "name": "quoteBuyExactTokens",
      "outputs": [
        {
          "internalType": "uint256",
          "name": "",
          "type": "uint256"
        }
      ],
      "stateMutability": "view",
      "type": "function"
    },
    {
      "inputs": [
        {
          "internalType": "uint256",
          "name": "amountIn",
          "type": "uint256"
        }
      ],
      "name": "quoteSellExactTokens",
      "outputs": [
        {
          "internalType": "uint256",
          "name": "",
          "type": "uint256"
        }
      ],
      "stateMutability": "view",
      "type": "function"
    },
    {
      "inputs": [],
      "name": "renounceOwnership",
      "outputs": [],
      "stateMutability": "nonpayable",
      "type": "function"
    },
    {
      "inputs": [],
      "name": "router",
      "outputs": [
        {
          "internalType": "contract IPancakeRouter02",
          "name": "",
          "type": "address"
        }
      ],
      "stateMutability": "view",
      "type": "function"
    },
    {
      "inputs": [
        {
          "internalType": "uint256",
          "name": "amountIn",
          "type": "uint256"
        },
        {
          "internalType": "uint256",
          "name": "minPayout",
          "type": "uint256"
        }
      ],
      "name": "sellExactTokens",
      "outputs": [
        {
          "internalType": "uint256",
          "name": "payout",
          "type": "uint256"
        }
      ],
      "stateMutability": "nonpayable",
      "type": "function"
    },
    {
      "inputs": [],
      "name": "sold",
      "outputs": [
        {
          "internalType": "uint256",
          "name": "",
          "type": "uint256"
        }
      ],
      "stateMutability": "view",
      "type": "function"
    },
    {
      "inputs": [],
      "name": "token",
      "outputs": [
        {
          "internalType": "contract LaunchToken",
          "name": "",
          "type": "address"
        }
      ],
      "stateMutability": "view",
      "type": "function"
    },
    {
      "inputs": [],
      "name": "totalSupply",
      "outputs": [
        {
          "internalType": "uint256",
          "name": "",
          "type": "uint256"
        }
      ],
      "stateMutability": "view",
      "type": "function"
    },
    {
      "inputs": [
        {
          "internalType": "address",
          "name": "newOwner",
          "type": "address"
        }
      ],
      "name": "transferOwnership",
      "outputs": [],
      "stateMutability": "nonpayable",
      "type": "function"
    },
    {
      "stateMutability": "payable",
      "type": "receive"
    }
  ],
  "bytecode": "0x6102606040523480156200001257600080fd5b506040516200328c3803806200328c8339810160408190526200003591620006b8565b6101c081015160016000556001600160a01b0381166200007057604051631e4fbdf760e01b8152600060048201526024015b60405180910390fd5b6200007b8162000542565b506000816060015111620000c35760405162461bcd60e51b815260206004820152600e60248201526d696e76616c696420737570706c7960901b604482015260640162000067565b60008160800151118015620000dd57506127108160800151105b620001175760405162461bcd60e51b815260206004820152600960248201526863757276652062707360b81b604482015260640162000067565b6127108160a00151826080015162000130919062000854565b1115620001735760405162461bcd60e51b815260206004820152601060248201526f706f7274696f6e206f766572666c6f7760801b604482015260640162000067565b60008160c0015111620001b65760405162461bcd60e51b815260206004820152600a6024820152697072696365207a65726f60b01b604482015260640162000067565b60008160e0015111620001f95760405162461bcd60e51b815260206004820152600a602482015269736c6f7065207a65726f60b01b604482015260640162000067565b6101608101516001600160a01b0316620002445760405162461bcd60e51b815260206004820152600b60248201526a726f75746572207a65726f60a81b604482015260640162000067565b6101c08101516001600160a01b0316620002905760405162461bcd60e51b815260206004820152600c60248201526b63726561746f72207a65726f60a01b604482015260640162000067565b6127108161012001511115620002d95760405162461bcd60e51b815260206004820152600d60248201526c6c69717569646974792062707360981b604482015260640162000067565b6127108161014001511115620003215760405162461bcd60e51b815260206004820152600c60248201526b70726f746f636f6c2062707360a01b604482015260640162000067565b604081015160029062000335908262000901565b5060c081015161014090815260e08083015161016052610100808401516101809081526101208501516101a0908152938501516101c0526101e08501516001600160a01b0390811690935292840151821690529082015116156200039f57806101800151620003a6565b806101c001515b6001600160a01b03908116610120526101608201511660c0526060810180516101e0526080820151905161271091620003df91620009cd565b620003eb9190620009e7565b6102005260a08101516060820151612710916200040891620009cd565b620004149190620009e7565b6102208190526102005160608301516200042f919062000a0a565b6200043b919062000a0a565b6102405261022051620004825760405162461bcd60e51b815260206004820152600e60248201526d6c6971756964697479207a65726f60901b604482015260640162000067565b80516020820151606083015160405130906200049e9062000594565b620004ad949392919062000a4e565b604051809103906000f080158015620004ca573d6000803e3d6000fd5b506001600160a01b0316608081905260a081905260608201516040516340c10f1960e01b815230600482015260248101919091526340c10f1990604401600060405180830381600087803b1580156200052257600080fd5b505af115801562000537573d6000803e3d6000fd5b505050505062000a99565b600180546001600160a01b038381166001600160a01b0319831681179093556040519116919082907f8be0079c531659141344cd1fd0a4f28419497f9722a3daafe3b4186f6b6457e090600090a35050565b610e77806200241583390190565b634e487b7160e01b600052604160045260246000fd5b60405161020081016001600160401b0381118282101715620005de57620005de620005a2565b60405290565b60005b8381101562000601578181015183820152602001620005e7565b50506000910152565b600082601f8301126200061c57600080fd5b81516001600160401b0380821115620006395762000639620005a2565b604051601f8301601f19908116603f01168101908282118183101715620006645762000664620005a2565b816040528381528660208588010111156200067e57600080fd5b62000691846020830160208901620005e4565b9695505050505050565b80516001600160a01b0381168114620006b357600080fd5b919050565b600060208284031215620006cb57600080fd5b81516001600160401b0380821115620006e357600080fd5b908301906102008286031215620006f957600080fd5b62000703620005b8565b8251828111156200071357600080fd5b62000721878286016200060a565b8252506020830151828111156200073757600080fd5b62000745878286016200060a565b6020830152506040830151828111156200075e57600080fd5b6200076c878286016200060a565b604083015250606083810151908201526080808401519082015260a0808401519082015260c0808401519082015260e080840151908201526101008084015190820152610120808401519082015261014080840151908201526101609150620007d78284016200069b565b828201526101809150620007ed8284016200069b565b828201526101a09150620008038284016200069b565b828201526101c09150620008198284016200069b565b828201526101e091506200082f8284016200069b565b91810191909152949350505050565b634e487b7160e01b600052601160045260246000fd5b808201808211156200086a576200086a6200083e565b92915050565b600181811c908216806200088557607f821691505b602082108103620008a657634e487b7160e01b600052602260045260246000fd5b50919050565b601f821115620008fc576000816000526020600020601f850160051c81016020861015620008d75750805b601f850160051c820191505b81811015620008f857828155600101620008e3565b5050505b505050565b81516001600160401b038111156200091d576200091d620005a2565b62000935816200092e845462000870565b84620008ac565b602080601f8311600181146200096d5760008415620009545750858301515b600019600386901b1c1916600185901b178555620008f8565b600085815260208120601f198616915b828110156200099e578886015182559484019460019091019084016200097d565b5085821015620009bd5787850151600019600388901b60f8161c191681555b5050505050600190811b01905550565b80820281158282048414176200086a576200086a6200083e565b60008262000a0557634e487b7160e01b600052601260045260246000fd5b500490565b818103818111156200086a576200086a6200083e565b6000815180845262000a3a816020860160208601620005e4565b601f01601f19169290920160200192915050565b60808152600062000a63608083018762000a20565b828103602084015262000a77818762000a20565b604084019590955250506001600160a01b039190911660609091015292915050565b60805160a05160c05160e05161010051610120516101405161016051610180516101a0516101c0516101e05161020051610220516102405161181362000c02600039600081816103af01528181610f910152610ff70152600081816103470152610c8901526000818161028901528181610ae701528181610bb50152610edd015260006102090152600081816102bd015261102601526000818161058f0152610c5601526000818161049e0152610be00152600081816103e301528181610a4701526111cc01526000818161055b01528181610a7d015261119301526000818161023d0152610d6601526000818161037b015281816110640152611099015260006105270152600081816105e301528181610ceb01528181610d1a0152610e58015260008181610839015281816109b201528181610cc901528181610e3601528181610eaf0152610fd401526000818161061701528181610d420152610f2a01526118136000f3fe6080604052600436106101a05760003560e01c806365161831116100ec578063b6013cef1161008a578063c9f62af211610064578063c9f62af21461057d578063f2fde38b146105b1578063f887ea40146105d1578063fc0c546a1461060557600080fd5b8063b6013cef146104e0578063c45a015514610515578063c7876ea41461054957600080fd5b80638da5cb5b116100c65780638da5cb5b146104595780639d1b464a14610477578063a4b20f131461048c578063af769545146104c057600080fd5b80636516183114610405578063715018a6146104185780638091f3bf1461042f57600080fd5b8063365d57a411610159578063381562c211610133578063381562c2146103355780634690484014610369578063543546291461039d57806354e42f7e146103d157600080fd5b8063365d57a4146102df578063366ad250146102f55780633794f6be1461031557600080fd5b806302c7e7af146101ac57806303ee438c146101d557806318160ddd146101f75780631f0c57fc1461022b5780632138a4c01461027757806335659fb8146102ab57600080fd5b366101a757005b600080fd5b3480156101b857600080fd5b506101c260035481565b6040519081526020015b60405180910390f35b3480156101e157600080fd5b506101ea610639565b6040516101cc9190611637565b34801561020357600080fd5b506101c27f000000000000000000000000000000000000000000000000000000000000000081565b34801561023757600080fd5b5061025f7f000000000000000000000000000000000000000000000000000000000000000081565b6040516001600160a01b0390911681526020016101cc565b34801561028357600080fd5b506101c27f000000000000000000000000000000000000000000000000000000000000000081565b3480156102b757600080fd5b506101c27f000000000000000000000000000000000000000000000000000000000000000081565b3480156102eb57600080fd5b506101c260055481565b34801561030157600080fd5b506101c2610310366004611686565b6106c7565b34801561032157600080fd5b506101c261033036600461169f565b61077d565b34801561034157600080fd5b506101c27f000000000000000000000000000000000000000000000000000000000000000081565b34801561037557600080fd5b5061025f7f000000000000000000000000000000000000000000000000000000000000000081565b3480156103a957600080fd5b506101c27f000000000000000000000000000000000000000000000000000000000000000081565b3480156103dd57600080fd5b506101c27f000000000000000000000000000000000000000000000000000000000000000081565b6101c261041336600461169f565b6108b1565b34801561042457600080fd5b5061042d610a2c565b005b34801561043b57600080fd5b506004546104499060ff1681565b60405190151581526020016101cc565b34801561046557600080fd5b506001546001600160a01b031661025f565b34801561048357600080fd5b506101c2610a40565b34801561049857600080fd5b506101c27f000000000000000000000000000000000000000000000000000000000000000081565b3480156104cc57600080fd5b506101c26104db366004611686565b610aa6565b3480156104ec57600080fd5b506105006104fb36600461169f565b610b69565b604080519283526020830191909152016101cc565b34801561052157600080fd5b5061025f7f000000000000000000000000000000000000000000000000000000000000000081565b34801561055557600080fd5b506101c27f000000000000000000000000000000000000000000000000000000000000000081565b34801561058957600080fd5b506101c27f000000000000000000000000000000000000000000000000000000000000000081565b3480156105bd57600080fd5b5061042d6105cc3660046116c1565b61114c565b3480156105dd57600080fd5b5061025f7f000000000000000000000000000000000000000000000000000000000000000081565b34801561061157600080fd5b5061025f7f000000000000000000000000000000000000000000000000000000000000000081565b60028054610646906116ea565b80601f0160208091040260200160405190810160405280929190818152602001828054610672906116ea565b80156106bf5780601f10610694576101008083540402835291602001916106bf565b820191906000526020600020905b8154815290600101906020018083116106a257829003601f168201915b505050505081565b600080821161070b5760405162461bcd60e51b815260206004820152600b60248201526a1e995c9bc8185b5bdd5b9d60aa1b60448201526064015b60405180910390fd5b60035482111561074c5760405162461bcd60e51b815260206004820152600c60248201526b195e18d959591cc81cdbdb1960a21b6044820152606401610702565b6107628260035461075d919061173a565b61118a565b61076d60035461118a565b610777919061173a565b92915050565b6000610787611224565b60045460ff16156107ce5760405162461bcd60e51b815260206004820152601160248201527018d85b5c185a59db881b185d5b98da1959607a1b6044820152606401610702565b6107d7836106c7565b9050818110156108145760405162461bcd60e51b8152602060048201526008602482015267736c69707061676560c01b6044820152606401610702565b8260036000828254610826919061173a565b9091555061086190506001600160a01b037f00000000000000000000000000000000000000000000000000000000000000001633308661124e565b61086b33826112bb565b604080518481526020810183905233917f2dcf9433d75db0d8b1c172641f85e319ffe4ad22e108a95d1847ceb906e5195d91015b60405180910390a26107776001600055565b60006108bb611224565b60045460ff16156109025760405162461bcd60e51b815260206004820152601160248201527018d85b5c185a59db881b185d5b98da1959607a1b6044820152606401610702565b61090b83610aa6565b9050818111156109485760405162461bcd60e51b8152602060048201526008602482015267736c69707061676560c01b6044820152606401610702565b8034101561098d5760405162461bcd60e51b8152602060048201526012602482015271696e73756666696369656e742076616c756560701b6044820152606401610702565b826003600082825461099f919061174d565b909155506109d990506001600160a01b037f0000000000000000000000000000000000000000000000000000000000000000163385611355565b803411156109f4576109f4336109ef833461173a565b6112bb565b604080518481526020810183905233917f8fafebcaf9d154343dad25669bfa277f4fbacd7ac6b0c4fed522580e040a0f33910161089f565b610a34611386565b610a3e60006113b3565b565b6000610a777f0000000000000000000000000000000000000000000000000000000000000000600354670de0b6b3a7640000611405565b610aa1907f000000000000000000000000000000000000000000000000000000000000000061174d565b905090565b6000808211610ae55760405162461bcd60e51b815260206004820152600b60248201526a1e995c9bc8185b5bdd5b9d60aa1b6044820152606401610702565b7f000000000000000000000000000000000000000000000000000000000000000082600354610b14919061174d565b1115610b4d5760405162461bcd60e51b81526020600482015260086024820152671cdbdb19081bdd5d60c21b6044820152606401610702565b610b5860035461118a565b61076d8360035461075d919061174d565b600080610b74611224565b60045460ff1615610bb35760405162461bcd60e51b8152602060048201526009602482015268199a5b985b1a5e995960ba1b6044820152606401610702565b7f00000000000000000000000000000000000000000000000000000000000000006003541480610c0357507f00000000000000000000000000000000000000000000000000000000000000004710155b610c3b5760405162461bcd60e51b81526020600482015260096024820152681d1a1c995cda1bdb1960ba1b6044820152606401610702565b6004805460ff19166001179055426005556000612710610c7b7f000000000000000000000000000000000000000000000000000000000000000047611760565b610c85919061178d565b90507f00000000000000000000000000000000000000000000000000000000000000008015801590610cb75750600082115b15610ed657610d106001600160a01b037f0000000000000000000000000000000000000000000000000000000000000000167f0000000000000000000000000000000000000000000000000000000000000000836114bb565b6001600160a01b037f00000000000000000000000000000000000000000000000000000000000000001663f305d719837f0000000000000000000000000000000000000000000000000000000000000000848a8a7f0000000000000000000000000000000000000000000000000000000000000000610d914261070861174d565b60405160e089901b6001600160e01b03191681526001600160a01b039687166004820152602481019590955260448501939093526064840191909152909216608482015260a481019190915260c40160606040518083038185885af1158015610dfe573d6000803e3d6000fd5b50505050506040513d601f19601f82011682018060405250810190610e2391906117af565b509094509250610e7e6001600160a01b037f0000000000000000000000000000000000000000000000000000000000000000167f000000000000000000000000000000000000000000000000000000000000000060006114bb565b83811115610ed657610ed6610e9b6001546001600160a01b031690565b610ea5868461173a565b6001600160a01b037f0000000000000000000000000000000000000000000000000000000000000000169190611355565b60006003547f0000000000000000000000000000000000000000000000000000000000000000610f06919061173a565b90508015610f8f57604051632770a7eb60e21b8152306004820152602481018290527f00000000000000000000000000000000000000000000000000000000000000006001600160a01b031690639dc29fac90604401600060405180830381600087803b158015610f7657600080fd5b505af1158015610f8a573d6000803e3d6000fd5b505050505b7f00000000000000000000000000000000000000000000000000000000000000001561101b5761101b610fca6001546001600160a01b031690565b6001600160a01b037f000000000000000000000000000000000000000000000000000000000000000016907f0000000000000000000000000000000000000000000000000000000000000000611355565b47600061271061104b7f000000000000000000000000000000000000000000000000000000000000000084611760565b611055919061178d565b905060008111801561108f57507f00000000000000000000000000000000000000000000000000000000000000006001600160a01b031615155b156110cb576110be7f0000000000000000000000000000000000000000000000000000000000000000826112bb565b6110c8818361173a565b91505b81156110ec576110ec6110e66001546001600160a01b031690565b836112bb565b60408051888152602081018890529081018290526060810183905233907fd286a958d004cd376acc3762fff407f0dd9bf991995fc81a26ff88081f2b7d1b9060800160405180910390a250505050506111456001600055565b9250929050565b611154611386565b6001600160a01b03811661117e57604051631e4fbdf760e01b815260006004820152602401610702565b611187816113b3565b50565b6000806111c0837f0000000000000000000000000000000000000000000000000000000000000000670de0b6b3a7640000611405565b9050828002600061120f7f000000000000000000000000000000000000000000000000000000000000000083670de0b6b3a7640000611200816002611760565b61120a9190611760565b611405565b905061121b818461174d565b95945050505050565b60026000540361124757604051633ee5aeb560e01b815260040160405180910390fd5b6002600055565b6040516001600160a01b0384811660248301528381166044830152606482018390526112b59186918216906323b872dd906084015b604051602081830303815290604052915060e01b6020820180516001600160e01b038381831617835250505050611547565b50505050565b6000826001600160a01b03168260405160006040518083038185875af1925050503d8060008114611308576040519150601f19603f3d011682016040523d82523d6000602084013e61130d565b606091505b50509050806113505760405162461bcd60e51b815260206004820152600f60248201526e1d1c985b9cd9995c8819985a5b1959608a1b6044820152606401610702565b505050565b6040516001600160a01b0383811660248301526044820183905261135091859182169063a9059cbb90606401611283565b6001546001600160a01b03163314610a3e5760405163118cdaa760e01b8152336004820152602401610702565b600180546001600160a01b038381166001600160a01b0319831681179093556040519116919082907f8be0079c531659141344cd1fd0a4f28419497f9722a3daafe3b4186f6b6457e090600090a35050565b600080600061141486866115b8565b91509150816000036114395783818161142f5761142f611777565b04925050506114b4565b8184116114505761145060038515026011186115d6565b6000848688096000868103871696879004966002600389028118808a02820302808a02820302808a02820302808a02820302808a02820302808a02909103029181900381900460010185841190960395909502919093039390930492909217029150505b9392505050565b604080516001600160a01b038416602482015260448082018490528251808303909101815260649091019091526020810180516001600160e01b031663095ea7b360e01b17905261150c84826115e8565b6112b5576040516001600160a01b0384811660248301526000604483015261154191869182169063095ea7b390606401611283565b6112b584825b600080602060008451602086016000885af18061156a576040513d6000823e3d81fd5b50506000513d9150811561158257806001141561158f565b6001600160a01b0384163b155b156112b557604051635274afe760e01b81526001600160a01b0385166004820152602401610702565b60008060001983850993909202808410938190039390930393915050565b634e487b71600052806020526024601cfd5b6000806000806020600086516020880160008a5af192503d9150600051905082801561162d5750811561161e578060011461162d565b6000866001600160a01b03163b115b9695505050505050565b60006020808352835180602085015260005b8181101561166557858101830151858201604001528201611649565b506000604082860101526040601f19601f8301168501019250505092915050565b60006020828403121561169857600080fd5b5035919050565b600080604083850312156116b257600080fd5b50508035926020909101359150565b6000602082840312156116d357600080fd5b81356001600160a01b03811681146114b457600080fd5b600181811c908216806116fe57607f821691505b60208210810361171e57634e487b7160e01b600052602260045260246000fd5b50919050565b634e487b7160e01b600052601160045260246000fd5b8181038181111561077757610777611724565b8082018082111561077757610777611724565b808202811582820484141761077757610777611724565b634e487b7160e01b600052601260045260246000fd5b6000826117aa57634e487b7160e01b600052601260045260246000fd5b500490565b6000806000606084860312156117c457600080fd5b835192506020840151915060408401519050925092509256fea2646970667358221220f924e046631b1770fe0db773f35de73a3e3c3bdf2d1f4dda326da262f19fb3e764736f6c6343000818003360a06040523480156200001157600080fd5b5060405162000e7738038062000e77833981016040819052620000349162000242565b808484600362000045838262000368565b50600462000054828262000368565b5050506001600160a01b0381166200008757604051631e4fbdf760e01b8152600060048201526024015b60405180910390fd5b620000928162000128565b5060008211620000d35760405162461bcd60e51b815260206004820152600b60248201526a636170206973207a65726f60a81b60448201526064016200007e565b6001600160a01b0381166200011b5760405162461bcd60e51b815260206004820152600d60248201526c6f776e6572206973207a65726f60981b60448201526064016200007e565b5060805250620004349050565b600580546001600160a01b038381166001600160a01b0319831681179093556040519116919082907f8be0079c531659141344cd1fd0a4f28419497f9722a3daafe3b4186f6b6457e090600090a35050565b634e487b7160e01b600052604160045260246000fd5b600082601f830112620001a257600080fd5b81516001600160401b0380821115620001bf57620001bf6200017a565b604051601f8301601f19908116603f01168101908282118183101715620001ea57620001ea6200017a565b81604052838152602092508660208588010111156200020857600080fd5b600091505b838210156200022c57858201830151818301840152908201906200020d565b6000602085830101528094505050505092915050565b600080600080608085870312156200025957600080fd5b84516001600160401b03808211156200027157600080fd5b6200027f8883890162000190565b955060208701519150808211156200029657600080fd5b50620002a58782880162000190565b60408701516060880151919550935090506001600160a01b0381168114620002cc57600080fd5b939692955090935050565b600181811c90821680620002ec57607f821691505b6020821081036200030d57634e487b7160e01b600052602260045260246000fd5b50919050565b601f82111562000363576000816000526020600020601f850160051c810160208610156200033e5750805b601f850160051c820191505b818110156200035f578281556001016200034a565b5050505b505050565b81516001600160401b038111156200038457620003846200017a565b6200039c81620003958454620002d7565b8462000313565b602080601f831160018114620003d45760008415620003bb5750858301515b600019600386901b1c1916600185901b1785556200035f565b600085815260208120601f198616915b828110156200040557888601518255948401946001909101908401620003e4565b5085821015620004245787850151600019600388901b60f8161c191681555b5050505050600190811b01905550565b608051610a20620004576000396000818161017401526103900152610a206000f3fe608060405234801561001057600080fd5b50600436106100f55760003560e01c806370a08231116100975780639dc29fac116100665780639dc29fac146101ff578063a9059cbb14610212578063dd62ed3e14610225578063f2fde38b1461025e57600080fd5b806370a08231146101ab578063715018a6146101d45780638da5cb5b146101dc57806395d89b41146101f757600080fd5b806323b872dd116100d357806323b872dd1461014d578063313ce56714610160578063355274ea1461016f57806340c10f191461019657600080fd5b806306fdde03146100fa578063095ea7b31461011857806318160ddd1461013b575b600080fd5b610102610271565b60405161010f9190610869565b60405180910390f35b61012b6101263660046108d4565b610303565b604051901515815260200161010f565b6002545b60405190815260200161010f565b61012b61015b3660046108fe565b61031d565b6040516012815260200161010f565b61013f7f000000000000000000000000000000000000000000000000000000000000000081565b6101a96101a43660046108d4565b610341565b005b61013f6101b936600461093a565b6001600160a01b031660009081526020819052604090205490565b6101a961040e565b6005546040516001600160a01b03909116815260200161010f565b610102610422565b6101a961020d3660046108d4565b610431565b61012b6102203660046108d4565b610443565b61013f61023336600461095c565b6001600160a01b03918216600090815260016020908152604080832093909416825291909152205490565b6101a961026c36600461093a565b610451565b6060600380546102809061098f565b80601f01602080910402602001604051908101604052809291908181526020018280546102ac9061098f565b80156102f95780601f106102ce576101008083540402835291602001916102f9565b820191906000526020600020905b8154815290600101906020018083116102dc57829003601f168201915b5050505050905090565b60003361031181858561048f565b60019150505b92915050565b60003361032b8582856104a1565b610336858585610520565b506001949350505050565b61034961057f565b6001600160a01b03821661038e5760405162461bcd60e51b8152602060048201526007602482015266746f207a65726f60c81b60448201526064015b60405180910390fd5b7f0000000000000000000000000000000000000000000000000000000000000000816103b960025490565b6103c391906109c9565b11156104005760405162461bcd60e51b815260206004820152600c60248201526b18d85c08195e18d95959195960a21b6044820152606401610385565b61040a82826105ac565b5050565b61041661057f565b61042060006105e2565b565b6060600480546102809061098f565b61043961057f565b61040a8282610634565b600033610311818585610520565b61045961057f565b6001600160a01b03811661048357604051631e4fbdf760e01b815260006004820152602401610385565b61048c816105e2565b50565b61049c838383600161066a565b505050565b6001600160a01b0383811660009081526001602090815260408083209386168352929052205460001981101561051a578181101561050b57604051637dc7a0d960e11b81526001600160a01b03841660048201526024810182905260448101839052606401610385565b61051a8484848403600061066a565b50505050565b6001600160a01b03831661054a57604051634b637e8f60e11b815260006004820152602401610385565b6001600160a01b0382166105745760405163ec442f0560e01b815260006004820152602401610385565b61049c83838361073f565b6005546001600160a01b031633146104205760405163118cdaa760e01b8152336004820152602401610385565b6001600160a01b0382166105d65760405163ec442f0560e01b815260006004820152602401610385565b61040a6000838361073f565b600580546001600160a01b038381166001600160a01b0319831681179093556040519116919082907f8be0079c531659141344cd1fd0a4f28419497f9722a3daafe3b4186f6b6457e090600090a35050565b6001600160a01b03821661065e57604051634b637e8f60e11b815260006004820152602401610385565b61040a8260008361073f565b6001600160a01b0384166106945760405163e602df0560e01b815260006004820152602401610385565b6001600160a01b0383166106be57604051634a1406b160e11b815260006004820152602401610385565b6001600160a01b038085166000908152600160209081526040808320938716835292905220829055801561051a57826001600160a01b0316846001600160a01b03167f8c5be1e5ebec7d5bd14f71427d1e84f3dd0314c0f7b2291e5b200ac8c7c3b9258460405161073191815260200190565b60405180910390a350505050565b6001600160a01b03831661076a57806002600082825461075f91906109c9565b909155506107dc9050565b6001600160a01b038316600090815260208190526040902054818110156107bd5760405163391434e360e21b81526001600160a01b03851660048201526024810182905260448101839052606401610385565b6001600160a01b03841660009081526020819052604090209082900390555b6001600160a01b0382166107f857600280548290039055610817565b6001600160a01b03821660009081526020819052604090208054820190555b816001600160a01b0316836001600160a01b03167fddf252ad1be2c89b69c2b068fc378daa952ba7f163c4a11628f55a4df523b3ef8360405161085c91815260200190565b60405180910390a3505050565b60006020808352835180602085015260005b818110156108975785810183015185820160400152820161087b565b506000604082860101526040601f19601f8301168501019250505092915050565b80356001600160a01b03811681146108cf57600080fd5b919050565b600080604083850312156108e757600080fd5b6108f0836108b8565b946020939093013593505050565b60008060006060848603121561091357600080fd5b61091c846108b8565b925061092a602085016108b8565b9150604084013590509250925092565b60006020828403121561094c57600080fd5b610955826108b8565b9392505050565b6000806040838503121561096f57600080fd5b610978836108b8565b9150610986602084016108b8565b90509250929050565b600181811c908216806109a357607f821691505b6020821081036109c357634e487b7160e01b600052602260045260246000fd5b50919050565b8082018082111561031757634e487b7160e01b600052601160045260246000fdfea26469706673582212205a82e6b6af7454e016e80cce03bf337e4928af6238b14be6e485ac65466a6d2564736f6c63430008180033",
  "linkReferences": {},
  "deployedLinkReferences": {}
}