{
  "_format": "hh-sol-artifact-1",
  "contractName": "LaunchCampaign",
  "sourceName": "contracts/LaunchCampaign.sol",
  "abi": [
    {
      "inputs": [],
      "stateMutability": "nonpayable",
      "type": "constructor"
    },
    {
      "inputs": [
        {
          "internalType": "address",
          "name": "owner",
          "type": "address"
        }
      ],
      "name": "OwnableInvalidOwner",
      "type": "error"
    },
    {
      "inputs": [
        {
          "internalType": "address",
          "name": "account",
          "type": "address"
        }
      ],
      "name": "OwnableUnauthorizedAccount",
      "type": "error"
    },
    {
      "inputs": [],
      "name": "ReentrancyGuardReentrantCall",
      "type": "error"
    },
    {
      "inputs": [
        {
          "internalType": "address",
          "name": "token",
          "type": "address"
        }
      ],
      "name": "SafeERC20FailedOperation",
      "type": "error"
    },
    {
      "anonymous": false,
      "inputs": [
        {
          "indexed": true,
          "internalType": "address",
          "name": "caller",
          "type": "address"
        },
        {
          "indexed": false,
          "internalType": "uint256",
          "name": "liquidityTokens",
          "type": "uint256"
        },
        {
          "indexed": false,
          "internalType": "uint256",
          "name": "liquidityBnb",
          "type": "uint256"
        },
        {
          "indexed": false,
          "internalType": "uint256",
          "name": "protocolFee",
          "type": "uint256"
        },
        {
          "indexed": false,
          "internalType": "uint256",
          "name": "creatorPayout",
          "type": "uint256"
        }
      ],
      "name": "CampaignFinalized",
      "type": "event"
    },
    {
      "anonymous": false,
      "inputs": [
        {
          "indexed": true,
          "internalType": "address",
          "name": "beneficiary",
          "type": "address"
        },
        {
          "indexed": false,
          "internalType": "uint256",
          "name": "amount",
          "type": "uint256"
        }
      ],
      "name": "NativeClaimed",
      "type": "event"
    },
    {
      "anonymous": false,
      "inputs": [
        {
          "indexed": true,
          "internalType": "address",
          "name": "beneficiary",
          "type": "address"
        },
        {
          "indexed": false,
          "internalType": "uint256",
          "name": "amount",
          "type": "uint256"
        }
      ],
      "name": "NativeEscrowed",
      "type": "event"
    },
    {
      "anonymous": false,
      "inputs": [
        {
          "indexed": true,
          "internalType": "address",
          "name": "previousOwner",
          "type": "address"
        },
        {
          "indexed": true,
          "internalType": "address",
          "name": "newOwner",
          "type": "address"
        }
      ],
      "name": "OwnershipTransferred",
      "type": "event"
    },
    {
      "anonymous": false,
      "inputs": [
        {
          "indexed": true,
          "internalType": "address",
          "name": "buyer",
          "type": "address"
        },
        {
          "indexed": false,
          "internalType": "uint256",
          "name": "amountOut",
          "type": "uint256"
        },
        {
          "indexed": false,
          "internalType": "uint256",
          "name": "cost",
          "type": "uint256"
        }
      ],
      "name": "TokensPurchased",
      "type": "event"
    },
    {
      "anonymous": false,
      "inputs": [
        {
          "indexed": true,
          "internalType": "address",
          "name": "seller",
          "type": "address"
        },
        {
          "indexed": false,
          "internalType": "uint256",
          "name": "amountIn",
          "type": "uint256"
        },
        {
          "indexed": false,
          "internalType": "uint256",
          "name": "payout",
          "type": "uint256"
        }
      ],
      "name": "TokensSold",
      "type": "event"
    },
    {
      "inputs": [],
      "name": "basePrice",
      "outputs": [
        {
          "internalType": "uint256",
          "name": "",
          "type": "uint256"
        }
      ],
      "stateMutability": "view",
      "type": "function"
    },
    {
      "inputs": [
        {
          "internalType": "uint256",
          "name": "minTokensOut",
          "type": "uint256"
        }
      ],
      "name": "buyExactBnb",
      "outputs": [
        {
          "internalType": "uint256",
          "name": "tokensOut",
          "type": "uint256"
        },
        {
          "internalType": "uint256",
          "name": "totalSpent",
          "type": "uint256"
        }
      ],
      "stateMutability": "payable",
      "type": "function"
    },
    {
      "inputs": [
        {
          "internalType": "address",
          "name": "recipient",
          "type": "address"
        },
        {
          "internalType": "uint256",
          "name": "minTokensOut",
          "type": "uint256"
        }
      ],
      "name": "buyExactBnbFor",
      "outputs": [
        {
          "internalType": "uint256",
          "name": "tokensOut",
          "type": "uint256"
        },
        {
          "internalType": "uint256",
          "name": "totalSpent",
          "type": "uint256"
        }
      ],
      "stateMutability": "payable",
      "type": "function"
    },
    {
      "inputs": [
        {
          "internalType": "uint256",
          "name": "amountOut",
          "type": "uint256"
        },
        {
          "internalType": "uint256",
          "name": "maxCost",
          "type": "uint256"
        }
      ],
      "name": "buyExactTokens",
      "outputs": [
        {
          "internalType": "uint256",
          "name": "cost",
          "type": "uint256"
        }
      ],
      "stateMutability": "payable",
      "type": "function"
    },
    {
      "inputs": [
        {
          "internalType": "address",
          "name": "recipient",
          "type": "address"
        },
        {
          "internalType": "uint256",
          "name": "amountOut",
          "type": "uint256"
        },
        {
          "internalType": "uint256",
          "name": "maxCost",
          "type": "uint256"
        }
      ],
      "name": "buyExactTokensFor",
      "outputs": [
        {
          "internalType": "uint256",
          "name": "total",
          "type": "uint256"
        }
      ],
      "stateMutability": "payable",
      "type": "function"
    },
    {
      "inputs": [],
      "name": "buyersCount",
      "outputs": [
        {
          "internalType": "uint256",
          "name": "",
          "type": "uint256"
        }
      ],
      "stateMutability": "view",
      "type": "function"
    },
    {
      "inputs": [],
      "name": "claimPendingNative",
      "outputs": [
        {
          "internalType": "uint256",
          "name": "amount",
          "type": "uint256"
        }
      ],
      "stateMutability": "nonpayable",
      "type": "function"
    },
    {
      "inputs": [],
      "name": "creatorReserve",
      "outputs": [
        {
          "internalType": "uint256",
          "name": "",
          "type": "uint256"
        }
      ],
      "stateMutability": "view",
      "type": "function"
    },
    {
      "inputs": [],
      "name": "currentPrice",
      "outputs": [
        {
          "internalType": "uint256",
          "name": "",
          "type": "uint256"
        }
      ],
      "stateMutability": "view",
      "type": "function"
    },
    {
      "inputs": [],
      "name": "curveSupply",
      "outputs": [
        {
          "internalType": "uint256",
          "name": "",
          "type": "uint256"
        }
      ],
      "stateMutability": "view",
      "type": "function"
    },
    {
      "inputs": [],
      "name": "extraLink",
      "outputs": [
        {
          "internalType": "string",
          "name": "",
          "type": "string"
        }
      ],
      "stateMutability": "view",
      "type": "function"
    },
    {
      "inputs": [],
      "name": "factory",
      "outputs": [
        {
          "internalType": "address",
          "name": "",
          "type": "address"
        }
      ],
      "stateMutability": "view",
      "type": "function"
    },
    {
      "inputs": [],
      "name": "feeRecipient",
      "outputs": [
        {
          "internalType": "address",
          "name": "",
          "type": "address"
        }
      ],
      "stateMutability": "view",
      "type": "function"
    },
    {
      "inputs": [
        {
          "internalType": "uint256",
          "name": "minTokens",
          "type": "uint256"
        },
        {
          "internalType": "uint256",
          "name": "minBnb",
          "type": "uint256"
        }
      ],
      "name": "finalize",
      "outputs": [
        {
          "internalType": "uint256",
          "name": "usedTokens",
          "type": "uint256"
        },
        {
          "internalType": "uint256",
          "name": "usedBnb",
          "type": "uint256"
        }
      ],
      "stateMutability": "nonpayable",
      "type": "function"
    },
    {
      "inputs": [],
      "name": "finalizedAt",
      "outputs": [
        {
          "internalType": "uint256",
          "name": "",
          "type": "uint256"
        }
      ],
      "stateMutability": "view",
      "type": "function"
    },
    {
      "inputs": [],
      "name": "graduationTarget",
      "outputs": [
        {
          "internalType": "uint256",
          "name": "",
          "type": "uint256"
        }
      ],
      "stateMutability": "view",
      "type": "function"
    },
    {
      "inputs": [
        {
          "internalType": "address",
          "name": "",
          "type": "address"
        }
      ],
      "name": "hasBought",
      "outputs": [
        {
          "internalType": "bool",
          "name": "",
          "type": "bool"
        }
      ],
      "stateMutability": "view",
      "type": "function"
    },
    {
      "inputs": [
        {
          "components": [
            {
              "internalType": "string",
              "name": "name",
              "type": "string"
            },
            {
              "internalType": "string",
              "name": "symbol",
              "type": "string"
            },
            {
              "internalType": "string",
              "name": "logoURI",
              "type": "string"
            },
            {
              "internalType": "string",
              "name": "xAccount",
              "type": "string"
            },
            {
              "internalType": "string",
              "name": "website",
              "type": "string"
            },
            {
              "internalType": "string",
              "name": "extraLink",
              "type": "string"
            },
            {
              "internalType": "uint256",
              "name": "totalSupply",
              "type": "uint256"
            },
            {
              "internalType": "uint256",
              "name": "curveBps",
              "type": "uint256"
            },
            {
              "internalType": "uint256",
              "name": "liquidityTokenBps",
              "type": "uint256"
            },
            {
              "internalType": "uint256",
              "name": "basePrice",
              "type": "uint256"
            },
            {
              "internalType": "uint256",
              "name": "priceSlope",
              "type": "uint256"
            },
            {
              "internalType": "uint256",
              "name": "graduationTarget",
              "type": "uint256"
            },
            {
              "internalType": "uint256",
              "name": "liquidityBps",
              "type": "uint256"
            },
            {
              "internalType": "uint256",
              "name": "protocolFeeBps",
              "type": "uint256"
            },
            {
              "internalType": "uint256",
              "name": "leagueFeeBps",
              "type": "uint256"
            },
            {
              "internalType": "address",
              "name": "leagueReceiver",
              "type": "address"
            },
            {
              "internalType": "address",
              "name": "router",
              "type": "address"
            },
            {
              "internalType": "address",
              "name": "lpReceiver",
              "type": "address"
            },
            {
              "internalType": "address",
              "name": "feeRecipient",
              "type": "address"
            },
            {
              "internalType": "address",
              "name": "creator",
              "type": "address"
            },
            {
              "internalType": "address",
              "name": "factory",
              "type": "address"
            }
          ],
          "internalType": "struct LaunchCampaign.InitParams",
          "name": "params",
          "type": "tuple"
        }
      ],
      "name": "initialize",
      "outputs": [],
      "stateMutability": "nonpayable",
      "type": "function"
    },
    {
      "inputs": [],
      "name": "launched",
      "outputs": [
        {
          "internalType": "bool",
          "name": "",
          "type": "bool"
        }
      ],
      "stateMutability": "view",
      "type": "function"
    },
    {
      "inputs": [],
      "name": "leagueFeeBps",
      "outputs": [
        {
          "internalType": "uint256",
          "name": "",
          "type": "uint256"
        }
      ],
      "stateMutability": "view",
      "type": "function"
    },
    {
      "inputs": [],
      "name": "leagueReceiver",
      "outputs": [
        {
          "internalType": "address",
          "name": "",
          "type": "address"
        }
      ],
      "stateMutability": "view",
      "type": "function"
    },
    {
      "inputs": [],
      "name": "liquidityBps",
      "outputs": [
        {
          "internalType": "uint256",
          "name": "",
          "type": "uint256"
        }
      ],
      "stateMutability": "view",
      "type": "function"
    },
    {
      "inputs": [],
      "name": "liquiditySupply",
      "outputs": [
        {
          "internalType": "uint256",
          "name": "",
          "type": "uint256"
        }
      ],
      "stateMutability": "view",
      "type": "function"
    },
    {
      "inputs": [],
      "name": "logoURI",
      "outputs": [
        {
          "internalType": "string",
          "name": "",
          "type": "string"
        }
      ],
      "stateMutability": "view",
      "type": "function"
    },
    {
      "inputs": [],
      "name": "lpReceiver",
      "outputs": [
        {
          "internalType": "address",
          "name": "",
          "type": "address"
        }
      ],
      "stateMutability": "view",
      "type": "function"
    },
    {
      "inputs": [],
      "name": "owner",
      "outputs": [
        {
          "internalType": "address",
          "name": "",
          "type": "address"
        }
      ],
      "stateMutability": "view",
      "type": "function"
    },
    {
      "inputs": [
        {
          "internalType": "address",
          "name": "",
          "type": "address"
        }
      ],
      "name": "pendingNative",
      "outputs": [
        {
          "internalType": "uint256",
          "name": "",
          "type": "uint256"
        }
      ],
      "stateMutability": "view",
      "type": "function"
    },
    {
      "inputs": [],
      "name": "priceSlope",
      "outputs": [
        {
          "internalType": "uint256",
          "name": "",
          "type": "uint256"
        }
      ],
      "stateMutability": "view",
      "type": "function"
    },
    {
      "inputs": [],
      "name": "protocolFeeBps",
      "outputs": [
        {
          "internalType": "uint256",
          "name": "",
          "type": "uint256"
        }
      ],
      "stateMutability": "view",
      "type": "function"
    },
    {
      "inputs": [
        {
          "internalType": "uint256",
          "name": "totalInWei",
          "type": "uint256"
        }
      ],
      "name": "quoteBuyExactBnb",
      "outputs": [
        {
          "internalType": "uint256",
          "name": "tokensOut",
          "type": "uint256"
        },
        {
          "internalType": "uint256",
          "name": "totalCostWei",
          "type": "uint256"
        },
        {
          "internalType": "uint256",
          "name": "feeWei",
          "type": "uint256"
        }
      ],
      "stateMutability": "view",
      "type": "function"
    },
    {
      "inputs": [
        {
          "internalType": "uint256",
          "name": "amountOut",
          "type": "uint256"
        }
      ],
      "name": "quoteBuyExactTokens",
      "outputs": [
        {
          "internalType": "uint256",
          "name": "",
          "type": "uint256"
        }
      ],
      "stateMutability": "view",
      "type": "function"
    },
    {
      "inputs": [
        {
          "internalType": "uint256",
          "name": "amountIn",
          "type": "uint256"
        }
      ],
      "name": "quoteSellExactTokens",
      "outputs": [
        {
          "internalType": "uint256",
          "name": "",
          "type": "uint256"
        }
      ],
      "stateMutability": "view",
      "type": "function"
    },
    {
      "inputs": [],
      "name": "renounceOwnership",
      "outputs": [],
      "stateMutability": "nonpayable",
      "type": "function"
    },
    {
      "inputs": [],
      "name": "router",
      "outputs": [
        {
          "internalType": "contract IPancakeRouter02",
          "name": "",
          "type": "address"
        }
      ],
      "stateMutability": "view",
      "type": "function"
    },
    {
      "inputs": [
        {
          "internalType": "uint256",
          "name": "amountIn",
          "type": "uint256"
        },
        {
          "internalType": "uint256",
          "name": "minPayout",
          "type": "uint256"
        }
      ],
      "name": "sellExactTokens",
      "outputs": [
        {
          "internalType": "uint256",
          "name": "payout",
          "type": "uint256"
        }
      ],
      "stateMutability": "nonpayable",
      "type": "function"
    },
    {
      "inputs": [],
      "name": "sold",
      "outputs": [
        {
          "internalType": "uint256",
          "name": "",
          "type": "uint256"
        }
      ],
      "stateMutability": "view",
      "type": "function"
    },
    {
      "inputs": [],
      "name": "token",
      "outputs": [
        {
          "internalType": "contract LaunchToken",
          "name": "",
          "type": "address"
        }
      ],
      "stateMutability": "view",
      "type": "function"
    },
    {
      "inputs": [],
      "name": "totalBuyVolumeWei",
      "outputs": [
        {
          "internalType": "uint256",
          "name": "",
          "type": "uint256"
        }
      ],
      "stateMutability": "view",
      "type": "function"
    },
    {
      "inputs": [],
      "name": "totalSellVolumeWei",
      "outputs": [
        {
          "internalType": "uint256",
          "name": "",
          "type": "uint256"
        }
      ],
      "stateMutability": "view",
      "type": "function"
    },
    {
      "inputs": [],
      "name": "totalSupply",
      "outputs": [
        {
          "internalType": "uint256",
          "name": "",
          "type": "uint256"
        }
      ],
      "stateMutability": "view",
      "type": "function"
    },
    {
      "inputs": [
        {
          "internalType": "address",
          "name": "newOwner",
          "type": "address"
        }
      ],
      "name": "transferOwnership",
      "outputs": [],
      "stateMutability": "nonpayable",
      "type": "function"
    },
    {
      "inputs": [],
      "name": "website",
      "outputs": [
        {
          "internalType": "string",
          "name": "",
          "type": "string"
        }
      ],
      "stateMutability": "view",
      "type": "function"
    },
    {
      "inputs": [],
      "name": "xAccount",
      "outputs": [
        {
          "internalType": "string",
          "name": "",
          "type": "string"
        }
      ],
      "stateMutability": "view",
      "type": "function"
    },
    {
      "stateMutability": "payable",
      "type": "receive"
    }
  ],
  "bytecode": "0x6080806040523461006b576001600081815581546001600160a01b031981168317835582916001600160a01b03909116907f8be0079c531659141344cd1fd0a4f28419497f9722a3daafe3b4186f6b6457e09080a360ff19601f541617601f5561421c90816100718239f35b600080fdfe60808060405260043610156200001f575b5036156200001d57600080fd5b005b600090813560e01c90816302c7e7af14620028be5750806318160ddd146200289e5780631dd9e2df14620027a75780631f0c57fc146200277c5780632138a4c0146200275c57806335659fb8146200273c578063365d57a4146200271c578063366ad25014620026b75780633794f6be14620024df578063381562c214620024bf57806346904840146200249457806354354629146200247457806354e42f7e146200245457806360068dd8146200241157806365161831146200224a5780636700e332146200221f5780636915712d14620020485780636bb38b281462001f88578063715018a61462001f385780638091f3bf1462001f1357806386f2ece01462001ef357806389f2f0851462001ed35780638da5cb5b1462001ea85780639d1b464a1462001e7b5780639e6ea74d1462001c7e578063a4b20f131462001c5e578063af7695451462001bef578063b6013cef146200164c578063b915d4be1462001616578063ba49a08c14620015f6578063beb0a4161462001559578063bec92898146200151c578063c45a015514620014f1578063c59f5eed14620006fe578063c7876ea414620006de578063c9f62af214620006be578063cd1fc09f146200069e578063dd1a2a391462000601578063ed33da2714620003bd578063f20f3d9014620002e3578063f2fde38b1462000284578063f887ea4014620002595763fc0c546a0362000010573462000256578060031936011262000256576002546040516001600160a01b039091168152602090f35b80fd5b503462000256578060031936011262000256576004546040516001600160a01b039091168152602090f35b5034620002565760203660031901126200025657620002a2620028f8565b620002ac62002fe2565b6001600160a01b03811615620002ca57620002c7906200300f565b80f35b604051631e4fbdf760e01b815260048101839052602490fd5b50346200025657806003193601126200025657604051600b546000826200030a8362002924565b91828252602093600190856001821691826000146200039b57505060011462000357575b506200033d9250038362002991565b62000353604051928284938452830190620029b5565b0390f35b849150600b60005281600020906000915b858310620003825750506200033d9350820101856200032e565b8054838901850152879450869390920191810162000368565b60ff1916858201526200033d95151560051b85010192508791506200032e9050565b5060603660031901126200025657620003d5620028f8565b6005546001600160a01b039060243590620003f4908316331462002c6f565b620003fe62002e28565b818316916200040f83151562002cab565b6200042060ff601854161562002b30565b6200042d82151562002a95565b620004776017546200044f62000444858362002ba9565b601454101562002bb7565b620004706200046962000463868462002ba9565b62003153565b9162003153565b9062002b0c565b620004828162002e4c565b6200048e818362002ba9565b956200049f60443588111562002b71565b620004ad8734101562002bef565b620004bb83601a5462002ba9565b601a55858852601d60205260408820805460ff811615620005ba575b50509360019593600080516020620041f083398151915293604093620005178460209c99620005098260175462002ba9565b601755856003541662002fb5565b62000559575b50508634116200053c575b81519081528688820152a255604051908152f35b620005536200054c883462002b0c565b3362002f62565b62000528565b620005649062002e71565b915080151580620005ac575b62000595575b5080156200051d576200058d916007541662002ee6565b38806200051d565b620005a590836006541662002ee6565b3862000576565b508260065416151562000570565b60019060ff1916179055601c5460018101809111620005ed57601c5583600080516020620041f0833981519152620004d7565b634e487b7160e01b89526011600452602489fd5b50346200025657806003193601126200025657604051600d54600082620006288362002924565b91828252602093600190856001821691826000146200039b5750506001146200065a57506200033d9250038362002991565b849150600d60005281600020906000915b858310620006855750506200033d9350820101856200032e565b805483890185015287945086939092019181016200066b565b503462000256578060031936011262000256576020600854604051908152f35b503462000256578060031936011262000256576020601154604051908152f35b503462000256578060031936011262000256576020600e54604051908152f35b503462000256576003199060203683011262000256576001600160401b036004351162000256576102a080926004353603011262000256576040519182016001600160401b03811183821017620014db576040526004803501356001600160401b038111620014d7576200077a90600436918135010162002a13565b8252600435602401356001600160401b038111620014d757620007a590600436918135010162002a13565b6020830190815290600435604401356001600160401b038111620014d757620007d690600436918135010162002a13565b6040840152600435606401356001600160401b038111620014d7576200080490600436918135010162002a13565b6060840152600435608401356001600160401b038111620014d7576200083290600436918135010162002a13565b608084015260043560a401356001600160401b038111620014d7576200086090600436918135010162002a13565b60a084015260043560c481013560c085015260e481013560e08501526101048101356101008501526101248101356101208501526101448101356101408501526101648101356101608501526101848101356101808501526101a48101356101a08501526101c48101356101c0850152620008df906101e4016200290f565b6101e0840152620008f6610204600435016200290f565b6102008401526200090d610224600435016200290f565b61022084015262000924610244600435016200290f565b6102408401526200093b610264600435016200290f565b61026084015262000952610284600435016200290f565b610280840152601f5460ff8116620014a45760ff1916600117601f5560c0830151156200146e5760e0830151801515908162001461575b50156200143057612710620009a960e08501516101008601519062002ba9565b11620013f85761012083015115620013c6576101408301511562001394576102008301516001600160a01b03161562001361576102608301516001600160a01b0316156200132d5761271061018084015111620012f8576127106101a084015111620012c4576101c08301516101a0840151106200128d576101e08301516001600160a01b031615620012515760408301515115620012215761026083015162000a5c906001600160a01b03166200300f565b604083015180519093906001600160401b03811162000f5d5762000a82600a5462002924565b601f8111620011ce575b506020601f821160011462001155578394958293949262001149575b50508160011b916000199060031b1c191617600a555b606081015180519093906001600160401b038111620011355762000ae4600b5462002924565b601f8111620010e2575b506020601f82116001146200106957849582939495926200105d575b50508160011b916000199060031b1c191617600b555b608082015180519093906001600160401b038111620010495762000b46600c5462002924565b601f811162000ff6575b506020601f821160011462000f7d578293949582939262000f71575b50508160011b916000199060031b1c191617600c555b60a083015180519093906001600160401b03811162000f5d5762000ba8600d5462002924565b601f811162000f0a575b506020601f821160011462000e91578394958293949262000e85575b50508160011b916000199060031b1c191617600d555b610120810151600e55610140810151600f556101608101516010556101808101516011556101a0810151601255610280810151600580546001600160a01b03199081166001600160a01b03938416179091556102408301516006805483169184169190911790556101e0830151600780549092169083161790556101c0820151600855610220820151168062000e7f57506102608101516001600160a01b03165b600980546001600160a01b039283166001600160a01b0319918216179091556102008301516004805491909316911617905560c0810151601381905560e082015162000d119162000d17916127109162000ce0919062002ce9565b048060145561271062000cfe60c08601516101008701519062002ce9565b049283918260155560c086015162002b0c565b62002b0c565b6016551562000e49578051925160c082015160405190949091610f6a80840192906001600160401b0384118585101762000e355786979262000d6f86959362000d7e93620031e68839608085526080850190620029b5565b908382036020850152620029b5565b916040820152606030910152039083f0801562000e2657600280546001600160a01b03198082166001600160a01b0390941693841790925560038054909216908516909217918217905560c0919091015190803b1562000e31576040516340c10f1960e01b8152918391839182908490829062000e0090306004840162002cfd565b03925af1801562000e265762000e135750f35b62000e1e9062002961565b620002565780f35b6040513d84823e3d90fd5b5050fd5b634e487b7160e01b87526041600452602487fd5b60405162461bcd60e51b815260206004820152600e60248201526d6c6971756964697479207a65726f60901b6044820152606490fd5b62000c85565b01519050388062000bce565b600d84526000805160206200419083398151915290845b601f198416811062000ef1575060019394959683601f1981161062000ed7575b505050811b01600d5562000be4565b015160001960f88460031b161c1916905538808062000ec8565b9091602060018192858b01518155019301910162000ea8565b600d845260008051602062004190833981519152601f830160051c81016020841062000f55575b601f830160051c8201811062000f4957505062000bb2565b85815560010162000f31565b508062000f31565b634e487b7160e01b83526041600452602483fd5b01519050388062000b6c565b600c83526000805160206200415083398151915290835b601f198416811062000fdd575060019394959683601f1981161062000fc3575b505050811b01600c5562000b82565b015160001960f88460031b161c1916905538808062000fb4565b9091602060018192858b01518155019301910162000f94565b600c835260008051602062004150833981519152601f830160051c81016020841062001041575b601f830160051c820181106200103557505062000b50565b8481556001016200101d565b50806200101d565b634e487b7160e01b82526041600452602482fd5b01519050388062000b0a565b600b8552600080516020620041d083398151915290855b601f1984168110620010c9575060019394959683601f19811610620010af575b505050811b01600b5562000b20565b015160001960f88460031b161c19169055388080620010a0565b9091602060018192858b01518155019301910162001080565b600b8552600080516020620041d0833981519152601f830160051c8101602084106200112d575b601f830160051c820181106200112157505062000aee565b86815560010162001109565b508062001109565b634e487b7160e01b84526041600452602484fd5b01519050388062000aa8565b600a84526000805160206200417083398151915290845b601f1984168110620011b5575060019394959683601f198116106200119b575b505050811b01600a5562000abe565b015160001960f88460031b161c191690553880806200118c565b9091602060018192858b0151815501930191016200116c565b600a845260008051602062004170833981519152601f830160051c81016020841062001219575b601f830160051c820181106200120d57505062000a8c565b858155600101620011f5565b5080620011f5565b60405162461bcd60e51b81526020600482015260086024820152676c6f676f2075726960c01b6044820152606490fd5b60405162461bcd60e51b81526020600482015260146024820152736c6561677565207265636569766572207a65726f60601b6044820152606490fd5b60405162461bcd60e51b815260206004820152600f60248201526e1b195859dd594f9c1c9bdd1bd8dbdb608a1b6044820152606490fd5b60405162461bcd60e51b815260206004820152600c60248201526b70726f746f636f6c2062707360a01b6044820152606490fd5b60405162461bcd60e51b815260206004820152600d60248201526c6c69717569646974792062707360981b6044820152606490fd5b60405162461bcd60e51b815260206004820152600c60248201526b63726561746f72207a65726f60a01b6044820152606490fd5b60405162461bcd60e51b815260206004820152600b60248201526a726f75746572207a65726f60a81b6044820152606490fd5b60405162461bcd60e51b815260206004820152600a602482015269736c6f7065207a65726f60b01b6044820152606490fd5b60405162461bcd60e51b815260206004820152600a6024820152697072696365207a65726f60b01b6044820152606490fd5b60405162461bcd60e51b815260206004820152601060248201526f706f7274696f6e206f766572666c6f7760801b6044820152606490fd5b60405162461bcd60e51b815260206004820152600960248201526863757276652062707360b81b6044820152606490fd5b6127109150103862000989565b60405162461bcd60e51b815260206004820152600e60248201526d696e76616c696420737570706c7960901b6044820152606490fd5b60405162461bcd60e51b815260206004820152600b60248201526a1a5b9a5d1a585b1a5e995960aa1b6044820152606490fd5b5080fd5b634e487b7160e01b600052604160045260246000fd5b503462000256578060031936011262000256576005546040516001600160a01b039091168152602090f35b50346200025657602036600319011262000256576020906040906001600160a01b0362001548620028f8565b168152601e83522054604051908152f35b50346200025657806003193601126200025657604051600c54600082620015808362002924565b91828252602093600190856001821691826000146200039b575050600114620015b257506200033d9250038362002991565b849150600c60005281600020906000915b858310620015dd5750506200033d9350820101856200032e565b80548389018501528794508693909201918101620015c3565b503462000256578060031936011262000256576020601c54604051908152f35b503462000256576020366003190112620002565760606200163960043562002d18565b9060405192835260208301526040820152f35b503462000256576200165e36620028dc565b6200166862002fe2565b6200167262002e28565b829183916018549160ff831662001bbe5760175460145414801562001bb1575b1562001b80576001620016bc9360ff19161760185542601955476127109384916012549062002ce9565b04928315158062001b6b575b62001b4c575b620016dd476011549062002ce9565b0490601554918215158062001b42575b62001893575b5050505083620017096014546017549062002b0c565b806200181b575b505060165480620017f5575b504780620017d6575b60025485906001600160a01b0316803b15620014d75781906004604051809481936322a3148f60e21b83525af18015620017cb57620017af575b50936001916040958651918683528560208401528783015260608201527fd286a958d004cd376acc3762fff407f0dd9bf991995fc81a26ff88081f2b7d1b60803392a25582519182526020820152f35b620017bb869162002961565b620017c757386200175f565b8480fd5b6040513d88823e3d90fd5b600154620017ef9082906001600160a01b031662002f62565b62001725565b6003546001546200181492916001600160a01b03918216911662002fb5565b386200171c565b6002546001600160a01b031690813b156200188f5782916200185591604051948580948193632770a7eb60e21b8352306004840162002cfd565b03925af1801562001884576200186e575b849062001710565b6200187c9094919462002961565b923862001866565b6040513d87823e3d90fd5b8280fd5b60035460045460405163095ea7b360e01b6020820152959850939650919390926001600160a01b039081169216620018e482620018d589866024840162002cfd565b03601f19810184528362002991565b602089835182850182855af189513d8262001b23575b50501562001ae6575b50506004546002546009546001600160a01b03918216949350918116911642610708810110620005ed5791606094939160c493604051998a96879563f305d71960e01b875260048701528a6024870152604486015260648501526084840152610708420160a48401525af1801562001adb578493859162001a98575b5060035460045460405163095ea7b360e01b60208083019182526001600160a01b039384166024840181905260448085018c905284529597958995909416918a90620019cb8562002975565b84519082855af189513d8262001a79575b50501562001a2f575b505050808211620019f9575b8080620016f3565b60035460015462001a27936001600160a01b0392831693929091169162001a209162002b0c565b9162002fb5565b3880620019f1565b62001a6a62001a70936040519063095ea7b360e01b602083015260248201528a60448201526044815262001a638162002975565b8262003179565b62003179565b388080620019e5565b90915062001a8f5750803b15155b3880620019dc565b60011462001a87565b9350506060833d60601162001ad2575b8162001ab76060938362002991565b8101031262001ace5760208351930151386200197f565b8380fd5b3d915062001aa8565b6040513d86823e3d90fd5b62001a6a62001b1a936040519063095ea7b360e01b602083015260248201528a60448201526044815262001a638162002975565b38808062001903565b90915062001b395750803b15155b3880620018fa565b60011462001b31565b50801515620016ed565b60065462001b659085906001600160a01b031662002ee6565b620016ce565b506006546001600160a01b03161515620016c8565b60405162461bcd60e51b81526020600482015260096024820152681d1a1c995cda1bdb1960ba1b6044820152606490fd5b5047601054111562001692565b60405162461bcd60e51b8152602060048201526009602482015268199a5b985b1a5e995960ba1b6044820152606490fd5b5034620002565760203660031901126200025657602062001c5662001c4460043562001c1d81151562002a95565b6200047062000469620004636017549362001c3d62000444828762002ba9565b8462002ba9565b62001c4f8162002e4c565b9062002ba9565b604051908152f35b503462000256578060031936011262000256576020601054604051908152f35b506040366003190112620002565762001c96620028f8565b6005546001600160a01b039062001cb1908216331462002c6f565b62001cbb62002e28565b80821662001ccb81151562002cab565b62001cdc60ff601854161562002b30565b62001ce73462002d18565b5092909362001cf885151562002a95565b62001d0860243586101562002b71565b62001d3360175462001d1f62000444888362002ba9565b620004706200046962000463898462002ba9565b9062001d3f8262002e4c565b9062001d5962001d50838562002ba9565b96871462002c31565b62001d6783601a5462002ba9565b601a55848852601d60205260408820805460ff81161562001e54575b505091604097939162001da28860019795620005098260175462002ba9565b62001df3575b505083341162001ddd575b600080516020620041f0833981519152868051878152866020820152a25582519182526020820152f35b62001ded6200054c853462002b0c565b62001db3565b62001dfe9062002e71565b91508015158062001e46575b62001e2f575b50801562001da85762001e27916007541662002ee6565b388062001da8565b62001e3f90836006541662002ee6565b3862001e10565b508260065416151562001e0a565b60019060ff1916179055601c5460018101809111620005ed57601c558162001da262001d83565b50346200025657806003193601126200025657602062001c56600e5462001c4f600f546017549062003047565b503462000256578060031936011262000256576001546040516001600160a01b039091168152602090f35b503462000256578060031936011262000256576020601b54604051908152f35b503462000256578060031936011262000256576020601a54604051908152f35b50346200025657806003193601126200025657602060ff601854166040519015158152f35b5034620002565780600319360112620002565762001f5562002fe2565b600180546001600160a01b0319811690915581906001600160a01b0316600080516020620041b08339815191528280a380f35b50346200025657806003193601126200025657604051908082600a549162001fb08362002924565b92838352602094600191866001821691826000146200202457505060011462001fe4575b50506200033d9250038362002991565b90859250600a82528282205b8583106200200b5750506200033d9350820101388062001fd4565b8054838901850152879450869390920191810162001ff0565b92509350506200033d94915060ff191682840152151560051b820101388062001fd4565b50602036600319011262000256576200206062002e28565b6200207160ff601854161562002b30565b6200207c3462002d18565b506200208a82151562002a95565b6200209a60043583101562002b71565b620020b16017546200044f62000444858362002ba9565b620020bc8162002e4c565b90620020d6620020cd838362002ba9565b93841462002c31565b620020e481601a5462002ba9565b601a55338552601d60205260408520805460ff811615620021e6575b505093600191604095620021178660175462002ba9565b601755838060a01b0391620021328733856003541662002fb5565b62002185575b50508234116200216f575b8451848152836020820152600080516020620041f0833981519152863392a25582519182526020820152f35b6200217f6200054c843462002b0c565b62002143565b620021909062002e71565b915080151580620021d8575b620021c1575b5080156200213857620021b9916007541662002ee6565b388062002138565b620021d190836006541662002ee6565b38620021a2565b50826006541615156200219c565b60019060ff1916179055601c54600181018091116200220b57601c5581604062002100565b634e487b7160e01b86526011600452602486fd5b503462000256578060031936011262000256576007546040516001600160a01b039091168152602090f35b506200225636620028dc565b906200226162002e28565b6200227260ff601854161562002b30565b6200227f81151562002a95565b620022aa6017546200229662000444848362002ba9565b620004706200046962000463858462002ba9565b620022b58162002e4c565b90620022d0620022c6838362002ba9565b9485111562002b71565b620022de8434101562002bef565b620022ec81601a5462002ba9565b601a55338552601d60205260408520805460ff811615620023ec575b50509160209491600193620023208360175462002ba9565b601755848060a01b03916200233b8433856003541662002fb5565b6200238b575b505083341162002375575b6040519081528385820152600080516020620041f083398151915260403392a255604051908152f35b620023856200054c853462002b0c565b6200234c565b620023969062002e71565b915080151580620023de575b620023c7575b5080156200234157620023bf916007541662002ee6565b388062002341565b620023d790836006541662002ee6565b38620023a8565b5082600654161515620023a2565b60019060ff1916179055601c54600181018091116200220b57601c5581600162002308565b503462000256576020366003190112620002565760209060ff906040906001600160a01b0362002440620028f8565b168152601d84522054166040519015158152f35b503462000256578060031936011262000256576020600f54604051908152f35b503462000256578060031936011262000256576020601654604051908152f35b503462000256578060031936011262000256576006546040516001600160a01b039091168152602090f35b503462000256578060031936011262000256576020601554604051908152f35b50346200025657620024f136620028dc565b90620024fc62002e28565b6200250d60ff601854161562002b30565b6200251a81151562002a95565b6017546200252b8183111562002ad0565b6200254a6200253a8262003153565b6200047062000463858562002b0c565b9062002576836200255b8462002e4c565b9262000d116200256c858762002b0c565b9788101562002b71565b6017556003546040516323b872dd60e01b6020820152336024820152306044820152606480820186905281526001600160a01b039291831660a082016001600160401b03811183821017620026a35792620025e260209996936001989693620025fe9660405262003179565b6200263b575b50620025f5863362002f62565b601b5462002ba9565b601b5560405190815283858201527f2dcf9433d75db0d8b1c172641f85e319ffe4ad22e108a95d1847ceb906e5195d60403392a255604051908152f35b620026468262002e71565b91508015158062002695575b6200267e575b508062002667575b50620025e8565b62002676916007541662002ee6565b388062002660565b6200268e90836006541662002ee6565b3862002658565b508260065416151562002652565b634e487b7160e01b89526041600452602489fd5b5034620002565760203660031901126200025657602062001c5662002711600435620026e581151562002a95565b620004706200046360175492620026ff8482111562002ad0565b6200270a8462003153565b9362002b0c565b620004708162002e4c565b503462000256578060031936011262000256576020601954604051908152f35b503462000256578060031936011262000256576020601254604051908152f35b503462000256578060031936011262000256576020601454604051908152f35b503462000256578060031936011262000256576009546040516001600160a01b039091168152602090f35b50346200025657806003193601126200025657620027c462002e28565b338152602090601e825260408120549081156200286c57338152601e83528060408120558080808085335af1620027fa62002a60565b501562002838576001906040518381527f7b3fcf6b642a0d537ec94e3e3554737ca883871bc8a5ea348d8ee3a9b9d9656c853392a255604051908152f35b60405162461bcd60e51b815260048101849052600c60248201526b18db185a5b4819985a5b195960a21b6044820152606490fd5b60405162461bcd60e51b815260048101849052600a6024820152696e6f2070656e64696e6760b01b6044820152606490fd5b503462000256578060031936011262000256576020601354604051908152f35b905034620014d75781600319360112620014d7576020906017548152f35b6040906003190112620028f3576004359060243590565b600080fd5b600435906001600160a01b0382168203620028f357565b35906001600160a01b0382168203620028f357565b90600182811c9216801562002956575b60208310146200294057565b634e487b7160e01b600052602260045260246000fd5b91607f169162002934565b6001600160401b038111620014db57604052565b608081019081106001600160401b03821117620014db57604052565b601f909101601f19168101906001600160401b03821190821017620014db57604052565b919082519283825260005b848110620029e2575050826000602080949584010152601f8019910116010190565b602081830181015184830182015201620029c0565b6001600160401b038111620014db57601f01601f191660200190565b81601f82011215620028f35780359062002a2d82620029f7565b9262002a3d604051948562002991565b82845260208383010111620028f357816000926020809301838601378301015290565b3d1562002a90573d9062002a7482620029f7565b9162002a84604051938462002991565b82523d6000602084013e565b606090565b1562002a9d57565b60405162461bcd60e51b815260206004820152600b60248201526a1e995c9bc8185b5bdd5b9d60aa1b6044820152606490fd5b1562002ad857565b60405162461bcd60e51b815260206004820152600c60248201526b195e18d959591cc81cdbdb1960a21b6044820152606490fd5b9190820391821162002b1a57565b634e487b7160e01b600052601160045260246000fd5b1562002b3857565b60405162461bcd60e51b815260206004820152601160248201527018d85b5c185a59db881b185d5b98da1959607a1b6044820152606490fd5b1562002b7957565b60405162461bcd60e51b8152602060048201526008602482015267736c69707061676560c01b6044820152606490fd5b9190820180921162002b1a57565b1562002bbf57565b60405162461bcd60e51b81526020600482015260086024820152671cdbdb19081bdd5d60c21b6044820152606490fd5b1562002bf757565b60405162461bcd60e51b8152602060048201526012602482015271696e73756666696369656e742076616c756560701b6044820152606490fd5b1562002c3957565b60405162461bcd60e51b815260206004820152600e60248201526d0e2eadee8ca40dad2e6dac2e8c6d60931b6044820152606490fd5b1562002c7757565b60405162461bcd60e51b815260206004820152600c60248201526b4f4e4c595f464143544f525960a01b6044820152606490fd5b1562002cb357565b60405162461bcd60e51b815260206004820152600e60248201526d1e995c9bc81c9958da5c1a595b9d60921b6044820152606490fd5b8181029291811591840414171562002b1a57565b6001600160a01b039091168152602081019190915260400190565b90811562002e1e5760ff6018541662002e1e5760145462002d3d601754809262002b0c565b92831562002e1257600093905b81851062002d9b575050821562002d9057806200047062000469620004638662002d749562002ba9565b9062002d8c62002d848362002e4c565b809362002ba9565b9190565b506000915081908190565b909362002da9858262002ba9565b600180820180921162002b1a571c908262002ddc62001c4462002dd162000463868962002ba9565b620004708862003153565b1162002dec5750935b9062002d4a565b945060001981019081111562002de557634e487b7160e01b600052601160045260246000fd5b50600092508291829150565b6000915081908190565b60026000541462002e3a576002600055565b604051633ee5aeb560e01b8152600490fd5b60125490811562002e6a576127109162002e669162002ce9565b0490565b5050600090565b9062002e7d8262002e4c565b91821562002d905762002e97612710916008549062002ce9565b600754919004906001600160a01b031615801562002edd575b62002ed55782811162002ecd575b62002eca818462002b0c565b91565b508162002ebe565b508190600090565b50801562002eb0565b811562002f5e576001600160a01b03169060008080808085875af162002f0b62002a60565b501562002f1757505050565b7f1196ff9c61f6c4d265bb9529d5aa6afceea1fc7646a5c406fcc1dcb61941db15916040828560209452601e84522062002f5382825462002ba9565b9055604051908152a2565b5050565b600080809381935af162002f7562002a60565b501562002f7e57565b60405162461bcd60e51b815260206004820152600f60248201526e1d1c985b9cd9995c8819985a5b1959608a1b6044820152606490fd5b62001a6a62002fe09392620018d560405194859263a9059cbb60e01b60208501526024840162002cfd565b565b6001546001600160a01b0316330362002ff757565b60405163118cdaa760e01b8152336004820152602490fd5b600180546001600160a01b039283166001600160a01b031982168117909255909116600080516020620041b0833981519152600080a3565b9060001981830981830291828083109203918083039214620030bf57670de0b6b3a76400009082821115620030ac577faccb18165bd6fe31ae1cf318dc5b51eee0e1ba569b88cd74c1773b91fac10669940990828211900360ee1b910360121c170290565b634e487b7160005260116020526024601cfd5b5050670de0b6b3a764000091500490565b90600019818309818302918280831092039180830392146200313b576a0c097ce7bc90715b34b9f160251b9082821115620030ac577f356317ffa45f828d2a41175b2aed3a20e7fdd4a4e46cc11944d93b01be7b1711940990828211900360db1b910360251c170290565b50506a0c097ce7bc90715b34b9f160251b9004919050565b620031769062001c4f6200316a600e548362003047565b918002600f54620030d0565b90565b906000602091828151910182855af115620031d9576000513d620031cf57506001600160a01b0381163b155b620031ad5750565b604051635274afe760e01b81526001600160a01b039091166004820152602490fd5b60011415620031a5565b6040513d6000823e3d90fdfe60a060405234620003de5762000f6a803803806200001d81620003e3565b9283398101608082820312620003de5781516001600160401b039190828111620003de57816200004f91850162000409565b6020918285015190848211620003de576200006c91860162000409565b90606060408601519501519060018060a01b0394858316809303620003de578151818111620002de576003908154906001948583811c93168015620003d3575b89841014620003bd578190601f9384811162000367575b5089908483116001146200030057600092620002f4575b505060001982851b1c191690851b1782555b8551928311620002de5760049586548581811c91168015620002d3575b89821014620002be5782811162000273575b50879184116001146200020857938394918492600095620001fc575b50501b92600019911b1c19161782555b8015620001e457600580546001600160a01b03198116831790915560405194167f8be0079c531659141344cd1fd0a4f28419497f9722a3daafe3b4186f6b6457e0600080a38315620001b75783608052604051610aee90816200047c823960805181818161052001526105f30152f35b62461bcd60e51b8352820152600b60248201526a636170206973207a65726f60a81b604482015260649150fd5b604051631e4fbdf760e01b8152600081840152602490fd5b01519350388062000137565b9190601f198416928760005284896000209460005b8b898383106200025b575050501062000240575b50505050811b01825562000147565b01519060f884600019921b161c191690553880808062000231565b8686015189559097019694850194889350016200021d565b87600052886000208380870160051c8201928b8810620002b4575b0160051c019086905b828110620002a75750506200011b565b6000815501869062000297565b925081926200028e565b602288634e487b7160e01b6000525260246000fd5b90607f169062000109565b634e487b7160e01b600052604160045260246000fd5b015190503880620000da565b90879350601f19831691866000528b6000209260005b8d82821062000350575050841162000337575b505050811b018255620000ec565b015160001983871b60f8161c1916905538808062000329565b8385015186558b9790950194938401930162000316565b90915084600052896000208480850160051c8201928c8610620003b3575b918991869594930160051c01915b828110620003a3575050620000c3565b6000815585945089910162000393565b9250819262000385565b634e487b7160e01b600052602260045260246000fd5b92607f1692620000ac565b600080fd5b6040519190601f01601f191682016001600160401b03811183821017620002de57604052565b919080601f84011215620003de5782516001600160401b038111620002de576020906200043f601f8201601f19168301620003e3565b92818452828287010111620003de5760005b8181106200046757508260009394955001015290565b85810183015184820184015282016200045156fe6080604081815260048036101561001557600080fd5b600092833560e01c90816306fdde03146107df57508063095ea7b31461073657806318160ddd1461071757806323b872dd14610632578063313ce56714610616578063355274ea146105db57806340c10f19146104d95780634ada218b146104b257806370a082311461047b578063715018a6146104305780638a8c523c146103fe5780638da5cb5b146103d557806395d89b41146102d15780639dc29fac146101d6578063a9059cbb146101a5578063dd62ed3e146101585763f2fde38b146100de57600080fd5b34610154576020366003190112610154576100f7610901565b90610100610a75565b6001600160a01b0391821692831561013e575050600580546001600160a01b03198116841790915516600080516020610aa28339815191528380a380f35b51631e4fbdf760e01b8152908101849052602490fd5b8280fd5b5050346101a157806003193601126101a15780602092610176610901565b61017e61091c565b6001600160a01b0391821683526001865283832091168252845220549051908152f35b5080fd5b5050346101a157806003193601126101a1576020906101cf6101c5610901565b6024359033610973565b5160018152f35b508290346101a157826003193601126101a1576101f1610901565b90602435906101fe610a75565b6001600160a01b03838116939084156102ba5760055460ff8160a01c1615610288575b5050838552846020528585205491838310610269575050818495600080516020610ac2833981519152936020938688528785520381872055816002540360025551908152a380f35b6102848484895194859463391434e360e21b86528501610955565b0390fd5b168085141590816102af575b506102a0578680610221565b5084516312f1f92360e01b8152fd5b905033141587610294565b8651634b637e8f60e11b8152808401879052602490fd5b509190346101a157816003193601126101a15780519082845460018160011c90600183169283156103cb575b60209384841081146103b85783885290811561039c5750600114610364575b505050829003601f01601f19168201926001600160401b03841183851017610351575082918261034d9252826108b8565b0390f35b634e487b7160e01b815260418552602490fd5b919250868652828620918387935b838510610388575050505083010138808061031c565b805488860183015293019284908201610372565b60ff1916878501525050151560051b840101905038808061031c565b634e487b7160e01b895260228a52602489fd5b91607f16916102fd565b5050346101a157816003193601126101a15760055490516001600160a01b039091168152602090f35b833461042d578060031936011261042d57610417610a75565b6005805460ff60a01b1916600160a01b17905580f35b80fd5b833461042d578060031936011261042d57610449610a75565b600580546001600160a01b0319811690915581906001600160a01b0316600080516020610aa28339815191528280a380f35b5050346101a15760203660031901126101a15760209181906001600160a01b036104a3610901565b16815280845220549051908152f35b5050346101a157816003193601126101a15760209060ff60055460a01c1690519015158152f35b5090346101545780600319360112610154576104f3610901565b9060243591610500610a75565b6001600160a01b03169283156105af576002549061051e8483610932565b7f00000000000000000000000000000000000000000000000000000000000000001061057d575082600080516020610ac2833981519152926105638795602094610932565b60025585855284835280852082815401905551908152a380f35b606490602084519162461bcd60e51b8352820152600c60248201526b18d85c08195e18d95959195960a21b6044820152fd5b6020606492519162461bcd60e51b83528201526007602482015266746f207a65726f60c81b6044820152fd5b5050346101a157816003193601126101a157602090517f00000000000000000000000000000000000000000000000000000000000000008152f35b5050346101a157816003193601126101a1576020905160128152f35b50823461042d57606036600319011261042d5761064d610901565b61065561091c565b916044359360018060a01b038316808352600160205286832033845260205286832054916000198310610691575b6020886101cf898989610973565b8683106106f95781156106e25733156106cb575082526001602090815286832033845281529186902090859003905582906101cf87610683565b8751634a1406b160e11b8152908101849052602490fd5b875163e602df0560e01b8152908101849052602490fd5b9050610284868851938493637dc7a0d960e11b855233908501610955565b5050346101a157816003193601126101a1576020906002549051908152f35b503461015457816003193601126101545761074f610901565b6024359033156107c8576001600160a01b03169182156107b157508083602095338152600187528181208582528752205582519081527f8c5be1e5ebec7d5bd14f71427d1e84f3dd0314c0f7b2291e5b200ac8c7c3b925843392a35160018152f35b8351634a1406b160e11b8152908101859052602490fd5b835163e602df0560e01b8152808401869052602490fd5b84915083346101545782600319360112610154578260035460018160011c90600183169283156108ae575b60209384841081146103b857838852908115610892575060011461085957505050829003601f01601f19168201926001600160401b03841183851017610351575082918261034d9252826108b8565b91925060038652828620918387935b83851061087e575050505083010185808061031c565b805488860183015293019284908201610868565b60ff1916878501525050151560051b840101905085808061031c565b91607f169161080a565b6020808252825181830181905290939260005b8281106108ed57505060409293506000838284010152601f8019910116010190565b8181018601518482016040015285016108cb565b600435906001600160a01b038216820361091757565b600080fd5b602435906001600160a01b038216820361091757565b9190820180921161093f57565b634e487b7160e01b600052601160045260246000fd5b604091949392606082019560018060a01b0316825260208201520152565b6001600160a01b0392838216929091908315610a5c578416938415610a435760055460ff8160a01c1615610a0e575b5050600090838252816020526040822054908382106109f157509160408282600080516020610ac2833981519152958760209652828652038282205586815220818154019055604051908152a3565b6102848460405193849363391434e360e21b855260048501610955565b16808414159081610a38575b50610a265738806109a2565b6040516312f1f92360e01b8152600490fd5b905033141538610a1a565b60405163ec442f0560e01b815260006004820152602490fd5b604051634b637e8f60e11b815260006004820152602490fd5b6005546001600160a01b03163303610a8957565b60405163118cdaa760e01b8152336004820152602490fdfe8be0079c531659141344cd1fd0a4f28419497f9722a3daafe3b4186f6b6457e0ddf252ad1be2c89b69c2b068fc378daa952ba7f163c4a11628f55a4df523b3efa164736f6c6343000818000adf6966c971051c3d54ec59162606531493a51404a002842f56009d7e5cf4a8c7c65a7bb8d6351c1cf70c95a316cc6a92839c986682d98bc35f958f4883f9d2a8d7b6990105719101dabeb77144f2a3385c8033acd3af97e9423a695e81ad1eb58be0079c531659141344cd1fd0a4f28419497f9722a3daafe3b4186f6b6457e00175b7a638427703f0dbe7bb9bbf987a2551717b34e79f33b5b1008d1fa01db98fafebcaf9d154343dad25669bfa277f4fbacd7ac6b0c4fed522580e040a0f33a164736f6c6343000818000a",
  "linkReferences": {},
  "deployedLinkReferences": {}
}