{
  "_format": "hh-sol-artifact-1",
  "contractName": "MockRouter",
  "sourceName": "contracts/mocks/MockRouter.sol",
  "abi": [
    {
      "inputs": [
        {
          "internalType": "address",
          "name": "factory_",
          "type": "address"
        },
        {
          "internalType": "address",
          "name": "wrapped_",
          "type": "address"
        }
      ],
      "stateMutability": "nonpayable",
      "type": "constructor"
    },
    {
      "anonymous": false,
      "inputs": [
        {
          "indexed": true,
          "internalType": "address",
          "name": "token",
          "type": "address"
        },
        {
          "indexed": false,
          "internalType": "uint256",
          "name": "amountToken",
          "type": "uint256"
        },
        {
          "indexed": false,
          "internalType": "uint256",
          "name": "amountETH",
          "type": "uint256"
        },
        {
          "indexed": true,
          "internalType": "address",
          "name": "to",
          "type": "address"
        }
      ],
      "name": "LiquidityAdded",
      "type": "event"
    },
    {
      "inputs": [],
      "name": "WETH",
      "outputs": [
        {
          "internalType": "address",
          "name": "",
          "type": "address"
        }
      ],
      "stateMutability": "view",
      "type": "function"
    },
    {
      "inputs": [
        {
          "internalType": "address",
          "name": "token",
          "type": "address"
        },
        {
          "internalType": "uint256",
          "name": "amountTokenDesired",
          "type": "uint256"
        },
        {
          "internalType": "uint256",
          "name": "",
          "type": "uint256"
        },
        {
          "internalType": "uint256",
          "name": "",
          "type": "uint256"
        },
        {
          "internalType": "address",
          "name": "to",
          "type": "address"
        },
        {
          "internalType": "uint256",
          "name": "",
          "type": "uint256"
        }
      ],
      "name": "addLiquidityETH",
      "outputs": [
        {
          "internalType": "uint256",
          "name": "amountToken",
          "type": "uint256"
        },
        {
          "internalType": "uint256",
          "name": "amountETH",
          "type": "uint256"
        },
        {
          "internalType": "uint256",
          "name": "liquidity",
          "type": "uint256"
        }
      ],
      "stateMutability": "payable",
      "type": "function"
    },
    {
      "inputs": [],
      "name": "factory",
      "outputs": [
        {
          "internalType": "address",
          "name": "",
          "type": "address"
        }
      ],
      "stateMutability": "view",
      "type": "function"
    }
  ],
  "bytecode": "0x60c060405234801561001057600080fd5b5060405161038b38038061038b83398101604081905261002f91610062565b6001600160a01b039182166080521660a052610095565b80516001600160a01b038116811461005d57600080fd5b919050565b6000806040838503121561007557600080fd5b61007e83610046565b915061008c60208401610046565b90509250929050565b60805160a0516102d36100b86000396000604801526000609401526102d36000f3fe6080604052600436106100345760003560e01c8063ad5c464814610039578063c45a015514610085578063f305d719146100b8575b600080fd5b34801561004557600080fd5b507f00000000000000000000000000000000000000000000000000000000000000005b6040516001600160a01b0390911681526020015b60405180910390f35b34801561009157600080fd5b507f0000000000000000000000000000000000000000000000000000000000000000610068565b6100cb6100c63660046101f5565b6100e6565b6040805193845260208401929092529082015260600161007c565b6040516323b872dd60e01b815233600482015230602482015260448101869052600090819081906001600160a01b038a16906323b872dd906064016020604051808303816000875af1158015610140573d6000803e3d6000fd5b505050506040513d601f19601f82011682018060405250810190610164919061024d565b508792503491506101758284610276565b9050846001600160a01b0316896001600160a01b03167f3c69701a61c79a92ef9692903aaa0068bce8771361ecb09547391e4fb4df853785856040516101c5929190918252602082015260400190565b60405180910390a396509650969350505050565b80356001600160a01b03811681146101f057600080fd5b919050565b60008060008060008060c0878903121561020e57600080fd5b610217876101d9565b955060208701359450604087013593506060870135925061023a608088016101d9565b915060a087013590509295509295509295565b60006020828403121561025f57600080fd5b8151801515811461026f57600080fd5b9392505050565b8082018082111561029757634e487b7160e01b600052601160045260246000fd5b9291505056fea2646970667358221220cc9dcf8182be37764fbe9b1063d55bf8218a9aea4ad655dba9315f3b197b32d364736f6c63430008180033",
  "linkReferences": {},
  "deployedLinkReferences": {}
}