{
  "_format": "hh-sol-artifact-1",
  "contractName": "LaunchFactory",
  "sourceName": "contracts/LaunchFactory.sol",
  "abi": [
    {
      "inputs": [
        {
          "internalType": "address",
          "name": "router_",
          "type": "address"
        }
      ],
      "stateMutability": "nonpayable",
      "type": "constructor"
    },
    {
      "inputs": [
        {
          "internalType": "address",
          "name": "owner",
          "type": "address"
        }
      ],
      "name": "OwnableInvalidOwner",
      "type": "error"
    },
    {
      "inputs": [
        {
          "internalType": "address",
          "name": "account",
          "type": "address"
        }
      ],
      "name": "OwnableUnauthorizedAccount",
      "type": "error"
    },
    {
      "anonymous": false,
      "inputs": [
        {
          "indexed": true,
          "internalType": "uint256",
          "name": "id",
          "type": "uint256"
        },
        {
          "indexed": true,
          "internalType": "address",
          "name": "campaign",
          "type": "address"
        },
        {
          "indexed": true,
          "internalType": "address",
          "name": "token",
          "type": "address"
        },
        {
          "indexed": false,
          "internalType": "address",
          "name": "creator",
          "type": "address"
        },
        {
          "indexed": false,
          "internalType": "string",
          "name": "name",
          "type": "string"
        },
        {
          "indexed": false,
          "internalType": "string",
          "name": "symbol",
          "type": "string"
        }
      ],
      "name": "CampaignCreated",
      "type": "event"
    },
    {
      "anonymous": false,
      "inputs": [
        {
          "components": [
            {
              "internalType": "uint256",
              "name": "totalSupply",
              "type": "uint256"
            },
            {
              "internalType": "uint256",
              "name": "curveBps",
              "type": "uint256"
            },
            {
              "internalType": "uint256",
              "name": "liquidityTokenBps",
              "type": "uint256"
            },
            {
              "internalType": "uint256",
              "name": "basePrice",
              "type": "uint256"
            },
            {
              "internalType": "uint256",
              "name": "priceSlope",
              "type": "uint256"
            },
            {
              "internalType": "uint256",
              "name": "graduationTarget",
              "type": "uint256"
            },
            {
              "internalType": "uint256",
              "name": "liquidityBps",
              "type": "uint256"
            }
          ],
          "indexed": false,
          "internalType": "struct LaunchFactory.LaunchConfig",
          "name": "newConfig",
          "type": "tuple"
        }
      ],
      "name": "ConfigUpdated",
      "type": "event"
    },
    {
      "anonymous": false,
      "inputs": [
        {
          "indexed": true,
          "internalType": "address",
          "name": "newRecipient",
          "type": "address"
        }
      ],
      "name": "FeeRecipientUpdated",
      "type": "event"
    },
    {
      "anonymous": false,
      "inputs": [
        {
          "indexed": true,
          "internalType": "address",
          "name": "previousOwner",
          "type": "address"
        },
        {
          "indexed": true,
          "internalType": "address",
          "name": "newOwner",
          "type": "address"
        }
      ],
      "name": "OwnershipTransferred",
      "type": "event"
    },
    {
      "anonymous": false,
      "inputs": [
        {
          "indexed": false,
          "internalType": "uint256",
          "name": "newFeeBps",
          "type": "uint256"
        }
      ],
      "name": "ProtocolFeeUpdated",
      "type": "event"
    },
    {
      "anonymous": false,
      "inputs": [
        {
          "indexed": true,
          "internalType": "address",
          "name": "newRouter",
          "type": "address"
        }
      ],
      "name": "RouterUpdated",
      "type": "event"
    },
    {
      "inputs": [],
      "name": "campaignsCount",
      "outputs": [
        {
          "internalType": "uint256",
          "name": "",
          "type": "uint256"
        }
      ],
      "stateMutability": "view",
      "type": "function"
    },
    {
      "inputs": [],
      "name": "config",
      "outputs": [
        {
          "internalType": "uint256",
          "name": "totalSupply",
          "type": "uint256"
        },
        {
          "internalType": "uint256",
          "name": "curveBps",
          "type": "uint256"
        },
        {
          "internalType": "uint256",
          "name": "liquidityTokenBps",
          "type": "uint256"
        },
        {
          "internalType": "uint256",
          "name": "basePrice",
          "type": "uint256"
        },
        {
          "internalType": "uint256",
          "name": "priceSlope",
          "type": "uint256"
        },
        {
          "internalType": "uint256",
          "name": "graduationTarget",
          "type": "uint256"
        },
        {
          "internalType": "uint256",
          "name": "liquidityBps",
          "type": "uint256"
        }
      ],
      "stateMutability": "view",
      "type": "function"
    },
    {
      "inputs": [
        {
          "components": [
            {
              "internalType": "string",
              "name": "name",
              "type": "string"
            },
            {
              "internalType": "string",
              "name": "symbol",
              "type": "string"
            },
            {
              "internalType": "string",
              "name": "logoURI",
              "type": "string"
            },
            {
              "internalType": "string",
              "name": "xAccount",
              "type": "string"
            },
            {
              "internalType": "string",
              "name": "website",
              "type": "string"
            },
            {
              "internalType": "string",
              "name": "extraLink",
              "type": "string"
            },
            {
              "internalType": "uint256",
              "name": "basePrice",
              "type": "uint256"
            },
            {
              "internalType": "uint256",
              "name": "priceSlope",
              "type": "uint256"
            },
            {
              "internalType": "uint256",
              "name": "graduationTarget",
              "type": "uint256"
            },
            {
              "internalType": "address",
              "name": "lpReceiver",
              "type": "address"
            }
          ],
          "internalType": "struct LaunchFactory.CampaignRequest",
          "name": "req",
          "type": "tuple"
        }
      ],
      "name": "createCampaign",
      "outputs": [
        {
          "internalType": "address",
          "name": "campaignAddr",
          "type": "address"
        },
        {
          "internalType": "address",
          "name": "tokenAddr",
          "type": "address"
        }
      ],
      "stateMutability": "nonpayable",
      "type": "function"
    },
    {
      "inputs": [],
      "name": "feeRecipient",
      "outputs": [
        {
          "internalType": "address",
          "name": "",
          "type": "address"
        }
      ],
      "stateMutability": "view",
      "type": "function"
    },
    {
      "inputs": [
        {
          "internalType": "uint256",
          "name": "id",
          "type": "uint256"
        }
      ],
      "name": "getCampaign",
      "outputs": [
        {
          "components": [
            {
              "internalType": "address",
              "name": "campaign",
              "type": "address"
            },
            {
              "internalType": "address",
              "name": "token",
              "type": "address"
            },
            {
              "internalType": "address",
              "name": "creator",
              "type": "address"
            },
            {
              "internalType": "string",
              "name": "name",
              "type": "string"
            },
            {
              "internalType": "string",
              "name": "symbol",
              "type": "string"
            },
            {
              "internalType": "string",
              "name": "logoURI",
              "type": "string"
            },
            {
              "internalType": "string",
              "name": "xAccount",
              "type": "string"
            },
            {
              "internalType": "string",
              "name": "website",
              "type": "string"
            },
            {
              "internalType": "string",
              "name": "extraLink",
              "type": "string"
            },
            {
              "internalType": "uint64",
              "name": "createdAt",
              "type": "uint64"
            }
          ],
          "internalType": "struct LaunchFactory.CampaignInfo",
          "name": "",
          "type": "tuple"
        }
      ],
      "stateMutability": "view",
      "type": "function"
    },
    {
      "inputs": [
        {
          "internalType": "uint256",
          "name": "offset",
          "type": "uint256"
        },
        {
          "internalType": "uint256",
          "name": "limit",
          "type": "uint256"
        }
      ],
      "name": "getCampaignPage",
      "outputs": [
        {
          "components": [
            {
              "internalType": "address",
              "name": "campaign",
              "type": "address"
            },
            {
              "internalType": "address",
              "name": "token",
              "type": "address"
            },
            {
              "internalType": "address",
              "name": "creator",
              "type": "address"
            },
            {
              "internalType": "string",
              "name": "name",
              "type": "string"
            },
            {
              "internalType": "string",
              "name": "symbol",
              "type": "string"
            },
            {
              "internalType": "string",
              "name": "logoURI",
              "type": "string"
            },
            {
              "internalType": "string",
              "name": "xAccount",
              "type": "string"
            },
            {
              "internalType": "string",
              "name": "website",
              "type": "string"
            },
            {
              "internalType": "string",
              "name": "extraLink",
              "type": "string"
            },
            {
              "internalType": "uint64",
              "name": "createdAt",
              "type": "uint64"
            }
          ],
          "internalType": "struct LaunchFactory.CampaignInfo[]",
          "name": "page",
          "type": "tuple[]"
        }
      ],
      "stateMutability": "view",
      "type": "function"
    },
    {
      "inputs": [],
      "name": "owner",
      "outputs": [
        {
          "internalType": "address",
          "name": "",
          "type": "address"
        }
      ],
      "stateMutability": "view",
      "type": "function"
    },
    {
      "inputs": [],
      "name": "protocolFeeBps",
      "outputs": [
        {
          "internalType": "uint256",
          "name": "",
          "type": "uint256"
        }
      ],
      "stateMutability": "view",
      "type": "function"
    },
    {
      "inputs": [],
      "name": "renounceOwnership",
      "outputs": [],
      "stateMutability": "nonpayable",
      "type": "function"
    },
    {
      "inputs": [],
      "name": "router",
      "outputs": [
        {
          "internalType": "address",
          "name": "",
          "type": "address"
        }
      ],
      "stateMutability": "view",
      "type": "function"
    },
    {
      "inputs": [
        {
          "components": [
            {
              "internalType": "uint256",
              "name": "totalSupply",
              "type": "uint256"
            },
            {
              "internalType": "uint256",
              "name": "curveBps",
              "type": "uint256"
            },
            {
              "internalType": "uint256",
              "name": "liquidityTokenBps",
              "type": "uint256"
            },
            {
              "internalType": "uint256",
              "name": "basePrice",
              "type": "uint256"
            },
            {
              "internalType": "uint256",
              "name": "priceSlope",
              "type": "uint256"
            },
            {
              "internalType": "uint256",
              "name": "graduationTarget",
              "type": "uint256"
            },
            {
              "internalType": "uint256",
              "name": "liquidityBps",
              "type": "uint256"
            }
          ],
          "internalType": "struct LaunchFactory.LaunchConfig",
          "name": "newConfig",
          "type": "tuple"
        }
      ],
      "name": "setConfig",
      "outputs": [],
      "stateMutability": "nonpayable",
      "type": "function"
    },
    {
      "inputs": [
        {
          "internalType": "address",
          "name": "newRecipient",
          "type": "address"
        }
      ],
      "name": "setFeeRecipient",
      "outputs": [],
      "stateMutability": "nonpayable",
      "type": "function"
    },
    {
      "inputs": [
        {
          "internalType": "uint256",
          "name": "newProtocolFeeBps",
          "type": "uint256"
        }
      ],
      "name": "setProtocolFee",
      "outputs": [],
      "stateMutability": "nonpayable",
      "type": "function"
    },
    {
      "inputs": [
        {
          "internalType": "address",
          "name": "newRouter",
          "type": "address"
        }
      ],
      "name": "setRouter",
      "outputs": [],
      "stateMutability": "nonpayable",
      "type": "function"
    },
    {
      "inputs": [
        {
          "internalType": "address",
          "name": "newOwner",
          "type": "address"
        }
      ],
      "name": "transferOwnership",
      "outputs": [],
      "stateMutability": "nonpayable",
      "type": "function"
    }
  ],
  "bytecode": "0x60806040523480156200001157600080fd5b5060405162005997380380620059978339810160408190526200003491620001bc565b33806200005c57604051631e4fbdf760e01b8152600060048201526024015b60405180910390fd5b62000067816200016c565b506001600160a01b038116620000ae5760405162461bcd60e51b815260206004820152600b60248201526a726f75746572207a65726f60a81b604482015260640162000053565b600a80546001600160a01b039092166001600160a01b03199283161790556040805160e0810182526b033b2e3c9fd0803ce8000000808252612260602083018190526103e8938301849052652d79883d200060608401819052633b9aca00608085018190526802b5e3af16b188000060a08601819052611b5860c0909601869052600194909455600292909255600394909455600493909355600592909255600691909155600755600880549091163317905560fa600955620001ee565b600080546001600160a01b038381166001600160a01b0319831681178455604051919092169283917f8be0079c531659141344cd1fd0a4f28419497f9722a3daafe3b4186f6b6457e09190a35050565b600060208284031215620001cf57600080fd5b81516001600160a01b0381168114620001e757600080fd5b9392505050565b61579980620001fe6000396000f3fe60806040523480156200001157600080fd5b5060043610620001095760003560e01c8063787dce3d11620000a3578063c0d78655116200006e578063c0d78655146200028f578063e74b981b14620002a6578063f2fde38b14620002bd578063f887ea4014620002d457600080fd5b8063787dce3d14620001d557806379502c5514620001ec57806383c5d95514620002455780638da5cb5b146200027d57600080fd5b80634690484011620000e457806346904840146200015f5780635598f8cc146200018c5780636caffb8114620001b2578063715018a614620001cb57600080fd5b80632b6c075b146200010e57806335659fb8146200013d57806344c89b651462000156575b600080fd5b620001256200011f36600462001a69565b620002e8565b60405162000134919062001bef565b60405180910390f35b6200014760095481565b60405190815260200162000134565b600b5462000147565b60085462000173906001600160a01b031681565b6040516001600160a01b03909116815260200162000134565b620001a36200019d36600462001c57565b62000889565b60405162000134919062001c71565b620001c9620001c336600462001c8d565b62000cf3565b005b620001c962000db5565b620001c9620001e636600462001c57565b62000dcd565b6001546002546003546004546005546006546007546200020f9695949392919087565b604080519788526020880196909652948601939093526060850191909152608084015260a083015260c082015260e00162000134565b6200025c6200025636600462001ca6565b62000e50565b604080516001600160a01b0393841681529290911660208301520162000134565b6000546001600160a01b031662000173565b620001c9620002a036600462001cfb565b6200162b565b620001c9620002b736600462001cfb565b620016c5565b620001c9620002ce36600462001cfb565b62001762565b600a5462000173906001600160a01b031681565b600b54606090831080620002fc5750600b54155b620003375760405162461bcd60e51b81526020600482015260066024820152651bd9999cd95d60d21b60448201526064015b60405180910390fd5b600b54158062000345575081155b156200038957604080516000808252602082019092529062000380565b6200036c620019e3565b815260200190600190039081620003625790505b50905062000883565b600062000397838562001d47565b600b54909150811115620003aa5750600b545b6000848211620003bc576000620003c8565b620003c8858362001d5d565b90508067ffffffffffffffff811115620003e657620003e662001d1b565b6040519080825280602002602001820160405280156200042357816020015b6200040f620019e3565b815260200190600190039081620004055790505b50925060005b818110156200087f57600b62000440828862001d47565b8154811062000453576200045362001d73565b60009182526020918290206040805161014081018252600a90930290910180546001600160a01b0390811684526001820154811694840194909452600281015490931690820152600382018054919291606084019190620004b49062001d89565b80601f0160208091040260200160405190810160405280929190818152602001828054620004e29062001d89565b8015620005335780601f10620005075761010080835404028352916020019162000533565b820191906000526020600020905b8154815290600101906020018083116200051557829003601f168201915b505050505081526020016004820180546200054e9062001d89565b80601f01602080910402602001604051908101604052809291908181526020018280546200057c9062001d89565b8015620005cd5780601f10620005a157610100808354040283529160200191620005cd565b820191906000526020600020905b815481529060010190602001808311620005af57829003601f168201915b50505050508152602001600582018054620005e89062001d89565b80601f0160208091040260200160405190810160405280929190818152602001828054620006169062001d89565b8015620006675780601f106200063b5761010080835404028352916020019162000667565b820191906000526020600020905b8154815290600101906020018083116200064957829003601f168201915b50505050508152602001600682018054620006829062001d89565b80601f0160208091040260200160405190810160405280929190818152602001828054620006b09062001d89565b8015620007015780601f10620006d55761010080835404028352916020019162000701565b820191906000526020600020905b815481529060010190602001808311620006e357829003601f168201915b505050505081526020016007820180546200071c9062001d89565b80601f01602080910402602001604051908101604052809291908181526020018280546200074a9062001d89565b80156200079b5780601f106200076f576101008083540402835291602001916200079b565b820191906000526020600020905b8154815290600101906020018083116200077d57829003601f168201915b50505050508152602001600882018054620007b69062001d89565b80601f0160208091040260200160405190810160405280929190818152602001828054620007e49062001d89565b8015620008355780601f10620008095761010080835404028352916020019162000835565b820191906000526020600020905b8154815290600101906020018083116200081757829003601f168201915b50505091835250506009919091015467ffffffffffffffff1660209091015284518590839081106200086b576200086b62001d73565b602090810291909101015260010162000429565b5050505b92915050565b62000893620019e3565b600b548210620008d65760405162461bcd60e51b815260206004820152600d60248201526c6f7574206f6620626f756e647360981b60448201526064016200032e565b600b8281548110620008ec57620008ec62001d73565b60009182526020918290206040805161014081018252600a90930290910180546001600160a01b03908116845260018201548116948401949094526002810154909316908201526003820180549192916060840191906200094d9062001d89565b80601f01602080910402602001604051908101604052809291908181526020018280546200097b9062001d89565b8015620009cc5780601f10620009a057610100808354040283529160200191620009cc565b820191906000526020600020905b815481529060010190602001808311620009ae57829003601f168201915b50505050508152602001600482018054620009e79062001d89565b80601f016020809104026020016040519081016040528092919081815260200182805462000a159062001d89565b801562000a665780601f1062000a3a5761010080835404028352916020019162000a66565b820191906000526020600020905b81548152906001019060200180831162000a4857829003601f168201915b5050505050815260200160058201805462000a819062001d89565b80601f016020809104026020016040519081016040528092919081815260200182805462000aaf9062001d89565b801562000b005780601f1062000ad45761010080835404028352916020019162000b00565b820191906000526020600020905b81548152906001019060200180831162000ae257829003601f168201915b5050505050815260200160068201805462000b1b9062001d89565b80601f016020809104026020016040519081016040528092919081815260200182805462000b499062001d89565b801562000b9a5780601f1062000b6e5761010080835404028352916020019162000b9a565b820191906000526020600020905b81548152906001019060200180831162000b7c57829003601f168201915b5050505050815260200160078201805462000bb59062001d89565b80601f016020809104026020016040519081016040528092919081815260200182805462000be39062001d89565b801562000c345780601f1062000c085761010080835404028352916020019162000c34565b820191906000526020600020905b81548152906001019060200180831162000c1657829003601f168201915b5050505050815260200160088201805462000c4f9062001d89565b80601f016020809104026020016040519081016040528092919081815260200182805462000c7d9062001d89565b801562000cce5780601f1062000ca25761010080835404028352916020019162000cce565b820191906000526020600020905b81548152906001019060200180831162000cb057829003601f168201915b50505091835250506009919091015467ffffffffffffffff1660209091015292915050565b62000cfd620017a6565b62000d1862000d123683900383018362001dbf565b620017d5565b80356001819055602080830135600281905560408085013560038190556060808701356004819055608080890135600581905560a0808b0135600681905560c0808d0135600781905589519c8d529a8c0199909952968a0195909552928801919091528601528401528201527f7c4abc5e661f62070299968a3a9a482d60903a066b120d28cc5512eec5ee38f29060e0015b60405180910390a150565b62000dbf620017a6565b62000dcb600062001993565b565b62000dd7620017a6565b6103e881111562000e1a5760405162461bcd60e51b815260206004820152600c60248201526b0cccaca40e8dede40d0d2ced60a31b60448201526064016200032e565b60098190556040518181527fd10d75876659a287a59a6ccfa2e3fff42f84d94b542837acd30bc184d562de409060200162000daa565b6000808062000e60848062001e47565b90501162000e9a5760405162461bcd60e51b81526004016200032e906020808252600490820152636e616d6560e01b604082015260600190565b600062000eab602085018562001e47565b90501162000ee55760405162461bcd60e51b81526020600482015260066024820152651cde5b589bdb60d21b60448201526064016200032e565b600062000ef6604085018562001e47565b90501162000f325760405162461bcd60e51b81526020600482015260086024820152676c6f676f2075726960c01b60448201526064016200032e565b6040805161026081019091526000908062000f4e868062001e47565b8080601f01602080910402602001604051908101604052809392919081815260200183838082843760009201919091525050509082525060209081019062000f999087018762001e47565b8080601f01602080910402602001604051908101604052809392919081815260200183838082843760009201919091525050509082525060200162000fe2604087018762001e47565b8080601f0160208091040260200160405190810160405280939291908181526020018383808284376000920191909152505050908252506020016200102b606087018762001e47565b8080601f01602080910402602001604051908101604052809392919081815260200183838082843760009201919091525050509082525060200162001074608087018762001e47565b8080601f016020809104026020016040519081016040528093929190818152602001838380828437600092019190915250505090825250602001620010bd60a087018762001e47565b8080601f01602080910402602001604051908101604052809392919081815260200183838082843760009201919091525050509082525060015460208201526002546040820152600354606082015260800160c08601351562001125578560c0013562001129565b6004545b815260200160e08601351562001144578560e0013562001148565b6005545b815260200161010086013515620011655785610100013562001169565b6006545b815260075460208201526009546040820152600a546001600160a01b031660608201526080016000620011a56101408801610120890162001cfb565b6001600160a01b031614620011ce57620011c86101408701610120880162001cfb565b620011d0565b335b6001600160a01b03908116825260085416602082015233604080830191909152306060909201919091525190915060009082906200120e9062001a5b565b6200121a919062001e98565b604051809103906000f08015801562001237573d6000803e3d6000fd5b509050809350806001600160a01b031663fc0c546a6040518163ffffffff1660e01b8152600401602060405180830381865afa1580156200127c573d6000803e3d6000fd5b505050506040513d601f19601f82011682018060405250810190620012a291906200204f565b60408051610140810182526001600160a01b038088168252831660208201523391810191909152909350600b9060608101620012df888062001e47565b8080601f0160208091040260200160405190810160405280939291908181526020018383808284376000920191909152505050908252506020908101906200132a9089018962001e47565b8080601f01602080910402602001604051908101604052809392919081815260200183838082843760009201919091525050509082525060200162001373604089018962001e47565b8080601f016020809104026020016040519081016040528093929190818152602001838380828437600092019190915250505090825250602001620013bc606089018962001e47565b8080601f01602080910402602001604051908101604052809392919081815260200183838082843760009201919091525050509082525060200162001405608089018962001e47565b8080601f0160208091040260200160405190810160405280939291908181526020018383808284376000920191909152505050908252506020016200144e60a089018962001e47565b8080601f01602080910402602001604051908101604052809392919081815260200183838082843760009201829052509385525050504267ffffffffffffffff16602092830152835460018082018655948252908290208351600a9092020180546001600160a01b03199081166001600160a01b0393841617825592840151948101805484169583169590951790945560408301516002850180549093169116179055606081015190919060038201906200150a9082620020c4565b5060808201516004820190620015219082620020c4565b5060a08201516005820190620015389082620020c4565b5060c082015160068201906200154f9082620020c4565b5060e08201516007820190620015669082620020c4565b5061010082015160088201906200157e9082620020c4565b5061012091909101516009909101805467ffffffffffffffff191667ffffffffffffffff909216919091179055600b546001600160a01b038481169190861690620015cc9060019062001d5d565b7ffdb1476ee472ae4c88dd3d31e0289bf3aede684aae57fae4d32c92e7585911ef33620015fa8a8062001e47565b6200160960208d018d62001e47565b6040516200161c959493929190620021ba565b60405180910390a45050915091565b62001635620017a6565b6001600160a01b0381166200167b5760405162461bcd60e51b815260206004820152600b60248201526a726f75746572207a65726f60a81b60448201526064016200032e565b600a80546001600160a01b0319166001600160a01b0383169081179091556040517f7aed1d3e8155a07ccf395e44ea3109a0e2d6c9b29bbbe9f142d9790596f4dc8090600090a250565b620016cf620017a6565b6001600160a01b038116620017185760405162461bcd60e51b815260206004820152600e60248201526d726563697069656e74207a65726f60901b60448201526064016200032e565b600880546001600160a01b0319166001600160a01b0383169081179091556040517f7a7b5a0a132f9e0581eb8527f66eae9ee89c2a3e79d4ac7e41a1f1f4d48a7fc290600090a250565b6200176c620017a6565b6001600160a01b0381166200179857604051631e4fbdf760e01b8152600060048201526024016200032e565b620017a38162001993565b50565b6000546001600160a01b0316331462000dcb5760405163118cdaa760e01b81523360048201526024016200032e565b8051620018135760405162461bcd60e51b815260206004820152600b60248201526a737570706c79207a65726f60a81b60448201526064016200032e565b600081602001511180156200183f5750612710816040015182602001516200183c919062001d47565b11155b620018815760405162461bcd60e51b8152602060048201526011602482015270696e76616c69642063757276652062707360781b60448201526064016200032e565b6000816060015111620018c45760405162461bcd60e51b815260206004820152600a6024820152697072696365207a65726f60b01b60448201526064016200032e565b6000816080015111620019075760405162461bcd60e51b815260206004820152600a602482015269736c6f7065207a65726f60b01b60448201526064016200032e565b60008160a00151116200194b5760405162461bcd60e51b815260206004820152600b60248201526a746172676574207a65726f60a81b60448201526064016200032e565b6127108160c001511115620017a35760405162461bcd60e51b815260206004820152600d60248201526c6c69717569646974792062707360981b60448201526064016200032e565b600080546001600160a01b038381166001600160a01b0319831681178455604051919092169283917f8be0079c531659141344cd1fd0a4f28419497f9722a3daafe3b4186f6b6457e09190a35050565b60405180610140016040528060006001600160a01b0316815260200160006001600160a01b0316815260200160006001600160a01b03168152602001606081526020016060815260200160608152602001606081526020016060815260200160608152602001600067ffffffffffffffff1681525090565b613561806200220383390190565b6000806040838503121562001a7d57600080fd5b50508035926020909101359150565b6000815180845260005b8181101562001ab45760208185018101518683018201520162001a96565b506000602082860101526020601f19601f83011685010191505092915050565b80516001600160a01b031682526000610140602083015162001b0160208601826001600160a01b03169052565b50604083015162001b1d60408601826001600160a01b03169052565b50606083015181606086015262001b378286018262001a8c565b9150506080830151848203608086015262001b53828262001a8c565b91505060a083015184820360a086015262001b6f828262001a8c565b91505060c083015184820360c086015262001b8b828262001a8c565b91505060e083015184820360e086015262001ba7828262001a8c565b915050610100808401518583038287015262001bc4838262001a8c565b925050506101208084015162001be58287018267ffffffffffffffff169052565b5090949350505050565b600060208083016020845280855180835260408601915060408160051b87010192506020870160005b8281101562001c4a57603f1988860301845262001c3785835162001ad4565b9450928501929085019060010162001c18565b5092979650505050505050565b60006020828403121562001c6a57600080fd5b5035919050565b60208152600062001c86602083018462001ad4565b9392505050565b600060e0828403121562001ca057600080fd5b50919050565b60006020828403121562001cb957600080fd5b813567ffffffffffffffff81111562001cd157600080fd5b8201610140818503121562001c8657600080fd5b6001600160a01b0381168114620017a357600080fd5b60006020828403121562001d0e57600080fd5b813562001c868162001ce5565b634e487b7160e01b600052604160045260246000fd5b634e487b7160e01b600052601160045260246000fd5b8082018082111562000883576200088362001d31565b8181038181111562000883576200088362001d31565b634e487b7160e01b600052603260045260246000fd5b600181811c9082168062001d9e57607f821691505b60208210810362001ca057634e487b7160e01b600052602260045260246000fd5b600060e0828403121562001dd257600080fd5b60405160e0810181811067ffffffffffffffff8211171562001df85762001df862001d1b565b8060405250823581526020830135602082015260408301356040820152606083013560608201526080830135608082015260a083013560a082015260c083013560c08201528091505092915050565b6000808335601e1984360301811262001e5f57600080fd5b83018035915067ffffffffffffffff82111562001e7b57600080fd5b60200191503681900382131562001e9157600080fd5b9250929050565b602081526000825161026080602085015262001eb961028085018362001a8c565b91506020850151601f198086850301604087015262001ed9848362001a8c565b9350604087015191508086850301606087015262001ef8848362001a8c565b9350606087015191508086850301608087015262001f17848362001a8c565b935060808701519150808685030160a087015262001f36848362001a8c565b935060a08701519150808685030160c08701525062001f56838262001a8c565b60c087015160e08781019190915287015161010080880191909152870151610120808801919091528701516101408088019190915287015161016080880191909152870151610180808801919091528701516101a0808801919091528701516101c08088019190915287015190935090506101e062001fdf818701836001600160a01b03169052565b860151905061020062001ffc868201836001600160a01b03169052565b860151905061022062002019868201836001600160a01b03169052565b860151905061024062002036868201836001600160a01b03169052565b8601516001600160a01b03811683870152905062001be5565b6000602082840312156200206257600080fd5b815162001c868162001ce5565b601f821115620020bf576000816000526020600020601f850160051c810160208610156200209a5750805b601f850160051c820191505b81811015620020bb57828155600101620020a6565b5050505b505050565b815167ffffffffffffffff811115620020e157620020e162001d1b565b620020f981620020f2845462001d89565b846200206f565b602080601f831160018114620021315760008415620021185750858301515b600019600386901b1c1916600185901b178555620020bb565b600085815260208120601f198616915b82811015620021625788860151825594840194600190910190840162002141565b5085821015620021815787850151600019600388901b60f8161c191681555b5050505050600190811b01905550565b81835281816020850137506000828201602090810191909152601f909101601f19169091010190565b6001600160a01b0386168152606060208201819052600090620021e1908301868862002191565b8281036040840152620021f681858762002191565b9897505050505050505056fe6102606040523480156200001257600080fd5b50604051620035613803806200356183398101604081905262000035916200073b565b61022081015160016000556001600160a01b0381166200007057604051631e4fbdf760e01b8152600060048201526024015b60405180910390fd5b6200007b81620005c5565b5060008160c0015111620000c35760405162461bcd60e51b815260206004820152600e60248201526d696e76616c696420737570706c7960901b604482015260640162000067565b60008160e00151118015620000dd57506127108160e00151105b620001175760405162461bcd60e51b815260206004820152600960248201526863757276652062707360b81b604482015260640162000067565b6127108161010001518260e001516200013191906200094f565b1115620001745760405162461bcd60e51b815260206004820152601060248201526f706f7274696f6e206f766572666c6f7760801b604482015260640162000067565b600081610120015111620001b85760405162461bcd60e51b815260206004820152600a6024820152697072696365207a65726f60b01b604482015260640162000067565b600081610140015111620001fc5760405162461bcd60e51b815260206004820152600a602482015269736c6f7065207a65726f60b01b604482015260640162000067565b6101c08101516001600160a01b0316620002475760405162461bcd60e51b815260206004820152600b60248201526a726f75746572207a65726f60a81b604482015260640162000067565b6102208101516001600160a01b0316620002935760405162461bcd60e51b815260206004820152600c60248201526b63726561746f72207a65726f60a01b604482015260640162000067565b6127108161018001511115620002dc5760405162461bcd60e51b815260206004820152600d60248201526c6c69717569646974792062707360981b604482015260640162000067565b612710816101a001511115620003245760405162461bcd60e51b815260206004820152600c60248201526b70726f746f636f6c2062707360a01b604482015260640162000067565b600081604001515111620003665760405162461bcd60e51b81526020600482015260086024820152676c6f676f2075726960c01b604482015260640162000067565b60408101516002906200037a9082620009fc565b5060608101516003906200038f9082620009fc565b506080810151600490620003a49082620009fc565b5060a0810151600590620003b99082620009fc565b506101208101516101409081528101516101609081528101516101809081528101516101a09081528101516101c0526102408101516001600160a01b0390811660e0526102008201518116610100526101e082015116156200042157806101e0015162000428565b8061022001515b6001600160a01b03908116610120526101c08201511660c0908152810180516101e05260e0820151905161271091620004619162000ac8565b6200046d919062000ae2565b6102005261010081015160c0820151612710916200048b9162000ac8565b62000497919062000ae2565b6102208190526102005160c0830151620004b2919062000b05565b620004be919062000b05565b6102405261022051620005055760405162461bcd60e51b815260206004820152600e60248201526d6c6971756964697479207a65726f60901b604482015260640162000067565b8051602082015160c08301516040513090620005219062000617565b62000530949392919062000b49565b604051809103906000f0801580156200054d573d6000803e3d6000fd5b506001600160a01b0316608081905260a081905260c08201516040516340c10f1960e01b815230600482015260248101919091526340c10f1990604401600060405180830381600087803b158015620005a557600080fd5b505af1158015620005ba573d6000803e3d6000fd5b505050505062000b94565b600180546001600160a01b038381166001600160a01b0319831681179093556040519116919082907f8be0079c531659141344cd1fd0a4f28419497f9722a3daafe3b4186f6b6457e090600090a35050565b610f38806200262983390190565b634e487b7160e01b600052604160045260246000fd5b60405161026081016001600160401b038111828210171562000661576200066162000625565b60405290565b60005b83811015620006845781810151838201526020016200066a565b50506000910152565b600082601f8301126200069f57600080fd5b81516001600160401b0380821115620006bc57620006bc62000625565b604051601f8301601f19908116603f01168101908282118183101715620006e757620006e762000625565b816040528381528660208588010111156200070157600080fd5b6200071484602083016020890162000667565b9695505050505050565b80516001600160a01b03811681146200073657600080fd5b919050565b6000602082840312156200074e57600080fd5b81516001600160401b03808211156200076657600080fd5b9083019061026082860312156200077c57600080fd5b620007866200063b565b8251828111156200079657600080fd5b620007a4878286016200068d565b825250602083015182811115620007ba57600080fd5b620007c8878286016200068d565b602083015250604083015182811115620007e157600080fd5b620007ef878286016200068d565b6040830152506060830151828111156200080857600080fd5b62000816878286016200068d565b6060830152506080830151828111156200082f57600080fd5b6200083d878286016200068d565b60808301525060a0830151828111156200085657600080fd5b62000864878286016200068d565b60a08301525060c0838101519082015260e08084015190820152610100808401519082015261012080840151908201526101408084015190820152610160808401519082015261018080840151908201526101a080840151908201526101c09150620008d28284016200071e565b828201526101e09150620008e88284016200071e565b828201526102009150620008fe8284016200071e565b828201526102209150620009148284016200071e565b8282015261024091506200092a8284016200071e565b91810191909152949350505050565b634e487b7160e01b600052601160045260246000fd5b8082018082111562000965576200096562000939565b92915050565b600181811c908216806200098057607f821691505b602082108103620009a157634e487b7160e01b600052602260045260246000fd5b50919050565b601f821115620009f7576000816000526020600020601f850160051c81016020861015620009d25750805b601f850160051c820191505b81811015620009f357828155600101620009de565b5050505b505050565b81516001600160401b0381111562000a185762000a1862000625565b62000a308162000a2984546200096b565b84620009a7565b602080601f83116001811462000a68576000841562000a4f5750858301515b600019600386901b1c1916600185901b178555620009f3565b600085815260208120601f198616915b8281101562000a995788860151825594840194600190910190840162000a78565b508582101562000ab85787850151600019600388901b60f8161c191681555b5050505050600190811b01905550565b808202811582820484141762000965576200096562000939565b60008262000b0057634e487b7160e01b600052601260045260246000fd5b500490565b8181038181111562000965576200096562000939565b6000815180845262000b3581602086016020860162000667565b601f01601f19169290920160200192915050565b60808152600062000b5e608083018762000b1b565b828103602084015262000b72818762000b1b565b604084019590955250506001600160a01b039190911660609091015292915050565b60805160a05160c05160e05161010051610120516101405161016051610180516101a0516101c0516101e05161020051610220516102405161192562000d04600039600081816103be01528181611009015261106f0152600081816103560152610d0101526000818161029801528181610b5701528181610c2d0152610f55015260006102180152600081816102cc015261109e0152600081816105d50152610cce0152600081816104cf0152610c580152600081816103f201528181610ab701526112de0152600081816105a101528181610aed01526112a501526000818161024c0152610dde01526000818161038a015281816110dc01526111110152600061056d01526000818161065301528181610d6301528181610d920152610ed001526000818161081b0152818161099401528181610d4101528181610eae01528181610f27015261104c01526000818161068701528181610dba01528181610fa2015261116601526119256000f3fe6080604052600436106101d15760003560e01c80638091f3bf116100f7578063c45a015511610095578063f20f3d9011610064578063f20f3d901461060c578063f2fde38b14610621578063f887ea4014610641578063fc0c546a1461067557600080fd5b8063c45a01551461055b578063c7876ea41461058f578063c9f62af2146105c3578063dd1a2a39146105f757600080fd5b8063a4b20f13116100d1578063a4b20f13146104bd578063af769545146104f1578063b6013cef14610511578063beb0a4161461054657600080fd5b80638091f3bf146104605780638da5cb5b1461048a5780639d1b464a146104a857600080fd5b80633794f6be1161016f57806354e42f7e1161013e57806354e42f7e146103e057806365161831146104145780636bb38b2814610427578063715018a61461044957600080fd5b80633794f6be14610324578063381562c214610344578063469048401461037857806354354629146103ac57600080fd5b80632138a4c0116101ab5780632138a4c01461028657806335659fb8146102ba578063365d57a4146102ee578063366ad2501461030457600080fd5b806302c7e7af146101dd57806318160ddd146102065780631f0c57fc1461023a57600080fd5b366101d857005b600080fd5b3480156101e957600080fd5b506101f360065481565b6040519081526020015b60405180910390f35b34801561021257600080fd5b506101f37f000000000000000000000000000000000000000000000000000000000000000081565b34801561024657600080fd5b5061026e7f000000000000000000000000000000000000000000000000000000000000000081565b6040516001600160a01b0390911681526020016101fd565b34801561029257600080fd5b506101f37f000000000000000000000000000000000000000000000000000000000000000081565b3480156102c657600080fd5b506101f37f000000000000000000000000000000000000000000000000000000000000000081565b3480156102fa57600080fd5b506101f360085481565b34801561031057600080fd5b506101f361031f366004611749565b6106a9565b34801561033057600080fd5b506101f361033f366004611762565b61075f565b34801561035057600080fd5b506101f37f000000000000000000000000000000000000000000000000000000000000000081565b34801561038457600080fd5b5061026e7f000000000000000000000000000000000000000000000000000000000000000081565b3480156103b857600080fd5b506101f37f000000000000000000000000000000000000000000000000000000000000000081565b3480156103ec57600080fd5b506101f37f000000000000000000000000000000000000000000000000000000000000000081565b6101f3610422366004611762565b610893565b34801561043357600080fd5b5061043c610a0e565b6040516101fd9190611784565b34801561045557600080fd5b5061045e610a9c565b005b34801561046c57600080fd5b5060075461047a9060ff1681565b60405190151581526020016101fd565b34801561049657600080fd5b506001546001600160a01b031661026e565b3480156104b457600080fd5b506101f3610ab0565b3480156104c957600080fd5b506101f37f000000000000000000000000000000000000000000000000000000000000000081565b3480156104fd57600080fd5b506101f361050c366004611749565b610b16565b34801561051d57600080fd5b5061053161052c366004611762565b610bd9565b604080519283526020830191909152016101fd565b34801561055257600080fd5b5061043c611237565b34801561056757600080fd5b5061026e7f000000000000000000000000000000000000000000000000000000000000000081565b34801561059b57600080fd5b506101f37f000000000000000000000000000000000000000000000000000000000000000081565b3480156105cf57600080fd5b506101f37f000000000000000000000000000000000000000000000000000000000000000081565b34801561060357600080fd5b5061043c611244565b34801561061857600080fd5b5061043c611251565b34801561062d57600080fd5b5061045e61063c3660046117d3565b61125e565b34801561064d57600080fd5b5061026e7f000000000000000000000000000000000000000000000000000000000000000081565b34801561068157600080fd5b5061026e7f000000000000000000000000000000000000000000000000000000000000000081565b60008082116106ed5760405162461bcd60e51b815260206004820152600b60248201526a1e995c9bc8185b5bdd5b9d60aa1b60448201526064015b60405180910390fd5b60065482111561072e5760405162461bcd60e51b815260206004820152600c60248201526b195e18d959591cc81cdbdb1960a21b60448201526064016106e4565b6107448260065461073f9190611812565b61129c565b61074f60065461129c565b6107599190611812565b92915050565b6000610769611336565b60075460ff16156107b05760405162461bcd60e51b815260206004820152601160248201527018d85b5c185a59db881b185d5b98da1959607a1b60448201526064016106e4565b6107b9836106a9565b9050818110156107f65760405162461bcd60e51b8152602060048201526008602482015267736c69707061676560c01b60448201526064016106e4565b82600660008282546108089190611812565b9091555061084390506001600160a01b037f000000000000000000000000000000000000000000000000000000000000000016333086611360565b61084d33826113cd565b604080518481526020810183905233917f2dcf9433d75db0d8b1c172641f85e319ffe4ad22e108a95d1847ceb906e5195d91015b60405180910390a26107596001600055565b600061089d611336565b60075460ff16156108e45760405162461bcd60e51b815260206004820152601160248201527018d85b5c185a59db881b185d5b98da1959607a1b60448201526064016106e4565b6108ed83610b16565b90508181111561092a5760405162461bcd60e51b8152602060048201526008602482015267736c69707061676560c01b60448201526064016106e4565b8034101561096f5760405162461bcd60e51b8152602060048201526012602482015271696e73756666696369656e742076616c756560701b60448201526064016106e4565b82600660008282546109819190611825565b909155506109bb90506001600160a01b037f0000000000000000000000000000000000000000000000000000000000000000163385611467565b803411156109d6576109d6336109d18334611812565b6113cd565b604080518481526020810183905233917f8fafebcaf9d154343dad25669bfa277f4fbacd7ac6b0c4fed522580e040a0f339101610881565b60028054610a1b90611838565b80601f0160208091040260200160405190810160405280929190818152602001828054610a4790611838565b8015610a945780601f10610a6957610100808354040283529160200191610a94565b820191906000526020600020905b815481529060010190602001808311610a7757829003601f168201915b505050505081565b610aa4611498565b610aae60006114c5565b565b6000610ae77f0000000000000000000000000000000000000000000000000000000000000000600654670de0b6b3a7640000611517565b610b11907f0000000000000000000000000000000000000000000000000000000000000000611825565b905090565b6000808211610b555760405162461bcd60e51b815260206004820152600b60248201526a1e995c9bc8185b5bdd5b9d60aa1b60448201526064016106e4565b7f000000000000000000000000000000000000000000000000000000000000000082600654610b849190611825565b1115610bbd5760405162461bcd60e51b81526020600482015260086024820152671cdbdb19081bdd5d60c21b60448201526064016106e4565b610bc860065461129c565b61074f8360065461073f9190611825565b600080610be4611498565b610bec611336565b60075460ff1615610c2b5760405162461bcd60e51b8152602060048201526009602482015268199a5b985b1a5e995960ba1b60448201526064016106e4565b7f00000000000000000000000000000000000000000000000000000000000000006006541480610c7b57507f00000000000000000000000000000000000000000000000000000000000000004710155b610cb35760405162461bcd60e51b81526020600482015260096024820152681d1a1c995cda1bdb1960ba1b60448201526064016106e4565b6007805460ff19166001179055426008556000612710610cf37f000000000000000000000000000000000000000000000000000000000000000047611872565b610cfd919061189f565b90507f00000000000000000000000000000000000000000000000000000000000000008015801590610d2f5750600082115b15610f4e57610d886001600160a01b037f0000000000000000000000000000000000000000000000000000000000000000167f0000000000000000000000000000000000000000000000000000000000000000836115cd565b6001600160a01b037f00000000000000000000000000000000000000000000000000000000000000001663f305d719837f0000000000000000000000000000000000000000000000000000000000000000848a8a7f0000000000000000000000000000000000000000000000000000000000000000610e0942610708611825565b60405160e089901b6001600160e01b03191681526001600160a01b039687166004820152602481019590955260448501939093526064840191909152909216608482015260a481019190915260c40160606040518083038185885af1158015610e76573d6000803e3d6000fd5b50505050506040513d601f19601f82011682018060405250810190610e9b91906118c1565b509094509250610ef66001600160a01b037f0000000000000000000000000000000000000000000000000000000000000000167f000000000000000000000000000000000000000000000000000000000000000060006115cd565b83811115610f4e57610f4e610f136001546001600160a01b031690565b610f1d8684611812565b6001600160a01b037f0000000000000000000000000000000000000000000000000000000000000000169190611467565b60006006547f0000000000000000000000000000000000000000000000000000000000000000610f7e9190611812565b9050801561100757604051632770a7eb60e21b8152306004820152602481018290527f00000000000000000000000000000000000000000000000000000000000000006001600160a01b031690639dc29fac90604401600060405180830381600087803b158015610fee57600080fd5b505af1158015611002573d6000803e3d6000fd5b505050505b7f000000000000000000000000000000000000000000000000000000000000000015611093576110936110426001546001600160a01b031690565b6001600160a01b037f000000000000000000000000000000000000000000000000000000000000000016907f0000000000000000000000000000000000000000000000000000000000000000611467565b4760006127106110c37f000000000000000000000000000000000000000000000000000000000000000084611872565b6110cd919061189f565b905060008111801561110757507f00000000000000000000000000000000000000000000000000000000000000006001600160a01b031615155b15611143576111367f0000000000000000000000000000000000000000000000000000000000000000826113cd565b6111408183611812565b91505b81156111645761116461115e6001546001600160a01b031690565b836113cd565b7f00000000000000000000000000000000000000000000000000000000000000006001600160a01b0316638a8c523c6040518163ffffffff1660e01b8152600401600060405180830381600087803b1580156111bf57600080fd5b505af11580156111d3573d6000803e3d6000fd5b5050604080518a8152602081018a9052908101849052606081018590523392507fd286a958d004cd376acc3762fff407f0dd9bf991995fc81a26ff88081f2b7d1b915060800160405180910390a250505050506112306001600055565b9250929050565b60048054610a1b90611838565b60058054610a1b90611838565b60038054610a1b90611838565b611266611498565b6001600160a01b03811661129057604051631e4fbdf760e01b8152600060048201526024016106e4565b611299816114c5565b50565b6000806112d2837f0000000000000000000000000000000000000000000000000000000000000000670de0b6b3a7640000611517565b905082800260006113217f000000000000000000000000000000000000000000000000000000000000000083670de0b6b3a7640000611312816002611872565b61131c9190611872565b611517565b905061132d8184611825565b95945050505050565b60026000540361135957604051633ee5aeb560e01b815260040160405180910390fd5b6002600055565b6040516001600160a01b0384811660248301528381166044830152606482018390526113c79186918216906323b872dd906084015b604051602081830303815290604052915060e01b6020820180516001600160e01b038381831617835250505050611659565b50505050565b6000826001600160a01b03168260405160006040518083038185875af1925050503d806000811461141a576040519150601f19603f3d011682016040523d82523d6000602084013e61141f565b606091505b50509050806114625760405162461bcd60e51b815260206004820152600f60248201526e1d1c985b9cd9995c8819985a5b1959608a1b60448201526064016106e4565b505050565b6040516001600160a01b0383811660248301526044820183905261146291859182169063a9059cbb90606401611395565b6001546001600160a01b03163314610aae5760405163118cdaa760e01b81523360048201526024016106e4565b600180546001600160a01b038381166001600160a01b0319831681179093556040519116919082907f8be0079c531659141344cd1fd0a4f28419497f9722a3daafe3b4186f6b6457e090600090a35050565b600080600061152686866116ca565b915091508160000361154b5783818161154157611541611889565b04925050506115c6565b8184116115625761156260038515026011186116e8565b6000848688096000868103871696879004966002600389028118808a02820302808a02820302808a02820302808a02820302808a02820302808a02909103029181900381900460010185841190960395909502919093039390930492909217029150505b9392505050565b604080516001600160a01b038416602482015260448082018490528251808303909101815260649091019091526020810180516001600160e01b031663095ea7b360e01b17905261161e84826116fa565b6113c7576040516001600160a01b0384811660248301526000604483015261165391869182169063095ea7b390606401611395565b6113c784825b600080602060008451602086016000885af18061167c576040513d6000823e3d81fd5b50506000513d915081156116945780600114156116a1565b6001600160a01b0384163b155b156113c757604051635274afe760e01b81526001600160a01b03851660048201526024016106e4565b60008060001983850993909202808410938190039390930393915050565b634e487b71600052806020526024601cfd5b6000806000806020600086516020880160008a5af192503d9150600051905082801561173f57508115611730578060011461173f565b6000866001600160a01b03163b115b9695505050505050565b60006020828403121561175b57600080fd5b5035919050565b6000806040838503121561177557600080fd5b50508035926020909101359150565b60006020808352835180602085015260005b818110156117b257858101830151858201604001528201611796565b506000604082860101526040601f19601f8301168501019250505092915050565b6000602082840312156117e557600080fd5b81356001600160a01b03811681146115c657600080fd5b634e487b7160e01b600052601160045260246000fd5b81810381811115610759576107596117fc565b80820180821115610759576107596117fc565b600181811c9082168061184c57607f821691505b60208210810361186c57634e487b7160e01b600052602260045260246000fd5b50919050565b8082028115828204841417610759576107596117fc565b634e487b7160e01b600052601260045260246000fd5b6000826118bc57634e487b7160e01b600052601260045260246000fd5b500490565b6000806000606084860312156118d657600080fd5b835192506020840151915060408401519050925092509256fea264697066735822122025a3a5045c876f8890acdfecb45072402fdb42b66197d834c3e56f270613161064736f6c6343000818003360a06040523480156200001157600080fd5b5060405162000f3838038062000f38833981016040819052620000349162000242565b808484600362000045838262000368565b50600462000054828262000368565b5050506001600160a01b0381166200008757604051631e4fbdf760e01b8152600060048201526024015b60405180910390fd5b620000928162000128565b5060008211620000d35760405162461bcd60e51b815260206004820152600b60248201526a636170206973207a65726f60a81b60448201526064016200007e565b6001600160a01b0381166200011b5760405162461bcd60e51b815260206004820152600d60248201526c6f776e6572206973207a65726f60981b60448201526064016200007e565b5060805250620004349050565b600580546001600160a01b038381166001600160a01b0319831681179093556040519116919082907f8be0079c531659141344cd1fd0a4f28419497f9722a3daafe3b4186f6b6457e090600090a35050565b634e487b7160e01b600052604160045260246000fd5b600082601f830112620001a257600080fd5b81516001600160401b0380821115620001bf57620001bf6200017a565b604051601f8301601f19908116603f01168101908282118183101715620001ea57620001ea6200017a565b81604052838152602092508660208588010111156200020857600080fd5b600091505b838210156200022c57858201830151818301840152908201906200020d565b6000602085830101528094505050505092915050565b600080600080608085870312156200025957600080fd5b84516001600160401b03808211156200027157600080fd5b6200027f8883890162000190565b955060208701519150808211156200029657600080fd5b50620002a58782880162000190565b60408701516060880151919550935090506001600160a01b0381168114620002cc57600080fd5b939692955090935050565b600181811c90821680620002ec57607f821691505b6020821081036200030d57634e487b7160e01b600052602260045260246000fd5b50919050565b601f82111562000363576000816000526020600020601f850160051c810160208610156200033e5750805b601f850160051c820191505b818110156200035f578281556001016200034a565b5050505b505050565b81516001600160401b038111156200038457620003846200017a565b6200039c81620003958454620002d7565b8462000313565b602080601f831160018114620003d45760008415620003bb5750858301515b600019600386901b1c1916600185901b1785556200035f565b600085815260208120601f198616915b828110156200040557888601518255948401946001909101908401620003e4565b5085821015620004245787850151600019600388901b60f8161c191681555b5050505050600190811b01905550565b608051610ae1620004576000396000818161018a01526103c20152610ae16000f3fe608060405234801561001057600080fd5b506004361061010b5760003560e01c806370a08231116100a257806395d89b411161007157806395d89b41146102295780639dc29fac14610231578063a9059cbb14610244578063dd62ed3e14610257578063f2fde38b1461029057600080fd5b806370a08231146101d5578063715018a6146101fe5780638a8c523c146102065780638da5cb5b1461020e57600080fd5b8063313ce567116100de578063313ce56714610176578063355274ea1461018557806340c10f19146101ac5780634ada218b146101c157600080fd5b806306fdde0314610110578063095ea7b31461012e57806318160ddd1461015157806323b872dd14610163575b600080fd5b6101186102a3565b604051610125919061092a565b60405180910390f35b61014161013c366004610995565b610335565b6040519015158152602001610125565b6002545b604051908152602001610125565b6101416101713660046109bf565b61034f565b60405160128152602001610125565b6101557f000000000000000000000000000000000000000000000000000000000000000081565b6101bf6101ba366004610995565b610373565b005b60055461014190600160a01b900460ff1681565b6101556101e33660046109fb565b6001600160a01b031660009081526020819052604090205490565b6101bf610440565b6101bf610454565b6005546040516001600160a01b039091168152602001610125565b610118610471565b6101bf61023f366004610995565b610480565b610141610252366004610995565b610492565b610155610265366004610a1d565b6001600160a01b03918216600090815260016020908152604080832093909416825291909152205490565b6101bf61029e3660046109fb565b6104a0565b6060600380546102b290610a50565b80601f01602080910402602001604051908101604052809291908181526020018280546102de90610a50565b801561032b5780601f106103005761010080835404028352916020019161032b565b820191906000526020600020905b81548152906001019060200180831161030e57829003601f168201915b5050505050905090565b6000336103438185856104de565b60019150505b92915050565b60003361035d8582856104f0565b61036885858561056f565b506001949350505050565b61037b6105ce565b6001600160a01b0382166103c05760405162461bcd60e51b8152602060048201526007602482015266746f207a65726f60c81b60448201526064015b60405180910390fd5b7f0000000000000000000000000000000000000000000000000000000000000000816103eb60025490565b6103f59190610a8a565b11156104325760405162461bcd60e51b815260206004820152600c60248201526b18d85c08195e18d95959195960a21b60448201526064016103b7565b61043c82826105fb565b5050565b6104486105ce565b6104526000610631565b565b61045c6105ce565b6005805460ff60a01b1916600160a01b179055565b6060600480546102b290610a50565b6104886105ce565b61043c8282610683565b60003361034381858561056f565b6104a86105ce565b6001600160a01b0381166104d257604051631e4fbdf760e01b8152600060048201526024016103b7565b6104db81610631565b50565b6104eb83838360016106b9565b505050565b6001600160a01b03838116600090815260016020908152604080832093861683529290522054600019811015610569578181101561055a57604051637dc7a0d960e11b81526001600160a01b038416600482015260248101829052604481018390526064016103b7565b610569848484840360006106b9565b50505050565b6001600160a01b03831661059957604051634b637e8f60e11b8152600060048201526024016103b7565b6001600160a01b0382166105c35760405163ec442f0560e01b8152600060048201526024016103b7565b6104eb83838361078e565b6005546001600160a01b031633146104525760405163118cdaa760e01b81523360048201526024016103b7565b6001600160a01b0382166106255760405163ec442f0560e01b8152600060048201526024016103b7565b61043c6000838361078e565b600580546001600160a01b038381166001600160a01b0319831681179093556040519116919082907f8be0079c531659141344cd1fd0a4f28419497f9722a3daafe3b4186f6b6457e090600090a35050565b6001600160a01b0382166106ad57604051634b637e8f60e11b8152600060048201526024016103b7565b61043c8260008361078e565b6001600160a01b0384166106e35760405163e602df0560e01b8152600060048201526024016103b7565b6001600160a01b03831661070d57604051634a1406b160e11b8152600060048201526024016103b7565b6001600160a01b038085166000908152600160209081526040808320938716835292905220829055801561056957826001600160a01b0316846001600160a01b03167f8c5be1e5ebec7d5bd14f71427d1e84f3dd0314c0f7b2291e5b200ac8c7c3b9258460405161078091815260200190565b60405180910390a350505050565b600554600160a01b900460ff166107fa576001600160a01b038316158015906107c557506005546001600160a01b03848116911614155b80156107dc57506005546001600160a01b03163314155b156107fa576040516312f1f92360e01b815260040160405180910390fd5b6104eb8383836001600160a01b03831661082b5780600260008282546108209190610a8a565b9091555061089d9050565b6001600160a01b0383166000908152602081905260409020548181101561087e5760405163391434e360e21b81526001600160a01b038516600482015260248101829052604481018390526064016103b7565b6001600160a01b03841660009081526020819052604090209082900390555b6001600160a01b0382166108b9576002805482900390556108d8565b6001600160a01b03821660009081526020819052604090208054820190555b816001600160a01b0316836001600160a01b03167fddf252ad1be2c89b69c2b068fc378daa952ba7f163c4a11628f55a4df523b3ef8360405161091d91815260200190565b60405180910390a3505050565b60006020808352835180602085015260005b818110156109585785810183015185820160400152820161093c565b506000604082860101526040601f19601f8301168501019250505092915050565b80356001600160a01b038116811461099057600080fd5b919050565b600080604083850312156109a857600080fd5b6109b183610979565b946020939093013593505050565b6000806000606084860312156109d457600080fd5b6109dd84610979565b92506109eb60208501610979565b9150604084013590509250925092565b600060208284031215610a0d57600080fd5b610a1682610979565b9392505050565b60008060408385031215610a3057600080fd5b610a3983610979565b9150610a4760208401610979565b90509250929050565b600181811c90821680610a6457607f821691505b602082108103610a8457634e487b7160e01b600052602260045260246000fd5b50919050565b8082018082111561034957634e487b7160e01b600052601160045260246000fdfea26469706673582212208a4b2e93276993cbf55ba336b5a273bb7c128caf9e8895dbaac7c023f463a97364736f6c63430008180033a26469706673582212208e8c453ac613266a48ce0107a5cf7b138ff156893022d79f43c2634f9516082664736f6c63430008180033",
  "linkReferences": {},
  "deployedLinkReferences": {}
}