{
  "_format": "hh-sol-artifact-1",
  "contractName": "LaunchFactory",
  "sourceName": "contracts/LaunchFactory.sol",
  "abi": [
    {
      "inputs": [
        {
          "internalType": "address",
          "name": "router_",
          "type": "address"
        },
        {
          "internalType": "address",
          "name": "leagueReceiver_",
          "type": "address"
        }
      ],
      "stateMutability": "nonpayable",
      "type": "constructor"
    },
    {
      "inputs": [],
      "name": "FailedDeployment",
      "type": "error"
    },
    {
      "inputs": [],
      "name": "FeeTooHigh",
      "type": "error"
    },
    {
      "inputs": [],
      "name": "FeeTooLowForLeague",
      "type": "error"
    },
    {
      "inputs": [],
      "name": "InitBuyTooLarge",
      "type": "error"
    },
    {
      "inputs": [],
      "name": "InitBuyValue",
      "type": "error"
    },
    {
      "inputs": [
        {
          "internalType": "uint256",
          "name": "balance",
          "type": "uint256"
        },
        {
          "internalType": "uint256",
          "name": "needed",
          "type": "uint256"
        }
      ],
      "name": "InsufficientBalance",
      "type": "error"
    },
    {
      "inputs": [],
      "name": "InvalidCurveBps",
      "type": "error"
    },
    {
      "inputs": [],
      "name": "LiquidityBps",
      "type": "error"
    },
    {
      "inputs": [],
      "name": "LogoEmpty",
      "type": "error"
    },
    {
      "inputs": [],
      "name": "NameEmpty",
      "type": "error"
    },
    {
      "inputs": [],
      "name": "Offset",
      "type": "error"
    },
    {
      "inputs": [],
      "name": "OutOfBounds",
      "type": "error"
    },
    {
      "inputs": [
        {
          "internalType": "address",
          "name": "owner",
          "type": "address"
        }
      ],
      "name": "OwnableInvalidOwner",
      "type": "error"
    },
    {
      "inputs": [
        {
          "internalType": "address",
          "name": "account",
          "type": "address"
        }
      ],
      "name": "OwnableUnauthorizedAccount",
      "type": "error"
    },
    {
      "inputs": [],
      "name": "ParamTooHigh",
      "type": "error"
    },
    {
      "inputs": [],
      "name": "PriceZero",
      "type": "error"
    },
    {
      "inputs": [],
      "name": "RecipientZero",
      "type": "error"
    },
    {
      "inputs": [],
      "name": "RefundFail",
      "type": "error"
    },
    {
      "inputs": [],
      "name": "RouterZero",
      "type": "error"
    },
    {
      "inputs": [],
      "name": "SlopeZero",
      "type": "error"
    },
    {
      "inputs": [],
      "name": "SupplyZero",
      "type": "error"
    },
    {
      "inputs": [],
      "name": "SymbolEmpty",
      "type": "error"
    },
    {
      "inputs": [],
      "name": "TargetZero",
      "type": "error"
    },
    {
      "anonymous": false,
      "inputs": [
        {
          "indexed": true,
          "internalType": "uint256",
          "name": "id",
          "type": "uint256"
        },
        {
          "indexed": true,
          "internalType": "address",
          "name": "campaign",
          "type": "address"
        },
        {
          "indexed": true,
          "internalType": "address",
          "name": "token",
          "type": "address"
        },
        {
          "indexed": false,
          "internalType": "address",
          "name": "creator",
          "type": "address"
        },
        {
          "indexed": false,
          "internalType": "string",
          "name": "name",
          "type": "string"
        },
        {
          "indexed": false,
          "internalType": "string",
          "name": "symbol",
          "type": "string"
        }
      ],
      "name": "CampaignCreated",
      "type": "event"
    },
    {
      "anonymous": false,
      "inputs": [
        {
          "components": [
            {
              "internalType": "uint256",
              "name": "totalSupply",
              "type": "uint256"
            },
            {
              "internalType": "uint256",
              "name": "curveBps",
              "type": "uint256"
            },
            {
              "internalType": "uint256",
              "name": "liquidityTokenBps",
              "type": "uint256"
            },
            {
              "internalType": "uint256",
              "name": "basePrice",
              "type": "uint256"
            },
            {
              "internalType": "uint256",
              "name": "priceSlope",
              "type": "uint256"
            },
            {
              "internalType": "uint256",
              "name": "graduationTarget",
              "type": "uint256"
            },
            {
              "internalType": "uint256",
              "name": "liquidityBps",
              "type": "uint256"
            }
          ],
          "indexed": false,
          "internalType": "struct LaunchFactory.LaunchConfig",
          "name": "newConfig",
          "type": "tuple"
        }
      ],
      "name": "ConfigUpdated",
      "type": "event"
    },
    {
      "anonymous": false,
      "inputs": [
        {
          "indexed": true,
          "internalType": "address",
          "name": "newRecipient",
          "type": "address"
        }
      ],
      "name": "FeeRecipientUpdated",
      "type": "event"
    },
    {
      "anonymous": false,
      "inputs": [
        {
          "indexed": true,
          "internalType": "address",
          "name": "previousOwner",
          "type": "address"
        },
        {
          "indexed": true,
          "internalType": "address",
          "name": "newOwner",
          "type": "address"
        }
      ],
      "name": "OwnershipTransferred",
      "type": "event"
    },
    {
      "anonymous": false,
      "inputs": [
        {
          "indexed": false,
          "internalType": "uint256",
          "name": "newFeeBps",
          "type": "uint256"
        }
      ],
      "name": "ProtocolFeeUpdated",
      "type": "event"
    },
    {
      "anonymous": false,
      "inputs": [
        {
          "indexed": true,
          "internalType": "address",
          "name": "newRouter",
          "type": "address"
        }
      ],
      "name": "RouterUpdated",
      "type": "event"
    },
    {
      "inputs": [],
      "name": "LEAGUE_FEE_BPS",
      "outputs": [
        {
          "internalType": "uint256",
          "name": "",
          "type": "uint256"
        }
      ],
      "stateMutability": "view",
      "type": "function"
    },
    {
      "inputs": [],
      "name": "MAX_BASE_PRICE",
      "outputs": [
        {
          "internalType": "uint256",
          "name": "",
          "type": "uint256"
        }
      ],
      "stateMutability": "view",
      "type": "function"
    },
    {
      "inputs": [],
      "name": "MAX_GRADUATION_TARGET",
      "outputs": [
        {
          "internalType": "uint256",
          "name": "",
          "type": "uint256"
        }
      ],
      "stateMutability": "view",
      "type": "function"
    },
    {
      "inputs": [],
      "name": "MAX_PRICE_SLOPE",
      "outputs": [
        {
          "internalType": "uint256",
          "name": "",
          "type": "uint256"
        }
      ],
      "stateMutability": "view",
      "type": "function"
    },
    {
      "inputs": [],
      "name": "campaignImplementation",
      "outputs": [
        {
          "internalType": "address",
          "name": "",
          "type": "address"
        }
      ],
      "stateMutability": "view",
      "type": "function"
    },
    {
      "inputs": [],
      "name": "campaignsCount",
      "outputs": [
        {
          "internalType": "uint256",
          "name": "",
          "type": "uint256"
        }
      ],
      "stateMutability": "view",
      "type": "function"
    },
    {
      "inputs": [],
      "name": "config",
      "outputs": [
        {
          "internalType": "uint256",
          "name": "totalSupply",
          "type": "uint256"
        },
        {
          "internalType": "uint256",
          "name": "curveBps",
          "type": "uint256"
        },
        {
          "internalType": "uint256",
          "name": "liquidityTokenBps",
          "type": "uint256"
        },
        {
          "internalType": "uint256",
          "name": "basePrice",
          "type": "uint256"
        },
        {
          "internalType": "uint256",
          "name": "priceSlope",
          "type": "uint256"
        },
        {
          "internalType": "uint256",
          "name": "graduationTarget",
          "type": "uint256"
        },
        {
          "internalType": "uint256",
          "name": "liquidityBps",
          "type": "uint256"
        }
      ],
      "stateMutability": "view",
      "type": "function"
    },
    {
      "inputs": [
        {
          "components": [
            {
              "internalType": "string",
              "name": "name",
              "type": "string"
            },
            {
              "internalType": "string",
              "name": "symbol",
              "type": "string"
            },
            {
              "internalType": "string",
              "name": "logoURI",
              "type": "string"
            },
            {
              "internalType": "string",
              "name": "xAccount",
              "type": "string"
            },
            {
              "internalType": "string",
              "name": "website",
              "type": "string"
            },
            {
              "internalType": "string",
              "name": "extraLink",
              "type": "string"
            },
            {
              "internalType": "uint256",
              "name": "basePrice",
              "type": "uint256"
            },
            {
              "internalType": "uint256",
              "name": "priceSlope",
              "type": "uint256"
            },
            {
              "internalType": "uint256",
              "name": "graduationTarget",
              "type": "uint256"
            },
            {
              "internalType": "address",
              "name": "lpReceiver",
              "type": "address"
            },
            {
              "internalType": "uint256",
              "name": "initialBuyBnbWei",
              "type": "uint256"
            }
          ],
          "internalType": "struct LaunchFactory.CampaignRequest",
          "name": "req",
          "type": "tuple"
        }
      ],
      "name": "createCampaign",
      "outputs": [
        {
          "internalType": "address",
          "name": "campaignAddr",
          "type": "address"
        },
        {
          "internalType": "address",
          "name": "tokenAddr",
          "type": "address"
        }
      ],
      "stateMutability": "payable",
      "type": "function"
    },
    {
      "inputs": [],
      "name": "feeRecipient",
      "outputs": [
        {
          "internalType": "address",
          "name": "",
          "type": "address"
        }
      ],
      "stateMutability": "view",
      "type": "function"
    },
    {
      "inputs": [
        {
          "internalType": "uint256",
          "name": "id",
          "type": "uint256"
        }
      ],
      "name": "getCampaign",
      "outputs": [
        {
          "components": [
            {
              "internalType": "address",
              "name": "campaign",
              "type": "address"
            },
            {
              "internalType": "address",
              "name": "token",
              "type": "address"
            },
            {
              "internalType": "address",
              "name": "creator",
              "type": "address"
            },
            {
              "internalType": "string",
              "name": "name",
              "type": "string"
            },
            {
              "internalType": "string",
              "name": "symbol",
              "type": "string"
            },
            {
              "internalType": "string",
              "name": "logoURI",
              "type": "string"
            },
            {
              "internalType": "string",
              "name": "xAccount",
              "type": "string"
            },
            {
              "internalType": "string",
              "name": "website",
              "type": "string"
            },
            {
              "internalType": "string",
              "name": "extraLink",
              "type": "string"
            },
            {
              "internalType": "uint64",
              "name": "createdAt",
              "type": "uint64"
            }
          ],
          "internalType": "struct LaunchFactory.CampaignInfo",
          "name": "",
          "type": "tuple"
        }
      ],
      "stateMutability": "view",
      "type": "function"
    },
    {
      "inputs": [
        {
          "internalType": "uint256",
          "name": "offset",
          "type": "uint256"
        },
        {
          "internalType": "uint256",
          "name": "limit",
          "type": "uint256"
        }
      ],
      "name": "getCampaignPage",
      "outputs": [
        {
          "components": [
            {
              "internalType": "address",
              "name": "campaign",
              "type": "address"
            },
            {
              "internalType": "address",
              "name": "token",
              "type": "address"
            },
            {
              "internalType": "address",
              "name": "creator",
              "type": "address"
            },
            {
              "internalType": "string",
              "name": "name",
              "type": "string"
            },
            {
              "internalType": "string",
              "name": "symbol",
              "type": "string"
            },
            {
              "internalType": "string",
              "name": "logoURI",
              "type": "string"
            },
            {
              "internalType": "string",
              "name": "xAccount",
              "type": "string"
            },
            {
              "internalType": "string",
              "name": "website",
              "type": "string"
            },
            {
              "internalType": "string",
              "name": "extraLink",
              "type": "string"
            },
            {
              "internalType": "uint64",
              "name": "createdAt",
              "type": "uint64"
            }
          ],
          "internalType": "struct LaunchFactory.CampaignInfo[]",
          "name": "page",
          "type": "tuple[]"
        }
      ],
      "stateMutability": "view",
      "type": "function"
    },
    {
      "inputs": [],
      "name": "leagueReceiver",
      "outputs": [
        {
          "internalType": "address",
          "name": "",
          "type": "address"
        }
      ],
      "stateMutability": "view",
      "type": "function"
    },
    {
      "inputs": [],
      "name": "owner",
      "outputs": [
        {
          "internalType": "address",
          "name": "",
          "type": "address"
        }
      ],
      "stateMutability": "view",
      "type": "function"
    },
    {
      "inputs": [],
      "name": "protocolFeeBps",
      "outputs": [
        {
          "internalType": "uint256",
          "name": "",
          "type": "uint256"
        }
      ],
      "stateMutability": "view",
      "type": "function"
    },
    {
      "inputs": [
        {
          "internalType": "uint256",
          "name": "initialBuyTokens",
          "type": "uint256"
        },
        {
          "internalType": "uint256",
          "name": "basePriceOverride",
          "type": "uint256"
        },
        {
          "internalType": "uint256",
          "name": "priceSlopeOverride",
          "type": "uint256"
        }
      ],
      "name": "quoteInitialBuyTotal",
      "outputs": [
        {
          "internalType": "uint256",
          "name": "",
          "type": "uint256"
        }
      ],
      "stateMutability": "view",
      "type": "function"
    },
    {
      "inputs": [],
      "name": "renounceOwnership",
      "outputs": [],
      "stateMutability": "nonpayable",
      "type": "function"
    },
    {
      "inputs": [],
      "name": "router",
      "outputs": [
        {
          "internalType": "address",
          "name": "",
          "type": "address"
        }
      ],
      "stateMutability": "view",
      "type": "function"
    },
    {
      "inputs": [
        {
          "components": [
            {
              "internalType": "uint256",
              "name": "totalSupply",
              "type": "uint256"
            },
            {
              "internalType": "uint256",
              "name": "curveBps",
              "type": "uint256"
            },
            {
              "internalType": "uint256",
              "name": "liquidityTokenBps",
              "type": "uint256"
            },
            {
              "internalType": "uint256",
              "name": "basePrice",
              "type": "uint256"
            },
            {
              "internalType": "uint256",
              "name": "priceSlope",
              "type": "uint256"
            },
            {
              "internalType": "uint256",
              "name": "graduationTarget",
              "type": "uint256"
            },
            {
              "internalType": "uint256",
              "name": "liquidityBps",
              "type": "uint256"
            }
          ],
          "internalType": "struct LaunchFactory.LaunchConfig",
          "name": "newConfig",
          "type": "tuple"
        }
      ],
      "name": "setConfig",
      "outputs": [],
      "stateMutability": "nonpayable",
      "type": "function"
    },
    {
      "inputs": [
        {
          "internalType": "address",
          "name": "newRecipient",
          "type": "address"
        }
      ],
      "name": "setFeeRecipient",
      "outputs": [],
      "stateMutability": "nonpayable",
      "type": "function"
    },
    {
      "inputs": [
        {
          "internalType": "uint256",
          "name": "newProtocolFeeBps",
          "type": "uint256"
        }
      ],
      "name": "setProtocolFee",
      "outputs": [],
      "stateMutability": "nonpayable",
      "type": "function"
    },
    {
      "inputs": [
        {
          "internalType": "address",
          "name": "newRouter",
          "type": "address"
        }
      ],
      "name": "setRouter",
      "outputs": [],
      "stateMutability": "nonpayable",
      "type": "function"
    },
    {
      "inputs": [
        {
          "internalType": "address",
          "name": "newOwner",
          "type": "address"
        }
      ],
      "name": "transferOwnership",
      "outputs": [],
      "stateMutability": "nonpayable",
      "type": "function"
    },
    {
      "stateMutability": "payable",
      "type": "receive"
    }
  ],
  "bytecode": "0x60a034620002105762006626906001600160401b03601f38849003908101601f19168301908282118483101762000215578084916040968794855283398101031262000210576200005e602062000056846200022b565b93016200022b565b903315620001f857600080546001600160a01b0319808216339081178455875191966001600160a01b03969495949387929083167f8be0079c531659141344cd1fd0a4f28419497f9722a3daafe3b4186f6b6457e08880a316908115620001e9575084821615620001d85785600a541617600a55608052845160e0810181811083821117620001c4579060c09187526b033b2e3c9fd0803ce80000008082526122608060208401526103e8808a850152652d79883d200091826060860152633b9aca00938460808701526802b5e3af16b1880000958660a0820152611f4097889101526001556002556003556004556005556006556007553384600854161760085560c860095584519061428d8083019183831090831117620001c457908291620023998339039082f0908115620001b957501690600b541617600b555161215890816200024182396080518181816103f801526118be0152f35b8451903d90823e3d90fd5b634e487b7160e01b84526041600452602484fd5b8651633d9eb1db60e01b8152600490fd5b631ef88b9960e21b8152600490fd5b8351631e4fbdf760e01b815260006004820152602490fd5b600080fd5b634e487b7160e01b600052604160045260246000fd5b51906001600160a01b0382168203620002105756fe610200604052600436101561001c575b361561001a57600080fd5b005b60006101e0526101e0513560e01c8063228d452a14611a6e5780632b6c075b146119e957806335659fb8146119c957806344c89b65146119a9578063469048401461197e5780635598f8cc1461191857806362a6e065146118ed5780636700e332146118a65780636caffb81146116c7578063715018a614611677578063787dce3d146115f057806379502c551461159d5780638da5cb5b14611570578063967d112c146115525780639914fb9a1461152b578063c0d78655146114a4578063d6e172961461147e578063db1d03da14611452578063e74b981b146113cb578063f2fde38b14611348578063f887ea401461131d5763fc51ff4c0361000f57600319602036820112610c47576001600160401b0360043511610c47576101609060043536030112610c4757610155600480350180612041565b90501561130b57610170602460043501600435600401612041565b9050156112f95761018b604460043501600435600401612041565b9050156112e75760c460043501351515806112cf575b6112865760e460043501351515806112b2575b611286576101046004350135151580611298575b611286576101da600480350180612041565b61010052610160526101f6602460043501600435600401612041565b6101a05261020e604460043501600435600401612041565b610225606460049493943501600435600401612041565b93909261023c608460043501600435600401612041565b9261025160a460043501600435600401612041565b9190926001549560025497600354996101e0515060c4600435013515600014611279576004549b5b6101e05160805260043560e4013561126a576005546080525b6101e05160c052600435610104013561125a5760065460c0525b600754610120526009546101c052600a546001600160a01b039081166101805260043561012401906102dd82612078565b6101e0516101405216611248575033610140525b6008546001600160a01b031660e05260405160a08190526001600160401b036102a08201908111911117610d5957610369610385966103779461035b6103939c6102a060a0510160405261034c3661010051610160516120a7565b60a051526101a05136916120a7565b602060a051015236916120a7565b604060a051015236916120a7565b606060a051015236916120a7565b608060a051015236916120a7565b60a08051015260c060a051015260e060a051015261010060a051015261012060a051015260805161014060a051015260c05161016060a05101526101205161018060a05101526101c0516101a060a051015260196101c060a051015260018060a01b037f0000000000000000000000000000000000000000000000000000000000000000166101e060a05101526101805161020060a051015260018060a01b03610140511661022060a051015260e05161024060a05101523361026060a05101523061028060a05101526e5af43d82803e903d91602b57fd5bf3600b54763d602d80600a3d3981f3363d3d373d3d3d363d7300000062ffffff8260881c16176101e0515260018060781b03199060781b161760205260018060a01b03603760096101e051f016801561123657803b15610c475760405163c59f5eed60e01b8152602060048201526105766104f760a051516102a060248501526102c4840190611a9a565b61056061054a61053461051e602060a05101519460231995868983030160448a0152611a9a565b604060a051015185888303016064890152611a9a565b606060a051015184878303016084880152611a9a565b608060a0510151838683030160a4870152611a9a565b9060a080510151908483030160c4850152611a9a565b60a0805160c0015160e4840152805160e0015161010484015280516101000151610124840152805161012001516101448401528051610140015161016484015280516101600151610184840152805161018001516101a484015280516101a001516101c484015280516101c001516101e484015280516101e0908101516001600160a01b03908116610204860152825161020001518116610224860152825161022001518116610244860152825161024001518116610264860152825161026001518116610284860152915161028001519091166102a4840152519082908190038183865af18015610c565761121f575b50604051637e062a3560e11b815290602082600481845afa918215610c56576101e051926111db575b50816106a0600480350180612041565b906106b360048035602481019101612041565b906106c660048035604481019101612041565b906106d960048035606481019101612041565b919092600435608401600435600401906106f291612041565b95909660043560a4016004356004019061070b91612041565b99909a8d6040519d8e9161071e83611c6c565b82526001600160a01b03166020909101523360408e0152610741913691906120a7565b60608c01523690610751926120a7565b60808a01523690610761926120a7565b60a08801523690610771926120a7565b60c08601523690610781926120a7565b60e08401523690610791926120a7565b610100820152426001600160401b0316610120820152600c54600160401b811015610d59578060016107c69201600c55611d30565b6111bf57815181546001600160a01b039182166001600160a01b03199182161783556020840151600184018054918416918316919091179055604084015160028401805491909316911617905560608201518051906001600160401b038211610d595781906108386003850154611d79565b601f8111611166575b506020906001601f8411146110ee576101e051926110e3575b50508160011b916000199060031b1c19161760038201555b60808201518051906001600160401b038211610d595781906108976004850154611d79565b601f811161108a575b506020906001601f841114611012576101e05192611007575b50508160011b916000199060031b1c19161760048201555b60a08201518051906001600160401b038211610d595781906108f66005850154611d79565b601f8111610fae575b506020906001601f841114610f36576101e05192610f2b575b50508160011b916000199060031b1c19161760058201555b60c08201518051906001600160401b038211610d595781906109556006850154611d79565b601f8111610ed2575b506020906001601f841114610e5a576101e05192610e4f575b50508160011b916000199060031b1c19161760068201555b60e08201518051906001600160401b038211610d595781906109b46007850154611d79565b601f8111610df6575b506020906001601f841114610d7e576101e05192610d73575b50508160011b916000199060031b1c19161760078201555b6101008201518051906001600160401b038211610d5957610a126008840154611d79565b601f8111610d0c575b506020906001601f841114610c9357918091600994936101e05192610c88575b50508160011b916000199060031b1c19161760088201555b61012090920151910180546001600160401b0319166001600160401b03929092169190911790556101e051600435610144013580610bc2575b50803411610b5d575b50600c54600019810192908311610b4357604092610b2b9083907ffdb1476ee472ae4c88dd3d31e0289bf3aede684aae57fae4d32c92e7585911ef610ade600480350180612041565b610af2602460043501600435600401612041565b610b118b989298519485943386526060602087015260608601916120de565b8381038c8501526001600160a01b038a16989091906120de565b0390a482519182526001600160a01b03166020820152f35b634e487b7160e01b6101e05152601160045260246101e051fd5b6101e05190819081908190610b729034611d23565b335af13d15610bbd573d610b858161208c565b90610b936040519283611c9e565b81526101e0513d916020013e5b15610bab5738610a95565b6040516305610ec560e01b8152600490fd5b610ba0565b9050670de0b6b3a76400008111610c7657803410610c645760408051639e6ea74d60e01b81523360048201526101e05160248201529182906044908290865af1908115610c56576101e05191610c1a575b5038610a8c565b90506040813d604011610c4e575b81610c3560409383611c9e565b81010312610c47576020015138610c13565b6101e05180fd5b3d9150610c28565b6040513d6101e051823e3d90fd5b604051633b56ac4f60e01b8152600490fd5b60405163049428d560e11b8152600490fd5b015190503880610a3b565b90600884016101e0515260206101e05120916101e0515b601f1985168110610cf4575091839160019360099695601f19811610610cdb575b505050811b016008820155610a53565b015160001960f88460031b161c19169055388080610ccb565b91926020600181928685015181550194019201610caa565b600884016101e0515260206101e05120601f840160051c810160208510610d52575b601f830160051c82018110610d44575050610a1b565b6101e0518155600101610d2e565b5080610d2e565b634e487b7160e01b6101e05152604160045260246101e051fd5b0151905038806109d6565b9250600784016101e0515260206101e05120906101e051935b601f1984168510610ddb576001945083601f19811610610dc2575b505050811b0160078201556109ee565b015160001960f88460031b161c19169055388080610db2565b81810151835560209485019460019093019290910190610d97565b909150600784016101e0515260206101e05120601f840160051c810160208510610e48575b90849392915b601f830160051c82018110610e375750506109bd565b6101e0518155859450600101610e21565b5080610e1b565b015190503880610977565b9250600684016101e0515260206101e05120906101e051935b601f1984168510610eb7576001945083601f19811610610e9e575b505050811b01600682015561098f565b015160001960f88460031b161c19169055388080610e8e565b81810151835560209485019460019093019290910190610e73565b909150600684016101e0515260206101e05120601f840160051c810160208510610f24575b90849392915b601f830160051c82018110610f1357505061095e565b6101e0518155859450600101610efd565b5080610ef7565b015190503880610918565b9250600584016101e0515260206101e05120906101e051935b601f1984168510610f93576001945083601f19811610610f7a575b505050811b016005820155610930565b015160001960f88460031b161c19169055388080610f6a565b81810151835560209485019460019093019290910190610f4f565b909150600584016101e0515260206101e05120601f840160051c810160208510611000575b90849392915b601f830160051c82018110610fef5750506108ff565b6101e0518155859450600101610fd9565b5080610fd3565b0151905038806108b9565b9250600484016101e0515260206101e05120906101e051935b601f198416851061106f576001945083601f19811610611056575b505050811b0160048201556108d1565b015160001960f88460031b161c19169055388080611046565b8181015183556020948501946001909301929091019061102b565b909150600484016101e0515260206101e05120601f840160051c8101602085106110dc575b90849392915b601f830160051c820181106110cb5750506108a0565b6101e05181558594506001016110b5565b50806110af565b01519050388061085a565b9250600384016101e0515260206101e05120906101e051935b601f198416851061114b576001945083601f19811610611132575b505050811b016003820155610872565b015160001960f88460031b161c19169055388080611122565b81810151835560209485019460019093019290910190611107565b909150600384016101e0515260206101e05120601f840160051c8101602085106111b8575b90849392915b601f830160051c820181106111a7575050610841565b6101e0518155859450600101611191565b508061118b565b634e487b7160e01b6101e051526101e05160045260246101e051fd5b9091506020813d602011611217575b816111f760209383611c9e565b81010312610c4757516001600160a01b0381168103610c47579038610690565b3d91506111ea565b6001600160401b038111610d595760405238610667565b60405163b06ebf3d60e01b8152600490fd5b61125190612078565b610140526102f1565b610104600435013560c0526102ac565b60e46004350135608052610292565b60c460043501359b610279565b6040516372bda9b160e11b8152600490fd5b5069d3c21bcecceda10000006101046004350135116101c8565b506a0c097ce7bc90715b34b9f160241b60043560e40135116101b4565b50683635c9adc5dea0000060c46004350135116101a1565b604051631b43d34f60e21b8152600490fd5b604051631790aef760e31b8152600490fd5b604051631ff3ed9d60e01b8152600490fd5b34610c47576101e051366003190112610c4757600a546040516001600160a01b039091168152602090f35b34610c47576020366003190112610c47576004356001600160a01b0381811691829003610c47576113776120ff565b81156113b0576101e05180546001600160a01b0319811684178255919091169060008051602061212c8339815191529080a36101e05180f35b604051631e4fbdf760e01b81526101e0516004820152602490fd5b34610c47576020366003190112610c47576004356001600160a01b03811690819003610c47576113f96120ff565b801561144057600880546001600160a01b031916821790556101e0517f7a7b5a0a132f9e0581eb8527f66eae9ee89c2a3e79d4ac7e41a1f1f4d48a7fc29080a26101e05180f35b604051633d9eb1db60e01b8152600490fd5b34610c47576101e051366003190112610c47576040516a0c097ce7bc90715b34b9f160241b8152602090f35b34610c47576101e051366003190112610c47576020604051683635c9adc5dea000008152f35b34610c47576020366003190112610c47576004356001600160a01b03811690819003610c47576114d26120ff565b801561151957600a80546001600160a01b031916821790556101e0517f7aed1d3e8155a07ccf395e44ea3109a0e2d6c9b29bbbe9f142d9790596f4dc809080a26101e05180f35b604051631ef88b9960e21b8152600490fd5b34610c47576101e051366003190112610c4757602060405169d3c21bcecceda10000008152f35b34610c47576101e051366003190112610c4757602060405160198152f35b34610c47576101e051366003190112610c47576101e051546040516001600160a01b039091168152602090f35b34610c47576101e051366003190112610c475760e0600154600254600354600454600554906006549260075494604051968752602087015260408601526060850152608084015260a083015260c0820152f35b34610c47576020366003190112610c475760043561160c6120ff565b6103e881116116655760198110611653576020817fd10d75876659a287a59a6ccfa2e3fff42f84d94b542837acd30bc184d562de4092600955604051908152a16101e05180f35b6040516306fc103f60e41b8152600490fd5b60405163cd4e616760e01b8152600490fd5b34610c47576101e051366003190112610c47576116926120ff565b6101e05180546001600160a01b0319811682556001600160a01b031660008051602061212c8339815191528280a36101e05180f35b34610c475760e0366003190112610c47576116e06120ff565b60405160e081016001600160401b03811182821017610d595760405260043580825260243590602083019282845260443593604082018581526064356060840192818452608435926080860184815260a4359560a088019287845260c060c4359901948986528a156118945751801515918261187c575b50501561186a5780511561185857683635c9adc5dea000009051116112865780511561184657516a0c097ce7bc90715b34b9f160241b10611286578051156118345769d3c21bcecceda100000090511161128657612710905111611822577f7c4abc5e661f62070299968a3a9a482d60903a066b120d28cc5512eec5ee38f29660e09686600155806002558160035582600455836005558460065585600755604051968752602087015260408601526060850152608084015260a083015260c0820152a16101e05180f35b604051630cc8afa560e31b8152600490fd5b6040516301c7164760e41b8152600490fd5b6040516382a62b8560e01b8152600490fd5b604051637294708f60e11b8152600490fd5b60405163d2de546160e01b8152600490fd5b51612710925061188b91611bc5565b11158c80611757565b604051639fbba64f60e01b8152600490fd5b34610c47576101e051366003190112610c47576040517f00000000000000000000000000000000000000000000000000000000000000006001600160a01b03168152602090f35b34610c47576101e051366003190112610c4757600b546040516001600160a01b039091168152602090f35b34610c47576020366003190112610c4757600435611934611cd8565b50600c5481101561196c5761195461194e61196892611d30565b50611e58565b604051918291602083526020830190611ada565b0390f35b604051632d0483c560e21b8152600490fd5b34610c47576101e051366003190112610c47576008546040516001600160a01b039091168152602090f35b34610c47576101e051366003190112610c47576020600c54604051908152f35b34610c47576101e051366003190112610c47576020600954604051908152f35b34610c47576040366003190112610c4757611a08602435600435611f0b565b60405160209160208201926020835281518094526040830193602060408260051b8601019301916101e051955b828710611a425785850386f35b909192938280611a5e600193603f198a82030186528851611ada565b9601920196019592919092611a35565b34610c47576060366003190112610c47576020611a92604435602435600435611bd2565b604051908152f35b919082519283825260005b848110611ac6575050826000602080949584010152601f8019910116010190565b602081830181015184830182015201611aa5565b90611b84611b70611b5e611b4c611b3a611b2861014060018060a01b03808a511689528060208b01511660208a015260408a01511660408901526060890151908060608a0152880190611a9a565b60808801518782036080890152611a9a565b60a087015186820360a0880152611a9a565b60c086015185820360c0870152611a9a565b60e085015184820360e0860152611a9a565b610100808501519084830390850152611a9a565b610120928301516001600160401b0316919092015290565b81810292918115918404141715611baf57565b634e487b7160e01b600052601160045260246000fd5b91908201809211611baf57565b8015611c6457611c3c92611c2d928015611c5a57905b828115611c3f57611c06670de0b6b3a764000091611c269394611b9c565b0492611c21816a0c097ce7bc90715b34b9f160251b94611b9c565b611b9c565b0490611bc5565b612710611c2660095483611b9c565b90565b611c269150611c06670de0b6b3a76400009160055494611b9c565b5060045490611be8565b505050600090565b61014081019081106001600160401b03821117611c8857604052565b634e487b7160e01b600052604160045260246000fd5b601f909101601f19168101906001600160401b03821190821017611c8857604052565b6001600160401b038111611c885760051b60200190565b60405190611ce582611c6c565b600061012083828152826020820152826040820152606080808301528060808301528060a08301528060c08301528060e08301526101008201520152565b91908203918211611baf57565b600c54811015611d4f57600c600052600a602060002091020190600090565b634e487b7160e01b600052603260045260246000fd5b8051821015611d4f5760209160051b010190565b90600182811c92168015611da9575b6020831014611d9357565b634e487b7160e01b600052602260045260246000fd5b91607f1691611d88565b90604051918260008254611dc681611d79565b90818452602094600191600181169081600014611e365750600114611df7575b505050611df592500383611c9e565b565b600090815285812095935091905b818310611e1e575050611df59350820101388080611de6565b85548884018501529485019487945091830191611e05565b92505050611df594925060ff191682840152151560051b820101388080611de6565b90604051611e6581611c6c565b82546001600160a01b039081168252600184015481166020830152600284015416604082015291829061012090611e9e60038201611db3565b6060840152611eaf60048201611db3565b6080840152611ec060058201611db3565b60a0840152611ed160068201611db3565b60c0840152611ee260078201611db3565b60e0840152611ef360088201611db3565b610100840152600901546001600160401b0316910152565b9190600c549081158081159182612038575b15612026579061201e575b611ff657611f369084611bc5565b90808211611fee575b5082600091818111600014611fe757611f589250611d23565b611f6181611cc1565b611f6e6040519182611c9e565b818152601f19611f7d83611cc1565b0160005b818110611fd0575050809360005b838110611f9c5750505050565b80611fb461194e611faf60019486611bc5565b611d30565b611fbe8286611d65565b52611fc98185611d65565b5001611f8f565b602090611fdb611cd8565b82828601015201611f81565b5050611f58565b905038611f3f565b5050604051909150602081016001600160401b03811182821017611c88576040526000815290565b508015611f28565b604051632930eba560e11b8152600490fd5b50838610611f1d565b903590601e198136030182121561207357018035906001600160401b0382116120735760200191813603831361207357565b600080fd5b356001600160a01b03811681036120735790565b6001600160401b038111611c8857601f01601f191660200190565b9291926120b38261208c565b916120c16040519384611c9e565b829481845281830111612073578281602093846000960137010152565b908060209392818452848401376000828201840152601f01601f1916010190565b6000546001600160a01b0316330361211357565b60405163118cdaa760e01b8152336004820152602490fdfe8be0079c531659141344cd1fd0a4f28419497f9722a3daafe3b4186f6b6457e0a164736f6c6343000818000a6080806040523461006b576001600081815581546001600160a01b031981168317835582916001600160a01b03909116907f8be0079c531659141344cd1fd0a4f28419497f9722a3daafe3b4186f6b6457e09080a360ff19601f541617601f5561421c90816100718239f35b600080fdfe60808060405260043610156200001f575b5036156200001d57600080fd5b005b600090813560e01c90816302c7e7af14620028be5750806318160ddd146200289e5780631dd9e2df14620027a75780631f0c57fc146200277c5780632138a4c0146200275c57806335659fb8146200273c578063365d57a4146200271c578063366ad25014620026b75780633794f6be14620024df578063381562c214620024bf57806346904840146200249457806354354629146200247457806354e42f7e146200245457806360068dd8146200241157806365161831146200224a5780636700e332146200221f5780636915712d14620020485780636bb38b281462001f88578063715018a61462001f385780638091f3bf1462001f1357806386f2ece01462001ef357806389f2f0851462001ed35780638da5cb5b1462001ea85780639d1b464a1462001e7b5780639e6ea74d1462001c7e578063a4b20f131462001c5e578063af7695451462001bef578063b6013cef146200164c578063b915d4be1462001616578063ba49a08c14620015f6578063beb0a4161462001559578063bec92898146200151c578063c45a015514620014f1578063c59f5eed14620006fe578063c7876ea414620006de578063c9f62af214620006be578063cd1fc09f146200069e578063dd1a2a391462000601578063ed33da2714620003bd578063f20f3d9014620002e3578063f2fde38b1462000284578063f887ea4014620002595763fc0c546a0362000010573462000256578060031936011262000256576002546040516001600160a01b039091168152602090f35b80fd5b503462000256578060031936011262000256576004546040516001600160a01b039091168152602090f35b5034620002565760203660031901126200025657620002a2620028f8565b620002ac62002fe2565b6001600160a01b03811615620002ca57620002c7906200300f565b80f35b604051631e4fbdf760e01b815260048101839052602490fd5b50346200025657806003193601126200025657604051600b546000826200030a8362002924565b91828252602093600190856001821691826000146200039b57505060011462000357575b506200033d9250038362002991565b62000353604051928284938452830190620029b5565b0390f35b849150600b60005281600020906000915b858310620003825750506200033d9350820101856200032e565b8054838901850152879450869390920191810162000368565b60ff1916858201526200033d95151560051b85010192508791506200032e9050565b5060603660031901126200025657620003d5620028f8565b6005546001600160a01b039060243590620003f4908316331462002c6f565b620003fe62002e28565b818316916200040f83151562002cab565b6200042060ff601854161562002b30565b6200042d82151562002a95565b620004776017546200044f62000444858362002ba9565b601454101562002bb7565b620004706200046962000463868462002ba9565b62003153565b9162003153565b9062002b0c565b620004828162002e4c565b6200048e818362002ba9565b956200049f60443588111562002b71565b620004ad8734101562002bef565b620004bb83601a5462002ba9565b601a55858852601d60205260408820805460ff811615620005ba575b50509360019593600080516020620041f083398151915293604093620005178460209c99620005098260175462002ba9565b601755856003541662002fb5565b62000559575b50508634116200053c575b81519081528688820152a255604051908152f35b620005536200054c883462002b0c565b3362002f62565b62000528565b620005649062002e71565b915080151580620005ac575b62000595575b5080156200051d576200058d916007541662002ee6565b38806200051d565b620005a590836006541662002ee6565b3862000576565b508260065416151562000570565b60019060ff1916179055601c5460018101809111620005ed57601c5583600080516020620041f0833981519152620004d7565b634e487b7160e01b89526011600452602489fd5b50346200025657806003193601126200025657604051600d54600082620006288362002924565b91828252602093600190856001821691826000146200039b5750506001146200065a57506200033d9250038362002991565b849150600d60005281600020906000915b858310620006855750506200033d9350820101856200032e565b805483890185015287945086939092019181016200066b565b503462000256578060031936011262000256576020600854604051908152f35b503462000256578060031936011262000256576020601154604051908152f35b503462000256578060031936011262000256576020600e54604051908152f35b503462000256576003199060203683011262000256576001600160401b036004351162000256576102a080926004353603011262000256576040519182016001600160401b03811183821017620014db576040526004803501356001600160401b038111620014d7576200077a90600436918135010162002a13565b8252600435602401356001600160401b038111620014d757620007a590600436918135010162002a13565b6020830190815290600435604401356001600160401b038111620014d757620007d690600436918135010162002a13565b6040840152600435606401356001600160401b038111620014d7576200080490600436918135010162002a13565b6060840152600435608401356001600160401b038111620014d7576200083290600436918135010162002a13565b608084015260043560a401356001600160401b038111620014d7576200086090600436918135010162002a13565b60a084015260043560c481013560c085015260e481013560e08501526101048101356101008501526101248101356101208501526101448101356101408501526101648101356101608501526101848101356101808501526101a48101356101a08501526101c48101356101c0850152620008df906101e4016200290f565b6101e0840152620008f6610204600435016200290f565b6102008401526200090d610224600435016200290f565b61022084015262000924610244600435016200290f565b6102408401526200093b610264600435016200290f565b61026084015262000952610284600435016200290f565b610280840152601f5460ff8116620014a45760ff1916600117601f5560c0830151156200146e5760e0830151801515908162001461575b50156200143057612710620009a960e08501516101008601519062002ba9565b11620013f85761012083015115620013c6576101408301511562001394576102008301516001600160a01b03161562001361576102608301516001600160a01b0316156200132d5761271061018084015111620012f8576127106101a084015111620012c4576101c08301516101a0840151106200128d576101e08301516001600160a01b031615620012515760408301515115620012215761026083015162000a5c906001600160a01b03166200300f565b604083015180519093906001600160401b03811162000f5d5762000a82600a5462002924565b601f8111620011ce575b506020601f821160011462001155578394958293949262001149575b50508160011b916000199060031b1c191617600a555b606081015180519093906001600160401b038111620011355762000ae4600b5462002924565b601f8111620010e2575b506020601f82116001146200106957849582939495926200105d575b50508160011b916000199060031b1c191617600b555b608082015180519093906001600160401b038111620010495762000b46600c5462002924565b601f811162000ff6575b506020601f821160011462000f7d578293949582939262000f71575b50508160011b916000199060031b1c191617600c555b60a083015180519093906001600160401b03811162000f5d5762000ba8600d5462002924565b601f811162000f0a575b506020601f821160011462000e91578394958293949262000e85575b50508160011b916000199060031b1c191617600d555b610120810151600e55610140810151600f556101608101516010556101808101516011556101a0810151601255610280810151600580546001600160a01b03199081166001600160a01b03938416179091556102408301516006805483169184169190911790556101e0830151600780549092169083161790556101c0820151600855610220820151168062000e7f57506102608101516001600160a01b03165b600980546001600160a01b039283166001600160a01b0319918216179091556102008301516004805491909316911617905560c0810151601381905560e082015162000d119162000d17916127109162000ce0919062002ce9565b048060145561271062000cfe60c08601516101008701519062002ce9565b049283918260155560c086015162002b0c565b62002b0c565b6016551562000e49578051925160c082015160405190949091610f6a80840192906001600160401b0384118585101762000e355786979262000d6f86959362000d7e93620031e68839608085526080850190620029b5565b908382036020850152620029b5565b916040820152606030910152039083f0801562000e2657600280546001600160a01b03198082166001600160a01b0390941693841790925560038054909216908516909217918217905560c0919091015190803b1562000e31576040516340c10f1960e01b8152918391839182908490829062000e0090306004840162002cfd565b03925af1801562000e265762000e135750f35b62000e1e9062002961565b620002565780f35b6040513d84823e3d90fd5b5050fd5b634e487b7160e01b87526041600452602487fd5b60405162461bcd60e51b815260206004820152600e60248201526d6c6971756964697479207a65726f60901b6044820152606490fd5b62000c85565b01519050388062000bce565b600d84526000805160206200419083398151915290845b601f198416811062000ef1575060019394959683601f1981161062000ed7575b505050811b01600d5562000be4565b015160001960f88460031b161c1916905538808062000ec8565b9091602060018192858b01518155019301910162000ea8565b600d845260008051602062004190833981519152601f830160051c81016020841062000f55575b601f830160051c8201811062000f4957505062000bb2565b85815560010162000f31565b508062000f31565b634e487b7160e01b83526041600452602483fd5b01519050388062000b6c565b600c83526000805160206200415083398151915290835b601f198416811062000fdd575060019394959683601f1981161062000fc3575b505050811b01600c5562000b82565b015160001960f88460031b161c1916905538808062000fb4565b9091602060018192858b01518155019301910162000f94565b600c835260008051602062004150833981519152601f830160051c81016020841062001041575b601f830160051c820181106200103557505062000b50565b8481556001016200101d565b50806200101d565b634e487b7160e01b82526041600452602482fd5b01519050388062000b0a565b600b8552600080516020620041d083398151915290855b601f1984168110620010c9575060019394959683601f19811610620010af575b505050811b01600b5562000b20565b015160001960f88460031b161c19169055388080620010a0565b9091602060018192858b01518155019301910162001080565b600b8552600080516020620041d0833981519152601f830160051c8101602084106200112d575b601f830160051c820181106200112157505062000aee565b86815560010162001109565b508062001109565b634e487b7160e01b84526041600452602484fd5b01519050388062000aa8565b600a84526000805160206200417083398151915290845b601f1984168110620011b5575060019394959683601f198116106200119b575b505050811b01600a5562000abe565b015160001960f88460031b161c191690553880806200118c565b9091602060018192858b0151815501930191016200116c565b600a845260008051602062004170833981519152601f830160051c81016020841062001219575b601f830160051c820181106200120d57505062000a8c565b858155600101620011f5565b5080620011f5565b60405162461bcd60e51b81526020600482015260086024820152676c6f676f2075726960c01b6044820152606490fd5b60405162461bcd60e51b81526020600482015260146024820152736c6561677565207265636569766572207a65726f60601b6044820152606490fd5b60405162461bcd60e51b815260206004820152600f60248201526e1b195859dd594f9c1c9bdd1bd8dbdb608a1b6044820152606490fd5b60405162461bcd60e51b815260206004820152600c60248201526b70726f746f636f6c2062707360a01b6044820152606490fd5b60405162461bcd60e51b815260206004820152600d60248201526c6c69717569646974792062707360981b6044820152606490fd5b60405162461bcd60e51b815260206004820152600c60248201526b63726561746f72207a65726f60a01b6044820152606490fd5b60405162461bcd60e51b815260206004820152600b60248201526a726f75746572207a65726f60a81b6044820152606490fd5b60405162461bcd60e51b815260206004820152600a602482015269736c6f7065207a65726f60b01b6044820152606490fd5b60405162461bcd60e51b815260206004820152600a6024820152697072696365207a65726f60b01b6044820152606490fd5b60405162461bcd60e51b815260206004820152601060248201526f706f7274696f6e206f766572666c6f7760801b6044820152606490fd5b60405162461bcd60e51b815260206004820152600960248201526863757276652062707360b81b6044820152606490fd5b6127109150103862000989565b60405162461bcd60e51b815260206004820152600e60248201526d696e76616c696420737570706c7960901b6044820152606490fd5b60405162461bcd60e51b815260206004820152600b60248201526a1a5b9a5d1a585b1a5e995960aa1b6044820152606490fd5b5080fd5b634e487b7160e01b600052604160045260246000fd5b503462000256578060031936011262000256576005546040516001600160a01b039091168152602090f35b50346200025657602036600319011262000256576020906040906001600160a01b0362001548620028f8565b168152601e83522054604051908152f35b50346200025657806003193601126200025657604051600c54600082620015808362002924565b91828252602093600190856001821691826000146200039b575050600114620015b257506200033d9250038362002991565b849150600c60005281600020906000915b858310620015dd5750506200033d9350820101856200032e565b80548389018501528794508693909201918101620015c3565b503462000256578060031936011262000256576020601c54604051908152f35b503462000256576020366003190112620002565760606200163960043562002d18565b9060405192835260208301526040820152f35b503462000256576200165e36620028dc565b6200166862002fe2565b6200167262002e28565b829183916018549160ff831662001bbe5760175460145414801562001bb1575b1562001b80576001620016bc9360ff19161760185542601955476127109384916012549062002ce9565b04928315158062001b6b575b62001b4c575b620016dd476011549062002ce9565b0490601554918215158062001b42575b62001893575b5050505083620017096014546017549062002b0c565b806200181b575b505060165480620017f5575b504780620017d6575b60025485906001600160a01b0316803b15620014d75781906004604051809481936322a3148f60e21b83525af18015620017cb57620017af575b50936001916040958651918683528560208401528783015260608201527fd286a958d004cd376acc3762fff407f0dd9bf991995fc81a26ff88081f2b7d1b60803392a25582519182526020820152f35b620017bb869162002961565b620017c757386200175f565b8480fd5b6040513d88823e3d90fd5b600154620017ef9082906001600160a01b031662002f62565b62001725565b6003546001546200181492916001600160a01b03918216911662002fb5565b386200171c565b6002546001600160a01b031690813b156200188f5782916200185591604051948580948193632770a7eb60e21b8352306004840162002cfd565b03925af1801562001884576200186e575b849062001710565b6200187c9094919462002961565b923862001866565b6040513d87823e3d90fd5b8280fd5b60035460045460405163095ea7b360e01b6020820152959850939650919390926001600160a01b039081169216620018e482620018d589866024840162002cfd565b03601f19810184528362002991565b602089835182850182855af189513d8262001b23575b50501562001ae6575b50506004546002546009546001600160a01b03918216949350918116911642610708810110620005ed5791606094939160c493604051998a96879563f305d71960e01b875260048701528a6024870152604486015260648501526084840152610708420160a48401525af1801562001adb578493859162001a98575b5060035460045460405163095ea7b360e01b60208083019182526001600160a01b039384166024840181905260448085018c905284529597958995909416918a90620019cb8562002975565b84519082855af189513d8262001a79575b50501562001a2f575b505050808211620019f9575b8080620016f3565b60035460015462001a27936001600160a01b0392831693929091169162001a209162002b0c565b9162002fb5565b3880620019f1565b62001a6a62001a70936040519063095ea7b360e01b602083015260248201528a60448201526044815262001a638162002975565b8262003179565b62003179565b388080620019e5565b90915062001a8f5750803b15155b3880620019dc565b60011462001a87565b9350506060833d60601162001ad2575b8162001ab76060938362002991565b8101031262001ace5760208351930151386200197f565b8380fd5b3d915062001aa8565b6040513d86823e3d90fd5b62001a6a62001b1a936040519063095ea7b360e01b602083015260248201528a60448201526044815262001a638162002975565b38808062001903565b90915062001b395750803b15155b3880620018fa565b60011462001b31565b50801515620016ed565b60065462001b659085906001600160a01b031662002ee6565b620016ce565b506006546001600160a01b03161515620016c8565b60405162461bcd60e51b81526020600482015260096024820152681d1a1c995cda1bdb1960ba1b6044820152606490fd5b5047601054111562001692565b60405162461bcd60e51b8152602060048201526009602482015268199a5b985b1a5e995960ba1b6044820152606490fd5b5034620002565760203660031901126200025657602062001c5662001c4460043562001c1d81151562002a95565b6200047062000469620004636017549362001c3d62000444828762002ba9565b8462002ba9565b62001c4f8162002e4c565b9062002ba9565b604051908152f35b503462000256578060031936011262000256576020601054604051908152f35b506040366003190112620002565762001c96620028f8565b6005546001600160a01b039062001cb1908216331462002c6f565b62001cbb62002e28565b80821662001ccb81151562002cab565b62001cdc60ff601854161562002b30565b62001ce73462002d18565b5092909362001cf885151562002a95565b62001d0860243586101562002b71565b62001d3360175462001d1f62000444888362002ba9565b620004706200046962000463898462002ba9565b9062001d3f8262002e4c565b9062001d5962001d50838562002ba9565b96871462002c31565b62001d6783601a5462002ba9565b601a55848852601d60205260408820805460ff81161562001e54575b505091604097939162001da28860019795620005098260175462002ba9565b62001df3575b505083341162001ddd575b600080516020620041f0833981519152868051878152866020820152a25582519182526020820152f35b62001ded6200054c853462002b0c565b62001db3565b62001dfe9062002e71565b91508015158062001e46575b62001e2f575b50801562001da85762001e27916007541662002ee6565b388062001da8565b62001e3f90836006541662002ee6565b3862001e10565b508260065416151562001e0a565b60019060ff1916179055601c5460018101809111620005ed57601c558162001da262001d83565b50346200025657806003193601126200025657602062001c56600e5462001c4f600f546017549062003047565b503462000256578060031936011262000256576001546040516001600160a01b039091168152602090f35b503462000256578060031936011262000256576020601b54604051908152f35b503462000256578060031936011262000256576020601a54604051908152f35b50346200025657806003193601126200025657602060ff601854166040519015158152f35b5034620002565780600319360112620002565762001f5562002fe2565b600180546001600160a01b0319811690915581906001600160a01b0316600080516020620041b08339815191528280a380f35b50346200025657806003193601126200025657604051908082600a549162001fb08362002924565b92838352602094600191866001821691826000146200202457505060011462001fe4575b50506200033d9250038362002991565b90859250600a82528282205b8583106200200b5750506200033d9350820101388062001fd4565b8054838901850152879450869390920191810162001ff0565b92509350506200033d94915060ff191682840152151560051b820101388062001fd4565b50602036600319011262000256576200206062002e28565b6200207160ff601854161562002b30565b6200207c3462002d18565b506200208a82151562002a95565b6200209a60043583101562002b71565b620020b16017546200044f62000444858362002ba9565b620020bc8162002e4c565b90620020d6620020cd838362002ba9565b93841462002c31565b620020e481601a5462002ba9565b601a55338552601d60205260408520805460ff811615620021e6575b505093600191604095620021178660175462002ba9565b601755838060a01b0391620021328733856003541662002fb5565b62002185575b50508234116200216f575b8451848152836020820152600080516020620041f0833981519152863392a25582519182526020820152f35b6200217f6200054c843462002b0c565b62002143565b620021909062002e71565b915080151580620021d8575b620021c1575b5080156200213857620021b9916007541662002ee6565b388062002138565b620021d190836006541662002ee6565b38620021a2565b50826006541615156200219c565b60019060ff1916179055601c54600181018091116200220b57601c5581604062002100565b634e487b7160e01b86526011600452602486fd5b503462000256578060031936011262000256576007546040516001600160a01b039091168152602090f35b506200225636620028dc565b906200226162002e28565b6200227260ff601854161562002b30565b6200227f81151562002a95565b620022aa6017546200229662000444848362002ba9565b620004706200046962000463858462002ba9565b620022b58162002e4c565b90620022d0620022c6838362002ba9565b9485111562002b71565b620022de8434101562002bef565b620022ec81601a5462002ba9565b601a55338552601d60205260408520805460ff811615620023ec575b50509160209491600193620023208360175462002ba9565b601755848060a01b03916200233b8433856003541662002fb5565b6200238b575b505083341162002375575b6040519081528385820152600080516020620041f083398151915260403392a255604051908152f35b620023856200054c853462002b0c565b6200234c565b620023969062002e71565b915080151580620023de575b620023c7575b5080156200234157620023bf916007541662002ee6565b388062002341565b620023d790836006541662002ee6565b38620023a8565b5082600654161515620023a2565b60019060ff1916179055601c54600181018091116200220b57601c5581600162002308565b503462000256576020366003190112620002565760209060ff906040906001600160a01b0362002440620028f8565b168152601d84522054166040519015158152f35b503462000256578060031936011262000256576020600f54604051908152f35b503462000256578060031936011262000256576020601654604051908152f35b503462000256578060031936011262000256576006546040516001600160a01b039091168152602090f35b503462000256578060031936011262000256576020601554604051908152f35b50346200025657620024f136620028dc565b90620024fc62002e28565b6200250d60ff601854161562002b30565b6200251a81151562002a95565b6017546200252b8183111562002ad0565b6200254a6200253a8262003153565b6200047062000463858562002b0c565b9062002576836200255b8462002e4c565b9262000d116200256c858762002b0c565b9788101562002b71565b6017556003546040516323b872dd60e01b6020820152336024820152306044820152606480820186905281526001600160a01b039291831660a082016001600160401b03811183821017620026a35792620025e260209996936001989693620025fe9660405262003179565b6200263b575b50620025f5863362002f62565b601b5462002ba9565b601b5560405190815283858201527f2dcf9433d75db0d8b1c172641f85e319ffe4ad22e108a95d1847ceb906e5195d60403392a255604051908152f35b620026468262002e71565b91508015158062002695575b6200267e575b508062002667575b50620025e8565b62002676916007541662002ee6565b388062002660565b6200268e90836006541662002ee6565b3862002658565b508260065416151562002652565b634e487b7160e01b89526041600452602489fd5b5034620002565760203660031901126200025657602062001c5662002711600435620026e581151562002a95565b620004706200046360175492620026ff8482111562002ad0565b6200270a8462003153565b9362002b0c565b620004708162002e4c565b503462000256578060031936011262000256576020601954604051908152f35b503462000256578060031936011262000256576020601254604051908152f35b503462000256578060031936011262000256576020601454604051908152f35b503462000256578060031936011262000256576009546040516001600160a01b039091168152602090f35b50346200025657806003193601126200025657620027c462002e28565b338152602090601e825260408120549081156200286c57338152601e83528060408120558080808085335af1620027fa62002a60565b501562002838576001906040518381527f7b3fcf6b642a0d537ec94e3e3554737ca883871bc8a5ea348d8ee3a9b9d9656c853392a255604051908152f35b60405162461bcd60e51b815260048101849052600c60248201526b18db185a5b4819985a5b195960a21b6044820152606490fd5b60405162461bcd60e51b815260048101849052600a6024820152696e6f2070656e64696e6760b01b6044820152606490fd5b503462000256578060031936011262000256576020601354604051908152f35b905034620014d75781600319360112620014d7576020906017548152f35b6040906003190112620028f3576004359060243590565b600080fd5b600435906001600160a01b0382168203620028f357565b35906001600160a01b0382168203620028f357565b90600182811c9216801562002956575b60208310146200294057565b634e487b7160e01b600052602260045260246000fd5b91607f169162002934565b6001600160401b038111620014db57604052565b608081019081106001600160401b03821117620014db57604052565b601f909101601f19168101906001600160401b03821190821017620014db57604052565b919082519283825260005b848110620029e2575050826000602080949584010152601f8019910116010190565b602081830181015184830182015201620029c0565b6001600160401b038111620014db57601f01601f191660200190565b81601f82011215620028f35780359062002a2d82620029f7565b9262002a3d604051948562002991565b82845260208383010111620028f357816000926020809301838601378301015290565b3d1562002a90573d9062002a7482620029f7565b9162002a84604051938462002991565b82523d6000602084013e565b606090565b1562002a9d57565b60405162461bcd60e51b815260206004820152600b60248201526a1e995c9bc8185b5bdd5b9d60aa1b6044820152606490fd5b1562002ad857565b60405162461bcd60e51b815260206004820152600c60248201526b195e18d959591cc81cdbdb1960a21b6044820152606490fd5b9190820391821162002b1a57565b634e487b7160e01b600052601160045260246000fd5b1562002b3857565b60405162461bcd60e51b815260206004820152601160248201527018d85b5c185a59db881b185d5b98da1959607a1b6044820152606490fd5b1562002b7957565b60405162461bcd60e51b8152602060048201526008602482015267736c69707061676560c01b6044820152606490fd5b9190820180921162002b1a57565b1562002bbf57565b60405162461bcd60e51b81526020600482015260086024820152671cdbdb19081bdd5d60c21b6044820152606490fd5b1562002bf757565b60405162461bcd60e51b8152602060048201526012602482015271696e73756666696369656e742076616c756560701b6044820152606490fd5b1562002c3957565b60405162461bcd60e51b815260206004820152600e60248201526d0e2eadee8ca40dad2e6dac2e8c6d60931b6044820152606490fd5b1562002c7757565b60405162461bcd60e51b815260206004820152600c60248201526b4f4e4c595f464143544f525960a01b6044820152606490fd5b1562002cb357565b60405162461bcd60e51b815260206004820152600e60248201526d1e995c9bc81c9958da5c1a595b9d60921b6044820152606490fd5b8181029291811591840414171562002b1a57565b6001600160a01b039091168152602081019190915260400190565b90811562002e1e5760ff6018541662002e1e5760145462002d3d601754809262002b0c565b92831562002e1257600093905b81851062002d9b575050821562002d9057806200047062000469620004638662002d749562002ba9565b9062002d8c62002d848362002e4c565b809362002ba9565b9190565b506000915081908190565b909362002da9858262002ba9565b600180820180921162002b1a571c908262002ddc62001c4462002dd162000463868962002ba9565b620004708862003153565b1162002dec5750935b9062002d4a565b945060001981019081111562002de557634e487b7160e01b600052601160045260246000fd5b50600092508291829150565b6000915081908190565b60026000541462002e3a576002600055565b604051633ee5aeb560e01b8152600490fd5b60125490811562002e6a576127109162002e669162002ce9565b0490565b5050600090565b9062002e7d8262002e4c565b91821562002d905762002e97612710916008549062002ce9565b600754919004906001600160a01b031615801562002edd575b62002ed55782811162002ecd575b62002eca818462002b0c565b91565b508162002ebe565b508190600090565b50801562002eb0565b811562002f5e576001600160a01b03169060008080808085875af162002f0b62002a60565b501562002f1757505050565b7f1196ff9c61f6c4d265bb9529d5aa6afceea1fc7646a5c406fcc1dcb61941db15916040828560209452601e84522062002f5382825462002ba9565b9055604051908152a2565b5050565b600080809381935af162002f7562002a60565b501562002f7e57565b60405162461bcd60e51b815260206004820152600f60248201526e1d1c985b9cd9995c8819985a5b1959608a1b6044820152606490fd5b62001a6a62002fe09392620018d560405194859263a9059cbb60e01b60208501526024840162002cfd565b565b6001546001600160a01b0316330362002ff757565b60405163118cdaa760e01b8152336004820152602490fd5b600180546001600160a01b039283166001600160a01b031982168117909255909116600080516020620041b0833981519152600080a3565b9060001981830981830291828083109203918083039214620030bf57670de0b6b3a76400009082821115620030ac577faccb18165bd6fe31ae1cf318dc5b51eee0e1ba569b88cd74c1773b91fac10669940990828211900360ee1b910360121c170290565b634e487b7160005260116020526024601cfd5b5050670de0b6b3a764000091500490565b90600019818309818302918280831092039180830392146200313b576a0c097ce7bc90715b34b9f160251b9082821115620030ac577f356317ffa45f828d2a41175b2aed3a20e7fdd4a4e46cc11944d93b01be7b1711940990828211900360db1b910360251c170290565b50506a0c097ce7bc90715b34b9f160251b9004919050565b620031769062001c4f6200316a600e548362003047565b918002600f54620030d0565b90565b906000602091828151910182855af115620031d9576000513d620031cf57506001600160a01b0381163b155b620031ad5750565b604051635274afe760e01b81526001600160a01b039091166004820152602490fd5b60011415620031a5565b6040513d6000823e3d90fdfe60a060405234620003de5762000f6a803803806200001d81620003e3565b9283398101608082820312620003de5781516001600160401b039190828111620003de57816200004f91850162000409565b6020918285015190848211620003de576200006c91860162000409565b90606060408601519501519060018060a01b0394858316809303620003de578151818111620002de576003908154906001948583811c93168015620003d3575b89841014620003bd578190601f9384811162000367575b5089908483116001146200030057600092620002f4575b505060001982851b1c191690851b1782555b8551928311620002de5760049586548581811c91168015620002d3575b89821014620002be5782811162000273575b50879184116001146200020857938394918492600095620001fc575b50501b92600019911b1c19161782555b8015620001e457600580546001600160a01b03198116831790915560405194167f8be0079c531659141344cd1fd0a4f28419497f9722a3daafe3b4186f6b6457e0600080a38315620001b75783608052604051610aee90816200047c823960805181818161052001526105f30152f35b62461bcd60e51b8352820152600b60248201526a636170206973207a65726f60a81b604482015260649150fd5b604051631e4fbdf760e01b8152600081840152602490fd5b01519350388062000137565b9190601f198416928760005284896000209460005b8b898383106200025b575050501062000240575b50505050811b01825562000147565b01519060f884600019921b161c191690553880808062000231565b8686015189559097019694850194889350016200021d565b87600052886000208380870160051c8201928b8810620002b4575b0160051c019086905b828110620002a75750506200011b565b6000815501869062000297565b925081926200028e565b602288634e487b7160e01b6000525260246000fd5b90607f169062000109565b634e487b7160e01b600052604160045260246000fd5b015190503880620000da565b90879350601f19831691866000528b6000209260005b8d82821062000350575050841162000337575b505050811b018255620000ec565b015160001983871b60f8161c1916905538808062000329565b8385015186558b9790950194938401930162000316565b90915084600052896000208480850160051c8201928c8610620003b3575b918991869594930160051c01915b828110620003a3575050620000c3565b6000815585945089910162000393565b9250819262000385565b634e487b7160e01b600052602260045260246000fd5b92607f1692620000ac565b600080fd5b6040519190601f01601f191682016001600160401b03811183821017620002de57604052565b919080601f84011215620003de5782516001600160401b038111620002de576020906200043f601f8201601f19168301620003e3565b92818452828287010111620003de5760005b8181106200046757508260009394955001015290565b85810183015184820184015282016200045156fe6080604081815260048036101561001557600080fd5b600092833560e01c90816306fdde03146107df57508063095ea7b31461073657806318160ddd1461071757806323b872dd14610632578063313ce56714610616578063355274ea146105db57806340c10f19146104d95780634ada218b146104b257806370a082311461047b578063715018a6146104305780638a8c523c146103fe5780638da5cb5b146103d557806395d89b41146102d15780639dc29fac146101d6578063a9059cbb146101a5578063dd62ed3e146101585763f2fde38b146100de57600080fd5b34610154576020366003190112610154576100f7610901565b90610100610a75565b6001600160a01b0391821692831561013e575050600580546001600160a01b03198116841790915516600080516020610aa28339815191528380a380f35b51631e4fbdf760e01b8152908101849052602490fd5b8280fd5b5050346101a157806003193601126101a15780602092610176610901565b61017e61091c565b6001600160a01b0391821683526001865283832091168252845220549051908152f35b5080fd5b5050346101a157806003193601126101a1576020906101cf6101c5610901565b6024359033610973565b5160018152f35b508290346101a157826003193601126101a1576101f1610901565b90602435906101fe610a75565b6001600160a01b03838116939084156102ba5760055460ff8160a01c1615610288575b5050838552846020528585205491838310610269575050818495600080516020610ac2833981519152936020938688528785520381872055816002540360025551908152a380f35b6102848484895194859463391434e360e21b86528501610955565b0390fd5b168085141590816102af575b506102a0578680610221565b5084516312f1f92360e01b8152fd5b905033141587610294565b8651634b637e8f60e11b8152808401879052602490fd5b509190346101a157816003193601126101a15780519082845460018160011c90600183169283156103cb575b60209384841081146103b85783885290811561039c5750600114610364575b505050829003601f01601f19168201926001600160401b03841183851017610351575082918261034d9252826108b8565b0390f35b634e487b7160e01b815260418552602490fd5b919250868652828620918387935b838510610388575050505083010138808061031c565b805488860183015293019284908201610372565b60ff1916878501525050151560051b840101905038808061031c565b634e487b7160e01b895260228a52602489fd5b91607f16916102fd565b5050346101a157816003193601126101a15760055490516001600160a01b039091168152602090f35b833461042d578060031936011261042d57610417610a75565b6005805460ff60a01b1916600160a01b17905580f35b80fd5b833461042d578060031936011261042d57610449610a75565b600580546001600160a01b0319811690915581906001600160a01b0316600080516020610aa28339815191528280a380f35b5050346101a15760203660031901126101a15760209181906001600160a01b036104a3610901565b16815280845220549051908152f35b5050346101a157816003193601126101a15760209060ff60055460a01c1690519015158152f35b5090346101545780600319360112610154576104f3610901565b9060243591610500610a75565b6001600160a01b03169283156105af576002549061051e8483610932565b7f00000000000000000000000000000000000000000000000000000000000000001061057d575082600080516020610ac2833981519152926105638795602094610932565b60025585855284835280852082815401905551908152a380f35b606490602084519162461bcd60e51b8352820152600c60248201526b18d85c08195e18d95959195960a21b6044820152fd5b6020606492519162461bcd60e51b83528201526007602482015266746f207a65726f60c81b6044820152fd5b5050346101a157816003193601126101a157602090517f00000000000000000000000000000000000000000000000000000000000000008152f35b5050346101a157816003193601126101a1576020905160128152f35b50823461042d57606036600319011261042d5761064d610901565b61065561091c565b916044359360018060a01b038316808352600160205286832033845260205286832054916000198310610691575b6020886101cf898989610973565b8683106106f95781156106e25733156106cb575082526001602090815286832033845281529186902090859003905582906101cf87610683565b8751634a1406b160e11b8152908101849052602490fd5b875163e602df0560e01b8152908101849052602490fd5b9050610284868851938493637dc7a0d960e11b855233908501610955565b5050346101a157816003193601126101a1576020906002549051908152f35b503461015457816003193601126101545761074f610901565b6024359033156107c8576001600160a01b03169182156107b157508083602095338152600187528181208582528752205582519081527f8c5be1e5ebec7d5bd14f71427d1e84f3dd0314c0f7b2291e5b200ac8c7c3b925843392a35160018152f35b8351634a1406b160e11b8152908101859052602490fd5b835163e602df0560e01b8152808401869052602490fd5b84915083346101545782600319360112610154578260035460018160011c90600183169283156108ae575b60209384841081146103b857838852908115610892575060011461085957505050829003601f01601f19168201926001600160401b03841183851017610351575082918261034d9252826108b8565b91925060038652828620918387935b83851061087e575050505083010185808061031c565b805488860183015293019284908201610868565b60ff1916878501525050151560051b840101905085808061031c565b91607f169161080a565b6020808252825181830181905290939260005b8281106108ed57505060409293506000838284010152601f8019910116010190565b8181018601518482016040015285016108cb565b600435906001600160a01b038216820361091757565b600080fd5b602435906001600160a01b038216820361091757565b9190820180921161093f57565b634e487b7160e01b600052601160045260246000fd5b604091949392606082019560018060a01b0316825260208201520152565b6001600160a01b0392838216929091908315610a5c578416938415610a435760055460ff8160a01c1615610a0e575b5050600090838252816020526040822054908382106109f157509160408282600080516020610ac2833981519152958760209652828652038282205586815220818154019055604051908152a3565b6102848460405193849363391434e360e21b855260048501610955565b16808414159081610a38575b50610a265738806109a2565b6040516312f1f92360e01b8152600490fd5b905033141538610a1a565b60405163ec442f0560e01b815260006004820152602490fd5b604051634b637e8f60e11b815260006004820152602490fd5b6005546001600160a01b03163303610a8957565b60405163118cdaa760e01b8152336004820152602490fdfe8be0079c531659141344cd1fd0a4f28419497f9722a3daafe3b4186f6b6457e0ddf252ad1be2c89b69c2b068fc378daa952ba7f163c4a11628f55a4df523b3efa164736f6c6343000818000adf6966c971051c3d54ec59162606531493a51404a002842f56009d7e5cf4a8c7c65a7bb8d6351c1cf70c95a316cc6a92839c986682d98bc35f958f4883f9d2a8d7b6990105719101dabeb77144f2a3385c8033acd3af97e9423a695e81ad1eb58be0079c531659141344cd1fd0a4f28419497f9722a3daafe3b4186f6b6457e00175b7a638427703f0dbe7bb9bbf987a2551717b34e79f33b5b1008d1fa01db98fafebcaf9d154343dad25669bfa277f4fbacd7ac6b0c4fed522580e040a0f33a164736f6c6343000818000a",
  "linkReferences": {},
  "deployedLinkReferences": {}
}