{
  "_format": "hh-sol-artifact-1",
  "contractName": "LaunchCampaign",
  "sourceName": "contracts/LaunchCampaign.sol",
  "abi": [
    {
      "inputs": [
        {
          "components": [
            {
              "internalType": "string",
              "name": "name",
              "type": "string"
            },
            {
              "internalType": "string",
              "name": "symbol",
              "type": "string"
            },
            {
              "internalType": "string",
              "name": "logoURI",
              "type": "string"
            },
            {
              "internalType": "string",
              "name": "xAccount",
              "type": "string"
            },
            {
              "internalType": "string",
              "name": "website",
              "type": "string"
            },
            {
              "internalType": "string",
              "name": "extraLink",
              "type": "string"
            },
            {
              "internalType": "uint256",
              "name": "totalSupply",
              "type": "uint256"
            },
            {
              "internalType": "uint256",
              "name": "curveBps",
              "type": "uint256"
            },
            {
              "internalType": "uint256",
              "name": "liquidityTokenBps",
              "type": "uint256"
            },
            {
              "internalType": "uint256",
              "name": "basePrice",
              "type": "uint256"
            },
            {
              "internalType": "uint256",
              "name": "priceSlope",
              "type": "uint256"
            },
            {
              "internalType": "uint256",
              "name": "graduationTarget",
              "type": "uint256"
            },
            {
              "internalType": "uint256",
              "name": "liquidityBps",
              "type": "uint256"
            },
            {
              "internalType": "uint256",
              "name": "protocolFeeBps",
              "type": "uint256"
            },
            {
              "internalType": "address",
              "name": "router",
              "type": "address"
            },
            {
              "internalType": "address",
              "name": "lpReceiver",
              "type": "address"
            },
            {
              "internalType": "address",
              "name": "feeRecipient",
              "type": "address"
            },
            {
              "internalType": "address",
              "name": "creator",
              "type": "address"
            },
            {
              "internalType": "address",
              "name": "factory",
              "type": "address"
            }
          ],
          "internalType": "struct LaunchCampaign.InitParams",
          "name": "params",
          "type": "tuple"
        }
      ],
      "stateMutability": "nonpayable",
      "type": "constructor"
    },
    {
      "inputs": [
        {
          "internalType": "address",
          "name": "owner",
          "type": "address"
        }
      ],
      "name": "OwnableInvalidOwner",
      "type": "error"
    },
    {
      "inputs": [
        {
          "internalType": "address",
          "name": "account",
          "type": "address"
        }
      ],
      "name": "OwnableUnauthorizedAccount",
      "type": "error"
    },
    {
      "inputs": [],
      "name": "ReentrancyGuardReentrantCall",
      "type": "error"
    },
    {
      "inputs": [
        {
          "internalType": "address",
          "name": "token",
          "type": "address"
        }
      ],
      "name": "SafeERC20FailedOperation",
      "type": "error"
    },
    {
      "anonymous": false,
      "inputs": [
        {
          "indexed": true,
          "internalType": "address",
          "name": "caller",
          "type": "address"
        },
        {
          "indexed": false,
          "internalType": "uint256",
          "name": "liquidityTokens",
          "type": "uint256"
        },
        {
          "indexed": false,
          "internalType": "uint256",
          "name": "liquidityBnb",
          "type": "uint256"
        },
        {
          "indexed": false,
          "internalType": "uint256",
          "name": "protocolFee",
          "type": "uint256"
        },
        {
          "indexed": false,
          "internalType": "uint256",
          "name": "creatorPayout",
          "type": "uint256"
        }
      ],
      "name": "CampaignFinalized",
      "type": "event"
    },
    {
      "anonymous": false,
      "inputs": [
        {
          "indexed": true,
          "internalType": "address",
          "name": "previousOwner",
          "type": "address"
        },
        {
          "indexed": true,
          "internalType": "address",
          "name": "newOwner",
          "type": "address"
        }
      ],
      "name": "OwnershipTransferred",
      "type": "event"
    },
    {
      "anonymous": false,
      "inputs": [
        {
          "indexed": true,
          "internalType": "address",
          "name": "buyer",
          "type": "address"
        },
        {
          "indexed": false,
          "internalType": "uint256",
          "name": "amountOut",
          "type": "uint256"
        },
        {
          "indexed": false,
          "internalType": "uint256",
          "name": "cost",
          "type": "uint256"
        }
      ],
      "name": "TokensPurchased",
      "type": "event"
    },
    {
      "anonymous": false,
      "inputs": [
        {
          "indexed": true,
          "internalType": "address",
          "name": "seller",
          "type": "address"
        },
        {
          "indexed": false,
          "internalType": "uint256",
          "name": "amountIn",
          "type": "uint256"
        },
        {
          "indexed": false,
          "internalType": "uint256",
          "name": "payout",
          "type": "uint256"
        }
      ],
      "name": "TokensSold",
      "type": "event"
    },
    {
      "inputs": [],
      "name": "basePrice",
      "outputs": [
        {
          "internalType": "uint256",
          "name": "",
          "type": "uint256"
        }
      ],
      "stateMutability": "view",
      "type": "function"
    },
    {
      "inputs": [
        {
          "internalType": "uint256",
          "name": "amountOut",
          "type": "uint256"
        },
        {
          "internalType": "uint256",
          "name": "maxCost",
          "type": "uint256"
        }
      ],
      "name": "buyExactTokens",
      "outputs": [
        {
          "internalType": "uint256",
          "name": "cost",
          "type": "uint256"
        }
      ],
      "stateMutability": "payable",
      "type": "function"
    },
    {
      "inputs": [],
      "name": "creatorReserve",
      "outputs": [
        {
          "internalType": "uint256",
          "name": "",
          "type": "uint256"
        }
      ],
      "stateMutability": "view",
      "type": "function"
    },
    {
      "inputs": [],
      "name": "currentPrice",
      "outputs": [
        {
          "internalType": "uint256",
          "name": "",
          "type": "uint256"
        }
      ],
      "stateMutability": "view",
      "type": "function"
    },
    {
      "inputs": [],
      "name": "curveSupply",
      "outputs": [
        {
          "internalType": "uint256",
          "name": "",
          "type": "uint256"
        }
      ],
      "stateMutability": "view",
      "type": "function"
    },
    {
      "inputs": [],
      "name": "extraLink",
      "outputs": [
        {
          "internalType": "string",
          "name": "",
          "type": "string"
        }
      ],
      "stateMutability": "view",
      "type": "function"
    },
    {
      "inputs": [],
      "name": "factory",
      "outputs": [
        {
          "internalType": "address",
          "name": "",
          "type": "address"
        }
      ],
      "stateMutability": "view",
      "type": "function"
    },
    {
      "inputs": [],
      "name": "feeRecipient",
      "outputs": [
        {
          "internalType": "address",
          "name": "",
          "type": "address"
        }
      ],
      "stateMutability": "view",
      "type": "function"
    },
    {
      "inputs": [
        {
          "internalType": "uint256",
          "name": "minTokens",
          "type": "uint256"
        },
        {
          "internalType": "uint256",
          "name": "minBnb",
          "type": "uint256"
        }
      ],
      "name": "finalize",
      "outputs": [
        {
          "internalType": "uint256",
          "name": "usedTokens",
          "type": "uint256"
        },
        {
          "internalType": "uint256",
          "name": "usedBnb",
          "type": "uint256"
        }
      ],
      "stateMutability": "nonpayable",
      "type": "function"
    },
    {
      "inputs": [],
      "name": "finalizedAt",
      "outputs": [
        {
          "internalType": "uint256",
          "name": "",
          "type": "uint256"
        }
      ],
      "stateMutability": "view",
      "type": "function"
    },
    {
      "inputs": [],
      "name": "graduationTarget",
      "outputs": [
        {
          "internalType": "uint256",
          "name": "",
          "type": "uint256"
        }
      ],
      "stateMutability": "view",
      "type": "function"
    },
    {
      "inputs": [],
      "name": "launched",
      "outputs": [
        {
          "internalType": "bool",
          "name": "",
          "type": "bool"
        }
      ],
      "stateMutability": "view",
      "type": "function"
    },
    {
      "inputs": [],
      "name": "liquidityBps",
      "outputs": [
        {
          "internalType": "uint256",
          "name": "",
          "type": "uint256"
        }
      ],
      "stateMutability": "view",
      "type": "function"
    },
    {
      "inputs": [],
      "name": "liquiditySupply",
      "outputs": [
        {
          "internalType": "uint256",
          "name": "",
          "type": "uint256"
        }
      ],
      "stateMutability": "view",
      "type": "function"
    },
    {
      "inputs": [],
      "name": "logoURI",
      "outputs": [
        {
          "internalType": "string",
          "name": "",
          "type": "string"
        }
      ],
      "stateMutability": "view",
      "type": "function"
    },
    {
      "inputs": [],
      "name": "lpReceiver",
      "outputs": [
        {
          "internalType": "address",
          "name": "",
          "type": "address"
        }
      ],
      "stateMutability": "view",
      "type": "function"
    },
    {
      "inputs": [],
      "name": "owner",
      "outputs": [
        {
          "internalType": "address",
          "name": "",
          "type": "address"
        }
      ],
      "stateMutability": "view",
      "type": "function"
    },
    {
      "inputs": [],
      "name": "priceSlope",
      "outputs": [
        {
          "internalType": "uint256",
          "name": "",
          "type": "uint256"
        }
      ],
      "stateMutability": "view",
      "type": "function"
    },
    {
      "inputs": [],
      "name": "protocolFeeBps",
      "outputs": [
        {
          "internalType": "uint256",
          "name": "",
          "type": "uint256"
        }
      ],
      "stateMutability": "view",
      "type": "function"
    },
    {
      "inputs": [
        {
          "internalType": "uint256",
          "name": "amountOut",
          "type": "uint256"
        }
      ],
      "name": "quoteBuyExactTokens",
      "outputs": [
        {
          "internalType": "uint256",
          "name": "",
          "type": "uint256"
        }
      ],
      "stateMutability": "view",
      "type": "function"
    },
    {
      "inputs": [
        {
          "internalType": "uint256",
          "name": "amountIn",
          "type": "uint256"
        }
      ],
      "name": "quoteSellExactTokens",
      "outputs": [
        {
          "internalType": "uint256",
          "name": "",
          "type": "uint256"
        }
      ],
      "stateMutability": "view",
      "type": "function"
    },
    {
      "inputs": [],
      "name": "renounceOwnership",
      "outputs": [],
      "stateMutability": "nonpayable",
      "type": "function"
    },
    {
      "inputs": [],
      "name": "router",
      "outputs": [
        {
          "internalType": "contract IPancakeRouter02",
          "name": "",
          "type": "address"
        }
      ],
      "stateMutability": "view",
      "type": "function"
    },
    {
      "inputs": [
        {
          "internalType": "uint256",
          "name": "amountIn",
          "type": "uint256"
        },
        {
          "internalType": "uint256",
          "name": "minPayout",
          "type": "uint256"
        }
      ],
      "name": "sellExactTokens",
      "outputs": [
        {
          "internalType": "uint256",
          "name": "payout",
          "type": "uint256"
        }
      ],
      "stateMutability": "nonpayable",
      "type": "function"
    },
    {
      "inputs": [],
      "name": "sold",
      "outputs": [
        {
          "internalType": "uint256",
          "name": "",
          "type": "uint256"
        }
      ],
      "stateMutability": "view",
      "type": "function"
    },
    {
      "inputs": [],
      "name": "token",
      "outputs": [
        {
          "internalType": "contract LaunchToken",
          "name": "",
          "type": "address"
        }
      ],
      "stateMutability": "view",
      "type": "function"
    },
    {
      "inputs": [],
      "name": "totalSupply",
      "outputs": [
        {
          "internalType": "uint256",
          "name": "",
          "type": "uint256"
        }
      ],
      "stateMutability": "view",
      "type": "function"
    },
    {
      "inputs": [
        {
          "internalType": "address",
          "name": "newOwner",
          "type": "address"
        }
      ],
      "name": "transferOwnership",
      "outputs": [],
      "stateMutability": "nonpayable",
      "type": "function"
    },
    {
      "inputs": [],
      "name": "website",
      "outputs": [
        {
          "internalType": "string",
          "name": "",
          "type": "string"
        }
      ],
      "stateMutability": "view",
      "type": "function"
    },
    {
      "inputs": [],
      "name": "xAccount",
      "outputs": [
        {
          "internalType": "string",
          "name": "",
          "type": "string"
        }
      ],
      "stateMutability": "view",
      "type": "function"
    },
    {
      "stateMutability": "payable",
      "type": "receive"
    }
  ],
  "bytecode": "0x6102606040523480156200001257600080fd5b506040516200341e3803806200341e83398101604081905262000035916200073b565b61022081015160016000556001600160a01b0381166200007057604051631e4fbdf760e01b8152600060048201526024015b60405180910390fd5b6200007b81620005c5565b5060008160c0015111620000c35760405162461bcd60e51b815260206004820152600e60248201526d696e76616c696420737570706c7960901b604482015260640162000067565b60008160e00151118015620000dd57506127108160e00151105b620001175760405162461bcd60e51b815260206004820152600960248201526863757276652062707360b81b604482015260640162000067565b6127108161010001518260e001516200013191906200094f565b1115620001745760405162461bcd60e51b815260206004820152601060248201526f706f7274696f6e206f766572666c6f7760801b604482015260640162000067565b600081610120015111620001b85760405162461bcd60e51b815260206004820152600a6024820152697072696365207a65726f60b01b604482015260640162000067565b600081610140015111620001fc5760405162461bcd60e51b815260206004820152600a602482015269736c6f7065207a65726f60b01b604482015260640162000067565b6101c08101516001600160a01b0316620002475760405162461bcd60e51b815260206004820152600b60248201526a726f75746572207a65726f60a81b604482015260640162000067565b6102208101516001600160a01b0316620002935760405162461bcd60e51b815260206004820152600c60248201526b63726561746f72207a65726f60a01b604482015260640162000067565b6127108161018001511115620002dc5760405162461bcd60e51b815260206004820152600d60248201526c6c69717569646974792062707360981b604482015260640162000067565b612710816101a001511115620003245760405162461bcd60e51b815260206004820152600c60248201526b70726f746f636f6c2062707360a01b604482015260640162000067565b600081604001515111620003665760405162461bcd60e51b81526020600482015260086024820152676c6f676f2075726960c01b604482015260640162000067565b60408101516002906200037a9082620009fc565b5060608101516003906200038f9082620009fc565b506080810151600490620003a49082620009fc565b5060a0810151600590620003b99082620009fc565b506101208101516101409081528101516101609081528101516101809081528101516101a09081528101516101c0526102408101516001600160a01b0390811660e0526102008201518116610100526101e082015116156200042157806101e0015162000428565b8061022001515b6001600160a01b03908116610120526101c08201511660c0908152810180516101e05260e0820151905161271091620004619162000ac8565b6200046d919062000ae2565b6102005261010081015160c0820151612710916200048b9162000ac8565b62000497919062000ae2565b6102208190526102005160c0830151620004b2919062000b05565b620004be919062000b05565b6102405261022051620005055760405162461bcd60e51b815260206004820152600e60248201526d6c6971756964697479207a65726f60901b604482015260640162000067565b8051602082015160c08301516040513090620005219062000617565b62000530949392919062000b49565b604051809103906000f0801580156200054d573d6000803e3d6000fd5b506001600160a01b0316608081905260a081905260c08201516040516340c10f1960e01b815230600482015260248101919091526340c10f1990604401600060405180830381600087803b158015620005a557600080fd5b505af1158015620005ba573d6000803e3d6000fd5b505050505062000b94565b600180546001600160a01b038381166001600160a01b0319831681179093556040519116919082907f8be0079c531659141344cd1fd0a4f28419497f9722a3daafe3b4186f6b6457e090600090a35050565b610e7780620025a783390190565b634e487b7160e01b600052604160045260246000fd5b60405161026081016001600160401b038111828210171562000661576200066162000625565b60405290565b60005b83811015620006845781810151838201526020016200066a565b50506000910152565b600082601f8301126200069f57600080fd5b81516001600160401b0380821115620006bc57620006bc62000625565b604051601f8301601f19908116603f01168101908282118183101715620006e757620006e762000625565b816040528381528660208588010111156200070157600080fd5b6200071484602083016020890162000667565b9695505050505050565b80516001600160a01b03811681146200073657600080fd5b919050565b6000602082840312156200074e57600080fd5b81516001600160401b03808211156200076657600080fd5b9083019061026082860312156200077c57600080fd5b620007866200063b565b8251828111156200079657600080fd5b620007a4878286016200068d565b825250602083015182811115620007ba57600080fd5b620007c8878286016200068d565b602083015250604083015182811115620007e157600080fd5b620007ef878286016200068d565b6040830152506060830151828111156200080857600080fd5b62000816878286016200068d565b6060830152506080830151828111156200082f57600080fd5b6200083d878286016200068d565b60808301525060a0830151828111156200085657600080fd5b62000864878286016200068d565b60a08301525060c0838101519082015260e08084015190820152610100808401519082015261012080840151908201526101408084015190820152610160808401519082015261018080840151908201526101a080840151908201526101c09150620008d28284016200071e565b828201526101e09150620008e88284016200071e565b828201526102009150620008fe8284016200071e565b828201526102209150620009148284016200071e565b8282015261024091506200092a8284016200071e565b91810191909152949350505050565b634e487b7160e01b600052601160045260246000fd5b8082018082111562000965576200096562000939565b92915050565b600181811c908216806200098057607f821691505b602082108103620009a157634e487b7160e01b600052602260045260246000fd5b50919050565b601f821115620009f7576000816000526020600020601f850160051c81016020861015620009d25750805b601f850160051c820191505b81811015620009f357828155600101620009de565b5050505b505050565b81516001600160401b0381111562000a185762000a1862000625565b62000a308162000a2984546200096b565b84620009a7565b602080601f83116001811462000a68576000841562000a4f5750858301515b600019600386901b1c1916600185901b178555620009f3565b600085815260208120601f198616915b8281101562000a995788860151825594840194600190910190840162000a78565b508582101562000ab85787850151600019600388901b60f8161c191681555b5050505050600190811b01905550565b808202811582820484141762000965576200096562000939565b60008262000b0057634e487b7160e01b600052601260045260246000fd5b500490565b8181038181111562000965576200096562000939565b6000815180845262000b3581602086016020860162000667565b601f01601f19169290920160200192915050565b60808152600062000b5e608083018762000b1b565b828103602084015262000b72818762000b1b565b604084019590955250506001600160a01b039190911660609091015292915050565b60805160a05160c05160e05161010051610120516101405161016051610180516101a0516101c0516101e0516102005161022051610240516118aa62000cfd600039600081816103be0152818161100101526110670152600081816103560152610cf901526000818161029801528181610b5701528181610c250152610f4d015260006102180152600081816102cc01526110960152600081816105d50152610cc60152600081816104cf0152610c500152600081816103f201528181610ab701526112630152600081816105a101528181610aed015261122a01526000818161024c0152610dd601526000818161038a015281816110d401526111090152600061056d01526000818161065301528181610d5b01528181610d8a0152610ec801526000818161081b0152818161099401528181610d3901528181610ea601528181610f1f015261104401526000818161068701528181610db20152610f9a01526118aa6000f3fe6080604052600436106101d15760003560e01c80638091f3bf116100f7578063c45a015511610095578063f20f3d9011610064578063f20f3d901461060c578063f2fde38b14610621578063f887ea4014610641578063fc0c546a1461067557600080fd5b8063c45a01551461055b578063c7876ea41461058f578063c9f62af2146105c3578063dd1a2a39146105f757600080fd5b8063a4b20f13116100d1578063a4b20f13146104bd578063af769545146104f1578063b6013cef14610511578063beb0a4161461054657600080fd5b80638091f3bf146104605780638da5cb5b1461048a5780639d1b464a146104a857600080fd5b80633794f6be1161016f57806354e42f7e1161013e57806354e42f7e146103e057806365161831146104145780636bb38b2814610427578063715018a61461044957600080fd5b80633794f6be14610324578063381562c214610344578063469048401461037857806354354629146103ac57600080fd5b80632138a4c0116101ab5780632138a4c01461028657806335659fb8146102ba578063365d57a4146102ee578063366ad2501461030457600080fd5b806302c7e7af146101dd57806318160ddd146102065780631f0c57fc1461023a57600080fd5b366101d857005b600080fd5b3480156101e957600080fd5b506101f360065481565b6040519081526020015b60405180910390f35b34801561021257600080fd5b506101f37f000000000000000000000000000000000000000000000000000000000000000081565b34801561024657600080fd5b5061026e7f000000000000000000000000000000000000000000000000000000000000000081565b6040516001600160a01b0390911681526020016101fd565b34801561029257600080fd5b506101f37f000000000000000000000000000000000000000000000000000000000000000081565b3480156102c657600080fd5b506101f37f000000000000000000000000000000000000000000000000000000000000000081565b3480156102fa57600080fd5b506101f360085481565b34801561031057600080fd5b506101f361031f3660046116ce565b6106a9565b34801561033057600080fd5b506101f361033f3660046116e7565b61075f565b34801561035057600080fd5b506101f37f000000000000000000000000000000000000000000000000000000000000000081565b34801561038457600080fd5b5061026e7f000000000000000000000000000000000000000000000000000000000000000081565b3480156103b857600080fd5b506101f37f000000000000000000000000000000000000000000000000000000000000000081565b3480156103ec57600080fd5b506101f37f000000000000000000000000000000000000000000000000000000000000000081565b6101f36104223660046116e7565b610893565b34801561043357600080fd5b5061043c610a0e565b6040516101fd9190611709565b34801561045557600080fd5b5061045e610a9c565b005b34801561046c57600080fd5b5060075461047a9060ff1681565b60405190151581526020016101fd565b34801561049657600080fd5b506001546001600160a01b031661026e565b3480156104b457600080fd5b506101f3610ab0565b3480156104c957600080fd5b506101f37f000000000000000000000000000000000000000000000000000000000000000081565b3480156104fd57600080fd5b506101f361050c3660046116ce565b610b16565b34801561051d57600080fd5b5061053161052c3660046116e7565b610bd9565b604080519283526020830191909152016101fd565b34801561055257600080fd5b5061043c6111bc565b34801561056757600080fd5b5061026e7f000000000000000000000000000000000000000000000000000000000000000081565b34801561059b57600080fd5b506101f37f000000000000000000000000000000000000000000000000000000000000000081565b3480156105cf57600080fd5b506101f37f000000000000000000000000000000000000000000000000000000000000000081565b34801561060357600080fd5b5061043c6111c9565b34801561061857600080fd5b5061043c6111d6565b34801561062d57600080fd5b5061045e61063c366004611758565b6111e3565b34801561064d57600080fd5b5061026e7f000000000000000000000000000000000000000000000000000000000000000081565b34801561068157600080fd5b5061026e7f000000000000000000000000000000000000000000000000000000000000000081565b60008082116106ed5760405162461bcd60e51b815260206004820152600b60248201526a1e995c9bc8185b5bdd5b9d60aa1b60448201526064015b60405180910390fd5b60065482111561072e5760405162461bcd60e51b815260206004820152600c60248201526b195e18d959591cc81cdbdb1960a21b60448201526064016106e4565b6107448260065461073f9190611797565b611221565b61074f600654611221565b6107599190611797565b92915050565b60006107696112bb565b60075460ff16156107b05760405162461bcd60e51b815260206004820152601160248201527018d85b5c185a59db881b185d5b98da1959607a1b60448201526064016106e4565b6107b9836106a9565b9050818110156107f65760405162461bcd60e51b8152602060048201526008602482015267736c69707061676560c01b60448201526064016106e4565b82600660008282546108089190611797565b9091555061084390506001600160a01b037f0000000000000000000000000000000000000000000000000000000000000000163330866112e5565b61084d3382611352565b604080518481526020810183905233917f2dcf9433d75db0d8b1c172641f85e319ffe4ad22e108a95d1847ceb906e5195d91015b60405180910390a26107596001600055565b600061089d6112bb565b60075460ff16156108e45760405162461bcd60e51b815260206004820152601160248201527018d85b5c185a59db881b185d5b98da1959607a1b60448201526064016106e4565b6108ed83610b16565b90508181111561092a5760405162461bcd60e51b8152602060048201526008602482015267736c69707061676560c01b60448201526064016106e4565b8034101561096f5760405162461bcd60e51b8152602060048201526012602482015271696e73756666696369656e742076616c756560701b60448201526064016106e4565b826006600082825461098191906117aa565b909155506109bb90506001600160a01b037f00000000000000000000000000000000000000000000000000000000000000001633856113ec565b803411156109d6576109d6336109d18334611797565b611352565b604080518481526020810183905233917f8fafebcaf9d154343dad25669bfa277f4fbacd7ac6b0c4fed522580e040a0f339101610881565b60028054610a1b906117bd565b80601f0160208091040260200160405190810160405280929190818152602001828054610a47906117bd565b8015610a945780601f10610a6957610100808354040283529160200191610a94565b820191906000526020600020905b815481529060010190602001808311610a7757829003601f168201915b505050505081565b610aa461141d565b610aae600061144a565b565b6000610ae77f0000000000000000000000000000000000000000000000000000000000000000600654670de0b6b3a764000061149c565b610b11907f00000000000000000000000000000000000000000000000000000000000000006117aa565b905090565b6000808211610b555760405162461bcd60e51b815260206004820152600b60248201526a1e995c9bc8185b5bdd5b9d60aa1b60448201526064016106e4565b7f000000000000000000000000000000000000000000000000000000000000000082600654610b8491906117aa565b1115610bbd5760405162461bcd60e51b81526020600482015260086024820152671cdbdb19081bdd5d60c21b60448201526064016106e4565b610bc8600654611221565b61074f8360065461073f91906117aa565b600080610be46112bb565b60075460ff1615610c235760405162461bcd60e51b8152602060048201526009602482015268199a5b985b1a5e995960ba1b60448201526064016106e4565b7f00000000000000000000000000000000000000000000000000000000000000006006541480610c7357507f00000000000000000000000000000000000000000000000000000000000000004710155b610cab5760405162461bcd60e51b81526020600482015260096024820152681d1a1c995cda1bdb1960ba1b60448201526064016106e4565b6007805460ff19166001179055426008556000612710610ceb7f0000000000000000000000000000000000000000000000000000000000000000476117f7565b610cf59190611824565b90507f00000000000000000000000000000000000000000000000000000000000000008015801590610d275750600082115b15610f4657610d806001600160a01b037f0000000000000000000000000000000000000000000000000000000000000000167f000000000000000000000000000000000000000000000000000000000000000083611552565b6001600160a01b037f00000000000000000000000000000000000000000000000000000000000000001663f305d719837f0000000000000000000000000000000000000000000000000000000000000000848a8a7f0000000000000000000000000000000000000000000000000000000000000000610e01426107086117aa565b60405160e089901b6001600160e01b03191681526001600160a01b039687166004820152602481019590955260448501939093526064840191909152909216608482015260a481019190915260c40160606040518083038185885af1158015610e6e573d6000803e3d6000fd5b50505050506040513d601f19601f82011682018060405250810190610e939190611846565b509094509250610eee6001600160a01b037f0000000000000000000000000000000000000000000000000000000000000000167f00000000000000000000000000000000000000000000000000000000000000006000611552565b83811115610f4657610f46610f0b6001546001600160a01b031690565b610f158684611797565b6001600160a01b037f00000000000000000000000000000000000000000000000000000000000000001691906113ec565b60006006547f0000000000000000000000000000000000000000000000000000000000000000610f769190611797565b90508015610fff57604051632770a7eb60e21b8152306004820152602481018290527f00000000000000000000000000000000000000000000000000000000000000006001600160a01b031690639dc29fac90604401600060405180830381600087803b158015610fe657600080fd5b505af1158015610ffa573d6000803e3d6000fd5b505050505b7f00000000000000000000000000000000000000000000000000000000000000001561108b5761108b61103a6001546001600160a01b031690565b6001600160a01b037f000000000000000000000000000000000000000000000000000000000000000016907f00000000000000000000000000000000000000000000000000000000000000006113ec565b4760006127106110bb7f0000000000000000000000000000000000000000000000000000000000000000846117f7565b6110c59190611824565b90506000811180156110ff57507f00000000000000000000000000000000000000000000000000000000000000006001600160a01b031615155b1561113b5761112e7f000000000000000000000000000000000000000000000000000000000000000082611352565b6111388183611797565b91505b811561115c5761115c6111566001546001600160a01b031690565b83611352565b60408051888152602081018890529081018290526060810183905233907fd286a958d004cd376acc3762fff407f0dd9bf991995fc81a26ff88081f2b7d1b9060800160405180910390a250505050506111b56001600055565b9250929050565b60048054610a1b906117bd565b60058054610a1b906117bd565b60038054610a1b906117bd565b6111eb61141d565b6001600160a01b03811661121557604051631e4fbdf760e01b8152600060048201526024016106e4565b61121e8161144a565b50565b600080611257837f0000000000000000000000000000000000000000000000000000000000000000670de0b6b3a764000061149c565b905082800260006112a67f000000000000000000000000000000000000000000000000000000000000000083670de0b6b3a76400006112978160026117f7565b6112a191906117f7565b61149c565b90506112b281846117aa565b95945050505050565b6002600054036112de57604051633ee5aeb560e01b815260040160405180910390fd5b6002600055565b6040516001600160a01b03848116602483015283811660448301526064820183905261134c9186918216906323b872dd906084015b604051602081830303815290604052915060e01b6020820180516001600160e01b0383818316178352505050506115de565b50505050565b6000826001600160a01b03168260405160006040518083038185875af1925050503d806000811461139f576040519150601f19603f3d011682016040523d82523d6000602084013e6113a4565b606091505b50509050806113e75760405162461bcd60e51b815260206004820152600f60248201526e1d1c985b9cd9995c8819985a5b1959608a1b60448201526064016106e4565b505050565b6040516001600160a01b038381166024830152604482018390526113e791859182169063a9059cbb9060640161131a565b6001546001600160a01b03163314610aae5760405163118cdaa760e01b81523360048201526024016106e4565b600180546001600160a01b038381166001600160a01b0319831681179093556040519116919082907f8be0079c531659141344cd1fd0a4f28419497f9722a3daafe3b4186f6b6457e090600090a35050565b60008060006114ab868661164f565b91509150816000036114d0578381816114c6576114c661180e565b049250505061154b565b8184116114e7576114e7600385150260111861166d565b6000848688096000868103871696879004966002600389028118808a02820302808a02820302808a02820302808a02820302808a02820302808a02909103029181900381900460010185841190960395909502919093039390930492909217029150505b9392505050565b604080516001600160a01b038416602482015260448082018490528251808303909101815260649091019091526020810180516001600160e01b031663095ea7b360e01b1790526115a3848261167f565b61134c576040516001600160a01b038481166024830152600060448301526115d891869182169063095ea7b39060640161131a565b61134c84825b600080602060008451602086016000885af180611601576040513d6000823e3d81fd5b50506000513d91508115611619578060011415611626565b6001600160a01b0384163b155b1561134c57604051635274afe760e01b81526001600160a01b03851660048201526024016106e4565b60008060001983850993909202808410938190039390930393915050565b634e487b71600052806020526024601cfd5b6000806000806020600086516020880160008a5af192503d915060005190508280156116c4575081156116b557806001146116c4565b6000866001600160a01b03163b115b9695505050505050565b6000602082840312156116e057600080fd5b5035919050565b600080604083850312156116fa57600080fd5b50508035926020909101359150565b60006020808352835180602085015260005b818110156117375785810183015185820160400152820161171b565b506000604082860101526040601f19601f8301168501019250505092915050565b60006020828403121561176a57600080fd5b81356001600160a01b038116811461154b57600080fd5b634e487b7160e01b600052601160045260246000fd5b8181038181111561075957610759611781565b8082018082111561075957610759611781565b600181811c908216806117d157607f821691505b6020821081036117f157634e487b7160e01b600052602260045260246000fd5b50919050565b808202811582820484141761075957610759611781565b634e487b7160e01b600052601260045260246000fd5b60008261184157634e487b7160e01b600052601260045260246000fd5b500490565b60008060006060848603121561185b57600080fd5b835192506020840151915060408401519050925092509256fea26469706673582212204a000ca0bba4bcf88df1e10d5c49ab01b3e59c20e29aa1bb0f52a8437b02097764736f6c6343000818003360a06040523480156200001157600080fd5b5060405162000e7738038062000e77833981016040819052620000349162000242565b808484600362000045838262000368565b50600462000054828262000368565b5050506001600160a01b0381166200008757604051631e4fbdf760e01b8152600060048201526024015b60405180910390fd5b620000928162000128565b5060008211620000d35760405162461bcd60e51b815260206004820152600b60248201526a636170206973207a65726f60a81b60448201526064016200007e565b6001600160a01b0381166200011b5760405162461bcd60e51b815260206004820152600d60248201526c6f776e6572206973207a65726f60981b60448201526064016200007e565b5060805250620004349050565b600580546001600160a01b038381166001600160a01b0319831681179093556040519116919082907f8be0079c531659141344cd1fd0a4f28419497f9722a3daafe3b4186f6b6457e090600090a35050565b634e487b7160e01b600052604160045260246000fd5b600082601f830112620001a257600080fd5b81516001600160401b0380821115620001bf57620001bf6200017a565b604051601f8301601f19908116603f01168101908282118183101715620001ea57620001ea6200017a565b81604052838152602092508660208588010111156200020857600080fd5b600091505b838210156200022c57858201830151818301840152908201906200020d565b6000602085830101528094505050505092915050565b600080600080608085870312156200025957600080fd5b84516001600160401b03808211156200027157600080fd5b6200027f8883890162000190565b955060208701519150808211156200029657600080fd5b50620002a58782880162000190565b60408701516060880151919550935090506001600160a01b0381168114620002cc57600080fd5b939692955090935050565b600181811c90821680620002ec57607f821691505b6020821081036200030d57634e487b7160e01b600052602260045260246000fd5b50919050565b601f82111562000363576000816000526020600020601f850160051c810160208610156200033e5750805b601f850160051c820191505b818110156200035f578281556001016200034a565b5050505b505050565b81516001600160401b038111156200038457620003846200017a565b6200039c81620003958454620002d7565b8462000313565b602080601f831160018114620003d45760008415620003bb5750858301515b600019600386901b1c1916600185901b1785556200035f565b600085815260208120601f198616915b828110156200040557888601518255948401946001909101908401620003e4565b5085821015620004245787850151600019600388901b60f8161c191681555b5050505050600190811b01905550565b608051610a20620004576000396000818161017401526103900152610a206000f3fe608060405234801561001057600080fd5b50600436106100f55760003560e01c806370a08231116100975780639dc29fac116100665780639dc29fac146101ff578063a9059cbb14610212578063dd62ed3e14610225578063f2fde38b1461025e57600080fd5b806370a08231146101ab578063715018a6146101d45780638da5cb5b146101dc57806395d89b41146101f757600080fd5b806323b872dd116100d357806323b872dd1461014d578063313ce56714610160578063355274ea1461016f57806340c10f191461019657600080fd5b806306fdde03146100fa578063095ea7b31461011857806318160ddd1461013b575b600080fd5b610102610271565b60405161010f9190610869565b60405180910390f35b61012b6101263660046108d4565b610303565b604051901515815260200161010f565b6002545b60405190815260200161010f565b61012b61015b3660046108fe565b61031d565b6040516012815260200161010f565b61013f7f000000000000000000000000000000000000000000000000000000000000000081565b6101a96101a43660046108d4565b610341565b005b61013f6101b936600461093a565b6001600160a01b031660009081526020819052604090205490565b6101a961040e565b6005546040516001600160a01b03909116815260200161010f565b610102610422565b6101a961020d3660046108d4565b610431565b61012b6102203660046108d4565b610443565b61013f61023336600461095c565b6001600160a01b03918216600090815260016020908152604080832093909416825291909152205490565b6101a961026c36600461093a565b610451565b6060600380546102809061098f565b80601f01602080910402602001604051908101604052809291908181526020018280546102ac9061098f565b80156102f95780601f106102ce576101008083540402835291602001916102f9565b820191906000526020600020905b8154815290600101906020018083116102dc57829003601f168201915b5050505050905090565b60003361031181858561048f565b60019150505b92915050565b60003361032b8582856104a1565b610336858585610520565b506001949350505050565b61034961057f565b6001600160a01b03821661038e5760405162461bcd60e51b8152602060048201526007602482015266746f207a65726f60c81b60448201526064015b60405180910390fd5b7f0000000000000000000000000000000000000000000000000000000000000000816103b960025490565b6103c391906109c9565b11156104005760405162461bcd60e51b815260206004820152600c60248201526b18d85c08195e18d95959195960a21b6044820152606401610385565b61040a82826105ac565b5050565b61041661057f565b61042060006105e2565b565b6060600480546102809061098f565b61043961057f565b61040a8282610634565b600033610311818585610520565b61045961057f565b6001600160a01b03811661048357604051631e4fbdf760e01b815260006004820152602401610385565b61048c816105e2565b50565b61049c838383600161066a565b505050565b6001600160a01b0383811660009081526001602090815260408083209386168352929052205460001981101561051a578181101561050b57604051637dc7a0d960e11b81526001600160a01b03841660048201526024810182905260448101839052606401610385565b61051a8484848403600061066a565b50505050565b6001600160a01b03831661054a57604051634b637e8f60e11b815260006004820152602401610385565b6001600160a01b0382166105745760405163ec442f0560e01b815260006004820152602401610385565b61049c83838361073f565b6005546001600160a01b031633146104205760405163118cdaa760e01b8152336004820152602401610385565b6001600160a01b0382166105d65760405163ec442f0560e01b815260006004820152602401610385565b61040a6000838361073f565b600580546001600160a01b038381166001600160a01b0319831681179093556040519116919082907f8be0079c531659141344cd1fd0a4f28419497f9722a3daafe3b4186f6b6457e090600090a35050565b6001600160a01b03821661065e57604051634b637e8f60e11b815260006004820152602401610385565b61040a8260008361073f565b6001600160a01b0384166106945760405163e602df0560e01b815260006004820152602401610385565b6001600160a01b0383166106be57604051634a1406b160e11b815260006004820152602401610385565b6001600160a01b038085166000908152600160209081526040808320938716835292905220829055801561051a57826001600160a01b0316846001600160a01b03167f8c5be1e5ebec7d5bd14f71427d1e84f3dd0314c0f7b2291e5b200ac8c7c3b9258460405161073191815260200190565b60405180910390a350505050565b6001600160a01b03831661076a57806002600082825461075f91906109c9565b909155506107dc9050565b6001600160a01b038316600090815260208190526040902054818110156107bd5760405163391434e360e21b81526001600160a01b03851660048201526024810182905260448101839052606401610385565b6001600160a01b03841660009081526020819052604090209082900390555b6001600160a01b0382166107f857600280548290039055610817565b6001600160a01b03821660009081526020819052604090208054820190555b816001600160a01b0316836001600160a01b03167fddf252ad1be2c89b69c2b068fc378daa952ba7f163c4a11628f55a4df523b3ef8360405161085c91815260200190565b60405180910390a3505050565b60006020808352835180602085015260005b818110156108975785810183015185820160400152820161087b565b506000604082860101526040601f19601f8301168501019250505092915050565b80356001600160a01b03811681146108cf57600080fd5b919050565b600080604083850312156108e757600080fd5b6108f0836108b8565b946020939093013593505050565b60008060006060848603121561091357600080fd5b61091c846108b8565b925061092a602085016108b8565b9150604084013590509250925092565b60006020828403121561094c57600080fd5b610955826108b8565b9392505050565b6000806040838503121561096f57600080fd5b610978836108b8565b9150610986602084016108b8565b90509250929050565b600181811c908216806109a357607f821691505b6020821081036109c357634e487b7160e01b600052602260045260246000fd5b50919050565b8082018082111561031757634e487b7160e01b600052601160045260246000fdfea26469706673582212205a82e6b6af7454e016e80cce03bf337e4928af6238b14be6e485ac65466a6d2564736f6c63430008180033",
  "linkReferences": {},
  "deployedLinkReferences": {}
}